{
	"PerpetualPool_flat.sol": {
		"HEXToken": {
			"abi": [
				{
					"inputs": [
						{
							"internalType": "address",
							"name": "spender",
							"type": "address"
						},
						{
							"internalType": "uint256",
							"name": "amount",
							"type": "uint256"
						}
					],
					"name": "approve",
					"outputs": [
						{
							"internalType": "bool",
							"name": "",
							"type": "bool"
						}
					],
					"stateMutability": "nonpayable",
					"type": "function"
				},
				{
					"inputs": [],
					"name": "currentDay",
					"outputs": [
						{
							"internalType": "uint256",
							"name": "",
							"type": "uint256"
						}
					],
					"stateMutability": "view",
					"type": "function"
				},
				{
					"inputs": [
						{
							"internalType": "address",
							"name": "stakerAddr",
							"type": "address"
						}
					],
					"name": "stakeCount",
					"outputs": [
						{
							"internalType": "uint256",
							"name": "",
							"type": "uint256"
						}
					],
					"stateMutability": "view",
					"type": "function"
				},
				{
					"inputs": [
						{
							"internalType": "uint256",
							"name": "stakeIndex",
							"type": "uint256"
						},
						{
							"internalType": "uint40",
							"name": "stakeIdParam",
							"type": "uint40"
						}
					],
					"name": "stakeEnd",
					"outputs": [],
					"stateMutability": "nonpayable",
					"type": "function"
				},
				{
					"inputs": [
						{
							"internalType": "uint256",
							"name": "newStakedHearts",
							"type": "uint256"
						},
						{
							"internalType": "uint256",
							"name": "newStakedDays",
							"type": "uint256"
						}
					],
					"name": "stakeStart",
					"outputs": [],
					"stateMutability": "nonpayable",
					"type": "function"
				},
				{
					"inputs": [
						{
							"internalType": "address",
							"name": "recipient",
							"type": "address"
						},
						{
							"internalType": "uint256",
							"name": "amount",
							"type": "uint256"
						}
					],
					"name": "transfer",
					"outputs": [
						{
							"internalType": "bool",
							"name": "",
							"type": "bool"
						}
					],
					"stateMutability": "nonpayable",
					"type": "function"
				}
			],
			"devdoc": {
				"kind": "dev",
				"methods": {},
				"version": 1
			},
			"evm": {
				"assembly": "    /* \"PerpetualPool_flat.sol\":39269:39737  contract HEXToken {... */\n  mstore(0x40, 0x80)\n  callvalue\n  dup1\n  iszero\n  tag_1\n  jumpi\n  0x00\n  dup1\n  revert\ntag_1:\n  pop\n  dataSize(sub_0)\n  dup1\n  dataOffset(sub_0)\n  0x00\n  codecopy\n  0x00\n  return\nstop\n\nsub_0: assembly {\n        /* \"PerpetualPool_flat.sol\":39269:39737  contract HEXToken {... */\n      mstore(0x40, 0x80)\n      callvalue\n      dup1\n      iszero\n      tag_1\n      jumpi\n      0x00\n      dup1\n      revert\n    tag_1:\n      pop\n      jumpi(tag_2, lt(calldatasize, 0x04))\n      shr(0xe0, calldataload(0x00))\n      dup1\n      0x095ea7b3\n      eq\n      tag_3\n      jumpi\n      dup1\n      0x33060d90\n      eq\n      tag_4\n      jumpi\n      dup1\n      0x343009a2\n      eq\n      tag_5\n      jumpi\n      dup1\n      0x52a438b8\n      eq\n      tag_6\n      jumpi\n      dup1\n      0x5c9302c9\n      eq\n      tag_7\n      jumpi\n      dup1\n      0xa9059cbb\n      eq\n      tag_3\n      jumpi\n    tag_2:\n      0x00\n      dup1\n      revert\n        /* \"PerpetualPool_flat.sol\":39431:39507  function approve(address spender, uint256 amount) external returns (bool) {} */\n    tag_3:\n      tag_9\n      tag_10\n      calldatasize\n      0x04\n      tag_11\n      jump\t// in\n    tag_10:\n        /* \"PerpetualPool_flat.sol\":39499:39503  bool */\n      0x00\n        /* \"PerpetualPool_flat.sol\":39431:39507  function approve(address spender, uint256 amount) external returns (bool) {} */\n      swap3\n      swap2\n      pop\n      pop\n      jump\n    tag_9:\n      mload(0x40)\n        /* \"#utility.yul\":616:630   */\n      swap1\n      iszero\n        /* \"#utility.yul\":609:631   */\n      iszero\n        /* \"#utility.yul\":591:632   */\n      dup2\n      mstore\n        /* \"#utility.yul\":579:581   */\n      0x20\n        /* \"#utility.yul\":564:582   */\n      add\n        /* \"PerpetualPool_flat.sol\":39431:39507  function approve(address spender, uint256 amount) external returns (bool) {} */\n    tag_13:\n      mload(0x40)\n      dup1\n      swap2\n      sub\n      swap1\n      return\n        /* \"PerpetualPool_flat.sol\":39661:39735  function stakeCount(address stakerAddr) external view returns (uint256) {} */\n    tag_4:\n      tag_15\n      tag_16\n      calldatasize\n      0x04\n      tag_17\n      jump\t// in\n    tag_16:\n      pop\n        /* \"PerpetualPool_flat.sol\":39724:39731  uint256 */\n      0x00\n      swap1\n        /* \"PerpetualPool_flat.sol\":39661:39735  function stakeCount(address stakerAddr) external view returns (uint256) {} */\n      jump\n    tag_15:\n      mload(0x40)\n        /* \"#utility.yul\":980:1005   */\n      swap1\n      dup2\n      mstore\n        /* \"#utility.yul\":968:970   */\n      0x20\n        /* \"#utility.yul\":953:971   */\n      add\n        /* \"PerpetualPool_flat.sol\":39661:39735  function stakeCount(address stakerAddr) external view returns (uint256) {} */\n      tag_13\n        /* \"#utility.yul\":834:1011   */\n      jump\n        /* \"PerpetualPool_flat.sol\":39590:39658  function stakeEnd(uint256 stakeIndex, uint40 stakeIdParam) public {} */\n    tag_5:\n      tag_21\n      tag_22\n      calldatasize\n      0x04\n      tag_23\n      jump\t// in\n    tag_22:\n      pop\n      pop\n      jump\n    tag_21:\n      stop\n        /* \"PerpetualPool_flat.sol\":39349:39428  function stakeStart(uint256 newStakedHearts, uint256 newStakedDays) external {} */\n    tag_6:\n      tag_21\n      tag_22\n      calldatasize\n      0x04\n      tag_27\n      jump\t// in\n        /* \"PerpetualPool_flat.sol\":39291:39346  function currentDay() external view returns (uint256){} */\n    tag_7:\n        /* \"PerpetualPool_flat.sol\":39336:39343  uint256 */\n      0x00\n        /* \"PerpetualPool_flat.sol\":39291:39346  function currentDay() external view returns (uint256){} */\n      jump(tag_15)\n        /* \"#utility.yul\":14:187   */\n    tag_42:\n        /* \"#utility.yul\":82:102   */\n      dup1\n      calldataload\n      sub(shl(0xa0, 0x01), 0x01)\n        /* \"#utility.yul\":131:162   */\n      dup2\n      and\n        /* \"#utility.yul\":121:163   */\n      dup2\n      eq\n        /* \"#utility.yul\":111:181   */\n      tag_45\n      jumpi\n        /* \"#utility.yul\":177:178   */\n      0x00\n        /* \"#utility.yul\":174:175   */\n      dup1\n        /* \"#utility.yul\":167:179   */\n      revert\n        /* \"#utility.yul\":111:181   */\n    tag_45:\n        /* \"#utility.yul\":14:187   */\n      swap2\n      swap1\n      pop\n      jump\t// out\n        /* \"#utility.yul\":192:446   */\n    tag_11:\n        /* \"#utility.yul\":260:266   */\n      0x00\n        /* \"#utility.yul\":268:274   */\n      dup1\n        /* \"#utility.yul\":321:323   */\n      0x40\n        /* \"#utility.yul\":309:318   */\n      dup4\n        /* \"#utility.yul\":300:307   */\n      dup6\n        /* \"#utility.yul\":296:319   */\n      sub\n        /* \"#utility.yul\":292:324   */\n      slt\n        /* \"#utility.yul\":289:341   */\n      iszero\n      tag_47\n      jumpi\n        /* \"#utility.yul\":337:338   */\n      0x00\n        /* \"#utility.yul\":334:335   */\n      dup1\n        /* \"#utility.yul\":327:339   */\n      revert\n        /* \"#utility.yul\":289:341   */\n    tag_47:\n        /* \"#utility.yul\":360:389   */\n      tag_48\n        /* \"#utility.yul\":379:388   */\n      dup4\n        /* \"#utility.yul\":360:389   */\n      tag_42\n      jump\t// in\n    tag_48:\n        /* \"#utility.yul\":350:389   */\n      swap5\n        /* \"#utility.yul\":436:438   */\n      0x20\n        /* \"#utility.yul\":421:439   */\n      swap4\n      swap1\n      swap4\n      add\n        /* \"#utility.yul\":408:440   */\n      calldataload\n      swap4\n      pop\n      pop\n      pop\n        /* \"#utility.yul\":192:446   */\n      jump\t// out\n        /* \"#utility.yul\":643:829   */\n    tag_17:\n        /* \"#utility.yul\":702:708   */\n      0x00\n        /* \"#utility.yul\":755:757   */\n      0x20\n        /* \"#utility.yul\":743:752   */\n      dup3\n        /* \"#utility.yul\":734:741   */\n      dup5\n        /* \"#utility.yul\":730:753   */\n      sub\n        /* \"#utility.yul\":726:758   */\n      slt\n        /* \"#utility.yul\":723:775   */\n      iszero\n      tag_51\n      jumpi\n        /* \"#utility.yul\":771:772   */\n      0x00\n        /* \"#utility.yul\":768:769   */\n      dup1\n        /* \"#utility.yul\":761:773   */\n      revert\n        /* \"#utility.yul\":723:775   */\n    tag_51:\n        /* \"#utility.yul\":794:823   */\n      tag_52\n        /* \"#utility.yul\":813:822   */\n      dup3\n        /* \"#utility.yul\":794:823   */\n      tag_42\n      jump\t// in\n    tag_52:\n        /* \"#utility.yul\":784:823   */\n      swap4\n        /* \"#utility.yul\":643:829   */\n      swap3\n      pop\n      pop\n      pop\n      jump\t// out\n        /* \"#utility.yul\":1016:1362   */\n    tag_23:\n        /* \"#utility.yul\":1083:1089   */\n      0x00\n        /* \"#utility.yul\":1091:1097   */\n      dup1\n        /* \"#utility.yul\":1144:1146   */\n      0x40\n        /* \"#utility.yul\":1132:1141   */\n      dup4\n        /* \"#utility.yul\":1123:1130   */\n      dup6\n        /* \"#utility.yul\":1119:1142   */\n      sub\n        /* \"#utility.yul\":1115:1147   */\n      slt\n        /* \"#utility.yul\":1112:1164   */\n      iszero\n      tag_55\n      jumpi\n        /* \"#utility.yul\":1160:1161   */\n      0x00\n        /* \"#utility.yul\":1157:1158   */\n      dup1\n        /* \"#utility.yul\":1150:1162   */\n      revert\n        /* \"#utility.yul\":1112:1164   */\n    tag_55:\n        /* \"#utility.yul\":1196:1205   */\n      dup3\n        /* \"#utility.yul\":1183:1206   */\n      calldataload\n        /* \"#utility.yul\":1173:1206   */\n      swap2\n      pop\n        /* \"#utility.yul\":1256:1258   */\n      0x20\n        /* \"#utility.yul\":1245:1254   */\n      dup4\n        /* \"#utility.yul\":1241:1259   */\n      add\n        /* \"#utility.yul\":1228:1260   */\n      calldataload\n        /* \"#utility.yul\":1300:1312   */\n      0xffffffffff\n        /* \"#utility.yul\":1293:1298   */\n      dup2\n        /* \"#utility.yul\":1289:1313   */\n      and\n        /* \"#utility.yul\":1282:1287   */\n      dup2\n        /* \"#utility.yul\":1279:1314   */\n      eq\n        /* \"#utility.yul\":1269:1332   */\n      tag_56\n      jumpi\n        /* \"#utility.yul\":1328:1329   */\n      0x00\n        /* \"#utility.yul\":1325:1326   */\n      dup1\n        /* \"#utility.yul\":1318:1330   */\n      revert\n        /* \"#utility.yul\":1269:1332   */\n    tag_56:\n        /* \"#utility.yul\":1351:1356   */\n      dup1\n        /* \"#utility.yul\":1341:1356   */\n      swap2\n      pop\n      pop\n        /* \"#utility.yul\":1016:1362   */\n      swap3\n      pop\n      swap3\n      swap1\n      pop\n      jump\t// out\n        /* \"#utility.yul\":1367:1615   */\n    tag_27:\n        /* \"#utility.yul\":1435:1441   */\n      0x00\n        /* \"#utility.yul\":1443:1449   */\n      dup1\n        /* \"#utility.yul\":1496:1498   */\n      0x40\n        /* \"#utility.yul\":1484:1493   */\n      dup4\n        /* \"#utility.yul\":1475:1482   */\n      dup6\n        /* \"#utility.yul\":1471:1494   */\n      sub\n        /* \"#utility.yul\":1467:1499   */\n      slt\n        /* \"#utility.yul\":1464:1516   */\n      iszero\n      tag_58\n      jumpi\n        /* \"#utility.yul\":1512:1513   */\n      0x00\n        /* \"#utility.yul\":1509:1510   */\n      dup1\n        /* \"#utility.yul\":1502:1514   */\n      revert\n        /* \"#utility.yul\":1464:1516   */\n    tag_58:\n      pop\n      pop\n        /* \"#utility.yul\":1535:1558   */\n      dup1\n      calldataload\n      swap3\n        /* \"#utility.yul\":1605:1607   */\n      0x20\n        /* \"#utility.yul\":1590:1608   */\n      swap1\n      swap2\n      add\n        /* \"#utility.yul\":1577:1609   */\n      calldataload\n      swap2\n      pop\n        /* \"#utility.yul\":1367:1615   */\n      jump\t// out\n\n    auxdata: 0xa2646970667358221220078ee0cea82800509b0be0d045f62330344874e6d1b5e4a712e46af86dbbaa6064736f6c63430008100033\n}\n",
				"bytecode": {
					"linkReferences": {},
					"object": "608060405234801561001057600080fd5b506101d7806100206000396000f3fe608060405234801561001057600080fd5b50600436106100625760003560e01c8063095ea7b31461006757806333060d9014610092578063343009a2146100b457806352a438b8146100c85780635c9302c9146100d6578063a9059cbb14610067575b600080fd5b61007d6100753660046100f9565b600092915050565b60405190151581526020015b60405180910390f35b6100a66100a0366004610123565b50600090565b604051908152602001610089565b6100c66100c2366004610145565b5050565b005b6100c66100c236600461017f565b60006100a6565b80356001600160a01b03811681146100f457600080fd5b919050565b6000806040838503121561010c57600080fd5b610115836100dd565b946020939093013593505050565b60006020828403121561013557600080fd5b61013e826100dd565b9392505050565b6000806040838503121561015857600080fd5b82359150602083013564ffffffffff8116811461017457600080fd5b809150509250929050565b6000806040838503121561019257600080fd5b5050803592602090910135915056fea2646970667358221220078ee0cea82800509b0be0d045f62330344874e6d1b5e4a712e46af86dbbaa6064736f6c63430008100033",
					"opcodes": "PUSH1 0x80 PUSH1 0x40 MSTORE CALLVALUE DUP1 ISZERO PUSH2 0x10 JUMPI PUSH1 0x0 DUP1 REVERT JUMPDEST POP PUSH2 0x1D7 DUP1 PUSH2 0x20 PUSH1 0x0 CODECOPY PUSH1 0x0 RETURN INVALID PUSH1 0x80 PUSH1 0x40 MSTORE CALLVALUE DUP1 ISZERO PUSH2 0x10 JUMPI PUSH1 0x0 DUP1 REVERT JUMPDEST POP PUSH1 0x4 CALLDATASIZE LT PUSH2 0x62 JUMPI PUSH1 0x0 CALLDATALOAD PUSH1 0xE0 SHR DUP1 PUSH4 0x95EA7B3 EQ PUSH2 0x67 JUMPI DUP1 PUSH4 0x33060D90 EQ PUSH2 0x92 JUMPI DUP1 PUSH4 0x343009A2 EQ PUSH2 0xB4 JUMPI DUP1 PUSH4 0x52A438B8 EQ PUSH2 0xC8 JUMPI DUP1 PUSH4 0x5C9302C9 EQ PUSH2 0xD6 JUMPI DUP1 PUSH4 0xA9059CBB EQ PUSH2 0x67 JUMPI JUMPDEST PUSH1 0x0 DUP1 REVERT JUMPDEST PUSH2 0x7D PUSH2 0x75 CALLDATASIZE PUSH1 0x4 PUSH2 0xF9 JUMP JUMPDEST PUSH1 0x0 SWAP3 SWAP2 POP POP JUMP JUMPDEST PUSH1 0x40 MLOAD SWAP1 ISZERO ISZERO DUP2 MSTORE PUSH1 0x20 ADD JUMPDEST PUSH1 0x40 MLOAD DUP1 SWAP2 SUB SWAP1 RETURN JUMPDEST PUSH2 0xA6 PUSH2 0xA0 CALLDATASIZE PUSH1 0x4 PUSH2 0x123 JUMP JUMPDEST POP PUSH1 0x0 SWAP1 JUMP JUMPDEST PUSH1 0x40 MLOAD SWAP1 DUP2 MSTORE PUSH1 0x20 ADD PUSH2 0x89 JUMP JUMPDEST PUSH2 0xC6 PUSH2 0xC2 CALLDATASIZE PUSH1 0x4 PUSH2 0x145 JUMP JUMPDEST POP POP JUMP JUMPDEST STOP JUMPDEST PUSH2 0xC6 PUSH2 0xC2 CALLDATASIZE PUSH1 0x4 PUSH2 0x17F JUMP JUMPDEST PUSH1 0x0 PUSH2 0xA6 JUMP JUMPDEST DUP1 CALLDATALOAD PUSH1 0x1 PUSH1 0x1 PUSH1 0xA0 SHL SUB DUP2 AND DUP2 EQ PUSH2 0xF4 JUMPI PUSH1 0x0 DUP1 REVERT JUMPDEST SWAP2 SWAP1 POP JUMP JUMPDEST PUSH1 0x0 DUP1 PUSH1 0x40 DUP4 DUP6 SUB SLT ISZERO PUSH2 0x10C JUMPI PUSH1 0x0 DUP1 REVERT JUMPDEST PUSH2 0x115 DUP4 PUSH2 0xDD JUMP JUMPDEST SWAP5 PUSH1 0x20 SWAP4 SWAP1 SWAP4 ADD CALLDATALOAD SWAP4 POP POP POP JUMP JUMPDEST PUSH1 0x0 PUSH1 0x20 DUP3 DUP5 SUB SLT ISZERO PUSH2 0x135 JUMPI PUSH1 0x0 DUP1 REVERT JUMPDEST PUSH2 0x13E DUP3 PUSH2 0xDD JUMP JUMPDEST SWAP4 SWAP3 POP POP POP JUMP JUMPDEST PUSH1 0x0 DUP1 PUSH1 0x40 DUP4 DUP6 SUB SLT ISZERO PUSH2 0x158 JUMPI PUSH1 0x0 DUP1 REVERT JUMPDEST DUP3 CALLDATALOAD SWAP2 POP PUSH1 0x20 DUP4 ADD CALLDATALOAD PUSH5 0xFFFFFFFFFF DUP2 AND DUP2 EQ PUSH2 0x174 JUMPI PUSH1 0x0 DUP1 REVERT JUMPDEST DUP1 SWAP2 POP POP SWAP3 POP SWAP3 SWAP1 POP JUMP JUMPDEST PUSH1 0x0 DUP1 PUSH1 0x40 DUP4 DUP6 SUB SLT ISZERO PUSH2 0x192 JUMPI PUSH1 0x0 DUP1 REVERT JUMPDEST POP POP DUP1 CALLDATALOAD SWAP3 PUSH1 0x20 SWAP1 SWAP2 ADD CALLDATALOAD SWAP2 POP JUMP INVALID LOG2 PUSH5 0x6970667358 0x22 SLT KECCAK256 SMOD DUP15 0xE0 0xCE 0xA8 0x28 STOP POP SWAP12 SIGNEXTEND 0xE0 0xD0 GASLIMIT 0xF6 0x23 ADDRESS CALLVALUE BASEFEE PUSH21 0xE6D1B5E4A712E46AF86DBBAA6064736F6C63430008 LT STOP CALLER "
				},
				"gasEstimates": {
					"creation": {
						"codeDepositCost": "94200",
						"executionCost": "141",
						"totalCost": "94341"
					},
					"external": {
						"approve(address,uint256)": "354",
						"currentDay()": "258",
						"stakeCount(address)": "355",
						"stakeEnd(uint256,uint40)": "300",
						"stakeStart(uint256,uint256)": "280",
						"transfer(address,uint256)": "464"
					}
				},
				"methodIdentifiers": {
					"approve(address,uint256)": "095ea7b3",
					"currentDay()": "5c9302c9",
					"stakeCount(address)": "33060d90",
					"stakeEnd(uint256,uint40)": "343009a2",
					"stakeStart(uint256,uint256)": "52a438b8",
					"transfer(address,uint256)": "a9059cbb"
				}
			},
			"storageLayout": {
				"storage": [],
				"types": null
			},
			"userdoc": {
				"kind": "user",
				"methods": {},
				"version": 1
			}
		}
	}
}