{
	"PerpetualPool_flat.sol": {
		"PerpetualPool": {
			"abi": [
				{
					"inputs": [
						{
							"internalType": "uint256",
							"name": "initial_mint_duration",
							"type": "uint256"
						},
						{
							"internalType": "uint256",
							"name": "stake_duration",
							"type": "uint256"
						},
						{
							"internalType": "uint256",
							"name": "reload_duration",
							"type": "uint256"
						},
						{
							"internalType": "address",
							"name": "team_address",
							"type": "address"
						},
						{
							"internalType": "string",
							"name": "name",
							"type": "string"
						},
						{
							"internalType": "string",
							"name": "ticker",
							"type": "string"
						}
					],
					"stateMutability": "nonpayable",
					"type": "constructor"
				},
				{
					"anonymous": false,
					"inputs": [
						{
							"indexed": true,
							"internalType": "address",
							"name": "owner",
							"type": "address"
						},
						{
							"indexed": true,
							"internalType": "address",
							"name": "spender",
							"type": "address"
						},
						{
							"indexed": false,
							"internalType": "uint256",
							"name": "value",
							"type": "uint256"
						}
					],
					"name": "Approval",
					"type": "event"
				},
				{
					"anonymous": false,
					"inputs": [
						{
							"indexed": true,
							"internalType": "address",
							"name": "from",
							"type": "address"
						},
						{
							"indexed": true,
							"internalType": "address",
							"name": "to",
							"type": "address"
						},
						{
							"indexed": false,
							"internalType": "uint256",
							"name": "value",
							"type": "uint256"
						}
					],
					"name": "Transfer",
					"type": "event"
				},
				{
					"inputs": [],
					"name": "CURRENT_PERIOD",
					"outputs": [
						{
							"internalType": "uint256",
							"name": "",
							"type": "uint256"
						}
					],
					"stateMutability": "view",
					"type": "function"
				},
				{
					"inputs": [],
					"name": "CURRENT_STAKE_PRINCIPAL",
					"outputs": [
						{
							"internalType": "uint256",
							"name": "",
							"type": "uint256"
						}
					],
					"stateMutability": "view",
					"type": "function"
				},
				{
					"inputs": [],
					"name": "END_STAKER",
					"outputs": [
						{
							"internalType": "address",
							"name": "",
							"type": "address"
						}
					],
					"stateMutability": "view",
					"type": "function"
				},
				{
					"inputs": [],
					"name": "HEX_REDEMPTION_RATE",
					"outputs": [
						{
							"internalType": "uint256",
							"name": "",
							"type": "uint256"
						}
					],
					"stateMutability": "view",
					"type": "function"
				},
				{
					"inputs": [],
					"name": "RELOAD_PHASE_DURATION",
					"outputs": [
						{
							"internalType": "uint256",
							"name": "",
							"type": "uint256"
						}
					],
					"stateMutability": "view",
					"type": "function"
				},
				{
					"inputs": [],
					"name": "RELOAD_PHASE_END",
					"outputs": [
						{
							"internalType": "uint256",
							"name": "",
							"type": "uint256"
						}
					],
					"stateMutability": "view",
					"type": "function"
				},
				{
					"inputs": [],
					"name": "RELOAD_PHASE_START",
					"outputs": [
						{
							"internalType": "uint256",
							"name": "",
							"type": "uint256"
						}
					],
					"stateMutability": "view",
					"type": "function"
				},
				{
					"inputs": [],
					"name": "STAKE_END_DAY",
					"outputs": [
						{
							"internalType": "uint256",
							"name": "",
							"type": "uint256"
						}
					],
					"stateMutability": "view",
					"type": "function"
				},
				{
					"inputs": [],
					"name": "STAKE_IS_ACTIVE",
					"outputs": [
						{
							"internalType": "bool",
							"name": "",
							"type": "bool"
						}
					],
					"stateMutability": "view",
					"type": "function"
				},
				{
					"inputs": [],
					"name": "STAKE_LENGTH",
					"outputs": [
						{
							"internalType": "uint256",
							"name": "",
							"type": "uint256"
						}
					],
					"stateMutability": "view",
					"type": "function"
				},
				{
					"inputs": [],
					"name": "STAKE_START_DAY",
					"outputs": [
						{
							"internalType": "uint256",
							"name": "",
							"type": "uint256"
						}
					],
					"stateMutability": "view",
					"type": "function"
				},
				{
					"inputs": [],
					"name": "TEAM_CONTRACT_ADDRESS",
					"outputs": [
						{
							"internalType": "address",
							"name": "",
							"type": "address"
						}
					],
					"stateMutability": "view",
					"type": "function"
				},
				{
					"inputs": [
						{
							"internalType": "address",
							"name": "owner",
							"type": "address"
						},
						{
							"internalType": "address",
							"name": "spender",
							"type": "address"
						}
					],
					"name": "allowance",
					"outputs": [
						{
							"internalType": "uint256",
							"name": "",
							"type": "uint256"
						}
					],
					"stateMutability": "view",
					"type": "function"
				},
				{
					"inputs": [
						{
							"internalType": "address",
							"name": "spender",
							"type": "address"
						},
						{
							"internalType": "uint256",
							"name": "amount",
							"type": "uint256"
						}
					],
					"name": "approve",
					"outputs": [
						{
							"internalType": "bool",
							"name": "",
							"type": "bool"
						}
					],
					"stateMutability": "nonpayable",
					"type": "function"
				},
				{
					"inputs": [
						{
							"internalType": "address",
							"name": "account",
							"type": "address"
						}
					],
					"name": "balanceOf",
					"outputs": [
						{
							"internalType": "uint256",
							"name": "",
							"type": "uint256"
						}
					],
					"stateMutability": "view",
					"type": "function"
				},
				{
					"inputs": [
						{
							"internalType": "uint256",
							"name": "amount",
							"type": "uint256"
						}
					],
					"name": "burn",
					"outputs": [],
					"stateMutability": "nonpayable",
					"type": "function"
				},
				{
					"inputs": [
						{
							"internalType": "address",
							"name": "account",
							"type": "address"
						},
						{
							"internalType": "uint256",
							"name": "amount",
							"type": "uint256"
						}
					],
					"name": "burnFrom",
					"outputs": [],
					"stateMutability": "nonpayable",
					"type": "function"
				},
				{
					"inputs": [],
					"name": "decimals",
					"outputs": [
						{
							"internalType": "uint8",
							"name": "",
							"type": "uint8"
						}
					],
					"stateMutability": "view",
					"type": "function"
				},
				{
					"inputs": [
						{
							"internalType": "address",
							"name": "spender",
							"type": "address"
						},
						{
							"internalType": "uint256",
							"name": "subtractedValue",
							"type": "uint256"
						}
					],
					"name": "decreaseAllowance",
					"outputs": [
						{
							"internalType": "bool",
							"name": "",
							"type": "bool"
						}
					],
					"stateMutability": "nonpayable",
					"type": "function"
				},
				{
					"inputs": [
						{
							"internalType": "uint256",
							"name": "stakeIndex",
							"type": "uint256"
						},
						{
							"internalType": "uint40",
							"name": "stakeIdParam",
							"type": "uint40"
						}
					],
					"name": "endStakeHEX",
					"outputs": [],
					"stateMutability": "nonpayable",
					"type": "function"
				},
				{
					"inputs": [],
					"name": "getCurrentPeriod",
					"outputs": [
						{
							"internalType": "uint256",
							"name": "",
							"type": "uint256"
						}
					],
					"stateMutability": "view",
					"type": "function"
				},
				{
					"inputs": [],
					"name": "getEndStaker",
					"outputs": [
						{
							"internalType": "address",
							"name": "end_staker_address",
							"type": "address"
						}
					],
					"stateMutability": "view",
					"type": "function"
				},
				{
					"inputs": [],
					"name": "getHexDay",
					"outputs": [
						{
							"internalType": "uint256",
							"name": "",
							"type": "uint256"
						}
					],
					"stateMutability": "view",
					"type": "function"
				},
				{
					"inputs": [
						{
							"internalType": "address",
							"name": "spender",
							"type": "address"
						},
						{
							"internalType": "uint256",
							"name": "addedValue",
							"type": "uint256"
						}
					],
					"name": "increaseAllowance",
					"outputs": [
						{
							"internalType": "bool",
							"name": "",
							"type": "bool"
						}
					],
					"stateMutability": "nonpayable",
					"type": "function"
				},
				{
					"inputs": [
						{
							"internalType": "uint256",
							"name": "stakeIndex",
							"type": "uint256"
						},
						{
							"internalType": "uint40",
							"name": "stakeId",
							"type": "uint40"
						}
					],
					"name": "mintHedron",
					"outputs": [],
					"stateMutability": "nonpayable",
					"type": "function"
				},
				{
					"inputs": [],
					"name": "name",
					"outputs": [
						{
							"internalType": "string",
							"name": "",
							"type": "string"
						}
					],
					"stateMutability": "view",
					"type": "function"
				},
				{
					"inputs": [
						{
							"internalType": "uint256",
							"name": "amount",
							"type": "uint256"
						}
					],
					"name": "pledgeHEX",
					"outputs": [],
					"stateMutability": "nonpayable",
					"type": "function"
				},
				{
					"inputs": [
						{
							"internalType": "uint256",
							"name": "amount",
							"type": "uint256"
						}
					],
					"name": "redeemHEX",
					"outputs": [],
					"stateMutability": "nonpayable",
					"type": "function"
				},
				{
					"inputs": [],
					"name": "stakeHEX",
					"outputs": [],
					"stateMutability": "nonpayable",
					"type": "function"
				},
				{
					"inputs": [],
					"name": "symbol",
					"outputs": [
						{
							"internalType": "string",
							"name": "",
							"type": "string"
						}
					],
					"stateMutability": "view",
					"type": "function"
				},
				{
					"inputs": [],
					"name": "totalSupply",
					"outputs": [
						{
							"internalType": "uint256",
							"name": "",
							"type": "uint256"
						}
					],
					"stateMutability": "view",
					"type": "function"
				},
				{
					"inputs": [
						{
							"internalType": "address",
							"name": "recipient",
							"type": "address"
						},
						{
							"internalType": "uint256",
							"name": "amount",
							"type": "uint256"
						}
					],
					"name": "transfer",
					"outputs": [
						{
							"internalType": "bool",
							"name": "",
							"type": "bool"
						}
					],
					"stateMutability": "nonpayable",
					"type": "function"
				},
				{
					"inputs": [
						{
							"internalType": "address",
							"name": "sender",
							"type": "address"
						},
						{
							"internalType": "address",
							"name": "recipient",
							"type": "address"
						},
						{
							"internalType": "uint256",
							"name": "amount",
							"type": "uint256"
						}
					],
					"name": "transferFrom",
					"outputs": [
						{
							"internalType": "bool",
							"name": "",
							"type": "bool"
						}
					],
					"stateMutability": "nonpayable",
					"type": "function"
				}
			],
			"devdoc": {
				"kind": "dev",
				"methods": {
					"allowance(address,address)": {
						"details": "See {IERC20-allowance}."
					},
					"approve(address,uint256)": {
						"details": "See {IERC20-approve}. Requirements: - `spender` cannot be the zero address."
					},
					"balanceOf(address)": {
						"details": "See {IERC20-balanceOf}."
					},
					"burn(uint256)": {
						"details": "Destroys `amount` tokens from the caller. See {ERC20-_burn}."
					},
					"burnFrom(address,uint256)": {
						"details": "Destroys `amount` tokens from `account`, deducting from the caller's allowance. See {ERC20-_burn} and {ERC20-allowance}. Requirements: - the caller must have allowance for ``accounts``'s tokens of at least `amount`."
					},
					"decimals()": {
						"details": "View number of decimal places the Pool Token is divisible to. Manually overwritten from default 18 to 8 to match that of HEX. 1 Pool Token = 10^8 mini"
					},
					"decreaseAllowance(address,uint256)": {
						"details": "Atomically decreases the allowance granted to `spender` by the caller. This is an alternative to {approve} that can be used as a mitigation for problems described in {IERC20-approve}. Emits an {Approval} event indicating the updated allowance. Requirements: - `spender` cannot be the zero address. - `spender` must have allowance for the caller of at least `subtractedValue`."
					},
					"endStakeHEX(uint256,uint40)": {
						"details": "Ensures that the stake is fully complete and that it has not already been ended. Then it ends the hex stake and updates the redemption rate.",
						"params": {
							"stakeIdParam": "stake identifier found in stakeLists[contract_address] in hex contract.",
							"stakeIndex": "index of stake found in stakeLists[contract_address] in hex contract."
						}
					},
					"getCurrentPeriod()": {
						"details": "Returns the current Period. Even numbers are Reload Phases, Odd numbers are staking phases.\"",
						"returns": {
							"_0": "Current Period"
						}
					},
					"getEndStaker()": {
						"details": "Returns the address of the person who ends stake. May be used by external gas pooling contracts. If stake has not been ended yet will return 0x000...000\"",
						"returns": {
							"end_staker_address": "This person should be honored and celebrated as a hero."
						}
					},
					"increaseAllowance(address,uint256)": {
						"details": "Atomically increases the allowance granted to `spender` by the caller. This is an alternative to {approve} that can be used as a mitigation for problems described in {IERC20-approve}. Emits an {Approval} event indicating the updated allowance. Requirements: - `spender` cannot be the zero address."
					},
					"mintHedron(uint256,uint40)": {
						"details": "Public function which calls the private function which is used for minting available HDRN accumulated by the contract stake. ",
						"params": {
							"stakeId": "stake identifier found in stakeLists[contract_address] in hex contract.",
							"stakeIndex": "index of stake found in stakeLists[contract_address] in hex contract."
						}
					},
					"name()": {
						"details": "Returns the name of the token."
					},
					"pledgeHEX(uint256)": {
						"details": "Ensures that Pool Token Minting Phase is ongoing and that the user has allowed the Perpetual Pool Contract address to spend the amount of HEX the user intends to pledge to The Perpetual Pool. Then sends the designated HEX from the user to the Perpetual Pool Contract address and mints 1 Pool Token per HEX pledged.",
						"params": {
							"amount": "of HEX user chose to pledge, measured in hearts"
						}
					},
					"redeemHEX(uint256)": {
						"details": "Ensures that it is currently a redemption period (before stake starts or after stake ends) and that the user has at least the number of Pool Tokens they entered. Then it calculates how much hex may be redeemed, burns the Pool Token, and transfers them the hex.",
						"params": {
							"amount": "number of Pool Tokens that the user is redeeming, measured in mini"
						}
					},
					"stakeHEX()": {
						"details": "Ensures that the stake has not started yet and that the minting phase is over. Then it stakes all the hex in the contract and schedules the STAKE_END_DAY."
					},
					"symbol()": {
						"details": "Returns the symbol of the token, usually a shorter version of the name."
					},
					"totalSupply()": {
						"details": "See {IERC20-totalSupply}."
					},
					"transfer(address,uint256)": {
						"details": "See {IERC20-transfer}. Requirements: - `recipient` cannot be the zero address. - the caller must have a balance of at least `amount`."
					},
					"transferFrom(address,address,uint256)": {
						"details": "See {IERC20-transferFrom}. Emits an {Approval} event indicating the updated allowance. This is not required by the EIP. See the note at the beginning of {ERC20}. Requirements: - `sender` and `recipient` cannot be the zero address. - `sender` must have a balance of at least `amount`. - the caller must have allowance for ``sender``'s tokens of at least `amount`."
					}
				},
				"version": 1
			},
			"evm": {
				"assembly": "    /* \"PerpetualPool_flat.sol\":46538:59111  contract PerpetualPool is ERC20, ERC20Burnable, ReentrancyGuard {... */\n  mstore(0x40, 0x80)\n    /* \"PerpetualPool_flat.sol\":48803:48838  address POOL_ADDRESS =address(this) */\n  0x11\n  dup1\n  sload\n  not(sub(shl(0xa0, 0x01), 0x01))\n  swap1\n  dup2\n  and\n    /* \"PerpetualPool_flat.sol\":48833:48837  this */\n  address\n    /* \"PerpetualPool_flat.sol\":48803:48838  address POOL_ADDRESS =address(this) */\n  or\n  swap1\n  swap2\n  sstore\n    /* \"PerpetualPool_flat.sol\":49046:49087  IERC20 hex_contract = IERC20(HEX_ADDRESS) */\n  0x12\n  dup1\n  sload\n  dup3\n  and\n    /* \"PerpetualPool_flat.sol\":48875:48917  0x2b591e99afE9f32eAA6214f7B7629768c40Eeb39 */\n  0x2b591e99afe9f32eaa6214f7b7629768c40eeb39\n    /* \"PerpetualPool_flat.sol\":49046:49087  IERC20 hex_contract = IERC20(HEX_ADDRESS) */\n  swap1\n  dup2\n  or\n  swap1\n  swap2\n  sstore\n    /* \"PerpetualPool_flat.sol\":49093:49138  IERC20 hedron_contract=IERC20(HEDRON_ADDRESS) */\n  0x13\n  dup1\n  sload\n  dup4\n  and\n    /* \"PerpetualPool_flat.sol\":48996:49038  0x3819f64f282bf135d62168C1e513280dAF905e06 */\n  0x3819f64f282bf135d62168c1e513280daf905e06\n    /* \"PerpetualPool_flat.sol\":49093:49138  IERC20 hedron_contract=IERC20(HEDRON_ADDRESS) */\n  swap1\n  dup2\n  or\n  swap1\n  swap2\n  sstore\n    /* \"PerpetualPool_flat.sol\":49144:49186  HEXToken hex_token = HEXToken(HEX_ADDRESS) */\n  0x14\n  dup1\n  sload\n  dup5\n  and\n  swap1\n  swap3\n  or\n  swap1\n  swap2\n  sstore\n    /* \"PerpetualPool_flat.sol\":49192:49246  HedronToken hedron_token = HedronToken(HEDRON_ADDRESS) */\n  0x15\n  dup1\n  sload\n  swap1\n  swap3\n  and\n  or\n  swap1\n  sstore\n    /* \"PerpetualPool_flat.sol\":47975:48793  constructor(uint256 initial_mint_duration, uint256 stake_duration, uint256 reload_duration,address team_address, string memory name, string memory ticker) ERC20(name, ticker) ReentrancyGuard() {... */\n  callvalue\n  dup1\n  iszero\n  tag_1\n  jumpi\n  0x00\n  dup1\n  revert\ntag_1:\n  pop\n  mload(0x40)\n  sub(codesize, bytecodeSize)\n  dup1\n  bytecodeSize\n  dup4\n  codecopy\n  dup2\n  add\n  0x40\n  dup2\n  swap1\n  mstore\n  tag_2\n  swap2\n  tag_3\n  jump\t// in\ntag_2:\n    /* \"PerpetualPool_flat.sol\":48136:48140  name */\n  dup2\n    /* \"PerpetualPool_flat.sol\":48142:48148  ticker */\n  dup2\n    /* \"PerpetualPool_flat.sol\":27653:27658  _name */\n  0x03\n    /* \"PerpetualPool_flat.sol\":27653:27666  _name = name_ */\n  tag_8\n    /* \"PerpetualPool_flat.sol\":48136:48140  name */\n  dup4\n    /* \"PerpetualPool_flat.sol\":27653:27658  _name */\n  dup3\n    /* \"PerpetualPool_flat.sol\":27653:27666  _name = name_ */\n  tag_9\n  jump\t// in\ntag_8:\n  pop\n    /* \"PerpetualPool_flat.sol\":27676:27683  _symbol */\n  0x04\n    /* \"PerpetualPool_flat.sol\":27676:27693  _symbol = symbol_ */\n  tag_10\n    /* \"PerpetualPool_flat.sol\":27686:27693  symbol_ */\n  dup3\n    /* \"PerpetualPool_flat.sol\":27676:27683  _symbol */\n  dup3\n    /* \"PerpetualPool_flat.sol\":27676:27693  _symbol = symbol_ */\n  tag_9\n  jump\t// in\ntag_10:\n  pop\n  pop\n    /* \"PerpetualPool_flat.sol\":1734:1735  1 */\n  0x01\n    /* \"PerpetualPool_flat.sol\":1839:1846  _status */\n  0x05\n    /* \"PerpetualPool_flat.sol\":1839:1861  _status = _NOT_ENTERED */\n  sstore\n  pop\n    /* \"PerpetualPool_flat.sol\":48178:48199  RELOAD_PHASE_DURATION */\n  0x06\n    /* \"PerpetualPool_flat.sol\":48178:48215  RELOAD_PHASE_DURATION=reload_duration */\n  dup5\n  swap1\n  sstore\n    /* \"PerpetualPool_flat.sol\":48243:48252  hex_token */\n  sload(0x14)\n    /* \"PerpetualPool_flat.sol\":48243:48265  hex_token.currentDay() */\n  0x40\n  dup1\n  mload\n  shl(0xe0, 0x5c9302c9)\n  dup2\n  mstore\n  swap1\n  mload\n  0x00\n  swap3\n  sub(shl(0xa0, 0x01), 0x01)\n    /* \"PerpetualPool_flat.sol\":48243:48252  hex_token */\n  and\n  swap2\n    /* \"PerpetualPool_flat.sol\":48243:48263  hex_token.currentDay */\n  0x5c9302c9\n  swap2\n    /* \"PerpetualPool_flat.sol\":48243:48265  hex_token.currentDay() */\n  0x04\n  dup1\n  dup4\n  add\n  swap3\n  0x20\n  swap3\n  swap2\n  swap1\n  dup3\n  swap1\n  sub\n  add\n  dup2\n    /* \"PerpetualPool_flat.sol\":48243:48252  hex_token */\n  dup7\n    /* \"PerpetualPool_flat.sol\":48243:48265  hex_token.currentDay() */\n  gas\n  staticcall\n  iszero\n  dup1\n  iszero\n  tag_14\n  jumpi\n  returndatasize\n  0x00\n  dup1\n  returndatacopy\n  revert(0x00, returndatasize)\ntag_14:\n  pop\n  pop\n  pop\n  pop\n  mload(0x40)\n  returndatasize\n  not(0x1f)\n  0x1f\n  dup3\n  add\n  and\n  dup3\n  add\n  dup1\n  0x40\n  mstore\n  pop\n  dup2\n  add\n  swap1\n  tag_15\n  swap2\n  swap1\n  tag_16\n  jump\t// in\ntag_15:\n    /* \"PerpetualPool_flat.sol\":48275:48293  RELOAD_PHASE_START */\n  0x07\n    /* \"PerpetualPool_flat.sol\":48275:48305  RELOAD_PHASE_START = start_day */\n  dup2\n  swap1\n  sstore\n    /* \"PerpetualPool_flat.sol\":48225:48265  uint256 start_day=hex_token.currentDay() */\n  swap1\n  pop\n    /* \"PerpetualPool_flat.sol\":48334:48365  start_day+initial_mint_duration */\n  tag_17\n    /* \"PerpetualPool_flat.sol\":48344:48365  initial_mint_duration */\n  dup8\n    /* \"PerpetualPool_flat.sol\":48225:48265  uint256 start_day=hex_token.currentDay() */\n  dup3\n    /* \"PerpetualPool_flat.sol\":48334:48365  start_day+initial_mint_duration */\n  tag_18\n  jump\t// in\ntag_17:\n    /* \"PerpetualPool_flat.sol\":48315:48331  RELOAD_PHASE_END */\n  0x08\n    /* \"PerpetualPool_flat.sol\":48315:48365  RELOAD_PHASE_END = start_day+initial_mint_duration */\n  sstore\n  pop\n  pop\n  pop\n    /* \"PerpetualPool_flat.sol\":48462:48474  STAKE_LENGTH */\n  0x0b\n    /* \"PerpetualPool_flat.sol\":48462:48489  STAKE_LENGTH=stake_duration */\n  swap3\n  swap1\n  swap3\n  sstore\n  pop\n    /* \"PerpetualPool_flat.sol\":48500:48515  STAKE_IS_ACTIVE */\n  0x0d\n    /* \"PerpetualPool_flat.sol\":48500:48521  STAKE_IS_ACTIVE=false */\n  dup1\n  sload\n  not(0xff)\n  and\n  swap1\n  sstore\n    /* \"PerpetualPool_flat.sol\":48531:48552  TEAM_CONTRACT_ADDRESS */\n  0x0e\n    /* \"PerpetualPool_flat.sol\":48531:48565  TEAM_CONTRACT_ADDRESS=team_address */\n  dup1\n  sload\n  not(sub(shl(0xa0, 0x01), 0x01))\n  and\n  sub(shl(0xa0, 0x01), 0x01)\n  swap1\n  swap3\n  and\n  swap2\n  swap1\n  swap2\n  or\n  swap1\n  sstore\n  pop\n    /* \"PerpetualPool_flat.sol\":48595:48604  100000000 */\n  0x05f5e100\n    /* \"PerpetualPool_flat.sol\":48575:48594  HEX_REDEMPTION_RATE */\n  0x0c\n    /* \"PerpetualPool_flat.sol\":48575:48604  HEX_REDEMPTION_RATE=100000000 */\n  sstore\n  0x00\n    /* \"PerpetualPool_flat.sol\":48735:48758  CURRENT_STAKE_PRINCIPAL */\n  0x0f\n    /* \"PerpetualPool_flat.sol\":48735:48760  CURRENT_STAKE_PRINCIPAL=0 */\n  dup2\n  swap1\n  sstore\n    /* \"PerpetualPool_flat.sol\":48770:48784  CURRENT_PERIOD */\n  0x10\n    /* \"PerpetualPool_flat.sol\":48770:48786  CURRENT_PERIOD=0 */\n  sstore\n    /* \"PerpetualPool_flat.sol\":46538:59111  contract PerpetualPool is ERC20, ERC20Burnable, ReentrancyGuard {... */\n  jump(tag_26)\n    /* \"#utility.yul\":14:141   */\ntag_20:\n    /* \"#utility.yul\":75:85   */\n  0x4e487b71\n    /* \"#utility.yul\":70:73   */\n  0xe0\n    /* \"#utility.yul\":66:86   */\n  shl\n    /* \"#utility.yul\":63:64   */\n  0x00\n    /* \"#utility.yul\":56:87   */\n  mstore\n    /* \"#utility.yul\":106:110   */\n  0x41\n    /* \"#utility.yul\":103:104   */\n  0x04\n    /* \"#utility.yul\":96:111   */\n  mstore\n    /* \"#utility.yul\":130:134   */\n  0x24\n    /* \"#utility.yul\":127:128   */\n  0x00\n    /* \"#utility.yul\":120:135   */\n  revert\n    /* \"#utility.yul\":146:986   */\ntag_21:\n    /* \"#utility.yul\":200:205   */\n  0x00\n    /* \"#utility.yul\":253:256   */\n  dup3\n    /* \"#utility.yul\":246:250   */\n  0x1f\n    /* \"#utility.yul\":238:244   */\n  dup4\n    /* \"#utility.yul\":234:251   */\n  add\n    /* \"#utility.yul\":230:257   */\n  slt\n    /* \"#utility.yul\":220:275   */\n  tag_29\n  jumpi\n    /* \"#utility.yul\":271:272   */\n  0x00\n    /* \"#utility.yul\":268:269   */\n  dup1\n    /* \"#utility.yul\":261:273   */\n  revert\n    /* \"#utility.yul\":220:275   */\ntag_29:\n    /* \"#utility.yul\":294:307   */\n  dup2\n  mload\n  sub(shl(0x40, 0x01), 0x01)\n    /* \"#utility.yul\":356:366   */\n  dup1\n  dup3\n  gt\n    /* \"#utility.yul\":353:389   */\n  iszero\n  tag_31\n  jumpi\n    /* \"#utility.yul\":369:387   */\n  tag_31\n  tag_20\n  jump\t// in\ntag_31:\n    /* \"#utility.yul\":444:446   */\n  0x40\n    /* \"#utility.yul\":438:447   */\n  mload\n    /* \"#utility.yul\":412:414   */\n  0x1f\n    /* \"#utility.yul\":498:511   */\n  dup4\n  add\n  not(0x1f)\n    /* \"#utility.yul\":494:516   */\n  swap1\n  dup2\n  and\n    /* \"#utility.yul\":518:520   */\n  0x3f\n    /* \"#utility.yul\":490:521   */\n  add\n    /* \"#utility.yul\":486:526   */\n  and\n    /* \"#utility.yul\":474:527   */\n  dup2\n  add\n  swap1\n    /* \"#utility.yul\":542:560   */\n  dup3\n  dup3\n  gt\n    /* \"#utility.yul\":562:584   */\n  dup2\n  dup4\n  lt\n    /* \"#utility.yul\":539:585   */\n  or\n    /* \"#utility.yul\":536:608   */\n  iszero\n  tag_33\n  jumpi\n    /* \"#utility.yul\":588:606   */\n  tag_33\n  tag_20\n  jump\t// in\ntag_33:\n    /* \"#utility.yul\":628:638   */\n  dup2\n    /* \"#utility.yul\":624:626   */\n  0x40\n    /* \"#utility.yul\":617:639   */\n  mstore\n    /* \"#utility.yul\":663:665   */\n  dup4\n    /* \"#utility.yul\":655:661   */\n  dup2\n    /* \"#utility.yul\":648:666   */\n  mstore\n    /* \"#utility.yul\":685:689   */\n  0x20\n    /* \"#utility.yul\":675:689   */\n  swap3\n  pop\n    /* \"#utility.yul\":730:733   */\n  dup7\n    /* \"#utility.yul\":725:727   */\n  dup4\n    /* \"#utility.yul\":720:722   */\n  dup6\n    /* \"#utility.yul\":712:718   */\n  dup9\n    /* \"#utility.yul\":708:723   */\n  add\n    /* \"#utility.yul\":704:728   */\n  add\n    /* \"#utility.yul\":701:734   */\n  gt\n    /* \"#utility.yul\":698:751   */\n  iszero\n  tag_34\n  jumpi\n    /* \"#utility.yul\":747:748   */\n  0x00\n    /* \"#utility.yul\":744:745   */\n  dup1\n    /* \"#utility.yul\":737:749   */\n  revert\n    /* \"#utility.yul\":698:751   */\ntag_34:\n    /* \"#utility.yul\":769:770   */\n  0x00\n    /* \"#utility.yul\":760:770   */\n  swap2\n  pop\n    /* \"#utility.yul\":779:912   */\ntag_35:\n    /* \"#utility.yul\":793:795   */\n  dup4\n    /* \"#utility.yul\":790:791   */\n  dup3\n    /* \"#utility.yul\":787:796   */\n  lt\n    /* \"#utility.yul\":779:912   */\n  iszero\n  tag_37\n  jumpi\n    /* \"#utility.yul\":881:895   */\n  dup6\n  dup3\n  add\n    /* \"#utility.yul\":877:900   */\n  dup4\n  add\n    /* \"#utility.yul\":871:901   */\n  mload\n    /* \"#utility.yul\":850:864   */\n  dup2\n  dup4\n  add\n    /* \"#utility.yul\":846:869   */\n  dup5\n  add\n    /* \"#utility.yul\":839:902   */\n  mstore\n    /* \"#utility.yul\":804:814   */\n  swap1\n  dup3\n  add\n  swap1\n    /* \"#utility.yul\":779:912   */\n  jump(tag_35)\ntag_37:\n    /* \"#utility.yul\":954:955   */\n  0x00\n    /* \"#utility.yul\":932:947   */\n  swap4\n  dup2\n  add\n    /* \"#utility.yul\":928:952   */\n  swap1\n  swap3\n  add\n    /* \"#utility.yul\":921:956   */\n  swap3\n  swap1\n  swap3\n  mstore\n    /* \"#utility.yul\":936:942   */\n  swap5\n    /* \"#utility.yul\":146:986   */\n  swap4\n  pop\n  pop\n  pop\n  pop\n  jump\t// out\n    /* \"#utility.yul\":991:1906   */\ntag_3:\n    /* \"#utility.yul\":1126:1132   */\n  0x00\n    /* \"#utility.yul\":1134:1140   */\n  dup1\n    /* \"#utility.yul\":1142:1148   */\n  0x00\n    /* \"#utility.yul\":1150:1156   */\n  dup1\n    /* \"#utility.yul\":1158:1164   */\n  0x00\n    /* \"#utility.yul\":1166:1172   */\n  dup1\n    /* \"#utility.yul\":1219:1222   */\n  0xc0\n    /* \"#utility.yul\":1207:1216   */\n  dup8\n    /* \"#utility.yul\":1198:1205   */\n  dup10\n    /* \"#utility.yul\":1194:1217   */\n  sub\n    /* \"#utility.yul\":1190:1223   */\n  slt\n    /* \"#utility.yul\":1187:1240   */\n  iszero\n  tag_39\n  jumpi\n    /* \"#utility.yul\":1236:1237   */\n  0x00\n    /* \"#utility.yul\":1233:1234   */\n  dup1\n    /* \"#utility.yul\":1226:1238   */\n  revert\n    /* \"#utility.yul\":1187:1240   */\ntag_39:\n    /* \"#utility.yul\":1259:1275   */\n  dup7\n  mload\n    /* \"#utility.yul\":1315:1317   */\n  0x20\n    /* \"#utility.yul\":1300:1318   */\n  dup9\n  add\n    /* \"#utility.yul\":1294:1319   */\n  mload\n    /* \"#utility.yul\":1359:1361   */\n  0x40\n    /* \"#utility.yul\":1344:1362   */\n  dup10\n  add\n    /* \"#utility.yul\":1338:1363   */\n  mload\n    /* \"#utility.yul\":1406:1408   */\n  0x60\n    /* \"#utility.yul\":1391:1409   */\n  dup11\n  add\n    /* \"#utility.yul\":1385:1410   */\n  mload\n    /* \"#utility.yul\":1259:1275   */\n  swap3\n  swap9\n  pop\n    /* \"#utility.yul\":1294:1319   */\n  swap1\n  swap7\n  pop\n    /* \"#utility.yul\":1338:1363   */\n  swap5\n  pop\n  sub(shl(0xa0, 0x01), 0x01)\n    /* \"#utility.yul\":1439:1470   */\n  dup2\n  and\n    /* \"#utility.yul\":1429:1471   */\n  dup2\n  eq\n    /* \"#utility.yul\":1419:1489   */\n  tag_40\n  jumpi\n    /* \"#utility.yul\":1485:1486   */\n  0x00\n    /* \"#utility.yul\":1482:1483   */\n  dup1\n    /* \"#utility.yul\":1475:1487   */\n  revert\n    /* \"#utility.yul\":1419:1489   */\ntag_40:\n    /* \"#utility.yul\":1557:1560   */\n  0x80\n    /* \"#utility.yul\":1542:1561   */\n  dup9\n  add\n    /* \"#utility.yul\":1536:1562   */\n  mload\n    /* \"#utility.yul\":1508:1513   */\n  swap1\n  swap4\n  pop\n  sub(shl(0x40, 0x01), 0x01)\n    /* \"#utility.yul\":1611:1625   */\n  dup1\n  dup3\n  gt\n    /* \"#utility.yul\":1608:1642   */\n  iszero\n  tag_41\n  jumpi\n    /* \"#utility.yul\":1638:1639   */\n  0x00\n    /* \"#utility.yul\":1635:1636   */\n  dup1\n    /* \"#utility.yul\":1628:1640   */\n  revert\n    /* \"#utility.yul\":1608:1642   */\ntag_41:\n    /* \"#utility.yul\":1661:1722   */\n  tag_42\n    /* \"#utility.yul\":1714:1721   */\n  dup11\n    /* \"#utility.yul\":1705:1711   */\n  dup4\n    /* \"#utility.yul\":1694:1703   */\n  dup12\n    /* \"#utility.yul\":1690:1712   */\n  add\n    /* \"#utility.yul\":1661:1722   */\n  tag_21\n  jump\t// in\ntag_42:\n    /* \"#utility.yul\":1651:1722   */\n  swap4\n  pop\n    /* \"#utility.yul\":1768:1771   */\n  0xa0\n    /* \"#utility.yul\":1757:1766   */\n  dup10\n    /* \"#utility.yul\":1753:1772   */\n  add\n    /* \"#utility.yul\":1747:1773   */\n  mload\n    /* \"#utility.yul\":1731:1773   */\n  swap2\n  pop\n    /* \"#utility.yul\":1798:1800   */\n  dup1\n    /* \"#utility.yul\":1788:1796   */\n  dup3\n    /* \"#utility.yul\":1785:1801   */\n  gt\n    /* \"#utility.yul\":1782:1818   */\n  iszero\n  tag_43\n  jumpi\n    /* \"#utility.yul\":1814:1815   */\n  0x00\n    /* \"#utility.yul\":1811:1812   */\n  dup1\n    /* \"#utility.yul\":1804:1816   */\n  revert\n    /* \"#utility.yul\":1782:1818   */\ntag_43:\n  pop\n    /* \"#utility.yul\":1837:1900   */\n  tag_44\n    /* \"#utility.yul\":1892:1899   */\n  dup10\n    /* \"#utility.yul\":1881:1889   */\n  dup3\n    /* \"#utility.yul\":1870:1879   */\n  dup11\n    /* \"#utility.yul\":1866:1890   */\n  add\n    /* \"#utility.yul\":1837:1900   */\n  tag_21\n  jump\t// in\ntag_44:\n    /* \"#utility.yul\":1827:1900   */\n  swap2\n  pop\n  pop\n    /* \"#utility.yul\":991:1906   */\n  swap3\n  swap6\n  pop\n  swap3\n  swap6\n  pop\n  swap3\n  swap6\n  jump\t// out\n    /* \"#utility.yul\":1911:2291   */\ntag_22:\n    /* \"#utility.yul\":1990:1991   */\n  0x01\n    /* \"#utility.yul\":1986:1998   */\n  dup2\n  dup2\n  shr\n  swap1\n    /* \"#utility.yul\":2033:2045   */\n  dup3\n  and\n  dup1\n    /* \"#utility.yul\":2054:2115   */\n  tag_46\n  jumpi\n    /* \"#utility.yul\":2108:2112   */\n  0x7f\n    /* \"#utility.yul\":2100:2106   */\n  dup3\n    /* \"#utility.yul\":2096:2113   */\n  and\n    /* \"#utility.yul\":2086:2113   */\n  swap2\n  pop\n    /* \"#utility.yul\":2054:2115   */\ntag_46:\n    /* \"#utility.yul\":2161:2163   */\n  0x20\n    /* \"#utility.yul\":2153:2159   */\n  dup3\n    /* \"#utility.yul\":2150:2164   */\n  lt\n    /* \"#utility.yul\":2130:2148   */\n  dup2\n    /* \"#utility.yul\":2127:2165   */\n  sub\n    /* \"#utility.yul\":2124:2285   */\n  tag_47\n  jumpi\n    /* \"#utility.yul\":2207:2217   */\n  0x4e487b71\n    /* \"#utility.yul\":2202:2205   */\n  0xe0\n    /* \"#utility.yul\":2198:2218   */\n  shl\n    /* \"#utility.yul\":2195:2196   */\n  0x00\n    /* \"#utility.yul\":2188:2219   */\n  mstore\n    /* \"#utility.yul\":2242:2246   */\n  0x22\n    /* \"#utility.yul\":2239:2240   */\n  0x04\n    /* \"#utility.yul\":2232:2247   */\n  mstore\n    /* \"#utility.yul\":2270:2274   */\n  0x24\n    /* \"#utility.yul\":2267:2268   */\n  0x00\n    /* \"#utility.yul\":2260:2275   */\n  revert\n    /* \"#utility.yul\":2124:2285   */\ntag_47:\n  pop\n    /* \"#utility.yul\":1911:2291   */\n  swap2\n  swap1\n  pop\n  jump\t// out\n    /* \"#utility.yul\":2422:2967   */\ntag_24:\n    /* \"#utility.yul\":2524:2526   */\n  0x1f\n    /* \"#utility.yul\":2519:2522   */\n  dup3\n    /* \"#utility.yul\":2516:2527   */\n  gt\n    /* \"#utility.yul\":2513:2961   */\n  iszero\n  tag_50\n  jumpi\n    /* \"#utility.yul\":2560:2561   */\n  0x00\n    /* \"#utility.yul\":2585:2590   */\n  dup2\n    /* \"#utility.yul\":2581:2583   */\n  dup2\n    /* \"#utility.yul\":2574:2591   */\n  mstore\n    /* \"#utility.yul\":2630:2634   */\n  0x20\n    /* \"#utility.yul\":2626:2628   */\n  dup2\n    /* \"#utility.yul\":2616:2635   */\n  keccak256\n    /* \"#utility.yul\":2700:2702   */\n  0x1f\n    /* \"#utility.yul\":2688:2698   */\n  dup6\n    /* \"#utility.yul\":2684:2703   */\n  add\n    /* \"#utility.yul\":2681:2682   */\n  0x05\n    /* \"#utility.yul\":2677:2704   */\n  shr\n    /* \"#utility.yul\":2671:2675   */\n  dup2\n    /* \"#utility.yul\":2667:2705   */\n  add\n    /* \"#utility.yul\":2736:2740   */\n  0x20\n    /* \"#utility.yul\":2724:2734   */\n  dup7\n    /* \"#utility.yul\":2721:2741   */\n  lt\n    /* \"#utility.yul\":2718:2765   */\n  iszero\n  tag_51\n  jumpi\n  pop\n    /* \"#utility.yul\":2759:2763   */\n  dup1\n    /* \"#utility.yul\":2718:2765   */\ntag_51:\n    /* \"#utility.yul\":2814:2816   */\n  0x1f\n    /* \"#utility.yul\":2809:2812   */\n  dup6\n    /* \"#utility.yul\":2805:2817   */\n  add\n    /* \"#utility.yul\":2802:2803   */\n  0x05\n    /* \"#utility.yul\":2798:2818   */\n  shr\n    /* \"#utility.yul\":2792:2796   */\n  dup3\n    /* \"#utility.yul\":2788:2819   */\n  add\n    /* \"#utility.yul\":2778:2819   */\n  swap2\n  pop\n    /* \"#utility.yul\":2869:2951   */\ntag_52:\n    /* \"#utility.yul\":2887:2889   */\n  dup2\n    /* \"#utility.yul\":2880:2885   */\n  dup2\n    /* \"#utility.yul\":2877:2890   */\n  lt\n    /* \"#utility.yul\":2869:2951   */\n  iszero\n  tag_54\n  jumpi\n    /* \"#utility.yul\":2932:2949   */\n  dup3\n  dup2\n  sstore\n    /* \"#utility.yul\":2913:2914   */\n  0x01\n    /* \"#utility.yul\":2902:2915   */\n  add\n    /* \"#utility.yul\":2869:2951   */\n  jump(tag_52)\ntag_54:\n    /* \"#utility.yul\":2873:2876   */\n  pop\n  pop\n  pop\n    /* \"#utility.yul\":2513:2961   */\ntag_50:\n    /* \"#utility.yul\":2422:2967   */\n  pop\n  pop\n  pop\n  jump\t// out\n    /* \"#utility.yul\":3143:4495   */\ntag_9:\n    /* \"#utility.yul\":3263:3273   */\n  dup2\n  mload\n  sub(shl(0x40, 0x01), 0x01)\n    /* \"#utility.yul\":3285:3315   */\n  dup2\n  gt\n    /* \"#utility.yul\":3282:3338   */\n  iszero\n  tag_58\n  jumpi\n    /* \"#utility.yul\":3318:3336   */\n  tag_58\n  tag_20\n  jump\t// in\ntag_58:\n    /* \"#utility.yul\":3347:3444   */\n  tag_59\n    /* \"#utility.yul\":3437:3443   */\n  dup2\n    /* \"#utility.yul\":3397:3435   */\n  tag_60\n    /* \"#utility.yul\":3429:3433   */\n  dup5\n    /* \"#utility.yul\":3423:3434   */\n  sload\n    /* \"#utility.yul\":3397:3435   */\n  tag_22\n  jump\t// in\ntag_60:\n    /* \"#utility.yul\":3391:3395   */\n  dup5\n    /* \"#utility.yul\":3347:3444   */\n  tag_24\n  jump\t// in\ntag_59:\n    /* \"#utility.yul\":3499:3503   */\n  0x20\n  dup1\n    /* \"#utility.yul\":3563:3565   */\n  0x1f\n    /* \"#utility.yul\":3552:3566   */\n  dup4\n  gt\n    /* \"#utility.yul\":3580:3581   */\n  0x01\n    /* \"#utility.yul\":3575:4238   */\n  dup2\n  eq\n  tag_62\n  jumpi\n    /* \"#utility.yul\":4282:4283   */\n  0x00\n    /* \"#utility.yul\":4299:4305   */\n  dup5\n    /* \"#utility.yul\":4296:4385   */\n  iszero\n  tag_63\n  jumpi\n  pop\n    /* \"#utility.yul\":4351:4370   */\n  dup6\n  dup4\n  add\n    /* \"#utility.yul\":4345:4371   */\n  mload\n    /* \"#utility.yul\":4296:4385   */\ntag_63:\n  not(0x00)\n    /* \"#utility.yul\":3100:3101   */\n  0x03\n    /* \"#utility.yul\":3096:3107   */\n  dup7\n  swap1\n  shl\n    /* \"#utility.yul\":3092:3116   */\n  shr\n    /* \"#utility.yul\":3088:3117   */\n  not\n    /* \"#utility.yul\":3078:3118   */\n  and\n    /* \"#utility.yul\":3124:3125   */\n  0x01\n    /* \"#utility.yul\":3120:3131   */\n  dup6\n  swap1\n  shl\n    /* \"#utility.yul\":3075:3132   */\n  or\n    /* \"#utility.yul\":4398:4479   */\n  dup6\n  sstore\n    /* \"#utility.yul\":3545:4489   */\n  jump(tag_54)\n    /* \"#utility.yul\":3575:4238   */\ntag_62:\n    /* \"#utility.yul\":2369:2370   */\n  0x00\n    /* \"#utility.yul\":2362:2376   */\n  dup6\n  dup2\n  mstore\n    /* \"#utility.yul\":2406:2410   */\n  0x20\n    /* \"#utility.yul\":2393:2411   */\n  dup2\n  keccak256\n  not(0x1f)\n    /* \"#utility.yul\":3611:3631   */\n  dup7\n  and\n  swap2\n    /* \"#utility.yul\":3729:3965   */\ntag_66:\n    /* \"#utility.yul\":3743:3750   */\n  dup3\n    /* \"#utility.yul\":3740:3741   */\n  dup2\n    /* \"#utility.yul\":3737:3751   */\n  lt\n    /* \"#utility.yul\":3729:3965   */\n  iszero\n  tag_68\n  jumpi\n    /* \"#utility.yul\":3832:3851   */\n  dup9\n  dup7\n  add\n    /* \"#utility.yul\":3826:3852   */\n  mload\n    /* \"#utility.yul\":3811:3853   */\n  dup3\n  sstore\n    /* \"#utility.yul\":3924:3951   */\n  swap5\n  dup5\n  add\n  swap5\n    /* \"#utility.yul\":3892:3893   */\n  0x01\n    /* \"#utility.yul\":3880:3894   */\n  swap1\n  swap2\n  add\n  swap1\n    /* \"#utility.yul\":3759:3778   */\n  dup5\n  add\n    /* \"#utility.yul\":3729:3965   */\n  jump(tag_66)\ntag_68:\n    /* \"#utility.yul\":3733:3736   */\n  pop\n    /* \"#utility.yul\":3993:3999   */\n  dup6\n    /* \"#utility.yul\":3984:3991   */\n  dup3\n    /* \"#utility.yul\":3981:4000   */\n  lt\n    /* \"#utility.yul\":3978:4179   */\n  iszero\n  tag_69\n  jumpi\n    /* \"#utility.yul\":4054:4073   */\n  dup8\n  dup6\n  add\n    /* \"#utility.yul\":4048:4074   */\n  mload\n  not(0x00)\n    /* \"#utility.yul\":4137:4138   */\n  0x03\n    /* \"#utility.yul\":4133:4147   */\n  dup9\n  swap1\n  shl\n    /* \"#utility.yul\":4149:4152   */\n  0xf8\n    /* \"#utility.yul\":4129:4153   */\n  and\n    /* \"#utility.yul\":4125:4162   */\n  shr\n    /* \"#utility.yul\":4121:4163   */\n  not\n    /* \"#utility.yul\":4106:4164   */\n  and\n    /* \"#utility.yul\":4091:4165   */\n  dup2\n  sstore\n    /* \"#utility.yul\":3978:4179   */\ntag_69:\n  pop\n  pop\n  pop\n  pop\n  pop\n    /* \"#utility.yul\":4225:4226   */\n  0x01\n    /* \"#utility.yul\":4209:4223   */\n  swap1\n  dup2\n  shl\n    /* \"#utility.yul\":4205:4227   */\n  add\n    /* \"#utility.yul\":4192:4228   */\n  swap1\n  sstore\n  pop\n    /* \"#utility.yul\":3143:4495   */\n  jump\t// out\n    /* \"#utility.yul\":4500:4684   */\ntag_16:\n    /* \"#utility.yul\":4570:4576   */\n  0x00\n    /* \"#utility.yul\":4623:4625   */\n  0x20\n    /* \"#utility.yul\":4611:4620   */\n  dup3\n    /* \"#utility.yul\":4602:4609   */\n  dup5\n    /* \"#utility.yul\":4598:4621   */\n  sub\n    /* \"#utility.yul\":4594:4626   */\n  slt\n    /* \"#utility.yul\":4591:4643   */\n  iszero\n  tag_71\n  jumpi\n    /* \"#utility.yul\":4639:4640   */\n  0x00\n    /* \"#utility.yul\":4636:4637   */\n  dup1\n    /* \"#utility.yul\":4629:4641   */\n  revert\n    /* \"#utility.yul\":4591:4643   */\ntag_71:\n  pop\n    /* \"#utility.yul\":4662:4678   */\n  mload\n  swap2\n    /* \"#utility.yul\":4500:4684   */\n  swap1\n  pop\n  jump\t// out\n    /* \"#utility.yul\":4689:4911   */\ntag_18:\n    /* \"#utility.yul\":4754:4763   */\n  dup1\n  dup3\n  add\n    /* \"#utility.yul\":4775:4785   */\n  dup1\n  dup3\n  gt\n    /* \"#utility.yul\":4772:4905   */\n  iszero\n  tag_73\n  jumpi\n    /* \"#utility.yul\":4827:4837   */\n  0x4e487b71\n    /* \"#utility.yul\":4822:4825   */\n  0xe0\n    /* \"#utility.yul\":4818:4838   */\n  shl\n    /* \"#utility.yul\":4815:4816   */\n  0x00\n    /* \"#utility.yul\":4808:4839   */\n  mstore\n    /* \"#utility.yul\":4862:4866   */\n  0x11\n    /* \"#utility.yul\":4859:4860   */\n  0x04\n    /* \"#utility.yul\":4852:4867   */\n  mstore\n    /* \"#utility.yul\":4890:4894   */\n  0x24\n    /* \"#utility.yul\":4887:4888   */\n  0x00\n    /* \"#utility.yul\":4880:4895   */\n  revert\n    /* \"#utility.yul\":4772:4905   */\ntag_73:\n    /* \"#utility.yul\":4689:4911   */\n  swap3\n  swap2\n  pop\n  pop\n  jump\t// out\ntag_26:\n    /* \"PerpetualPool_flat.sol\":46538:59111  contract PerpetualPool is ERC20, ERC20Burnable, ReentrancyGuard {... */\n  dataSize(sub_0)\n  dup1\n  dataOffset(sub_0)\n  0x00\n  codecopy\n  0x00\n  return\nstop\n\nsub_0: assembly {\n        /* \"PerpetualPool_flat.sol\":46538:59111  contract PerpetualPool is ERC20, ERC20Burnable, ReentrancyGuard {... */\n      mstore(0x40, 0x80)\n      callvalue\n      dup1\n      iszero\n      tag_1\n      jumpi\n      0x00\n      dup1\n      revert\n    tag_1:\n      pop\n      jumpi(tag_2, lt(calldatasize, 0x04))\n      shr(0xe0, calldataload(0x00))\n      dup1\n      0x6a63ef6e\n      gt\n      tag_36\n      jumpi\n      dup1\n      0xa9059cbb\n      gt\n      tag_37\n      jumpi\n      dup1\n      0xba777bcc\n      gt\n      tag_38\n      jumpi\n      dup1\n      0xba777bcc\n      eq\n      tag_31\n      jumpi\n      dup1\n      0xccaa408f\n      eq\n      tag_32\n      jumpi\n      dup1\n      0xdd62ed3e\n      eq\n      tag_33\n      jumpi\n      dup1\n      0xe7644fb9\n      eq\n      tag_34\n      jumpi\n      dup1\n      0xfecf706e\n      eq\n      tag_35\n      jumpi\n      0x00\n      dup1\n      revert\n    tag_38:\n      dup1\n      0xa9059cbb\n      eq\n      tag_27\n      jumpi\n      dup1\n      0xb2d2997a\n      eq\n      tag_28\n      jumpi\n      dup1\n      0xb4a2bc0e\n      eq\n      tag_29\n      jumpi\n      dup1\n      0xb7241ba5\n      eq\n      tag_30\n      jumpi\n      0x00\n      dup1\n      revert\n    tag_37:\n      dup1\n      0x8d2fe35d\n      gt\n      tag_39\n      jumpi\n      dup1\n      0x8d2fe35d\n      eq\n      tag_23\n      jumpi\n      dup1\n      0x8dff901b\n      eq\n      tag_24\n      jumpi\n      dup1\n      0x95d89b41\n      eq\n      tag_25\n      jumpi\n      dup1\n      0xa457c2d7\n      eq\n      tag_26\n      jumpi\n      0x00\n      dup1\n      revert\n    tag_39:\n      dup1\n      0x6a63ef6e\n      eq\n      tag_19\n      jumpi\n      dup1\n      0x70a08231\n      eq\n      tag_20\n      jumpi\n      dup1\n      0x79cc6790\n      eq\n      tag_21\n      jumpi\n      dup1\n      0x8412d89b\n      eq\n      tag_22\n      jumpi\n      0x00\n      dup1\n      revert\n    tag_36:\n      dup1\n      0x23b872dd\n      gt\n      tag_40\n      jumpi\n      dup1\n      0x42966c68\n      gt\n      tag_41\n      jumpi\n      dup1\n      0x42966c68\n      eq\n      tag_15\n      jumpi\n      dup1\n      0x4537523c\n      eq\n      tag_16\n      jumpi\n      dup1\n      0x4953a509\n      eq\n      tag_17\n      jumpi\n      dup1\n      0x4e67581e\n      eq\n      tag_18\n      jumpi\n      0x00\n      dup1\n      revert\n    tag_41:\n      dup1\n      0x23b872dd\n      eq\n      tag_11\n      jumpi\n      dup1\n      0x313ce567\n      eq\n      tag_12\n      jumpi\n      dup1\n      0x39509351\n      eq\n      tag_13\n      jumpi\n      dup1\n      0x3d720dda\n      eq\n      tag_14\n      jumpi\n      0x00\n      dup1\n      revert\n    tag_40:\n      dup1\n      0x18160ddd\n      gt\n      tag_42\n      jumpi\n      dup1\n      0x18160ddd\n      eq\n      tag_7\n      jumpi\n      dup1\n      0x18edf0dd\n      eq\n      tag_8\n      jumpi\n      dup1\n      0x1d92803d\n      eq\n      tag_9\n      jumpi\n      dup1\n      0x1fa0bb3d\n      eq\n      tag_10\n      jumpi\n      0x00\n      dup1\n      revert\n    tag_42:\n      dup1\n      0x06fdde03\n      eq\n      tag_3\n      jumpi\n      dup1\n      0x086146d2\n      eq\n      tag_4\n      jumpi\n      dup1\n      0x095ea7b3\n      eq\n      tag_5\n      jumpi\n      dup1\n      0x0a19d933\n      eq\n      tag_6\n      jumpi\n    tag_2:\n      0x00\n      dup1\n      revert\n        /* \"PerpetualPool_flat.sol\":27765:27863  function name() public view virtual override returns (string memory) {... */\n    tag_3:\n      tag_43\n      tag_44\n      jump\t// in\n    tag_43:\n      mload(0x40)\n      tag_45\n      swap2\n      swap1\n      tag_46\n      jump\t// in\n    tag_45:\n      mload(0x40)\n      dup1\n      swap2\n      sub\n      swap1\n      return\n        /* \"PerpetualPool_flat.sol\":49664:49761  function getCurrentPeriod() external view returns (uint256){... */\n    tag_4:\n        /* \"PerpetualPool_flat.sol\":49740:49754  CURRENT_PERIOD */\n      sload(0x10)\n        /* \"PerpetualPool_flat.sol\":49664:49761  function getCurrentPeriod() external view returns (uint256){... */\n    tag_47:\n      mload(0x40)\n        /* \"#utility.yul\":713:738   */\n      swap1\n      dup2\n      mstore\n        /* \"#utility.yul\":701:703   */\n      0x20\n        /* \"#utility.yul\":686:704   */\n      add\n        /* \"PerpetualPool_flat.sol\":49664:49761  function getCurrentPeriod() external view returns (uint256){... */\n      tag_45\n        /* \"#utility.yul\":567:744   */\n      jump\n        /* \"PerpetualPool_flat.sol\":29862:30028  function approve(address spender, uint256 amount) public virtual override returns (bool) {... */\n    tag_5:\n      tag_51\n      tag_52\n      calldatasize\n      0x04\n      tag_53\n      jump\t// in\n    tag_52:\n      tag_54\n      jump\t// in\n    tag_51:\n      mload(0x40)\n        /* \"#utility.yul\":1351:1365   */\n      swap1\n      iszero\n        /* \"#utility.yul\":1344:1366   */\n      iszero\n        /* \"#utility.yul\":1326:1367   */\n      dup2\n      mstore\n        /* \"#utility.yul\":1314:1316   */\n      0x20\n        /* \"#utility.yul\":1299:1317   */\n      add\n        /* \"PerpetualPool_flat.sol\":29862:30028  function approve(address spender, uint256 amount) public virtual override returns (bool) {... */\n      tag_45\n        /* \"#utility.yul\":1186:1373   */\n      jump\n        /* \"PerpetualPool_flat.sol\":50226:50321  function getEndStaker() external view returns (address end_staker_address) {return END_STAKER;} */\n    tag_6:\n        /* \"PerpetualPool_flat.sol\":50309:50319  END_STAKER */\n      sload(0x0d)\n      0x0100\n      swap1\n      div\n      sub(shl(0xa0, 0x01), 0x01)\n      and\n        /* \"PerpetualPool_flat.sol\":50226:50321  function getEndStaker() external view returns (address end_staker_address) {return END_STAKER;} */\n    tag_57:\n      mload(0x40)\n      sub(shl(0xa0, 0x01), 0x01)\n        /* \"#utility.yul\":1542:1574   */\n      swap1\n      swap2\n      and\n        /* \"#utility.yul\":1524:1575   */\n      dup2\n      mstore\n        /* \"#utility.yul\":1512:1514   */\n      0x20\n        /* \"#utility.yul\":1497:1515   */\n      add\n        /* \"PerpetualPool_flat.sol\":50226:50321  function getEndStaker() external view returns (address end_staker_address) {return END_STAKER;} */\n      tag_45\n        /* \"#utility.yul\":1378:1581   */\n      jump\n        /* \"PerpetualPool_flat.sol\":28853:28959  function totalSupply() public view virtual override returns (uint256) {... */\n    tag_7:\n        /* \"PerpetualPool_flat.sol\":28940:28952  _totalSupply */\n      sload(0x02)\n        /* \"PerpetualPool_flat.sol\":28853:28959  function totalSupply() public view virtual override returns (uint256) {... */\n      jump(tag_47)\n        /* \"PerpetualPool_flat.sol\":49825:49950  function getHexDay() external view returns (uint256){... */\n    tag_8:\n      tag_47\n      tag_65\n      jump\t// in\n        /* \"PerpetualPool_flat.sol\":46877:46908  uint256 public RELOAD_PHASE_END */\n    tag_9:\n      tag_47\n      sload(0x08)\n      dup2\n      jump\n        /* \"PerpetualPool_flat.sol\":47866:47895  uint256 public CURRENT_PERIOD */\n    tag_10:\n      tag_47\n      sload(0x10)\n      dup2\n      jump\n        /* \"PerpetualPool_flat.sol\":30495:30973  function transferFrom(... */\n    tag_11:\n      tag_51\n      tag_74\n      calldatasize\n      0x04\n      tag_75\n      jump\t// in\n    tag_74:\n      tag_76\n      jump\t// in\n        /* \"PerpetualPool_flat.sol\":49434:49510  function decimals() public view virtual override returns (uint8) {return 8;} */\n    tag_12:\n      mload(0x40)\n        /* \"PerpetualPool_flat.sol\":49507:49508  8 */\n      0x08\n        /* \"#utility.yul\":2061:2097   */\n      dup2\n      mstore\n        /* \"#utility.yul\":2049:2051   */\n      0x20\n        /* \"#utility.yul\":2034:2052   */\n      add\n        /* \"PerpetualPool_flat.sol\":49434:49510  function decimals() public view virtual override returns (uint8) {return 8;} */\n      tag_45\n        /* \"#utility.yul\":1919:2103   */\n      jump\n        /* \"PerpetualPool_flat.sol\":31368:31580  function increaseAllowance(address spender, uint256 addedValue) public virtual returns (bool) {... */\n    tag_13:\n      tag_51\n      tag_83\n      calldatasize\n      0x04\n      tag_53\n      jump\t// in\n    tag_83:\n      tag_84\n      jump\t// in\n        /* \"PerpetualPool_flat.sol\":47101:47129  uint256 public STAKE_END_DAY */\n    tag_14:\n      tag_47\n      sload(0x0a)\n      dup2\n      jump\n        /* \"PerpetualPool_flat.sol\":37978:38067  function burn(uint256 amount) public virtual {... */\n    tag_15:\n      tag_89\n      tag_90\n      calldatasize\n      0x04\n      tag_91\n      jump\t// in\n    tag_90:\n      tag_92\n      jump\t// in\n    tag_89:\n      stop\n        /* \"PerpetualPool_flat.sol\":50986:51577  function pledgeHEX(uint256 amount) nonReentrant external {... */\n    tag_16:\n      tag_89\n      tag_94\n      calldatasize\n      0x04\n      tag_91\n      jump\t// in\n    tag_94:\n      tag_95\n      jump\t// in\n        /* \"PerpetualPool_flat.sol\":54571:55677  function endStakeHEX(uint256 stakeIndex,uint40 stakeIdParam ) nonReentrant external {... */\n    tag_17:\n      tag_89\n      tag_97\n      calldatasize\n      0x04\n      tag_98\n      jump\t// in\n    tag_97:\n      tag_99\n      jump\t// in\n        /* \"PerpetualPool_flat.sol\":46677:46713  uint256 public RELOAD_PHASE_DURATION */\n    tag_18:\n      tag_47\n      sload(0x06)\n      dup2\n      jump\n        /* \"PerpetualPool_flat.sol\":47263:47297  uint256 public HEX_REDEMPTION_RATE */\n    tag_19:\n      tag_47\n      sload(0x0c)\n      dup2\n      jump\n        /* \"PerpetualPool_flat.sol\":29017:29142  function balanceOf(address account) public view virtual override returns (uint256) {... */\n    tag_20:\n      tag_47\n      tag_107\n      calldatasize\n      0x04\n      tag_108\n      jump\t// in\n    tag_107:\n      sub(shl(0xa0, 0x01), 0x01)\n        /* \"PerpetualPool_flat.sol\":29117:29135  _balances[account] */\n      and\n        /* \"PerpetualPool_flat.sol\":29091:29098  uint256 */\n      0x00\n        /* \"PerpetualPool_flat.sol\":29117:29135  _balances[account] */\n      swap1\n      dup2\n      mstore\n      0x20\n      dup2\n      swap1\n      mstore\n      0x40\n      swap1\n      keccak256\n      sload\n      swap1\n        /* \"PerpetualPool_flat.sol\":29017:29142  function balanceOf(address account) public view virtual override returns (uint256) {... */\n      jump\n        /* \"PerpetualPool_flat.sol\":38373:38734  function burnFrom(address account, uint256 amount) public virtual {... */\n    tag_21:\n      tag_89\n      tag_112\n      calldatasize\n      0x04\n      tag_53\n      jump\t// in\n    tag_112:\n      tag_113\n      jump\t// in\n        /* \"PerpetualPool_flat.sol\":58558:58675  function mintHedron(uint256 stakeIndex,uint40 stakeId ) external  {... */\n    tag_22:\n      tag_89\n      tag_115\n      calldatasize\n      0x04\n      tag_98\n      jump\t// in\n    tag_115:\n      tag_116\n      jump\t// in\n        /* \"PerpetualPool_flat.sol\":47680:47716  address public TEAM_CONTRACT_ADDRESS */\n    tag_23:\n      sload(0x0e)\n      tag_57\n      swap1\n      sub(shl(0xa0, 0x01), 0x01)\n      and\n      dup2\n      jump\n        /* \"PerpetualPool_flat.sol\":47604:47629  address public END_STAKER */\n    tag_24:\n      sload(0x0d)\n      tag_57\n      swap1\n      0x0100\n      swap1\n      div\n      sub(shl(0xa0, 0x01), 0x01)\n      and\n      dup2\n      jump\n        /* \"PerpetualPool_flat.sol\":27976:28078  function symbol() public view virtual override returns (string memory) {... */\n    tag_25:\n      tag_43\n      tag_124\n      jump\t// in\n        /* \"PerpetualPool_flat.sol\":32067:32472  function decreaseAllowance(address spender, uint256 subtractedValue) public virtual returns (bool) {... */\n    tag_26:\n      tag_51\n      tag_127\n      calldatasize\n      0x04\n      tag_53\n      jump\t// in\n    tag_127:\n      tag_128\n      jump\t// in\n        /* \"PerpetualPool_flat.sol\":29345:29517  function transfer(address recipient, uint256 amount) public virtual override returns (bool) {... */\n    tag_27:\n      tag_51\n      tag_131\n      calldatasize\n      0x04\n      tag_53\n      jump\t// in\n    tag_131:\n      tag_132\n      jump\t// in\n        /* \"PerpetualPool_flat.sol\":46759:46792  uint256 public RELOAD_PHASE_START */\n    tag_28:\n      tag_47\n      sload(0x07)\n      dup2\n      jump\n        /* \"PerpetualPool_flat.sol\":47207:47234  uint256 public STAKE_LENGTH */\n    tag_29:\n      tag_47\n      sload(0x0b)\n      dup2\n      jump\n        /* \"PerpetualPool_flat.sol\":47447:47474  bool public STAKE_IS_ACTIVE */\n    tag_30:\n      sload(0x0d)\n      tag_51\n      swap1\n      0xff\n      and\n      dup2\n      jump\n        /* \"PerpetualPool_flat.sol\":53140:53712  function stakeHEX() nonReentrant external {... */\n    tag_31:\n      tag_89\n      tag_144\n      jump\t// in\n        /* \"PerpetualPool_flat.sol\":47722:47760  uint256 public CURRENT_STAKE_PRINCIPAL */\n    tag_32:\n      tag_47\n      sload(0x0f)\n      dup2\n      jump\n        /* \"PerpetualPool_flat.sol\":29575:29724  function allowance(address owner, address spender) public view virtual override returns (uint256) {... */\n    tag_33:\n      tag_47\n      tag_149\n      calldatasize\n      0x04\n      tag_150\n      jump\t// in\n    tag_149:\n      sub(shl(0xa0, 0x01), 0x01)\n        /* \"PerpetualPool_flat.sol\":29690:29708  _allowances[owner] */\n      swap2\n      dup3\n      and\n        /* \"PerpetualPool_flat.sol\":29664:29671  uint256 */\n      0x00\n        /* \"PerpetualPool_flat.sol\":29690:29708  _allowances[owner] */\n      swap1\n      dup2\n      mstore\n        /* \"PerpetualPool_flat.sol\":29690:29701  _allowances */\n      0x01\n        /* \"PerpetualPool_flat.sol\":29690:29708  _allowances[owner] */\n      0x20\n      swap1\n      dup2\n      mstore\n      0x40\n      dup1\n      dup4\n      keccak256\n        /* \"PerpetualPool_flat.sol\":29690:29717  _allowances[owner][spender] */\n      swap4\n      swap1\n      swap5\n      and\n      dup3\n      mstore\n      swap2\n      swap1\n      swap2\n      mstore\n      keccak256\n      sload\n      swap1\n        /* \"PerpetualPool_flat.sol\":29575:29724  function allowance(address owner, address spender) public view virtual override returns (uint256) {... */\n      jump\n        /* \"PerpetualPool_flat.sol\":51960:52528  function redeemHEX(uint256 amount) nonReentrant external {... */\n    tag_34:\n      tag_89\n      tag_154\n      calldatasize\n      0x04\n      tag_91\n      jump\t// in\n    tag_154:\n      tag_155\n      jump\t// in\n        /* \"PerpetualPool_flat.sol\":46991:47021  uint256 public STAKE_START_DAY */\n    tag_35:\n      tag_47\n      sload(0x09)\n      dup2\n      jump\n        /* \"PerpetualPool_flat.sol\":27765:27863  function name() public view virtual override returns (string memory) {... */\n    tag_44:\n        /* \"PerpetualPool_flat.sol\":27819:27832  string memory */\n      0x60\n        /* \"PerpetualPool_flat.sol\":27851:27856  _name */\n      0x03\n        /* \"PerpetualPool_flat.sol\":27844:27856  return _name */\n      dup1\n      sload\n      tag_160\n      swap1\n      tag_161\n      jump\t// in\n    tag_160:\n      dup1\n      0x1f\n      add\n      0x20\n      dup1\n      swap2\n      div\n      mul\n      0x20\n      add\n      mload(0x40)\n      swap1\n      dup2\n      add\n      0x40\n      mstore\n      dup1\n      swap3\n      swap2\n      swap1\n      dup2\n      dup2\n      mstore\n      0x20\n      add\n      dup3\n      dup1\n      sload\n      tag_162\n      swap1\n      tag_161\n      jump\t// in\n    tag_162:\n      dup1\n      iszero\n      tag_163\n      jumpi\n      dup1\n      0x1f\n      lt\n      tag_164\n      jumpi\n      0x0100\n      dup1\n      dup4\n      sload\n      div\n      mul\n      dup4\n      mstore\n      swap2\n      0x20\n      add\n      swap2\n      jump(tag_163)\n    tag_164:\n      dup3\n      add\n      swap2\n      swap1\n      0x00\n      mstore\n      keccak256(0x00, 0x20)\n      swap1\n    tag_165:\n      dup2\n      sload\n      dup2\n      mstore\n      swap1\n      0x01\n      add\n      swap1\n      0x20\n      add\n      dup1\n      dup4\n      gt\n      tag_165\n      jumpi\n      dup3\n      swap1\n      sub\n      0x1f\n      and\n      dup3\n      add\n      swap2\n    tag_163:\n      pop\n      pop\n      pop\n      pop\n      pop\n      swap1\n      pop\n        /* \"PerpetualPool_flat.sol\":27765:27863  function name() public view virtual override returns (string memory) {... */\n      swap1\n      jump\t// out\n        /* \"PerpetualPool_flat.sol\":29862:30028  function approve(address spender, uint256 amount) public virtual override returns (bool) {... */\n    tag_54:\n        /* \"PerpetualPool_flat.sol\":29945:29949  bool */\n      0x00\n        /* \"PerpetualPool_flat.sol\":29961:30000  _approve(_msgSender(), spender, amount) */\n      tag_168\n        /* \"PerpetualPool_flat.sol\":18162:18172  msg.sender */\n      caller\n        /* \"PerpetualPool_flat.sol\":29984:29991  spender */\n      dup5\n        /* \"PerpetualPool_flat.sol\":29993:29999  amount */\n      dup5\n        /* \"PerpetualPool_flat.sol\":29961:29969  _approve */\n      tag_171\n        /* \"PerpetualPool_flat.sol\":29961:30000  _approve(_msgSender(), spender, amount) */\n      jump\t// in\n    tag_168:\n      pop\n        /* \"PerpetualPool_flat.sol\":30017:30021  true */\n      0x01\n        /* \"PerpetualPool_flat.sol\":29862:30028  function approve(address spender, uint256 amount) public virtual override returns (bool) {... */\n    tag_167:\n      swap3\n      swap2\n      pop\n      pop\n      jump\t// out\n        /* \"PerpetualPool_flat.sol\":49825:49950  function getHexDay() external view returns (uint256){... */\n    tag_65:\n        /* \"PerpetualPool_flat.sol\":49869:49876  uint256 */\n      0x00\n        /* \"PerpetualPool_flat.sol\":49887:49898  uint256 day */\n      dup1\n        /* \"PerpetualPool_flat.sol\":49901:49910  hex_token */\n      0x14\n      0x00\n      swap1\n      sload\n      swap1\n      0x0100\n      exp\n      swap1\n      div\n      sub(shl(0xa0, 0x01), 0x01)\n      and\n      sub(shl(0xa0, 0x01), 0x01)\n        /* \"PerpetualPool_flat.sol\":49901:49921  hex_token.currentDay */\n      and\n      0x5c9302c9\n        /* \"PerpetualPool_flat.sol\":49901:49923  hex_token.currentDay() */\n      mload(0x40)\n      dup2\n      0xffffffff\n      and\n      0xe0\n      shl\n      dup2\n      mstore\n      0x04\n      add\n      0x20\n      mload(0x40)\n      dup1\n      dup4\n      sub\n      dup2\n      dup7\n      gas\n      staticcall\n      iszero\n      dup1\n      iszero\n      tag_176\n      jumpi\n      returndatasize\n      0x00\n      dup1\n      returndatacopy\n      revert(0x00, returndatasize)\n    tag_176:\n      pop\n      pop\n      pop\n      pop\n      mload(0x40)\n      returndatasize\n      not(0x1f)\n      0x1f\n      dup3\n      add\n      and\n      dup3\n      add\n      dup1\n      0x40\n      mstore\n      pop\n      dup2\n      add\n      swap1\n      tag_167\n      swap2\n      swap1\n      tag_178\n      jump\t// in\n        /* \"PerpetualPool_flat.sol\":30495:30973  function transferFrom(... */\n    tag_76:\n        /* \"PerpetualPool_flat.sol\":30631:30635  bool */\n      0x00\n        /* \"PerpetualPool_flat.sol\":30647:30683  _transfer(sender, recipient, amount) */\n      tag_180\n        /* \"PerpetualPool_flat.sol\":30657:30663  sender */\n      dup5\n        /* \"PerpetualPool_flat.sol\":30665:30674  recipient */\n      dup5\n        /* \"PerpetualPool_flat.sol\":30676:30682  amount */\n      dup5\n        /* \"PerpetualPool_flat.sol\":30647:30656  _transfer */\n      tag_181\n        /* \"PerpetualPool_flat.sol\":30647:30683  _transfer(sender, recipient, amount) */\n      jump\t// in\n    tag_180:\n      sub(shl(0xa0, 0x01), 0x01)\n        /* \"PerpetualPool_flat.sol\":30721:30740  _allowances[sender] */\n      dup5\n      and\n        /* \"PerpetualPool_flat.sol\":30694:30718  uint256 currentAllowance */\n      0x00\n        /* \"PerpetualPool_flat.sol\":30721:30740  _allowances[sender] */\n      swap1\n      dup2\n      mstore\n        /* \"PerpetualPool_flat.sol\":30721:30732  _allowances */\n      0x01\n        /* \"PerpetualPool_flat.sol\":30721:30740  _allowances[sender] */\n      0x20\n      swap1\n      dup2\n      mstore\n      0x40\n      dup1\n      dup4\n      keccak256\n        /* \"PerpetualPool_flat.sol\":18162:18172  msg.sender */\n      caller\n        /* \"PerpetualPool_flat.sol\":30721:30754  _allowances[sender][_msgSender()] */\n      dup5\n      mstore\n      swap1\n      swap2\n      mstore\n      swap1\n      keccak256\n      sload\n        /* \"PerpetualPool_flat.sol\":30772:30798  currentAllowance >= amount */\n      dup3\n      dup2\n      lt\n      iszero\n        /* \"PerpetualPool_flat.sol\":30764:30843  require(currentAllowance >= amount, \"ERC20: transfer amount exceeds allowance\") */\n      tag_183\n      jumpi\n      mload(0x40)\n      shl(0xe5, 0x461bcd)\n      dup2\n      mstore\n        /* \"#utility.yul\":3876:3878   */\n      0x20\n        /* \"PerpetualPool_flat.sol\":30764:30843  require(currentAllowance >= amount, \"ERC20: transfer amount exceeds allowance\") */\n      0x04\n      dup3\n      add\n        /* \"#utility.yul\":3858:3879   */\n      mstore\n        /* \"#utility.yul\":3915:3917   */\n      0x28\n        /* \"#utility.yul\":3895:3913   */\n      0x24\n      dup3\n      add\n        /* \"#utility.yul\":3888:3918   */\n      mstore\n        /* \"#utility.yul\":3954:3988   */\n      0x45524332303a207472616e7366657220616d6f756e7420657863656564732061\n        /* \"#utility.yul\":3934:3952   */\n      0x44\n      dup3\n      add\n        /* \"#utility.yul\":3927:3989   */\n      mstore\n      shl(0xc0, 0x6c6c6f77616e6365)\n        /* \"#utility.yul\":4005:4023   */\n      0x64\n      dup3\n      add\n        /* \"#utility.yul\":3998:4036   */\n      mstore\n        /* \"#utility.yul\":4053:4072   */\n      0x84\n      add\n        /* \"PerpetualPool_flat.sol\":30764:30843  require(currentAllowance >= amount, \"ERC20: transfer amount exceeds allowance\") */\n    tag_184:\n      mload(0x40)\n      dup1\n      swap2\n      sub\n      swap1\n      revert\n    tag_183:\n        /* \"PerpetualPool_flat.sol\":30877:30934  _approve(sender, _msgSender(), currentAllowance - amount) */\n      tag_186\n        /* \"PerpetualPool_flat.sol\":30886:30892  sender */\n      dup6\n        /* \"PerpetualPool_flat.sol\":18162:18172  msg.sender */\n      caller\n        /* \"PerpetualPool_flat.sol\":30927:30933  amount */\n      dup6\n        /* \"PerpetualPool_flat.sol\":30908:30924  currentAllowance */\n      dup5\n        /* \"PerpetualPool_flat.sol\":30908:30933  currentAllowance - amount */\n      sub\n        /* \"PerpetualPool_flat.sol\":30877:30885  _approve */\n      tag_171\n        /* \"PerpetualPool_flat.sol\":30877:30934  _approve(sender, _msgSender(), currentAllowance - amount) */\n      jump\t// in\n    tag_186:\n      pop\n        /* \"PerpetualPool_flat.sol\":30962:30966  true */\n      0x01\n      swap5\n        /* \"PerpetualPool_flat.sol\":30495:30973  function transferFrom(... */\n      swap4\n      pop\n      pop\n      pop\n      pop\n      jump\t// out\n        /* \"PerpetualPool_flat.sol\":31368:31580  function increaseAllowance(address spender, uint256 addedValue) public virtual returns (bool) {... */\n    tag_84:\n        /* \"PerpetualPool_flat.sol\":18162:18172  msg.sender */\n      caller\n        /* \"PerpetualPool_flat.sol\":31456:31460  bool */\n      0x00\n        /* \"PerpetualPool_flat.sol\":31504:31529  _allowances[_msgSender()] */\n      dup2\n      dup2\n      mstore\n        /* \"PerpetualPool_flat.sol\":31504:31515  _allowances */\n      0x01\n        /* \"PerpetualPool_flat.sol\":31504:31529  _allowances[_msgSender()] */\n      0x20\n      swap1\n      dup2\n      mstore\n      0x40\n      dup1\n      dup4\n      keccak256\n      sub(shl(0xa0, 0x01), 0x01)\n        /* \"PerpetualPool_flat.sol\":31504:31538  _allowances[_msgSender()][spender] */\n      dup8\n      and\n      dup5\n      mstore\n      swap1\n      swap2\n      mstore\n      dup2\n      keccak256\n      sload\n        /* \"PerpetualPool_flat.sol\":31456:31460  bool */\n      swap1\n      swap2\n        /* \"PerpetualPool_flat.sol\":31472:31552  _approve(_msgSender(), spender, _allowances[_msgSender()][spender] + addedValue) */\n      tag_168\n      swap2\n        /* \"PerpetualPool_flat.sol\":31495:31502  spender */\n      dup6\n      swap1\n        /* \"PerpetualPool_flat.sol\":31504:31551  _allowances[_msgSender()][spender] + addedValue */\n      tag_193\n      swap1\n        /* \"PerpetualPool_flat.sol\":31541:31551  addedValue */\n      dup7\n      swap1\n        /* \"PerpetualPool_flat.sol\":31504:31551  _allowances[_msgSender()][spender] + addedValue */\n      tag_194\n      jump\t// in\n    tag_193:\n        /* \"PerpetualPool_flat.sol\":31472:31480  _approve */\n      tag_171\n        /* \"PerpetualPool_flat.sol\":31472:31552  _approve(_msgSender(), spender, _allowances[_msgSender()][spender] + addedValue) */\n      jump\t// in\n        /* \"PerpetualPool_flat.sol\":37978:38067  function burn(uint256 amount) public virtual {... */\n    tag_92:\n        /* \"PerpetualPool_flat.sol\":38033:38060  _burn(_msgSender(), amount) */\n      tag_196\n        /* \"PerpetualPool_flat.sol\":18162:18172  msg.sender */\n      caller\n        /* \"PerpetualPool_flat.sol\":38053:38059  amount */\n      dup3\n        /* \"PerpetualPool_flat.sol\":38033:38038  _burn */\n      tag_198\n        /* \"PerpetualPool_flat.sol\":38033:38060  _burn(_msgSender(), amount) */\n      jump\t// in\n    tag_196:\n        /* \"PerpetualPool_flat.sol\":37978:38067  function burn(uint256 amount) public virtual {... */\n      pop\n      jump\t// out\n        /* \"PerpetualPool_flat.sol\":50986:51577  function pledgeHEX(uint256 amount) nonReentrant external {... */\n    tag_95:\n        /* \"PerpetualPool_flat.sol\":1777:1778  2 */\n      0x02\n        /* \"PerpetualPool_flat.sol\":2358:2365  _status */\n      sload(0x05)\n        /* \"PerpetualPool_flat.sol\":2358:2377  _status != _ENTERED */\n      sub\n        /* \"PerpetualPool_flat.sol\":2350:2413  require(_status != _ENTERED, \"ReentrancyGuard: reentrant call\") */\n      tag_200\n      jumpi\n      mload(0x40)\n      shl(0xe5, 0x461bcd)\n      dup2\n      mstore\n      0x04\n      add\n      tag_184\n      swap1\n      tag_202\n      jump\t// in\n    tag_200:\n        /* \"PerpetualPool_flat.sol\":1777:1778  2 */\n      0x02\n        /* \"PerpetualPool_flat.sol\":2488:2495  _status */\n      0x05\n        /* \"PerpetualPool_flat.sol\":2488:2506  _status = _ENTERED */\n      sstore\n        /* \"PerpetualPool_flat.sol\":51061:51076  STAKE_IS_ACTIVE */\n      and(0xff, sload(0x0d))\n        /* \"PerpetualPool_flat.sol\":51061:51083  STAKE_IS_ACTIVE==false */\n      iszero\n        /* \"PerpetualPool_flat.sol\":51053:51137  require(STAKE_IS_ACTIVE==false, \"Minting may only be done if a stake is not active\") */\n      tag_204\n      jumpi\n      mload(0x40)\n      shl(0xe5, 0x461bcd)\n      dup2\n      mstore\n        /* \"#utility.yul\":4907:4909   */\n      0x20\n        /* \"PerpetualPool_flat.sol\":51053:51137  require(STAKE_IS_ACTIVE==false, \"Minting may only be done if a stake is not active\") */\n      0x04\n      dup3\n      add\n        /* \"#utility.yul\":4889:4910   */\n      mstore\n        /* \"#utility.yul\":4946:4948   */\n      0x31\n        /* \"#utility.yul\":4926:4944   */\n      0x24\n      dup3\n      add\n        /* \"#utility.yul\":4919:4949   */\n      mstore\n        /* \"#utility.yul\":4985:5019   */\n      0x4d696e74696e67206d6179206f6e6c7920626520646f6e652069662061207374\n        /* \"#utility.yul\":4965:4983   */\n      0x44\n      dup3\n      add\n        /* \"#utility.yul\":4958:5020   */\n      mstore\n      shl(0x78, 0x616b65206973206e6f7420616374697665)\n        /* \"#utility.yul\":5036:5054   */\n      0x64\n      dup3\n      add\n        /* \"#utility.yul\":5029:5076   */\n      mstore\n        /* \"#utility.yul\":5093:5112   */\n      0x84\n      add\n        /* \"PerpetualPool_flat.sol\":51053:51137  require(STAKE_IS_ACTIVE==false, \"Minting may only be done if a stake is not active\") */\n      tag_184\n        /* \"#utility.yul\":4705:5118   */\n      jump\n        /* \"PerpetualPool_flat.sol\":51053:51137  require(STAKE_IS_ACTIVE==false, \"Minting may only be done if a stake is not active\") */\n    tag_204:\n        /* \"PerpetualPool_flat.sol\":51179:51195  RELOAD_PHASE_END */\n      sload(0x08)\n        /* \"PerpetualPool_flat.sol\":51155:51164  hex_token */\n      0x14\n      0x00\n      swap1\n      sload\n      swap1\n      0x0100\n      exp\n      swap1\n      div\n      sub(shl(0xa0, 0x01), 0x01)\n      and\n      sub(shl(0xa0, 0x01), 0x01)\n        /* \"PerpetualPool_flat.sol\":51155:51175  hex_token.currentDay */\n      and\n      0x5c9302c9\n        /* \"PerpetualPool_flat.sol\":51155:51177  hex_token.currentDay() */\n      mload(0x40)\n      dup2\n      0xffffffff\n      and\n      0xe0\n      shl\n      dup2\n      mstore\n      0x04\n      add\n      0x20\n      mload(0x40)\n      dup1\n      dup4\n      sub\n      dup2\n      dup7\n      gas\n      staticcall\n      iszero\n      dup1\n      iszero\n      tag_208\n      jumpi\n      returndatasize\n      0x00\n      dup1\n      returndatacopy\n      revert(0x00, returndatasize)\n    tag_208:\n      pop\n      pop\n      pop\n      pop\n      mload(0x40)\n      returndatasize\n      not(0x1f)\n      0x1f\n      dup3\n      add\n      and\n      dup3\n      add\n      dup1\n      0x40\n      mstore\n      pop\n      dup2\n      add\n      swap1\n      tag_209\n      swap2\n      swap1\n      tag_178\n      jump\t// in\n    tag_209:\n        /* \"PerpetualPool_flat.sol\":51155:51195  hex_token.currentDay()<=RELOAD_PHASE_END */\n      gt\n      iszero\n        /* \"PerpetualPool_flat.sol\":51147:51221  require(hex_token.currentDay()<=RELOAD_PHASE_END, \"Minting Phase is Done\") */\n      tag_210\n      jumpi\n      mload(0x40)\n      shl(0xe5, 0x461bcd)\n      dup2\n      mstore\n        /* \"#utility.yul\":5325:5327   */\n      0x20\n        /* \"PerpetualPool_flat.sol\":51147:51221  require(hex_token.currentDay()<=RELOAD_PHASE_END, \"Minting Phase is Done\") */\n      0x04\n      dup3\n      add\n        /* \"#utility.yul\":5307:5328   */\n      mstore\n        /* \"#utility.yul\":5364:5366   */\n      0x15\n        /* \"#utility.yul\":5344:5362   */\n      0x24\n      dup3\n      add\n        /* \"#utility.yul\":5337:5367   */\n      mstore\n      shl(0x58, 0x4d696e74696e6720506861736520697320446f6e65)\n        /* \"#utility.yul\":5383:5401   */\n      0x44\n      dup3\n      add\n        /* \"#utility.yul\":5376:5427   */\n      mstore\n        /* \"#utility.yul\":5444:5462   */\n      0x64\n      add\n        /* \"PerpetualPool_flat.sol\":51147:51221  require(hex_token.currentDay()<=RELOAD_PHASE_END, \"Minting Phase is Done\") */\n      tag_184\n        /* \"#utility.yul\":5123:5468   */\n      jump\n        /* \"PerpetualPool_flat.sol\":51147:51221  require(hex_token.currentDay()<=RELOAD_PHASE_END, \"Minting Phase is Done\") */\n    tag_210:\n        /* \"PerpetualPool_flat.sol\":51239:51251  hex_contract */\n      sload(0x12)\n        /* \"PerpetualPool_flat.sol\":51274:51286  POOL_ADDRESS */\n      sload(0x11)\n        /* \"PerpetualPool_flat.sol\":51239:51287  hex_contract.allowance(msg.sender, POOL_ADDRESS) */\n      mload(0x40)\n      shl(0xe1, 0x6eb1769f)\n      dup2\n      mstore\n        /* \"PerpetualPool_flat.sol\":51262:51272  msg.sender */\n      caller\n        /* \"PerpetualPool_flat.sol\":51239:51287  hex_contract.allowance(msg.sender, POOL_ADDRESS) */\n      0x04\n      dup3\n      add\n        /* \"#utility.yul\":5685:5719   */\n      mstore\n      sub(shl(0xa0, 0x01), 0x01)\n        /* \"PerpetualPool_flat.sol\":51274:51286  POOL_ADDRESS */\n      swap2\n      dup3\n      and\n        /* \"#utility.yul\":5735:5753   */\n      0x24\n      dup3\n      add\n        /* \"#utility.yul\":5728:5771   */\n      mstore\n        /* \"PerpetualPool_flat.sol\":51289:51295  amount */\n      dup4\n      swap3\n        /* \"PerpetualPool_flat.sol\":51239:51251  hex_contract */\n      swap2\n      swap1\n      swap2\n      and\n      swap1\n        /* \"PerpetualPool_flat.sol\":51239:51261  hex_contract.allowance */\n      0xdd62ed3e\n      swap1\n        /* \"#utility.yul\":5620:5638   */\n      0x44\n      add\n        /* \"PerpetualPool_flat.sol\":51239:51287  hex_contract.allowance(msg.sender, POOL_ADDRESS) */\n      0x20\n      mload(0x40)\n      dup1\n      dup4\n      sub\n      dup2\n      dup7\n      gas\n      staticcall\n      iszero\n      dup1\n      iszero\n      tag_216\n      jumpi\n      returndatasize\n      0x00\n      dup1\n      returndatacopy\n      revert(0x00, returndatasize)\n    tag_216:\n      pop\n      pop\n      pop\n      pop\n      mload(0x40)\n      returndatasize\n      not(0x1f)\n      0x1f\n      dup3\n      add\n      and\n      dup3\n      add\n      dup1\n      0x40\n      mstore\n      pop\n      dup2\n      add\n      swap1\n      tag_217\n      swap2\n      swap1\n      tag_178\n      jump\t// in\n    tag_217:\n        /* \"PerpetualPool_flat.sol\":51239:51295  hex_contract.allowance(msg.sender, POOL_ADDRESS)>=amount */\n      lt\n      iszero\n        /* \"PerpetualPool_flat.sol\":51231:51371  require(hex_contract.allowance(msg.sender, POOL_ADDRESS)>=amount, \"Please approve contract address as allowed spender in the hex contract.\") */\n      tag_218\n      jumpi\n      mload(0x40)\n      shl(0xe5, 0x461bcd)\n      dup2\n      mstore\n        /* \"#utility.yul\":5984:5986   */\n      0x20\n        /* \"PerpetualPool_flat.sol\":51231:51371  require(hex_contract.allowance(msg.sender, POOL_ADDRESS)>=amount, \"Please approve contract address as allowed spender in the hex contract.\") */\n      0x04\n      dup3\n      add\n        /* \"#utility.yul\":5966:5987   */\n      mstore\n        /* \"#utility.yul\":6023:6025   */\n      0x47\n        /* \"#utility.yul\":6003:6021   */\n      0x24\n      dup3\n      add\n        /* \"#utility.yul\":5996:6026   */\n      mstore\n        /* \"#utility.yul\":6062:6096   */\n      0x506c6561736520617070726f766520636f6e7472616374206164647265737320\n        /* \"#utility.yul\":6042:6060   */\n      0x44\n      dup3\n      add\n        /* \"#utility.yul\":6035:6097   */\n      mstore\n        /* \"#utility.yul\":6133:6167   */\n      0x617320616c6c6f776564207370656e64657220696e207468652068657820636f\n        /* \"#utility.yul\":6113:6131   */\n      0x64\n      dup3\n      add\n        /* \"#utility.yul\":6106:6168   */\n      mstore\n      shl(0xc9, 0x373a3930b1ba17)\n        /* \"#utility.yul\":6184:6203   */\n      0x84\n      dup3\n      add\n        /* \"#utility.yul\":6177:6215   */\n      mstore\n        /* \"#utility.yul\":6232:6251   */\n      0xa4\n      add\n        /* \"PerpetualPool_flat.sol\":51231:51371  require(hex_contract.allowance(msg.sender, POOL_ADDRESS)>=amount, \"Please approve contract address as allowed spender in the hex contract.\") */\n      tag_184\n        /* \"#utility.yul\":5782:6257   */\n      jump\n        /* \"PerpetualPool_flat.sol\":51231:51371  require(hex_contract.allowance(msg.sender, POOL_ADDRESS)>=amount, \"Please approve contract address as allowed spender in the hex contract.\") */\n    tag_218:\n        /* \"PerpetualPool_flat.sol\":51416:51428  hex_contract */\n      sload(0x12)\n        /* \"PerpetualPool_flat.sol\":51448:51460  POOL_ADDRESS */\n      sload(0x11)\n        /* \"PerpetualPool_flat.sol\":51416:51469  hex_contract.transferFrom(from, POOL_ADDRESS, amount) */\n      mload(0x40)\n      shl(0xe0, 0x23b872dd)\n      dup2\n      mstore\n        /* \"PerpetualPool_flat.sol\":51396:51406  msg.sender */\n      caller\n        /* \"PerpetualPool_flat.sol\":51416:51469  hex_contract.transferFrom(from, POOL_ADDRESS, amount) */\n      0x04\n      dup3\n      add\n        /* \"#utility.yul\":6502:6536   */\n      dup2\n      swap1\n      mstore\n      sub(shl(0xa0, 0x01), 0x01)\n        /* \"PerpetualPool_flat.sol\":51448:51460  POOL_ADDRESS */\n      swap3\n      dup4\n      and\n        /* \"#utility.yul\":6552:6570   */\n      0x24\n      dup4\n      add\n        /* \"#utility.yul\":6545:6588   */\n      mstore\n        /* \"#utility.yul\":6604:6622   */\n      0x44\n      dup3\n      add\n        /* \"#utility.yul\":6597:6631   */\n      dup6\n      swap1\n      mstore\n        /* \"PerpetualPool_flat.sol\":51396:51406  msg.sender */\n      swap3\n        /* \"PerpetualPool_flat.sol\":51416:51428  hex_contract */\n      swap2\n      swap1\n      swap2\n      and\n      swap1\n        /* \"PerpetualPool_flat.sol\":51416:51441  hex_contract.transferFrom */\n      0x23b872dd\n      swap1\n        /* \"#utility.yul\":6437:6455   */\n      0x64\n      add\n        /* \"PerpetualPool_flat.sol\":51416:51469  hex_contract.transferFrom(from, POOL_ADDRESS, amount) */\n      0x20\n      mload(0x40)\n      dup1\n      dup4\n      sub\n      dup2\n      0x00\n      dup8\n      gas\n      call\n      iszero\n      dup1\n      iszero\n      tag_224\n      jumpi\n      returndatasize\n      0x00\n      dup1\n      returndatacopy\n      revert(0x00, returndatasize)\n    tag_224:\n      pop\n      pop\n      pop\n      pop\n      mload(0x40)\n      returndatasize\n      not(0x1f)\n      0x1f\n      dup3\n      add\n      and\n      dup3\n      add\n      dup1\n      0x40\n      mstore\n      pop\n      dup2\n      add\n      swap1\n      tag_225\n      swap2\n      swap1\n      tag_226\n      jump\t// in\n    tag_225:\n      pop\n        /* \"PerpetualPool_flat.sol\":51520:51539  HEX_REDEMPTION_RATE */\n      sload(0x0c)\n        /* \"PerpetualPool_flat.sol\":51479:51502  uint256 mintable_amount */\n      0x00\n      swap1\n        /* \"PerpetualPool_flat.sol\":51505:51519  (10**8)*amount */\n      tag_227\n        /* \"PerpetualPool_flat.sol\":51513:51519  amount */\n      dup5\n        /* \"PerpetualPool_flat.sol\":51506:51511  10**8 */\n      0x05f5e100\n        /* \"PerpetualPool_flat.sol\":51505:51519  (10**8)*amount */\n      tag_228\n      jump\t// in\n    tag_227:\n        /* \"PerpetualPool_flat.sol\":51505:51539  (10**8)*amount/HEX_REDEMPTION_RATE */\n      tag_229\n      swap2\n      swap1\n      tag_230\n      jump\t// in\n    tag_229:\n        /* \"PerpetualPool_flat.sol\":51479:51539  uint256 mintable_amount = (10**8)*amount/HEX_REDEMPTION_RATE */\n      swap1\n      pop\n        /* \"PerpetualPool_flat.sol\":51549:51570  mint(mintable_amount) */\n      tag_231\n        /* \"PerpetualPool_flat.sol\":51554:51569  mintable_amount */\n      dup2\n        /* \"PerpetualPool_flat.sol\":51549:51553  mint */\n      tag_232\n        /* \"PerpetualPool_flat.sol\":51549:51570  mint(mintable_amount) */\n      jump\t// in\n    tag_231:\n      pop\n      pop\n        /* \"PerpetualPool_flat.sol\":1734:1735  1 */\n      0x01\n        /* \"PerpetualPool_flat.sol\":2661:2668  _status */\n      0x05\n        /* \"PerpetualPool_flat.sol\":2661:2683  _status = _NOT_ENTERED */\n      sstore\n      pop\n        /* \"PerpetualPool_flat.sol\":50986:51577  function pledgeHEX(uint256 amount) nonReentrant external {... */\n      jump\t// out\n        /* \"PerpetualPool_flat.sol\":54571:55677  function endStakeHEX(uint256 stakeIndex,uint40 stakeIdParam ) nonReentrant external {... */\n    tag_99:\n        /* \"PerpetualPool_flat.sol\":1777:1778  2 */\n      0x02\n        /* \"PerpetualPool_flat.sol\":2358:2365  _status */\n      sload(0x05)\n        /* \"PerpetualPool_flat.sol\":2358:2377  _status != _ENTERED */\n      sub\n        /* \"PerpetualPool_flat.sol\":2350:2413  require(_status != _ENTERED, \"ReentrancyGuard: reentrant call\") */\n      tag_234\n      jumpi\n      mload(0x40)\n      shl(0xe5, 0x461bcd)\n      dup2\n      mstore\n      0x04\n      add\n      tag_184\n      swap1\n      tag_202\n      jump\t// in\n    tag_234:\n        /* \"PerpetualPool_flat.sol\":1777:1778  2 */\n      0x02\n        /* \"PerpetualPool_flat.sol\":2488:2495  _status */\n      0x05\n        /* \"PerpetualPool_flat.sol\":2488:2506  _status = _ENTERED */\n      sstore\n        /* \"PerpetualPool_flat.sol\":54696:54709  STAKE_END_DAY */\n      sload(0x0a)\n        /* \"PerpetualPool_flat.sol\":54673:54682  hex_token */\n      sload(0x14)\n        /* \"PerpetualPool_flat.sol\":54673:54695  hex_token.currentDay() */\n      0x40\n      dup1\n      mload\n      shl(0xe0, 0x5c9302c9)\n      dup2\n      mstore\n      swap1\n      mload\n      sub(shl(0xa0, 0x01), 0x01)\n        /* \"PerpetualPool_flat.sol\":54673:54682  hex_token */\n      swap1\n      swap3\n      and\n      swap2\n        /* \"PerpetualPool_flat.sol\":54673:54693  hex_token.currentDay */\n      0x5c9302c9\n      swap2\n        /* \"PerpetualPool_flat.sol\":54673:54695  hex_token.currentDay() */\n      0x04\n      dup1\n      dup3\n      add\n      swap3\n      0x20\n      swap3\n      swap1\n      swap2\n      swap1\n      dup3\n      swap1\n      sub\n      add\n      dup2\n        /* \"PerpetualPool_flat.sol\":54673:54682  hex_token */\n      dup7\n        /* \"PerpetualPool_flat.sol\":54673:54695  hex_token.currentDay() */\n      gas\n      staticcall\n      iszero\n      dup1\n      iszero\n      tag_238\n      jumpi\n      returndatasize\n      0x00\n      dup1\n      returndatacopy\n      revert(0x00, returndatasize)\n    tag_238:\n      pop\n      pop\n      pop\n      pop\n      mload(0x40)\n      returndatasize\n      not(0x1f)\n      0x1f\n      dup3\n      add\n      and\n      dup3\n      add\n      dup1\n      0x40\n      mstore\n      pop\n      dup2\n      add\n      swap1\n      tag_239\n      swap2\n      swap1\n      tag_178\n      jump\t// in\n    tag_239:\n        /* \"PerpetualPool_flat.sol\":54673:54709  hex_token.currentDay()>STAKE_END_DAY */\n      gt\n        /* \"PerpetualPool_flat.sol\":54665:54740  require(hex_token.currentDay()>STAKE_END_DAY, \"Stake is not complete yet.\") */\n      tag_240\n      jumpi\n      mload(0x40)\n      shl(0xe5, 0x461bcd)\n      dup2\n      mstore\n        /* \"#utility.yul\":7521:7523   */\n      0x20\n        /* \"PerpetualPool_flat.sol\":54665:54740  require(hex_token.currentDay()>STAKE_END_DAY, \"Stake is not complete yet.\") */\n      0x04\n      dup3\n      add\n        /* \"#utility.yul\":7503:7524   */\n      mstore\n        /* \"#utility.yul\":7560:7562   */\n      0x1a\n        /* \"#utility.yul\":7540:7558   */\n      0x24\n      dup3\n      add\n        /* \"#utility.yul\":7533:7563   */\n      mstore\n        /* \"#utility.yul\":7599:7627   */\n      0x5374616b65206973206e6f7420636f6d706c657465207965742e000000000000\n        /* \"#utility.yul\":7579:7597   */\n      0x44\n      dup3\n      add\n        /* \"#utility.yul\":7572:7628   */\n      mstore\n        /* \"#utility.yul\":7645:7663   */\n      0x64\n      add\n        /* \"PerpetualPool_flat.sol\":54665:54740  require(hex_token.currentDay()>STAKE_END_DAY, \"Stake is not complete yet.\") */\n      tag_184\n        /* \"#utility.yul\":7319:7669   */\n      jump\n        /* \"PerpetualPool_flat.sol\":54665:54740  require(hex_token.currentDay()>STAKE_END_DAY, \"Stake is not complete yet.\") */\n    tag_240:\n        /* \"PerpetualPool_flat.sol\":54758:54773  STAKE_IS_ACTIVE */\n      and(0xff, sload(0x0d))\n        /* \"PerpetualPool_flat.sol\":54758:54779  STAKE_IS_ACTIVE==true */\n      iszero\n      iszero\n        /* \"PerpetualPool_flat.sol\":54758:54773  STAKE_IS_ACTIVE */\n      0x01\n        /* \"PerpetualPool_flat.sol\":54758:54779  STAKE_IS_ACTIVE==true */\n      eq\n        /* \"PerpetualPool_flat.sol\":54750:54805  require(STAKE_IS_ACTIVE==true, \"Stake must be active.\") */\n      tag_243\n      jumpi\n      mload(0x40)\n      shl(0xe5, 0x461bcd)\n      dup2\n      mstore\n        /* \"#utility.yul\":7876:7878   */\n      0x20\n        /* \"PerpetualPool_flat.sol\":54750:54805  require(STAKE_IS_ACTIVE==true, \"Stake must be active.\") */\n      0x04\n      dup3\n      add\n        /* \"#utility.yul\":7858:7879   */\n      mstore\n        /* \"#utility.yul\":7915:7917   */\n      0x15\n        /* \"#utility.yul\":7895:7913   */\n      0x24\n      dup3\n      add\n        /* \"#utility.yul\":7888:7918   */\n      mstore\n      shl(0x59, 0x29ba30b5b29036bab9ba1031329030b1ba34bb3297)\n        /* \"#utility.yul\":7934:7952   */\n      0x44\n      dup3\n      add\n        /* \"#utility.yul\":7927:7978   */\n      mstore\n        /* \"#utility.yul\":7995:8013   */\n      0x64\n      add\n        /* \"PerpetualPool_flat.sol\":54750:54805  require(STAKE_IS_ACTIVE==true, \"Stake must be active.\") */\n      tag_184\n        /* \"#utility.yul\":7674:8019   */\n      jump\n        /* \"PerpetualPool_flat.sol\":54750:54805  require(STAKE_IS_ACTIVE==true, \"Stake must be active.\") */\n    tag_243:\n        /* \"PerpetualPool_flat.sol\":54815:54853  _endStakeHEX(stakeIndex, stakeIdParam) */\n      tag_246\n        /* \"PerpetualPool_flat.sol\":54828:54838  stakeIndex */\n      dup3\n        /* \"PerpetualPool_flat.sol\":54840:54852  stakeIdParam */\n      dup3\n        /* \"PerpetualPool_flat.sol\":54815:54827  _endStakeHEX */\n      tag_247\n        /* \"PerpetualPool_flat.sol\":54815:54853  _endStakeHEX(stakeIndex, stakeIdParam) */\n      jump\t// in\n    tag_246:\n        /* \"PerpetualPool_flat.sol\":54885:54897  hex_contract */\n      sload(0x12)\n        /* \"PerpetualPool_flat.sol\":54885:54922  hex_contract.balanceOf(address(this)) */\n      mload(0x40)\n      shl(0xe0, 0x70a08231)\n      dup2\n      mstore\n        /* \"PerpetualPool_flat.sol\":54916:54920  this */\n      address\n        /* \"PerpetualPool_flat.sol\":54885:54922  hex_contract.balanceOf(address(this)) */\n      0x04\n      dup3\n      add\n        /* \"#utility.yul\":1524:1575   */\n      mstore\n        /* \"PerpetualPool_flat.sol\":54863:54882  uint256 hex_balance */\n      0x00\n      swap2\n      sub(shl(0xa0, 0x01), 0x01)\n        /* \"PerpetualPool_flat.sol\":54885:54897  hex_contract */\n      and\n      swap1\n        /* \"PerpetualPool_flat.sol\":54885:54907  hex_contract.balanceOf */\n      0x70a08231\n      swap1\n        /* \"#utility.yul\":1497:1515   */\n      0x24\n      add\n        /* \"PerpetualPool_flat.sol\":54885:54922  hex_contract.balanceOf(address(this)) */\n      0x20\n      mload(0x40)\n      dup1\n      dup4\n      sub\n      dup2\n      dup7\n      gas\n      staticcall\n      iszero\n      dup1\n      iszero\n      tag_250\n      jumpi\n      returndatasize\n      0x00\n      dup1\n      returndatacopy\n      revert(0x00, returndatasize)\n    tag_250:\n      pop\n      pop\n      pop\n      pop\n      mload(0x40)\n      returndatasize\n      not(0x1f)\n      0x1f\n      dup3\n      add\n      and\n      dup3\n      add\n      dup1\n      0x40\n      mstore\n      pop\n      dup2\n      add\n      swap1\n      tag_251\n      swap2\n      swap1\n      tag_178\n      jump\t// in\n    tag_251:\n        /* \"PerpetualPool_flat.sol\":54863:54922  uint256 hex_balance = hex_contract.balanceOf(address(this)) */\n      swap1\n      pop\n        /* \"PerpetualPool_flat.sol\":54932:54964  uint256 bpb_bonus_sharing_amount */\n      0x00\n        /* \"PerpetualPool_flat.sol\":54967:55042  get_bonus_sharing_amount(CURRENT_STAKE_PRINCIPAL, hex_balance,STAKE_LENGTH) */\n      tag_252\n        /* \"PerpetualPool_flat.sol\":54992:55015  CURRENT_STAKE_PRINCIPAL */\n      sload(0x0f)\n        /* \"PerpetualPool_flat.sol\":55017:55028  hex_balance */\n      dup4\n        /* \"PerpetualPool_flat.sol\":55029:55041  STAKE_LENGTH */\n      sload(0x0b)\n        /* \"PerpetualPool_flat.sol\":54967:54991  get_bonus_sharing_amount */\n      tag_253\n        /* \"PerpetualPool_flat.sol\":54967:55042  get_bonus_sharing_amount(CURRENT_STAKE_PRINCIPAL, hex_balance,STAKE_LENGTH) */\n      jump\t// in\n    tag_252:\n        /* \"PerpetualPool_flat.sol\":55052:55061  hex_token */\n      sload(0x14)\n        /* \"PerpetualPool_flat.sol\":55071:55092  TEAM_CONTRACT_ADDRESS */\n      sload(0x0e)\n        /* \"PerpetualPool_flat.sol\":55052:55119  hex_token.transfer(TEAM_CONTRACT_ADDRESS, bpb_bonus_sharing_amount) */\n      mload(0x40)\n      shl(0xe0, 0xa9059cbb)\n      dup2\n      mstore\n      sub(shl(0xa0, 0x01), 0x01)\n        /* \"PerpetualPool_flat.sol\":55071:55092  TEAM_CONTRACT_ADDRESS */\n      swap2\n      dup3\n      and\n        /* \"PerpetualPool_flat.sol\":55052:55119  hex_token.transfer(TEAM_CONTRACT_ADDRESS, bpb_bonus_sharing_amount) */\n      0x04\n      dup3\n      add\n        /* \"#utility.yul\":8198:8249   */\n      mstore\n        /* \"#utility.yul\":8265:8283   */\n      0x24\n      dup2\n      add\n        /* \"#utility.yul\":8258:8292   */\n      dup5\n      swap1\n      mstore\n        /* \"PerpetualPool_flat.sol\":54932:55042  uint256 bpb_bonus_sharing_amount = get_bonus_sharing_amount(CURRENT_STAKE_PRINCIPAL, hex_balance,STAKE_LENGTH) */\n      swap3\n      swap4\n      pop\n        /* \"PerpetualPool_flat.sol\":55052:55061  hex_token */\n      and\n      swap1\n        /* \"PerpetualPool_flat.sol\":55052:55070  hex_token.transfer */\n      0xa9059cbb\n      swap1\n        /* \"#utility.yul\":8171:8189   */\n      0x44\n      add\n        /* \"PerpetualPool_flat.sol\":55052:55119  hex_token.transfer(TEAM_CONTRACT_ADDRESS, bpb_bonus_sharing_amount) */\n      0x20\n      mload(0x40)\n      dup1\n      dup4\n      sub\n      dup2\n      0x00\n      dup8\n      gas\n      call\n      iszero\n      dup1\n      iszero\n      tag_257\n      jumpi\n      returndatasize\n      0x00\n      dup1\n      returndatacopy\n      revert(0x00, returndatasize)\n    tag_257:\n      pop\n      pop\n      pop\n      pop\n      mload(0x40)\n      returndatasize\n      not(0x1f)\n      0x1f\n      dup3\n      add\n      and\n      dup3\n      add\n      dup1\n      0x40\n      mstore\n      pop\n      dup2\n      add\n      swap1\n      tag_258\n      swap2\n      swap1\n      tag_226\n      jump\t// in\n    tag_258:\n      pop\n        /* \"PerpetualPool_flat.sol\":55129:55141  hedron_token */\n      sload(0x15)\n        /* \"PerpetualPool_flat.sol\":55151:55172  TEAM_CONTRACT_ADDRESS */\n      sload(0x0e)\n        /* \"PerpetualPool_flat.sol\":55173:55188  hedron_contract */\n      sload(0x13)\n        /* \"PerpetualPool_flat.sol\":55173:55213  hedron_contract.balanceOf(address(this)) */\n      mload(0x40)\n      shl(0xe0, 0x70a08231)\n      dup2\n      mstore\n        /* \"PerpetualPool_flat.sol\":55207:55211  this */\n      address\n        /* \"PerpetualPool_flat.sol\":55173:55213  hedron_contract.balanceOf(address(this)) */\n      0x04\n      dup3\n      add\n        /* \"#utility.yul\":1524:1575   */\n      mstore\n      sub(shl(0xa0, 0x01), 0x01)\n        /* \"PerpetualPool_flat.sol\":55129:55141  hedron_token */\n      swap4\n      dup5\n      and\n      swap4\n        /* \"PerpetualPool_flat.sol\":55129:55150  hedron_token.transfer */\n      0xa9059cbb\n      swap4\n        /* \"PerpetualPool_flat.sol\":55151:55172  TEAM_CONTRACT_ADDRESS */\n      dup2\n      and\n      swap3\n        /* \"PerpetualPool_flat.sol\":55173:55188  hedron_contract */\n      and\n      swap1\n        /* \"PerpetualPool_flat.sol\":55173:55198  hedron_contract.balanceOf */\n      0x70a08231\n      swap1\n        /* \"#utility.yul\":1497:1515   */\n      0x24\n      add\n        /* \"PerpetualPool_flat.sol\":55173:55213  hedron_contract.balanceOf(address(this)) */\n      0x20\n      mload(0x40)\n      dup1\n      dup4\n      sub\n      dup2\n      dup7\n      gas\n      staticcall\n      iszero\n      dup1\n      iszero\n      tag_261\n      jumpi\n      returndatasize\n      0x00\n      dup1\n      returndatacopy\n      revert(0x00, returndatasize)\n    tag_261:\n      pop\n      pop\n      pop\n      pop\n      mload(0x40)\n      returndatasize\n      not(0x1f)\n      0x1f\n      dup3\n      add\n      and\n      dup3\n      add\n      dup1\n      0x40\n      mstore\n      pop\n      dup2\n      add\n      swap1\n      tag_262\n      swap2\n      swap1\n      tag_178\n      jump\t// in\n    tag_262:\n        /* \"PerpetualPool_flat.sol\":55129:55214  hedron_token.transfer(TEAM_CONTRACT_ADDRESS,hedron_contract.balanceOf(address(this))) */\n      mload(0x40)\n      not(sub(shl(0xe0, 0x01), 0x01))\n      0xe0\n      dup6\n      swap1\n      shl\n      and\n      dup2\n      mstore\n      sub(shl(0xa0, 0x01), 0x01)\n        /* \"#utility.yul\":8216:8248   */\n      swap1\n      swap3\n      and\n        /* \"PerpetualPool_flat.sol\":55129:55214  hedron_token.transfer(TEAM_CONTRACT_ADDRESS,hedron_contract.balanceOf(address(this))) */\n      0x04\n      dup4\n      add\n        /* \"#utility.yul\":8198:8249   */\n      mstore\n        /* \"#utility.yul\":8265:8283   */\n      0x24\n      dup3\n      add\n        /* \"#utility.yul\":8258:8292   */\n      mstore\n        /* \"#utility.yul\":8171:8189   */\n      0x44\n      add\n        /* \"PerpetualPool_flat.sol\":55129:55214  hedron_token.transfer(TEAM_CONTRACT_ADDRESS,hedron_contract.balanceOf(address(this))) */\n      0x20\n      mload(0x40)\n      dup1\n      dup4\n      sub\n      dup2\n      0x00\n      dup8\n      gas\n      call\n      iszero\n      dup1\n      iszero\n      tag_265\n      jumpi\n      returndatasize\n      0x00\n      dup1\n      returndatacopy\n      revert(0x00, returndatasize)\n    tag_265:\n      pop\n      pop\n      pop\n      pop\n      mload(0x40)\n      returndatasize\n      not(0x1f)\n      0x1f\n      dup3\n      add\n      and\n      dup3\n      add\n      dup1\n      0x40\n      mstore\n      pop\n      dup2\n      add\n      swap1\n      tag_266\n      swap2\n      swap1\n      tag_226\n      jump\t// in\n    tag_266:\n      pop\n        /* \"PerpetualPool_flat.sol\":55224:55244  uint256 total_supply */\n      0x00\n        /* \"PerpetualPool_flat.sol\":55262:55266  this */\n      address\n      sub(shl(0xa0, 0x01), 0x01)\n        /* \"PerpetualPool_flat.sol\":55247:55280  IERC20(address(this)).totalSupply */\n      and\n      0x18160ddd\n        /* \"PerpetualPool_flat.sol\":55247:55282  IERC20(address(this)).totalSupply() */\n      mload(0x40)\n      dup2\n      0xffffffff\n      and\n      0xe0\n      shl\n      dup2\n      mstore\n      0x04\n      add\n      0x20\n      mload(0x40)\n      dup1\n      dup4\n      sub\n      dup2\n      dup7\n      gas\n      staticcall\n      iszero\n      dup1\n      iszero\n      tag_268\n      jumpi\n      returndatasize\n      0x00\n      dup1\n      returndatacopy\n      revert(0x00, returndatasize)\n    tag_268:\n      pop\n      pop\n      pop\n      pop\n      mload(0x40)\n      returndatasize\n      not(0x1f)\n      0x1f\n      dup3\n      add\n      and\n      dup3\n      add\n      dup1\n      0x40\n      mstore\n      pop\n      dup2\n      add\n      swap1\n      tag_269\n      swap2\n      swap1\n      tag_178\n      jump\t// in\n    tag_269:\n        /* \"PerpetualPool_flat.sol\":55341:55353  hex_contract */\n      sload(0x12)\n        /* \"PerpetualPool_flat.sol\":55341:55378  hex_contract.balanceOf(address(this)) */\n      mload(0x40)\n      shl(0xe0, 0x70a08231)\n      dup2\n      mstore\n        /* \"PerpetualPool_flat.sol\":55372:55376  this */\n      address\n        /* \"PerpetualPool_flat.sol\":55341:55378  hex_contract.balanceOf(address(this)) */\n      0x04\n      dup3\n      add\n        /* \"#utility.yul\":1524:1575   */\n      mstore\n        /* \"PerpetualPool_flat.sol\":55224:55282  uint256 total_supply = IERC20(address(this)).totalSupply() */\n      swap2\n      swap3\n      pop\n        /* \"PerpetualPool_flat.sol\":55315:55393  calculate_redemption_rate(hex_contract.balanceOf(address(this)), total_supply) */\n      tag_270\n      swap2\n      sub(shl(0xa0, 0x01), 0x01)\n        /* \"PerpetualPool_flat.sol\":55341:55353  hex_contract */\n      swap1\n      swap2\n      and\n      swap1\n        /* \"PerpetualPool_flat.sol\":55341:55363  hex_contract.balanceOf */\n      0x70a08231\n      swap1\n        /* \"#utility.yul\":1497:1515   */\n      0x24\n      add\n        /* \"PerpetualPool_flat.sol\":55341:55378  hex_contract.balanceOf(address(this)) */\n      0x20\n      mload(0x40)\n      dup1\n      dup4\n      sub\n      dup2\n      dup7\n      gas\n      staticcall\n      iszero\n      dup1\n      iszero\n      tag_273\n      jumpi\n      returndatasize\n      0x00\n      dup1\n      returndatacopy\n      revert(0x00, returndatasize)\n    tag_273:\n      pop\n      pop\n      pop\n      pop\n      mload(0x40)\n      returndatasize\n      not(0x1f)\n      0x1f\n      dup3\n      add\n      and\n      dup3\n      add\n      dup1\n      0x40\n      mstore\n      pop\n      dup2\n      add\n      swap1\n      tag_274\n      swap2\n      swap1\n      tag_178\n      jump\t// in\n    tag_274:\n        /* \"PerpetualPool_flat.sol\":55380:55392  total_supply */\n      dup3\n        /* \"PerpetualPool_flat.sol\":55315:55340  calculate_redemption_rate */\n      tag_275\n        /* \"PerpetualPool_flat.sol\":55315:55393  calculate_redemption_rate(hex_contract.balanceOf(address(this)), total_supply) */\n      jump\t// in\n    tag_270:\n        /* \"PerpetualPool_flat.sol\":55292:55311  HEX_REDEMPTION_RATE */\n      0x0c\n        /* \"PerpetualPool_flat.sol\":55292:55393  HEX_REDEMPTION_RATE  = calculate_redemption_rate(hex_contract.balanceOf(address(this)), total_supply) */\n      sstore\n        /* \"PerpetualPool_flat.sol\":55403:55413  END_STAKER */\n      0x0d\n        /* \"PerpetualPool_flat.sol\":55403:55424  END_STAKER=msg.sender */\n      dup1\n      sload\n      0x00\n        /* \"PerpetualPool_flat.sol\":55434:55457  CURRENT_STAKE_PRINCIPAL */\n      0x0f\n        /* \"PerpetualPool_flat.sol\":55434:55459  CURRENT_STAKE_PRINCIPAL=0 */\n      sstore\n      not(sub(shl(0xa8, 0x01), 0x01))\n        /* \"PerpetualPool_flat.sol\":55469:55490  STAKE_IS_ACTIVE=false */\n      and\n        /* \"PerpetualPool_flat.sol\":55414:55424  msg.sender */\n      caller\n        /* \"PerpetualPool_flat.sol\":55403:55424  END_STAKER=msg.sender */\n      0x0100\n      mul\n      not(0xff)\n        /* \"PerpetualPool_flat.sol\":55469:55490  STAKE_IS_ACTIVE=false */\n      and\n      or\n      swap1\n      sstore\n        /* \"PerpetualPool_flat.sol\":55519:55528  hex_token */\n      sload(0x14)\n        /* \"PerpetualPool_flat.sol\":55519:55541  hex_token.currentDay() */\n      0x40\n      dup1\n      mload\n      shl(0xe0, 0x5c9302c9)\n      dup2\n      mstore\n      swap1\n      mload\n      sub(shl(0xa0, 0x01), 0x01)\n        /* \"PerpetualPool_flat.sol\":55519:55528  hex_token */\n      swap1\n      swap3\n      and\n      swap2\n        /* \"PerpetualPool_flat.sol\":55519:55539  hex_token.currentDay */\n      0x5c9302c9\n      swap2\n        /* \"PerpetualPool_flat.sol\":55519:55541  hex_token.currentDay() */\n      0x04\n      dup1\n      dup3\n      add\n      swap3\n      0x20\n      swap3\n      swap1\n      swap2\n      swap1\n      dup3\n      swap1\n      sub\n      add\n      dup2\n        /* \"PerpetualPool_flat.sol\":55519:55528  hex_token */\n      dup7\n        /* \"PerpetualPool_flat.sol\":55519:55541  hex_token.currentDay() */\n      gas\n      staticcall\n      iszero\n      dup1\n      iszero\n      tag_277\n      jumpi\n      returndatasize\n      0x00\n      dup1\n      returndatacopy\n      revert(0x00, returndatasize)\n    tag_277:\n      pop\n      pop\n      pop\n      pop\n      mload(0x40)\n      returndatasize\n      not(0x1f)\n      0x1f\n      dup3\n      add\n      and\n      dup3\n      add\n      dup1\n      0x40\n      mstore\n      pop\n      dup2\n      add\n      swap1\n      tag_278\n      swap2\n      swap1\n      tag_178\n      jump\t// in\n    tag_278:\n        /* \"PerpetualPool_flat.sol\":55500:55518  RELOAD_PHASE_START */\n      0x07\n        /* \"PerpetualPool_flat.sol\":55500:55541  RELOAD_PHASE_START=hex_token.currentDay() */\n      dup2\n      swap1\n      sstore\n        /* \"PerpetualPool_flat.sol\":55587:55608  RELOAD_PHASE_DURATION */\n      sload(0x06)\n        /* \"PerpetualPool_flat.sol\":55568:55608  RELOAD_PHASE_START+RELOAD_PHASE_DURATION */\n      tag_279\n      swap2\n      tag_194\n      jump\t// in\n    tag_279:\n        /* \"PerpetualPool_flat.sol\":55551:55567  RELOAD_PHASE_END */\n      0x08\n        /* \"PerpetualPool_flat.sol\":55551:55608  RELOAD_PHASE_END=RELOAD_PHASE_START+RELOAD_PHASE_DURATION */\n      sstore\n        /* \"PerpetualPool_flat.sol\":55635:55649  CURRENT_PERIOD */\n      sload(0x10)\n        /* \"PerpetualPool_flat.sol\":55635:55651  CURRENT_PERIOD+1 */\n      tag_280\n      swap1\n        /* \"PerpetualPool_flat.sol\":55650:55651  1 */\n      0x01\n        /* \"PerpetualPool_flat.sol\":55635:55651  CURRENT_PERIOD+1 */\n      tag_194\n      jump\t// in\n    tag_280:\n        /* \"PerpetualPool_flat.sol\":55618:55632  CURRENT_PERIOD */\n      0x10\n        /* \"PerpetualPool_flat.sol\":55618:55651  CURRENT_PERIOD = CURRENT_PERIOD+1 */\n      sstore\n      pop\n      pop\n        /* \"PerpetualPool_flat.sol\":1734:1735  1 */\n      0x01\n        /* \"PerpetualPool_flat.sol\":2661:2668  _status */\n      0x05\n        /* \"PerpetualPool_flat.sol\":2661:2683  _status = _NOT_ENTERED */\n      sstore\n      pop\n      pop\n      pop\n        /* \"PerpetualPool_flat.sol\":54571:55677  function endStakeHEX(uint256 stakeIndex,uint40 stakeIdParam ) nonReentrant external {... */\n      jump\t// out\n        /* \"PerpetualPool_flat.sol\":38373:38734  function burnFrom(address account, uint256 amount) public virtual {... */\n    tag_113:\n        /* \"PerpetualPool_flat.sol\":38449:38473  uint256 currentAllowance */\n      0x00\n        /* \"PerpetualPool_flat.sol\":38476:38508  allowance(account, _msgSender()) */\n      tag_283\n        /* \"PerpetualPool_flat.sol\":38486:38493  account */\n      dup4\n        /* \"PerpetualPool_flat.sol\":18162:18172  msg.sender */\n      caller\n        /* \"PerpetualPool_flat.sol\":29575:29724  function allowance(address owner, address spender) public view virtual override returns (uint256) {... */\n      tag_149\n      jump\t// in\n        /* \"PerpetualPool_flat.sol\":38476:38508  allowance(account, _msgSender()) */\n    tag_283:\n        /* \"PerpetualPool_flat.sol\":38449:38508  uint256 currentAllowance = allowance(account, _msgSender()) */\n      swap1\n      pop\n        /* \"PerpetualPool_flat.sol\":38546:38552  amount */\n      dup2\n        /* \"PerpetualPool_flat.sol\":38526:38542  currentAllowance */\n      dup2\n        /* \"PerpetualPool_flat.sol\":38526:38552  currentAllowance >= amount */\n      lt\n      iszero\n        /* \"PerpetualPool_flat.sol\":38518:38593  require(currentAllowance >= amount, \"ERC20: burn amount exceeds allowance\") */\n      tag_285\n      jumpi\n      mload(0x40)\n      shl(0xe5, 0x461bcd)\n      dup2\n      mstore\n        /* \"#utility.yul\":8505:8507   */\n      0x20\n        /* \"PerpetualPool_flat.sol\":38518:38593  require(currentAllowance >= amount, \"ERC20: burn amount exceeds allowance\") */\n      0x04\n      dup3\n      add\n        /* \"#utility.yul\":8487:8508   */\n      mstore\n        /* \"#utility.yul\":8544:8546   */\n      0x24\n        /* \"#utility.yul\":8524:8542   */\n      dup1\n      dup3\n      add\n        /* \"#utility.yul\":8517:8547   */\n      mstore\n        /* \"#utility.yul\":8583:8617   */\n      0x45524332303a206275726e20616d6f756e74206578636565647320616c6c6f77\n        /* \"#utility.yul\":8563:8581   */\n      0x44\n      dup3\n      add\n        /* \"#utility.yul\":8556:8618   */\n      mstore\n      shl(0xe0, 0x616e6365)\n        /* \"#utility.yul\":8634:8652   */\n      0x64\n      dup3\n      add\n        /* \"#utility.yul\":8627:8661   */\n      mstore\n        /* \"#utility.yul\":8678:8697   */\n      0x84\n      add\n        /* \"PerpetualPool_flat.sol\":38518:38593  require(currentAllowance >= amount, \"ERC20: burn amount exceeds allowance\") */\n      tag_184\n        /* \"#utility.yul\":8303:8703   */\n      jump\n        /* \"PerpetualPool_flat.sol\":38518:38593  require(currentAllowance >= amount, \"ERC20: burn amount exceeds allowance\") */\n    tag_285:\n        /* \"PerpetualPool_flat.sol\":38627:38685  _approve(account, _msgSender(), currentAllowance - amount) */\n      tag_288\n        /* \"PerpetualPool_flat.sol\":38636:38643  account */\n      dup4\n        /* \"PerpetualPool_flat.sol\":18162:18172  msg.sender */\n      caller\n        /* \"PerpetualPool_flat.sol\":38678:38684  amount */\n      dup5\n        /* \"PerpetualPool_flat.sol\":38659:38675  currentAllowance */\n      dup5\n        /* \"PerpetualPool_flat.sol\":38659:38684  currentAllowance - amount */\n      sub\n        /* \"PerpetualPool_flat.sol\":38627:38635  _approve */\n      tag_171\n        /* \"PerpetualPool_flat.sol\":38627:38685  _approve(account, _msgSender(), currentAllowance - amount) */\n      jump\t// in\n    tag_288:\n        /* \"PerpetualPool_flat.sol\":38705:38727  _burn(account, amount) */\n      tag_290\n        /* \"PerpetualPool_flat.sol\":38711:38718  account */\n      dup4\n        /* \"PerpetualPool_flat.sol\":38720:38726  amount */\n      dup4\n        /* \"PerpetualPool_flat.sol\":38705:38710  _burn */\n      tag_198\n        /* \"PerpetualPool_flat.sol\":38705:38727  _burn(account, amount) */\n      jump\t// in\n    tag_290:\n        /* \"PerpetualPool_flat.sol\":38439:38734  {... */\n      pop\n        /* \"PerpetualPool_flat.sol\":38373:38734  function burnFrom(address account, uint256 amount) public virtual {... */\n      pop\n      pop\n      jump\t// out\n        /* \"PerpetualPool_flat.sol\":58558:58675  function mintHedron(uint256 stakeIndex,uint40 stakeId ) external  {... */\n    tag_116:\n        /* \"PerpetualPool_flat.sol\":58632:58664  _mintHedron(stakeIndex, stakeId) */\n      tag_292\n        /* \"PerpetualPool_flat.sol\":58644:58654  stakeIndex */\n      dup3\n        /* \"PerpetualPool_flat.sol\":58656:58663  stakeId */\n      dup3\n        /* \"PerpetualPool_flat.sol\":58632:58643  _mintHedron */\n      tag_293\n        /* \"PerpetualPool_flat.sol\":58632:58664  _mintHedron(stakeIndex, stakeId) */\n      jump\t// in\n    tag_292:\n        /* \"PerpetualPool_flat.sol\":58558:58675  function mintHedron(uint256 stakeIndex,uint40 stakeId ) external  {... */\n      pop\n      pop\n      jump\t// out\n        /* \"PerpetualPool_flat.sol\":27976:28078  function symbol() public view virtual override returns (string memory) {... */\n    tag_124:\n        /* \"PerpetualPool_flat.sol\":28032:28045  string memory */\n      0x60\n        /* \"PerpetualPool_flat.sol\":28064:28071  _symbol */\n      0x04\n        /* \"PerpetualPool_flat.sol\":28057:28071  return _symbol */\n      dup1\n      sload\n      tag_160\n      swap1\n      tag_161\n      jump\t// in\n        /* \"PerpetualPool_flat.sol\":32067:32472  function decreaseAllowance(address spender, uint256 subtractedValue) public virtual returns (bool) {... */\n    tag_128:\n        /* \"PerpetualPool_flat.sol\":18162:18172  msg.sender */\n      caller\n        /* \"PerpetualPool_flat.sol\":32160:32164  bool */\n      0x00\n        /* \"PerpetualPool_flat.sol\":32203:32228  _allowances[_msgSender()] */\n      swap1\n      dup2\n      mstore\n        /* \"PerpetualPool_flat.sol\":32203:32214  _allowances */\n      0x01\n        /* \"PerpetualPool_flat.sol\":32203:32228  _allowances[_msgSender()] */\n      0x20\n      swap1\n      dup2\n      mstore\n      0x40\n      dup1\n      dup4\n      keccak256\n      sub(shl(0xa0, 0x01), 0x01)\n        /* \"PerpetualPool_flat.sol\":32203:32237  _allowances[_msgSender()][spender] */\n      dup7\n      and\n      dup5\n      mstore\n      swap1\n      swap2\n      mstore\n      dup2\n      keccak256\n      sload\n        /* \"PerpetualPool_flat.sol\":32255:32290  currentAllowance >= subtractedValue */\n      dup3\n      dup2\n      lt\n      iszero\n        /* \"PerpetualPool_flat.sol\":32247:32332  require(currentAllowance >= subtractedValue, \"ERC20: decreased allowance below zero\") */\n      tag_302\n      jumpi\n      mload(0x40)\n      shl(0xe5, 0x461bcd)\n      dup2\n      mstore\n        /* \"#utility.yul\":8910:8912   */\n      0x20\n        /* \"PerpetualPool_flat.sol\":32247:32332  require(currentAllowance >= subtractedValue, \"ERC20: decreased allowance below zero\") */\n      0x04\n      dup3\n      add\n        /* \"#utility.yul\":8892:8913   */\n      mstore\n        /* \"#utility.yul\":8949:8951   */\n      0x25\n        /* \"#utility.yul\":8929:8947   */\n      0x24\n      dup3\n      add\n        /* \"#utility.yul\":8922:8952   */\n      mstore\n        /* \"#utility.yul\":8988:9022   */\n      0x45524332303a2064656372656173656420616c6c6f77616e63652062656c6f77\n        /* \"#utility.yul\":8968:8986   */\n      0x44\n      dup3\n      add\n        /* \"#utility.yul\":8961:9023   */\n      mstore\n      shl(0xd8, 0x207a65726f)\n        /* \"#utility.yul\":9039:9057   */\n      0x64\n      dup3\n      add\n        /* \"#utility.yul\":9032:9067   */\n      mstore\n        /* \"#utility.yul\":9084:9103   */\n      0x84\n      add\n        /* \"PerpetualPool_flat.sol\":32247:32332  require(currentAllowance >= subtractedValue, \"ERC20: decreased allowance below zero\") */\n      tag_184\n        /* \"#utility.yul\":8708:9109   */\n      jump\n        /* \"PerpetualPool_flat.sol\":32247:32332  require(currentAllowance >= subtractedValue, \"ERC20: decreased allowance below zero\") */\n    tag_302:\n        /* \"PerpetualPool_flat.sol\":32366:32433  _approve(_msgSender(), spender, currentAllowance - subtractedValue) */\n      tag_305\n        /* \"PerpetualPool_flat.sol\":18162:18172  msg.sender */\n      caller\n        /* \"PerpetualPool_flat.sol\":32389:32396  spender */\n      dup6\n        /* \"PerpetualPool_flat.sol\":32417:32432  subtractedValue */\n      dup6\n        /* \"PerpetualPool_flat.sol\":32398:32414  currentAllowance */\n      dup5\n        /* \"PerpetualPool_flat.sol\":32398:32432  currentAllowance - subtractedValue */\n      sub\n        /* \"PerpetualPool_flat.sol\":32366:32374  _approve */\n      tag_171\n        /* \"PerpetualPool_flat.sol\":32366:32433  _approve(_msgSender(), spender, currentAllowance - subtractedValue) */\n      jump\t// in\n    tag_305:\n      pop\n        /* \"PerpetualPool_flat.sol\":32461:32465  true */\n      0x01\n      swap4\n        /* \"PerpetualPool_flat.sol\":32067:32472  function decreaseAllowance(address spender, uint256 subtractedValue) public virtual returns (bool) {... */\n      swap3\n      pop\n      pop\n      pop\n      jump\t// out\n        /* \"PerpetualPool_flat.sol\":29345:29517  function transfer(address recipient, uint256 amount) public virtual override returns (bool) {... */\n    tag_132:\n        /* \"PerpetualPool_flat.sol\":29431:29435  bool */\n      0x00\n        /* \"PerpetualPool_flat.sol\":29447:29489  _transfer(_msgSender(), recipient, amount) */\n      tag_168\n        /* \"PerpetualPool_flat.sol\":18162:18172  msg.sender */\n      caller\n        /* \"PerpetualPool_flat.sol\":29471:29480  recipient */\n      dup5\n        /* \"PerpetualPool_flat.sol\":29482:29488  amount */\n      dup5\n        /* \"PerpetualPool_flat.sol\":29447:29456  _transfer */\n      tag_181\n        /* \"PerpetualPool_flat.sol\":29447:29489  _transfer(_msgSender(), recipient, amount) */\n      jump\t// in\n        /* \"PerpetualPool_flat.sol\":53140:53712  function stakeHEX() nonReentrant external {... */\n    tag_144:\n        /* \"PerpetualPool_flat.sol\":1777:1778  2 */\n      0x02\n        /* \"PerpetualPool_flat.sol\":2358:2365  _status */\n      sload(0x05)\n        /* \"PerpetualPool_flat.sol\":2358:2377  _status != _ENTERED */\n      sub\n        /* \"PerpetualPool_flat.sol\":2350:2413  require(_status != _ENTERED, \"ReentrancyGuard: reentrant call\") */\n      tag_311\n      jumpi\n      mload(0x40)\n      shl(0xe5, 0x461bcd)\n      dup2\n      mstore\n      0x04\n      add\n      tag_184\n      swap1\n      tag_202\n      jump\t// in\n    tag_311:\n        /* \"PerpetualPool_flat.sol\":1777:1778  2 */\n      0x02\n        /* \"PerpetualPool_flat.sol\":2488:2495  _status */\n      0x05\n        /* \"PerpetualPool_flat.sol\":2488:2506  _status = _ENTERED */\n      sstore\n        /* \"PerpetualPool_flat.sol\":53200:53215  STAKE_IS_ACTIVE */\n      and(0xff, sload(0x0d))\n        /* \"PerpetualPool_flat.sol\":53200:53222  STAKE_IS_ACTIVE==false */\n      iszero\n        /* \"PerpetualPool_flat.sol\":53192:53253  require(STAKE_IS_ACTIVE==false, \"Stake has already started.\") */\n      tag_314\n      jumpi\n      mload(0x40)\n      shl(0xe5, 0x461bcd)\n      dup2\n      mstore\n        /* \"#utility.yul\":9316:9318   */\n      0x20\n        /* \"PerpetualPool_flat.sol\":53192:53253  require(STAKE_IS_ACTIVE==false, \"Stake has already started.\") */\n      0x04\n      dup3\n      add\n        /* \"#utility.yul\":9298:9319   */\n      mstore\n        /* \"#utility.yul\":9355:9357   */\n      0x1a\n        /* \"#utility.yul\":9335:9353   */\n      0x24\n      dup3\n      add\n        /* \"#utility.yul\":9328:9358   */\n      mstore\n        /* \"#utility.yul\":9394:9422   */\n      0x5374616b652068617320616c726561647920737461727465642e000000000000\n        /* \"#utility.yul\":9374:9392   */\n      0x44\n      dup3\n      add\n        /* \"#utility.yul\":9367:9423   */\n      mstore\n        /* \"#utility.yul\":9440:9458   */\n      0x64\n      add\n        /* \"PerpetualPool_flat.sol\":53192:53253  require(STAKE_IS_ACTIVE==false, \"Stake has already started.\") */\n      tag_184\n        /* \"#utility.yul\":9114:9464   */\n      jump\n        /* \"PerpetualPool_flat.sol\":53192:53253  require(STAKE_IS_ACTIVE==false, \"Stake has already started.\") */\n    tag_314:\n        /* \"PerpetualPool_flat.sol\":53285:53294  hex_token */\n      sload(0x14)\n        /* \"PerpetualPool_flat.sol\":53285:53307  hex_token.currentDay() */\n      0x40\n      dup1\n      mload\n      shl(0xe0, 0x5c9302c9)\n      dup2\n      mstore\n      swap1\n      mload\n        /* \"PerpetualPool_flat.sol\":53263:53282  uint256 current_day */\n      0x00\n      swap3\n      sub(shl(0xa0, 0x01), 0x01)\n        /* \"PerpetualPool_flat.sol\":53285:53294  hex_token */\n      and\n      swap2\n        /* \"PerpetualPool_flat.sol\":53285:53305  hex_token.currentDay */\n      0x5c9302c9\n      swap2\n        /* \"PerpetualPool_flat.sol\":53285:53307  hex_token.currentDay() */\n      0x04\n      dup1\n      dup4\n      add\n      swap3\n      0x20\n      swap3\n      swap2\n      swap1\n      dup3\n      swap1\n      sub\n      add\n      dup2\n        /* \"PerpetualPool_flat.sol\":53285:53294  hex_token */\n      dup7\n        /* \"PerpetualPool_flat.sol\":53285:53307  hex_token.currentDay() */\n      gas\n      staticcall\n      iszero\n      dup1\n      iszero\n      tag_318\n      jumpi\n      returndatasize\n      0x00\n      dup1\n      returndatacopy\n      revert(0x00, returndatasize)\n    tag_318:\n      pop\n      pop\n      pop\n      pop\n      mload(0x40)\n      returndatasize\n      not(0x1f)\n      0x1f\n      dup3\n      add\n      and\n      dup3\n      add\n      dup1\n      0x40\n      mstore\n      pop\n      dup2\n      add\n      swap1\n      tag_319\n      swap2\n      swap1\n      tag_178\n      jump\t// in\n    tag_319:\n        /* \"PerpetualPool_flat.sol\":53263:53307  uint256 current_day = hex_token.currentDay() */\n      swap1\n      pop\n        /* \"PerpetualPool_flat.sol\":53337:53353  RELOAD_PHASE_END */\n      sload(0x08)\n        /* \"PerpetualPool_flat.sol\":53325:53336  current_day */\n      dup2\n        /* \"PerpetualPool_flat.sol\":53325:53353  current_day>RELOAD_PHASE_END */\n      gt\n        /* \"PerpetualPool_flat.sol\":53317:53416  require(current_day>RELOAD_PHASE_END, \"Minting Phase is still ongoing - see RELOAD_PHASE_END day.\") */\n      tag_320\n      jumpi\n      mload(0x40)\n      shl(0xe5, 0x461bcd)\n      dup2\n      mstore\n        /* \"#utility.yul\":9671:9673   */\n      0x20\n        /* \"PerpetualPool_flat.sol\":53317:53416  require(current_day>RELOAD_PHASE_END, \"Minting Phase is still ongoing - see RELOAD_PHASE_END day.\") */\n      0x04\n      dup3\n      add\n        /* \"#utility.yul\":9653:9674   */\n      mstore\n        /* \"#utility.yul\":9710:9712   */\n      0x3a\n        /* \"#utility.yul\":9690:9708   */\n      0x24\n      dup3\n      add\n        /* \"#utility.yul\":9683:9713   */\n      mstore\n        /* \"#utility.yul\":9749:9783   */\n      0x4d696e74696e67205068617365206973207374696c6c206f6e676f696e67202d\n        /* \"#utility.yul\":9729:9747   */\n      0x44\n      dup3\n      add\n        /* \"#utility.yul\":9722:9784   */\n      mstore\n        /* \"#utility.yul\":9820:9848   */\n      0x207365652052454c4f41445f50484153455f454e44206461792e000000000000\n        /* \"#utility.yul\":9800:9818   */\n      0x64\n      dup3\n      add\n        /* \"#utility.yul\":9793:9849   */\n      mstore\n        /* \"#utility.yul\":9866:9885   */\n      0x84\n      add\n        /* \"PerpetualPool_flat.sol\":53317:53416  require(current_day>RELOAD_PHASE_END, \"Minting Phase is still ongoing - see RELOAD_PHASE_END day.\") */\n      tag_184\n        /* \"#utility.yul\":9469:9891   */\n      jump\n        /* \"PerpetualPool_flat.sol\":53317:53416  require(current_day>RELOAD_PHASE_END, \"Minting Phase is still ongoing - see RELOAD_PHASE_END day.\") */\n    tag_320:\n        /* \"PerpetualPool_flat.sol\":53443:53455  hex_contract */\n      sload(0x12)\n        /* \"PerpetualPool_flat.sol\":53443:53480  hex_contract.balanceOf(address(this)) */\n      mload(0x40)\n      shl(0xe0, 0x70a08231)\n      dup2\n      mstore\n        /* \"PerpetualPool_flat.sol\":53474:53478  this */\n      address\n        /* \"PerpetualPool_flat.sol\":53443:53480  hex_contract.balanceOf(address(this)) */\n      0x04\n      dup3\n      add\n        /* \"#utility.yul\":1524:1575   */\n      mstore\n        /* \"PerpetualPool_flat.sol\":53426:53440  uint256 amount */\n      0x00\n      swap2\n      sub(shl(0xa0, 0x01), 0x01)\n        /* \"PerpetualPool_flat.sol\":53443:53455  hex_contract */\n      and\n      swap1\n        /* \"PerpetualPool_flat.sol\":53443:53465  hex_contract.balanceOf */\n      0x70a08231\n      swap1\n        /* \"#utility.yul\":1497:1515   */\n      0x24\n      add\n        /* \"PerpetualPool_flat.sol\":53443:53480  hex_contract.balanceOf(address(this)) */\n      0x20\n      mload(0x40)\n      dup1\n      dup4\n      sub\n      dup2\n      dup7\n      gas\n      staticcall\n      iszero\n      dup1\n      iszero\n      tag_325\n      jumpi\n      returndatasize\n      0x00\n      dup1\n      returndatacopy\n      revert(0x00, returndatasize)\n    tag_325:\n      pop\n      pop\n      pop\n      pop\n      mload(0x40)\n      returndatasize\n      not(0x1f)\n      0x1f\n      dup3\n      add\n      and\n      dup3\n      add\n      dup1\n      0x40\n      mstore\n      pop\n      dup2\n      add\n      swap1\n      tag_326\n      swap2\n      swap1\n      tag_178\n      jump\t// in\n    tag_326:\n        /* \"PerpetualPool_flat.sol\":53426:53480  uint256 amount = hex_contract.balanceOf(address(this)) */\n      swap1\n      pop\n        /* \"PerpetualPool_flat.sol\":53490:53507  _stakeHEX(amount) */\n      tag_327\n        /* \"PerpetualPool_flat.sol\":53500:53506  amount */\n      dup2\n        /* \"PerpetualPool_flat.sol\":53490:53499  _stakeHEX */\n      tag_328\n        /* \"PerpetualPool_flat.sol\":53490:53507  _stakeHEX(amount) */\n      jump\t// in\n    tag_327:\n        /* \"PerpetualPool_flat.sol\":53517:53540  CURRENT_STAKE_PRINCIPAL */\n      0x0f\n        /* \"PerpetualPool_flat.sol\":53517:53547  CURRENT_STAKE_PRINCIPAL=amount */\n      dup2\n      swap1\n      sstore\n        /* \"PerpetualPool_flat.sol\":53557:53572  STAKE_START_DAY */\n      0x09\n        /* \"PerpetualPool_flat.sol\":53557:53584  STAKE_START_DAY=current_day */\n      dup3\n      swap1\n      sstore\n        /* \"PerpetualPool_flat.sol\":53620:53632  STAKE_LENGTH */\n      sload(0x0b)\n        /* \"PerpetualPool_flat.sol\":53608:53632  current_day+STAKE_LENGTH */\n      tag_329\n      swap1\n        /* \"PerpetualPool_flat.sol\":53573:53584  current_day */\n      dup4\n        /* \"PerpetualPool_flat.sol\":53608:53632  current_day+STAKE_LENGTH */\n      tag_194\n      jump\t// in\n    tag_329:\n        /* \"PerpetualPool_flat.sol\":53594:53607  STAKE_END_DAY */\n      0x0a\n        /* \"PerpetualPool_flat.sol\":53594:53632  STAKE_END_DAY=current_day+STAKE_LENGTH */\n      sstore\n        /* \"PerpetualPool_flat.sol\":53642:53657  STAKE_IS_ACTIVE */\n      0x0d\n        /* \"PerpetualPool_flat.sol\":53642:53662  STAKE_IS_ACTIVE=true */\n      dup1\n      sload\n      not(0xff)\n      and\n        /* \"PerpetualPool_flat.sol\":53658:53662  true */\n      0x01\n        /* \"PerpetualPool_flat.sol\":53642:53662  STAKE_IS_ACTIVE=true */\n      swap1\n      dup2\n      or\n      swap1\n      swap2\n      sstore\n        /* \"PerpetualPool_flat.sol\":53689:53703  CURRENT_PERIOD */\n      sload(0x10)\n        /* \"PerpetualPool_flat.sol\":53689:53705  CURRENT_PERIOD+1 */\n      tag_330\n      swap2\n      tag_194\n      jump\t// in\n    tag_330:\n        /* \"PerpetualPool_flat.sol\":53672:53686  CURRENT_PERIOD */\n      0x10\n        /* \"PerpetualPool_flat.sol\":53672:53705  CURRENT_PERIOD = CURRENT_PERIOD+1 */\n      sstore\n      pop\n      pop\n        /* \"PerpetualPool_flat.sol\":1734:1735  1 */\n      0x01\n        /* \"PerpetualPool_flat.sol\":2661:2668  _status */\n      0x05\n        /* \"PerpetualPool_flat.sol\":2661:2683  _status = _NOT_ENTERED */\n      sstore\n        /* \"PerpetualPool_flat.sol\":53140:53712  function stakeHEX() nonReentrant external {... */\n      jump\t// out\n        /* \"PerpetualPool_flat.sol\":51960:52528  function redeemHEX(uint256 amount) nonReentrant external {... */\n    tag_155:\n        /* \"PerpetualPool_flat.sol\":1777:1778  2 */\n      0x02\n        /* \"PerpetualPool_flat.sol\":2358:2365  _status */\n      sload(0x05)\n        /* \"PerpetualPool_flat.sol\":2358:2377  _status != _ENTERED */\n      sub\n        /* \"PerpetualPool_flat.sol\":2350:2413  require(_status != _ENTERED, \"ReentrancyGuard: reentrant call\") */\n      tag_333\n      jumpi\n      mload(0x40)\n      shl(0xe5, 0x461bcd)\n      dup2\n      mstore\n      0x04\n      add\n      tag_184\n      swap1\n      tag_202\n      jump\t// in\n    tag_333:\n        /* \"PerpetualPool_flat.sol\":1777:1778  2 */\n      0x02\n        /* \"PerpetualPool_flat.sol\":2488:2495  _status */\n      0x05\n        /* \"PerpetualPool_flat.sol\":2488:2506  _status = _ENTERED */\n      sstore\n        /* \"PerpetualPool_flat.sol\":52035:52050  STAKE_IS_ACTIVE */\n      and(0xff, sload(0x0d))\n        /* \"PerpetualPool_flat.sol\":52035:52057  STAKE_IS_ACTIVE==false */\n      iszero\n        /* \"PerpetualPool_flat.sol\":52027:52109  require(STAKE_IS_ACTIVE==false, \"Redemption can not happen while stake is active\") */\n      tag_336\n      jumpi\n      mload(0x40)\n      shl(0xe5, 0x461bcd)\n      dup2\n      mstore\n        /* \"#utility.yul\":10098:10100   */\n      0x20\n        /* \"PerpetualPool_flat.sol\":52027:52109  require(STAKE_IS_ACTIVE==false, \"Redemption can not happen while stake is active\") */\n      0x04\n      dup3\n      add\n        /* \"#utility.yul\":10080:10101   */\n      mstore\n        /* \"#utility.yul\":10137:10139   */\n      0x2f\n        /* \"#utility.yul\":10117:10135   */\n      0x24\n      dup3\n      add\n        /* \"#utility.yul\":10110:10140   */\n      mstore\n        /* \"#utility.yul\":10176:10210   */\n      0x526564656d7074696f6e2063616e206e6f742068617070656e207768696c6520\n        /* \"#utility.yul\":10156:10174   */\n      0x44\n      dup3\n      add\n        /* \"#utility.yul\":10149:10211   */\n      mstore\n      shl(0x88, 0x7374616b6520697320616374697665)\n        /* \"#utility.yul\":10227:10245   */\n      0x64\n      dup3\n      add\n        /* \"#utility.yul\":10220:10265   */\n      mstore\n        /* \"#utility.yul\":10282:10301   */\n      0x84\n      add\n        /* \"PerpetualPool_flat.sol\":52027:52109  require(STAKE_IS_ACTIVE==false, \"Redemption can not happen while stake is active\") */\n      tag_184\n        /* \"#utility.yul\":9896:10307   */\n      jump\n        /* \"PerpetualPool_flat.sol\":52027:52109  require(STAKE_IS_ACTIVE==false, \"Redemption can not happen while stake is active\") */\n    tag_336:\n        /* \"PerpetualPool_flat.sol\":52152:52162  msg.sender */\n      caller\n        /* \"PerpetualPool_flat.sol\":52119:52139  uint256 your_balance */\n      0x00\n        /* \"PerpetualPool_flat.sol\":29117:29135  _balances[account] */\n      swap1\n      dup2\n      mstore\n      0x20\n      dup2\n      swap1\n      mstore\n      0x40\n      swap1\n      keccak256\n      sload\n        /* \"PerpetualPool_flat.sol\":52181:52201  your_balance>=amount */\n      dup2\n      dup2\n      lt\n      iszero\n        /* \"PerpetualPool_flat.sol\":52173:52250  require(your_balance>=amount, \"You do not have that much of the Pool Token.\") */\n      tag_340\n      jumpi\n      mload(0x40)\n      shl(0xe5, 0x461bcd)\n      dup2\n      mstore\n        /* \"#utility.yul\":10514:10516   */\n      0x20\n        /* \"PerpetualPool_flat.sol\":52173:52250  require(your_balance>=amount, \"You do not have that much of the Pool Token.\") */\n      0x04\n      dup3\n      add\n        /* \"#utility.yul\":10496:10517   */\n      mstore\n        /* \"#utility.yul\":10553:10555   */\n      0x2c\n        /* \"#utility.yul\":10533:10551   */\n      0x24\n      dup3\n      add\n        /* \"#utility.yul\":10526:10556   */\n      mstore\n        /* \"#utility.yul\":10592:10626   */\n      0x596f7520646f206e6f7420686176652074686174206d756368206f6620746865\n        /* \"#utility.yul\":10572:10590   */\n      0x44\n      dup3\n      add\n        /* \"#utility.yul\":10565:10627   */\n      mstore\n      shl(0xa1, 0x102837b7b6102a37b5b2b717)\n        /* \"#utility.yul\":10643:10661   */\n      0x64\n      dup3\n      add\n        /* \"#utility.yul\":10636:10678   */\n      mstore\n        /* \"#utility.yul\":10695:10714   */\n      0x84\n      add\n        /* \"PerpetualPool_flat.sol\":52173:52250  require(your_balance>=amount, \"You do not have that much of the Pool Token.\") */\n      tag_184\n        /* \"#utility.yul\":10312:10720   */\n      jump\n        /* \"PerpetualPool_flat.sol\":52173:52250  require(your_balance>=amount, \"You do not have that much of the Pool Token.\") */\n    tag_340:\n        /* \"PerpetualPool_flat.sol\":52260:52289  uint256 raw_redeemable_amount */\n      0x00\n        /* \"PerpetualPool_flat.sol\":52299:52318  HEX_REDEMPTION_RATE */\n      sload(0x0c)\n        /* \"PerpetualPool_flat.sol\":52292:52298  amount */\n      dup4\n        /* \"PerpetualPool_flat.sol\":52292:52318  amount*HEX_REDEMPTION_RATE */\n      tag_343\n      swap2\n      swap1\n      tag_228\n      jump\t// in\n    tag_343:\n        /* \"PerpetualPool_flat.sol\":52260:52318  uint256 raw_redeemable_amount = amount*HEX_REDEMPTION_RATE */\n      swap1\n      pop\n        /* \"PerpetualPool_flat.sol\":52328:52353  uint256 redeemable_amount */\n      0x00\n        /* \"PerpetualPool_flat.sol\":52356:52385  raw_redeemable_amount/(10**8) */\n      tag_344\n        /* \"PerpetualPool_flat.sol\":52379:52384  10**8 */\n      0x05f5e100\n        /* \"PerpetualPool_flat.sol\":52260:52318  uint256 raw_redeemable_amount = amount*HEX_REDEMPTION_RATE */\n      dup4\n        /* \"PerpetualPool_flat.sol\":52356:52385  raw_redeemable_amount/(10**8) */\n      tag_230\n      jump\t// in\n    tag_344:\n        /* \"PerpetualPool_flat.sol\":52328:52385  uint256 redeemable_amount = raw_redeemable_amount/(10**8) */\n      swap1\n      pop\n        /* \"PerpetualPool_flat.sol\":52441:52453  burn(amount) */\n      tag_345\n        /* \"PerpetualPool_flat.sol\":52446:52452  amount */\n      dup5\n        /* \"PerpetualPool_flat.sol\":52441:52445  burn */\n      tag_92\n        /* \"PerpetualPool_flat.sol\":52441:52453  burn(amount) */\n      jump\t// in\n    tag_345:\n        /* \"PerpetualPool_flat.sol\":52463:52472  hex_token */\n      sload(0x14)\n        /* \"PerpetualPool_flat.sol\":52463:52512  hex_token.transfer(msg.sender, redeemable_amount) */\n      mload(0x40)\n      shl(0xe0, 0xa9059cbb)\n      dup2\n      mstore\n        /* \"PerpetualPool_flat.sol\":52482:52492  msg.sender */\n      caller\n        /* \"PerpetualPool_flat.sol\":52463:52512  hex_token.transfer(msg.sender, redeemable_amount) */\n      0x04\n      dup3\n      add\n        /* \"#utility.yul\":8198:8249   */\n      mstore\n        /* \"#utility.yul\":8265:8283   */\n      0x24\n      dup2\n      add\n        /* \"#utility.yul\":8258:8292   */\n      dup4\n      swap1\n      mstore\n      sub(shl(0xa0, 0x01), 0x01)\n        /* \"PerpetualPool_flat.sol\":52463:52472  hex_token */\n      swap1\n      swap2\n      and\n      swap1\n        /* \"PerpetualPool_flat.sol\":52463:52481  hex_token.transfer */\n      0xa9059cbb\n      swap1\n        /* \"#utility.yul\":8171:8189   */\n      0x44\n      add\n        /* \"PerpetualPool_flat.sol\":52463:52512  hex_token.transfer(msg.sender, redeemable_amount) */\n      0x20\n      mload(0x40)\n      dup1\n      dup4\n      sub\n      dup2\n      0x00\n      dup8\n      gas\n      call\n      iszero\n      dup1\n      iszero\n      tag_348\n      jumpi\n      returndatasize\n      0x00\n      dup1\n      returndatacopy\n      revert(0x00, returndatasize)\n    tag_348:\n      pop\n      pop\n      pop\n      pop\n      mload(0x40)\n      returndatasize\n      not(0x1f)\n      0x1f\n      dup3\n      add\n      and\n      dup3\n      add\n      dup1\n      0x40\n      mstore\n      pop\n      dup2\n      add\n      swap1\n      tag_349\n      swap2\n      swap1\n      tag_226\n      jump\t// in\n    tag_349:\n      pop\n      pop\n        /* \"PerpetualPool_flat.sol\":1734:1735  1 */\n      0x01\n        /* \"PerpetualPool_flat.sol\":2661:2668  _status */\n      0x05\n        /* \"PerpetualPool_flat.sol\":2661:2683  _status = _NOT_ENTERED */\n      sstore\n      pop\n      pop\n      pop\n        /* \"PerpetualPool_flat.sol\":51960:52528  function redeemHEX(uint256 amount) nonReentrant external {... */\n      jump\t// out\n        /* \"PerpetualPool_flat.sol\":35643:36013  function _approve(... */\n    tag_171:\n      sub(shl(0xa0, 0x01), 0x01)\n        /* \"PerpetualPool_flat.sol\":35774:35793  owner != address(0) */\n      dup4\n      and\n        /* \"PerpetualPool_flat.sol\":35766:35834  require(owner != address(0), \"ERC20: approve from the zero address\") */\n      tag_352\n      jumpi\n      mload(0x40)\n      shl(0xe5, 0x461bcd)\n      dup2\n      mstore\n        /* \"#utility.yul\":10927:10929   */\n      0x20\n        /* \"PerpetualPool_flat.sol\":35766:35834  require(owner != address(0), \"ERC20: approve from the zero address\") */\n      0x04\n      dup3\n      add\n        /* \"#utility.yul\":10909:10930   */\n      mstore\n        /* \"#utility.yul\":10966:10968   */\n      0x24\n        /* \"#utility.yul\":10946:10964   */\n      dup1\n      dup3\n      add\n        /* \"#utility.yul\":10939:10969   */\n      mstore\n        /* \"#utility.yul\":11005:11039   */\n      0x45524332303a20617070726f76652066726f6d20746865207a65726f20616464\n        /* \"#utility.yul\":10985:11003   */\n      0x44\n      dup3\n      add\n        /* \"#utility.yul\":10978:11040   */\n      mstore\n      shl(0xe0, 0x72657373)\n        /* \"#utility.yul\":11056:11074   */\n      0x64\n      dup3\n      add\n        /* \"#utility.yul\":11049:11083   */\n      mstore\n        /* \"#utility.yul\":11100:11119   */\n      0x84\n      add\n        /* \"PerpetualPool_flat.sol\":35766:35834  require(owner != address(0), \"ERC20: approve from the zero address\") */\n      tag_184\n        /* \"#utility.yul\":10725:11125   */\n      jump\n        /* \"PerpetualPool_flat.sol\":35766:35834  require(owner != address(0), \"ERC20: approve from the zero address\") */\n    tag_352:\n      sub(shl(0xa0, 0x01), 0x01)\n        /* \"PerpetualPool_flat.sol\":35852:35873  spender != address(0) */\n      dup3\n      and\n        /* \"PerpetualPool_flat.sol\":35844:35912  require(spender != address(0), \"ERC20: approve to the zero address\") */\n      tag_355\n      jumpi\n      mload(0x40)\n      shl(0xe5, 0x461bcd)\n      dup2\n      mstore\n        /* \"#utility.yul\":11332:11334   */\n      0x20\n        /* \"PerpetualPool_flat.sol\":35844:35912  require(spender != address(0), \"ERC20: approve to the zero address\") */\n      0x04\n      dup3\n      add\n        /* \"#utility.yul\":11314:11335   */\n      mstore\n        /* \"#utility.yul\":11371:11373   */\n      0x22\n        /* \"#utility.yul\":11351:11369   */\n      0x24\n      dup3\n      add\n        /* \"#utility.yul\":11344:11374   */\n      mstore\n        /* \"#utility.yul\":11410:11444   */\n      0x45524332303a20617070726f766520746f20746865207a65726f206164647265\n        /* \"#utility.yul\":11390:11408   */\n      0x44\n      dup3\n      add\n        /* \"#utility.yul\":11383:11445   */\n      mstore\n      shl(0xf0, 0x7373)\n        /* \"#utility.yul\":11461:11479   */\n      0x64\n      dup3\n      add\n        /* \"#utility.yul\":11454:11486   */\n      mstore\n        /* \"#utility.yul\":11503:11522   */\n      0x84\n      add\n        /* \"PerpetualPool_flat.sol\":35844:35912  require(spender != address(0), \"ERC20: approve to the zero address\") */\n      tag_184\n        /* \"#utility.yul\":11130:11528   */\n      jump\n        /* \"PerpetualPool_flat.sol\":35844:35912  require(spender != address(0), \"ERC20: approve to the zero address\") */\n    tag_355:\n      sub(shl(0xa0, 0x01), 0x01)\n        /* \"PerpetualPool_flat.sol\":35923:35941  _allowances[owner] */\n      dup4\n      dup2\n      and\n      0x00\n      dup2\n      dup2\n      mstore\n        /* \"PerpetualPool_flat.sol\":35923:35934  _allowances */\n      0x01\n        /* \"PerpetualPool_flat.sol\":35923:35941  _allowances[owner] */\n      0x20\n      swap1\n      dup2\n      mstore\n      0x40\n      dup1\n      dup4\n      keccak256\n        /* \"PerpetualPool_flat.sol\":35923:35950  _allowances[owner][spender] */\n      swap5\n      dup8\n      and\n      dup1\n      dup5\n      mstore\n      swap5\n      dup3\n      mstore\n      swap2\n      dup3\n      swap1\n      keccak256\n        /* \"PerpetualPool_flat.sol\":35923:35959  _allowances[owner][spender] = amount */\n      dup6\n      swap1\n      sstore\n        /* \"PerpetualPool_flat.sol\":35974:36006  Approval(owner, spender, amount) */\n      swap1\n      mload\n        /* \"#utility.yul\":713:738   */\n      dup5\n      dup2\n      mstore\n        /* \"PerpetualPool_flat.sol\":35974:36006  Approval(owner, spender, amount) */\n      0x8c5be1e5ebec7d5bd14f71427d1e84f3dd0314c0f7b2291e5b200ac8c7c3b925\n      swap2\n        /* \"#utility.yul\":686:704   */\n      add\n        /* \"PerpetualPool_flat.sol\":35974:36006  Approval(owner, spender, amount) */\n      mload(0x40)\n      dup1\n      swap2\n      sub\n      swap1\n      log3\n        /* \"PerpetualPool_flat.sol\":35643:36013  function _approve(... */\n      pop\n      pop\n      pop\n      jump\t// out\n        /* \"PerpetualPool_flat.sol\":32946:33659  function _transfer(... */\n    tag_181:\n      sub(shl(0xa0, 0x01), 0x01)\n        /* \"PerpetualPool_flat.sol\":33081:33101  sender != address(0) */\n      dup4\n      and\n        /* \"PerpetualPool_flat.sol\":33073:33143  require(sender != address(0), \"ERC20: transfer from the zero address\") */\n      tag_360\n      jumpi\n      mload(0x40)\n      shl(0xe5, 0x461bcd)\n      dup2\n      mstore\n        /* \"#utility.yul\":11735:11737   */\n      0x20\n        /* \"PerpetualPool_flat.sol\":33073:33143  require(sender != address(0), \"ERC20: transfer from the zero address\") */\n      0x04\n      dup3\n      add\n        /* \"#utility.yul\":11717:11738   */\n      mstore\n        /* \"#utility.yul\":11774:11776   */\n      0x25\n        /* \"#utility.yul\":11754:11772   */\n      0x24\n      dup3\n      add\n        /* \"#utility.yul\":11747:11777   */\n      mstore\n        /* \"#utility.yul\":11813:11847   */\n      0x45524332303a207472616e736665722066726f6d20746865207a65726f206164\n        /* \"#utility.yul\":11793:11811   */\n      0x44\n      dup3\n      add\n        /* \"#utility.yul\":11786:11848   */\n      mstore\n      shl(0xd8, 0x6472657373)\n        /* \"#utility.yul\":11864:11882   */\n      0x64\n      dup3\n      add\n        /* \"#utility.yul\":11857:11892   */\n      mstore\n        /* \"#utility.yul\":11909:11928   */\n      0x84\n      add\n        /* \"PerpetualPool_flat.sol\":33073:33143  require(sender != address(0), \"ERC20: transfer from the zero address\") */\n      tag_184\n        /* \"#utility.yul\":11533:11934   */\n      jump\n        /* \"PerpetualPool_flat.sol\":33073:33143  require(sender != address(0), \"ERC20: transfer from the zero address\") */\n    tag_360:\n      sub(shl(0xa0, 0x01), 0x01)\n        /* \"PerpetualPool_flat.sol\":33161:33184  recipient != address(0) */\n      dup3\n      and\n        /* \"PerpetualPool_flat.sol\":33153:33224  require(recipient != address(0), \"ERC20: transfer to the zero address\") */\n      tag_363\n      jumpi\n      mload(0x40)\n      shl(0xe5, 0x461bcd)\n      dup2\n      mstore\n        /* \"#utility.yul\":12141:12143   */\n      0x20\n        /* \"PerpetualPool_flat.sol\":33153:33224  require(recipient != address(0), \"ERC20: transfer to the zero address\") */\n      0x04\n      dup3\n      add\n        /* \"#utility.yul\":12123:12144   */\n      mstore\n        /* \"#utility.yul\":12180:12182   */\n      0x23\n        /* \"#utility.yul\":12160:12178   */\n      0x24\n      dup3\n      add\n        /* \"#utility.yul\":12153:12183   */\n      mstore\n        /* \"#utility.yul\":12219:12253   */\n      0x45524332303a207472616e7366657220746f20746865207a65726f2061646472\n        /* \"#utility.yul\":12199:12217   */\n      0x44\n      dup3\n      add\n        /* \"#utility.yul\":12192:12254   */\n      mstore\n      shl(0xe8, 0x657373)\n        /* \"#utility.yul\":12270:12288   */\n      0x64\n      dup3\n      add\n        /* \"#utility.yul\":12263:12296   */\n      mstore\n        /* \"#utility.yul\":12313:12332   */\n      0x84\n      add\n        /* \"PerpetualPool_flat.sol\":33153:33224  require(recipient != address(0), \"ERC20: transfer to the zero address\") */\n      tag_184\n        /* \"#utility.yul\":11939:12338   */\n      jump\n        /* \"PerpetualPool_flat.sol\":33153:33224  require(recipient != address(0), \"ERC20: transfer to the zero address\") */\n    tag_363:\n      sub(shl(0xa0, 0x01), 0x01)\n        /* \"PerpetualPool_flat.sol\":33317:33334  _balances[sender] */\n      dup4\n      and\n        /* \"PerpetualPool_flat.sol\":33293:33314  uint256 senderBalance */\n      0x00\n        /* \"PerpetualPool_flat.sol\":33317:33334  _balances[sender] */\n      swap1\n      dup2\n      mstore\n      0x20\n      dup2\n      swap1\n      mstore\n      0x40\n      swap1\n      keccak256\n      sload\n        /* \"PerpetualPool_flat.sol\":33352:33375  senderBalance >= amount */\n      dup2\n      dup2\n      lt\n      iszero\n        /* \"PerpetualPool_flat.sol\":33344:33418  require(senderBalance >= amount, \"ERC20: transfer amount exceeds balance\") */\n      tag_368\n      jumpi\n      mload(0x40)\n      shl(0xe5, 0x461bcd)\n      dup2\n      mstore\n        /* \"#utility.yul\":12545:12547   */\n      0x20\n        /* \"PerpetualPool_flat.sol\":33344:33418  require(senderBalance >= amount, \"ERC20: transfer amount exceeds balance\") */\n      0x04\n      dup3\n      add\n        /* \"#utility.yul\":12527:12548   */\n      mstore\n        /* \"#utility.yul\":12584:12586   */\n      0x26\n        /* \"#utility.yul\":12564:12582   */\n      0x24\n      dup3\n      add\n        /* \"#utility.yul\":12557:12587   */\n      mstore\n        /* \"#utility.yul\":12623:12657   */\n      0x45524332303a207472616e7366657220616d6f756e7420657863656564732062\n        /* \"#utility.yul\":12603:12621   */\n      0x44\n      dup3\n      add\n        /* \"#utility.yul\":12596:12658   */\n      mstore\n      shl(0xd0, 0x616c616e6365)\n        /* \"#utility.yul\":12674:12692   */\n      0x64\n      dup3\n      add\n        /* \"#utility.yul\":12667:12703   */\n      mstore\n        /* \"#utility.yul\":12720:12739   */\n      0x84\n      add\n        /* \"PerpetualPool_flat.sol\":33344:33418  require(senderBalance >= amount, \"ERC20: transfer amount exceeds balance\") */\n      tag_184\n        /* \"#utility.yul\":12343:12745   */\n      jump\n        /* \"PerpetualPool_flat.sol\":33344:33418  require(senderBalance >= amount, \"ERC20: transfer amount exceeds balance\") */\n    tag_368:\n      sub(shl(0xa0, 0x01), 0x01)\n        /* \"PerpetualPool_flat.sol\":33452:33469  _balances[sender] */\n      dup1\n      dup6\n      and\n        /* \"PerpetualPool_flat.sol\":33452:33461  _balances */\n      0x00\n        /* \"PerpetualPool_flat.sol\":33452:33469  _balances[sender] */\n      swap1\n      dup2\n      mstore\n      0x20\n      dup2\n      swap1\n      mstore\n      0x40\n      dup1\n      dup3\n      keccak256\n        /* \"PerpetualPool_flat.sol\":33472:33494  senderBalance - amount */\n      dup6\n      dup6\n      sub\n        /* \"PerpetualPool_flat.sol\":33452:33494  _balances[sender] = senderBalance - amount */\n      swap1\n      sstore\n        /* \"PerpetualPool_flat.sol\":33514:33534  _balances[recipient] */\n      swap2\n      dup6\n      and\n      dup2\n      mstore\n      swap1\n      dup2\n      keccak256\n        /* \"PerpetualPool_flat.sol\":33514:33544  _balances[recipient] += amount */\n      dup1\n      sload\n        /* \"PerpetualPool_flat.sol\":33488:33494  amount */\n      dup5\n      swap3\n        /* \"PerpetualPool_flat.sol\":33452:33461  _balances */\n      swap1\n        /* \"PerpetualPool_flat.sol\":33514:33544  _balances[recipient] += amount */\n      tag_371\n      swap1\n        /* \"PerpetualPool_flat.sol\":33488:33494  amount */\n      dup5\n      swap1\n        /* \"PerpetualPool_flat.sol\":33514:33544  _balances[recipient] += amount */\n      tag_194\n      jump\t// in\n    tag_371:\n      swap3\n      pop\n      pop\n      dup2\n      swap1\n      sstore\n      pop\n        /* \"PerpetualPool_flat.sol\":33577:33586  recipient */\n      dup3\n      sub(shl(0xa0, 0x01), 0x01)\n        /* \"PerpetualPool_flat.sol\":33560:33595  Transfer(sender, recipient, amount) */\n      and\n        /* \"PerpetualPool_flat.sol\":33569:33575  sender */\n      dup5\n      sub(shl(0xa0, 0x01), 0x01)\n        /* \"PerpetualPool_flat.sol\":33560:33595  Transfer(sender, recipient, amount) */\n      and\n      0xddf252ad1be2c89b69c2b068fc378daa952ba7f163c4a11628f55a4df523b3ef\n        /* \"PerpetualPool_flat.sol\":33588:33594  amount */\n      dup5\n        /* \"PerpetualPool_flat.sol\":33560:33595  Transfer(sender, recipient, amount) */\n      mload(0x40)\n      tag_372\n      swap2\n        /* \"#utility.yul\":713:738   */\n      dup2\n      mstore\n        /* \"#utility.yul\":701:703   */\n      0x20\n        /* \"#utility.yul\":686:704   */\n      add\n      swap1\n        /* \"#utility.yul\":567:744   */\n      jump\n        /* \"PerpetualPool_flat.sol\":33560:33595  Transfer(sender, recipient, amount) */\n    tag_372:\n      mload(0x40)\n      dup1\n      swap2\n      sub\n      swap1\n      log3\n        /* \"PerpetualPool_flat.sol\":33063:33659  {... */\n      pop\n        /* \"PerpetualPool_flat.sol\":32946:33659  function _transfer(... */\n      pop\n      pop\n      pop\n      jump\t// out\n        /* \"PerpetualPool_flat.sol\":34644:35220  function _burn(address account, uint256 amount) internal virtual {... */\n    tag_198:\n      sub(shl(0xa0, 0x01), 0x01)\n        /* \"PerpetualPool_flat.sol\":34727:34748  account != address(0) */\n      dup3\n      and\n        /* \"PerpetualPool_flat.sol\":34719:34786  require(account != address(0), \"ERC20: burn from the zero address\") */\n      tag_376\n      jumpi\n      mload(0x40)\n      shl(0xe5, 0x461bcd)\n      dup2\n      mstore\n        /* \"#utility.yul\":12952:12954   */\n      0x20\n        /* \"PerpetualPool_flat.sol\":34719:34786  require(account != address(0), \"ERC20: burn from the zero address\") */\n      0x04\n      dup3\n      add\n        /* \"#utility.yul\":12934:12955   */\n      mstore\n        /* \"#utility.yul\":12991:12993   */\n      0x21\n        /* \"#utility.yul\":12971:12989   */\n      0x24\n      dup3\n      add\n        /* \"#utility.yul\":12964:12994   */\n      mstore\n        /* \"#utility.yul\":13030:13064   */\n      0x45524332303a206275726e2066726f6d20746865207a65726f20616464726573\n        /* \"#utility.yul\":13010:13028   */\n      0x44\n      dup3\n      add\n        /* \"#utility.yul\":13003:13065   */\n      mstore\n      shl(0xf8, 0x73)\n        /* \"#utility.yul\":13081:13099   */\n      0x64\n      dup3\n      add\n        /* \"#utility.yul\":13074:13105   */\n      mstore\n        /* \"#utility.yul\":13122:13141   */\n      0x84\n      add\n        /* \"PerpetualPool_flat.sol\":34719:34786  require(account != address(0), \"ERC20: burn from the zero address\") */\n      tag_184\n        /* \"#utility.yul\":12750:13147   */\n      jump\n        /* \"PerpetualPool_flat.sol\":34719:34786  require(account != address(0), \"ERC20: burn from the zero address\") */\n    tag_376:\n      sub(shl(0xa0, 0x01), 0x01)\n        /* \"PerpetualPool_flat.sol\":34882:34900  _balances[account] */\n      dup3\n      and\n        /* \"PerpetualPool_flat.sol\":34857:34879  uint256 accountBalance */\n      0x00\n        /* \"PerpetualPool_flat.sol\":34882:34900  _balances[account] */\n      swap1\n      dup2\n      mstore\n      0x20\n      dup2\n      swap1\n      mstore\n      0x40\n      swap1\n      keccak256\n      sload\n        /* \"PerpetualPool_flat.sol\":34918:34942  accountBalance >= amount */\n      dup2\n      dup2\n      lt\n      iszero\n        /* \"PerpetualPool_flat.sol\":34910:34981  require(accountBalance >= amount, \"ERC20: burn amount exceeds balance\") */\n      tag_380\n      jumpi\n      mload(0x40)\n      shl(0xe5, 0x461bcd)\n      dup2\n      mstore\n        /* \"#utility.yul\":13354:13356   */\n      0x20\n        /* \"PerpetualPool_flat.sol\":34910:34981  require(accountBalance >= amount, \"ERC20: burn amount exceeds balance\") */\n      0x04\n      dup3\n      add\n        /* \"#utility.yul\":13336:13357   */\n      mstore\n        /* \"#utility.yul\":13393:13395   */\n      0x22\n        /* \"#utility.yul\":13373:13391   */\n      0x24\n      dup3\n      add\n        /* \"#utility.yul\":13366:13396   */\n      mstore\n        /* \"#utility.yul\":13432:13466   */\n      0x45524332303a206275726e20616d6f756e7420657863656564732062616c616e\n        /* \"#utility.yul\":13412:13430   */\n      0x44\n      dup3\n      add\n        /* \"#utility.yul\":13405:13467   */\n      mstore\n      shl(0xf0, 0x6365)\n        /* \"#utility.yul\":13483:13501   */\n      0x64\n      dup3\n      add\n        /* \"#utility.yul\":13476:13508   */\n      mstore\n        /* \"#utility.yul\":13525:13544   */\n      0x84\n      add\n        /* \"PerpetualPool_flat.sol\":34910:34981  require(accountBalance >= amount, \"ERC20: burn amount exceeds balance\") */\n      tag_184\n        /* \"#utility.yul\":13152:13550   */\n      jump\n        /* \"PerpetualPool_flat.sol\":34910:34981  require(accountBalance >= amount, \"ERC20: burn amount exceeds balance\") */\n    tag_380:\n      sub(shl(0xa0, 0x01), 0x01)\n        /* \"PerpetualPool_flat.sol\":35015:35033  _balances[account] */\n      dup4\n      and\n        /* \"PerpetualPool_flat.sol\":35015:35024  _balances */\n      0x00\n        /* \"PerpetualPool_flat.sol\":35015:35033  _balances[account] */\n      swap1\n      dup2\n      mstore\n      0x20\n      dup2\n      swap1\n      mstore\n      0x40\n      dup2\n      keccak256\n        /* \"PerpetualPool_flat.sol\":35036:35059  accountBalance - amount */\n      dup4\n      dup4\n      sub\n        /* \"PerpetualPool_flat.sol\":35015:35059  _balances[account] = accountBalance - amount */\n      swap1\n      sstore\n        /* \"PerpetualPool_flat.sol\":35079:35091  _totalSupply */\n      0x02\n        /* \"PerpetualPool_flat.sol\":35079:35101  _totalSupply -= amount */\n      dup1\n      sload\n        /* \"PerpetualPool_flat.sol\":35053:35059  amount */\n      dup5\n      swap3\n        /* \"PerpetualPool_flat.sol\":35015:35024  _balances */\n      swap1\n        /* \"PerpetualPool_flat.sol\":35079:35101  _totalSupply -= amount */\n      tag_383\n      swap1\n        /* \"PerpetualPool_flat.sol\":35053:35059  amount */\n      dup5\n      swap1\n        /* \"PerpetualPool_flat.sol\":35079:35101  _totalSupply -= amount */\n      tag_384\n      jump\t// in\n    tag_383:\n      swap1\n      swap2\n      sstore\n      pop\n      pop\n        /* \"PerpetualPool_flat.sol\":35117:35154  Transfer(account, address(0), amount) */\n      mload(0x40)\n        /* \"#utility.yul\":713:738   */\n      dup3\n      dup2\n      mstore\n        /* \"PerpetualPool_flat.sol\":35143:35144  0 */\n      0x00\n      swap1\n      sub(shl(0xa0, 0x01), 0x01)\n        /* \"PerpetualPool_flat.sol\":35117:35154  Transfer(account, address(0), amount) */\n      dup6\n      and\n      swap1\n      0xddf252ad1be2c89b69c2b068fc378daa952ba7f163c4a11628f55a4df523b3ef\n      swap1\n        /* \"#utility.yul\":701:703   */\n      0x20\n        /* \"#utility.yul\":686:704   */\n      add\n        /* \"PerpetualPool_flat.sol\":35117:35154  Transfer(account, address(0), amount) */\n      mload(0x40)\n      dup1\n      swap2\n      sub\n      swap1\n      log3\n        /* \"PerpetualPool_flat.sol\":38439:38734  {... */\n      pop\n        /* \"PerpetualPool_flat.sol\":38373:38734  function burnFrom(address account, uint256 amount) public virtual {... */\n      pop\n      pop\n      jump\t// out\n        /* \"PerpetualPool_flat.sol\":50488:50568  function mint(uint256 amount) private {... */\n    tag_232:\n        /* \"PerpetualPool_flat.sol\":50536:50561  _mint(msg.sender, amount) */\n      tag_196\n        /* \"PerpetualPool_flat.sol\":50542:50552  msg.sender */\n      caller\n        /* \"PerpetualPool_flat.sol\":50554:50560  amount */\n      dup3\n        /* \"PerpetualPool_flat.sol\":50536:50541  _mint */\n      tag_389\n        /* \"PerpetualPool_flat.sol\":50536:50561  _mint(msg.sender, amount) */\n      jump\t// in\n        /* \"PerpetualPool_flat.sol\":53833:53970  function _endStakeHEX(uint256 stakeIndex,uint40 stakeIdParam ) private  {... */\n    tag_247:\n        /* \"PerpetualPool_flat.sol\":53915:53924  hex_token */\n      sload(0x14)\n        /* \"PerpetualPool_flat.sol\":53915:53959  hex_token.stakeEnd(stakeIndex, stakeIdParam) */\n      mload(0x40)\n      shl(0xe1, 0x1a1804d1)\n      dup2\n      mstore\n      0x04\n      dup2\n      add\n        /* \"#utility.yul\":13860:13885   */\n      dup5\n      swap1\n      mstore\n        /* \"#utility.yul\":13933:13945   */\n      0xffffffffff\n        /* \"#utility.yul\":13921:13946   */\n      dup4\n      and\n        /* \"#utility.yul\":13901:13919   */\n      0x24\n      dup3\n      add\n        /* \"#utility.yul\":13894:13947   */\n      mstore\n      sub(shl(0xa0, 0x01), 0x01)\n        /* \"PerpetualPool_flat.sol\":53915:53924  hex_token */\n      swap1\n      swap2\n      and\n      swap1\n        /* \"PerpetualPool_flat.sol\":53915:53933  hex_token.stakeEnd */\n      0x343009a2\n      swap1\n        /* \"#utility.yul\":13833:13851   */\n      0x44\n      add\n        /* \"PerpetualPool_flat.sol\":53915:53959  hex_token.stakeEnd(stakeIndex, stakeIdParam) */\n      0x00\n      mload(0x40)\n      dup1\n      dup4\n      sub\n      dup2\n      0x00\n      dup8\n      dup1\n      extcodesize\n      iszero\n      dup1\n      iszero\n      tag_393\n      jumpi\n      0x00\n      dup1\n      revert\n    tag_393:\n      pop\n      gas\n      call\n      iszero\n      dup1\n      iszero\n      tag_395\n      jumpi\n      returndatasize\n      0x00\n      dup1\n      returndatacopy\n      revert(0x00, returndatasize)\n    tag_395:\n      pop\n      pop\n      pop\n      pop\n        /* \"PerpetualPool_flat.sol\":53833:53970  function _endStakeHEX(uint256 stakeIndex,uint40 stakeIdParam ) private  {... */\n      pop\n      pop\n      jump\t// out\n        /* \"PerpetualPool_flat.sol\":55828:57114  function get_bonus_sharing_amount(uint256 principal,uint256 end_value, uint256 stake_length) private pure returns(uint256) {... */\n    tag_253:\n        /* \"PerpetualPool_flat.sol\":55942:55949  uint256 */\n      0x00\n      dup1\n        /* \"PerpetualPool_flat.sol\":56047:56064  150000000*(10**8) */\n      0x354a6ba7a18000\n        /* \"PerpetualPool_flat.sol\":56078:56101  principal>bpb_threshold */\n      dup1\n      dup7\n      gt\n        /* \"PerpetualPool_flat.sol\":56074:56350  if (principal>bpb_threshold) {... */\n      iszero\n      tag_397\n      jumpi\n        /* \"PerpetualPool_flat.sol\":56137:56149  principal/10 */\n      tag_398\n        /* \"PerpetualPool_flat.sol\":56147:56149  10 */\n      0x0a\n        /* \"PerpetualPool_flat.sol\":56137:56146  principal */\n      dup8\n        /* \"PerpetualPool_flat.sol\":56137:56149  principal/10 */\n      tag_230\n      jump\t// in\n    tag_398:\n        /* \"PerpetualPool_flat.sol\":56117:56149  bpb_effective_hex = principal/10 */\n      swap2\n      pop\n        /* \"PerpetualPool_flat.sol\":56074:56350  if (principal>bpb_threshold) {... */\n      jump(tag_399)\n    tag_397:\n        /* \"PerpetualPool_flat.sol\":56188:56217  uint256 scaled_bpb_multiplier */\n      0x00\n        /* \"PerpetualPool_flat.sol\":56244:56260  10*bpb_threshold */\n      tag_400\n        /* \"PerpetualPool_flat.sol\":56247:56260  bpb_threshold */\n      dup3\n        /* \"PerpetualPool_flat.sol\":56244:56246  10 */\n      0x0a\n        /* \"PerpetualPool_flat.sol\":56244:56260  10*bpb_threshold */\n      tag_228\n      jump\t// in\n    tag_400:\n        /* \"PerpetualPool_flat.sol\":56222:56241  (10**8)*(principal) */\n      tag_401\n        /* \"PerpetualPool_flat.sol\":56231:56240  principal */\n      dup9\n        /* \"PerpetualPool_flat.sol\":56223:56228  10**8 */\n      0x05f5e100\n        /* \"PerpetualPool_flat.sol\":56222:56241  (10**8)*(principal) */\n      tag_228\n      jump\t// in\n    tag_401:\n        /* \"PerpetualPool_flat.sol\":56221:56261  ((10**8)*(principal))/(10*bpb_threshold) */\n      tag_402\n      swap2\n      swap1\n      tag_230\n      jump\t// in\n    tag_402:\n        /* \"PerpetualPool_flat.sol\":56188:56262  uint256 scaled_bpb_multiplier = (((10**8)*(principal))/(10*bpb_threshold)) */\n      swap1\n      pop\n        /* \"PerpetualPool_flat.sol\":56333:56338  10**8 */\n      0x05f5e100\n        /* \"PerpetualPool_flat.sol\":56296:56331  principal * (scaled_bpb_multiplier) */\n      tag_403\n        /* \"PerpetualPool_flat.sol\":56188:56262  uint256 scaled_bpb_multiplier = (((10**8)*(principal))/(10*bpb_threshold)) */\n      dup3\n        /* \"PerpetualPool_flat.sol\":56296:56305  principal */\n      dup10\n        /* \"PerpetualPool_flat.sol\":56296:56331  principal * (scaled_bpb_multiplier) */\n      tag_228\n      jump\t// in\n    tag_403:\n        /* \"PerpetualPool_flat.sol\":56296:56339  principal * (scaled_bpb_multiplier)/(10**8) */\n      tag_404\n      swap2\n      swap1\n      tag_230\n      jump\t// in\n    tag_404:\n        /* \"PerpetualPool_flat.sol\":56276:56339  bpb_effective_hex = principal * (scaled_bpb_multiplier)/(10**8) */\n      swap3\n      pop\n        /* \"PerpetualPool_flat.sol\":56174:56350  {... */\n      pop\n        /* \"PerpetualPool_flat.sol\":56074:56350  if (principal>bpb_threshold) {... */\n    tag_399:\n        /* \"PerpetualPool_flat.sol\":56362:56387  uint256 lpb_effective_hex */\n      0x00\n      dup1\n        /* \"PerpetualPool_flat.sol\":56460:56464  3650 */\n      0x0e42\n        /* \"PerpetualPool_flat.sol\":56478:56504  stake_length>lpb_threshold */\n      dup1\n      dup8\n      gt\n        /* \"PerpetualPool_flat.sol\":56474:56680  if (stake_length>lpb_threshold) {... */\n      iszero\n      tag_405\n      jumpi\n        /* \"PerpetualPool_flat.sol\":56544:56553  2*(10**8) */\n      0x0bebc200\n        /* \"PerpetualPool_flat.sol\":56520:56553  scaled_lpb_multiplier = 2*(10**8) */\n      swap2\n      pop\n        /* \"PerpetualPool_flat.sol\":56474:56680  if (stake_length>lpb_threshold) {... */\n      jump(tag_406)\n    tag_405:\n        /* \"PerpetualPool_flat.sol\":56643:56656  lpb_threshold */\n      dup1\n        /* \"PerpetualPool_flat.sol\":56619:56641  (10**8)*(stake_length) */\n      tag_407\n        /* \"PerpetualPool_flat.sol\":56628:56640  stake_length */\n      dup9\n        /* \"PerpetualPool_flat.sol\":56620:56625  10**8 */\n      0x05f5e100\n        /* \"PerpetualPool_flat.sol\":56619:56641  (10**8)*(stake_length) */\n      tag_228\n      jump\t// in\n    tag_407:\n        /* \"PerpetualPool_flat.sol\":56616:56642  2*((10**8)*(stake_length)) */\n      tag_408\n      swap1\n        /* \"PerpetualPool_flat.sol\":56616:56617  2 */\n      0x02\n        /* \"PerpetualPool_flat.sol\":56616:56642  2*((10**8)*(stake_length)) */\n      tag_228\n      jump\t// in\n    tag_408:\n        /* \"PerpetualPool_flat.sol\":56616:56656  2*((10**8)*(stake_length))/lpb_threshold */\n      tag_409\n      swap2\n      swap1\n      tag_230\n      jump\t// in\n    tag_409:\n        /* \"PerpetualPool_flat.sol\":56592:56656  scaled_lpb_multiplier = 2*((10**8)*(stake_length))/lpb_threshold */\n      swap2\n      pop\n        /* \"PerpetualPool_flat.sol\":56474:56680  if (stake_length>lpb_threshold) {... */\n    tag_406:\n        /* \"PerpetualPool_flat.sol\":56749:56754  10**8 */\n      0x05f5e100\n        /* \"PerpetualPool_flat.sol\":56712:56747  principal * (scaled_lpb_multiplier) */\n      tag_410\n        /* \"PerpetualPool_flat.sol\":56725:56746  scaled_lpb_multiplier */\n      dup4\n        /* \"PerpetualPool_flat.sol\":56712:56721  principal */\n      dup12\n        /* \"PerpetualPool_flat.sol\":56712:56747  principal * (scaled_lpb_multiplier) */\n      tag_228\n      jump\t// in\n    tag_410:\n        /* \"PerpetualPool_flat.sol\":56712:56755  principal * (scaled_lpb_multiplier)/(10**8) */\n      tag_411\n      swap2\n      swap1\n      tag_230\n      jump\t// in\n    tag_411:\n        /* \"PerpetualPool_flat.sol\":56692:56755  lpb_effective_hex = principal * (scaled_lpb_multiplier)/(10**8) */\n      swap3\n      pop\n        /* \"PerpetualPool_flat.sol\":56782:56787  10**8 */\n      0x05f5e100\n        /* \"PerpetualPool_flat.sol\":56765:56779  uint256 scalar */\n      0x00\n        /* \"PerpetualPool_flat.sol\":56816:56835  end_value-principal */\n      tag_412\n        /* \"PerpetualPool_flat.sol\":56826:56835  principal */\n      dup12\n        /* \"PerpetualPool_flat.sol\":56816:56825  end_value */\n      dup12\n        /* \"PerpetualPool_flat.sol\":56816:56835  end_value-principal */\n      tag_384\n      jump\t// in\n    tag_412:\n        /* \"PerpetualPool_flat.sol\":56797:56835  uint256 earnings = end_value-principal */\n      swap1\n      pop\n        /* \"PerpetualPool_flat.sol\":56845:56870  uint256 bpb_makeup_scaled */\n      0x00\n        /* \"PerpetualPool_flat.sol\":56931:56948  lpb_effective_hex */\n      dup6\n        /* \"PerpetualPool_flat.sol\":56903:56930  bpb_effective_hex+principal */\n      tag_413\n        /* \"PerpetualPool_flat.sol\":56921:56930  principal */\n      dup14\n        /* \"PerpetualPool_flat.sol\":56903:56920  bpb_effective_hex */\n      dup11\n        /* \"PerpetualPool_flat.sol\":56903:56930  bpb_effective_hex+principal */\n      tag_194\n      jump\t// in\n    tag_413:\n        /* \"PerpetualPool_flat.sol\":56903:56948  bpb_effective_hex+principal+lpb_effective_hex */\n      tag_414\n      swap2\n      swap1\n      tag_194\n      jump\t// in\n    tag_414:\n        /* \"PerpetualPool_flat.sol\":56874:56900  scalar * bpb_effective_hex */\n      tag_415\n        /* \"PerpetualPool_flat.sol\":56883:56900  bpb_effective_hex */\n      dup10\n        /* \"PerpetualPool_flat.sol\":56874:56880  scalar */\n      dup6\n        /* \"PerpetualPool_flat.sol\":56874:56900  scalar * bpb_effective_hex */\n      tag_228\n      jump\t// in\n    tag_415:\n        /* \"PerpetualPool_flat.sol\":56873:56949  (scalar * bpb_effective_hex)/(bpb_effective_hex+principal+lpb_effective_hex) */\n      tag_416\n      swap2\n      swap1\n      tag_230\n      jump\t// in\n    tag_416:\n        /* \"PerpetualPool_flat.sol\":56845:56949  uint256 bpb_makeup_scaled = (scalar * bpb_effective_hex)/(bpb_effective_hex+principal+lpb_effective_hex) */\n      swap1\n      pop\n        /* \"PerpetualPool_flat.sol\":56959:56986  uint256 bpb_earnings_scaled */\n      0x00\n        /* \"PerpetualPool_flat.sol\":56989:57016  earnings *bpb_makeup_scaled */\n      tag_417\n        /* \"PerpetualPool_flat.sol\":56845:56949  uint256 bpb_makeup_scaled = (scalar * bpb_effective_hex)/(bpb_effective_hex+principal+lpb_effective_hex) */\n      dup3\n        /* \"PerpetualPool_flat.sol\":56989:56997  earnings */\n      dup5\n        /* \"PerpetualPool_flat.sol\":56989:57016  earnings *bpb_makeup_scaled */\n      tag_228\n      jump\t// in\n    tag_417:\n        /* \"PerpetualPool_flat.sol\":56959:57016  uint256 bpb_earnings_scaled = earnings *bpb_makeup_scaled */\n      swap1\n      pop\n        /* \"PerpetualPool_flat.sol\":57026:57046  uint256 bpb_earnings */\n      0x00\n        /* \"PerpetualPool_flat.sol\":57049:57075  bpb_earnings_scaled/scalar */\n      tag_418\n        /* \"PerpetualPool_flat.sol\":57069:57075  scalar */\n      dup6\n        /* \"PerpetualPool_flat.sol\":56959:57016  uint256 bpb_earnings_scaled = earnings *bpb_makeup_scaled */\n      dup4\n        /* \"PerpetualPool_flat.sol\":57049:57075  bpb_earnings_scaled/scalar */\n      tag_230\n      jump\t// in\n    tag_418:\n        /* \"PerpetualPool_flat.sol\":57026:57075  uint256 bpb_earnings = bpb_earnings_scaled/scalar */\n      swap1\n      pop\n        /* \"PerpetualPool_flat.sol\":57092:57106  bpb_earnings/2 */\n      tag_419\n        /* \"PerpetualPool_flat.sol\":57105:57106  2 */\n      0x02\n        /* \"PerpetualPool_flat.sol\":57026:57075  uint256 bpb_earnings = bpb_earnings_scaled/scalar */\n      dup3\n        /* \"PerpetualPool_flat.sol\":57092:57106  bpb_earnings/2 */\n      tag_230\n      jump\t// in\n    tag_419:\n        /* \"PerpetualPool_flat.sol\":57085:57106  return bpb_earnings/2 */\n      swap15\n        /* \"PerpetualPool_flat.sol\":55828:57114  function get_bonus_sharing_amount(uint256 principal,uint256 end_value, uint256 stake_length) private pure returns(uint256) {... */\n      swap14\n      pop\n      pop\n      pop\n      pop\n      pop\n      pop\n      pop\n      pop\n      pop\n      pop\n      pop\n      pop\n      pop\n      pop\n      jump\t// out\n        /* \"PerpetualPool_flat.sol\":57562:57927  function calculate_redemption_rate(uint treasury_balance, uint token_supply) private pure returns (uint redemption_rate) {... */\n    tag_275:\n        /* \"PerpetualPool_flat.sol\":57661:57681  uint redemption_rate */\n      0x00\n        /* \"PerpetualPool_flat.sol\":57710:57715  10**8 */\n      0x05f5e100\n        /* \"PerpetualPool_flat.sol\":57661:57681  uint redemption_rate */\n      dup2\n        /* \"PerpetualPool_flat.sol\":57772:57784  token_supply */\n      dup4\n        /* \"PerpetualPool_flat.sol\":57743:57768  treasury_balance * scalar */\n      tag_421\n        /* \"PerpetualPool_flat.sol\":57710:57715  10**8 */\n      dup4\n        /* \"PerpetualPool_flat.sol\":57743:57759  treasury_balance */\n      dup8\n        /* \"PerpetualPool_flat.sol\":57743:57768  treasury_balance * scalar */\n      tag_228\n      jump\t// in\n    tag_421:\n        /* \"PerpetualPool_flat.sol\":57742:57784  (treasury_balance * scalar) / token_supply */\n      tag_422\n      swap2\n      swap1\n      tag_230\n      jump\t// in\n    tag_422:\n        /* \"PerpetualPool_flat.sol\":57725:57784  uint256 scaled = (treasury_balance * scalar) / token_supply */\n      swap6\n        /* \"PerpetualPool_flat.sol\":57562:57927  function calculate_redemption_rate(uint treasury_balance, uint token_supply) private pure returns (uint redemption_rate) {... */\n      swap5\n      pop\n      pop\n      pop\n      pop\n      pop\n      jump\t// out\n        /* \"PerpetualPool_flat.sol\":58978:59109  function _mintHedron(uint256 stakeIndex,uint40 stakeId ) private  {... */\n    tag_293:\n        /* \"PerpetualPool_flat.sol\":59054:59066  hedron_token */\n      sload(0x15)\n        /* \"PerpetualPool_flat.sol\":59054:59098  hedron_token.mintNative(stakeIndex, stakeId) */\n      mload(0x40)\n      shl(0xe2, 0x3e04ae69)\n      dup2\n      mstore\n      0x04\n      dup2\n      add\n        /* \"#utility.yul\":13860:13885   */\n      dup5\n      swap1\n      mstore\n        /* \"#utility.yul\":13933:13945   */\n      0xffffffffff\n        /* \"#utility.yul\":13921:13946   */\n      dup4\n      and\n        /* \"#utility.yul\":13901:13919   */\n      0x24\n      dup3\n      add\n        /* \"#utility.yul\":13894:13947   */\n      mstore\n      sub(shl(0xa0, 0x01), 0x01)\n        /* \"PerpetualPool_flat.sol\":59054:59066  hedron_token */\n      swap1\n      swap2\n      and\n      swap1\n        /* \"PerpetualPool_flat.sol\":59054:59077  hedron_token.mintNative */\n      0xf812b9a4\n      swap1\n        /* \"#utility.yul\":13833:13851   */\n      0x44\n      add\n        /* \"PerpetualPool_flat.sol\":59054:59098  hedron_token.mintNative(stakeIndex, stakeId) */\n      0x20\n      mload(0x40)\n      dup1\n      dup4\n      sub\n      dup2\n      0x00\n      dup8\n      gas\n      call\n      iszero\n      dup1\n      iszero\n      tag_426\n      jumpi\n      returndatasize\n      0x00\n      dup1\n      returndatacopy\n      revert(0x00, returndatasize)\n    tag_426:\n      pop\n      pop\n      pop\n      pop\n      mload(0x40)\n      returndatasize\n      not(0x1f)\n      0x1f\n      dup3\n      add\n      and\n      dup3\n      add\n      dup1\n      0x40\n      mstore\n      pop\n      dup2\n      add\n      swap1\n      tag_290\n      swap2\n      swap1\n      tag_178\n      jump\t// in\n        /* \"PerpetualPool_flat.sol\":53717:53823  function _stakeHEX(uint256 amount) private  {... */\n    tag_328:\n        /* \"PerpetualPool_flat.sol\":53771:53780  hex_token */\n      sload(0x14)\n        /* \"PerpetualPool_flat.sol\":53799:53811  STAKE_LENGTH */\n      sload(0x0b)\n        /* \"PerpetualPool_flat.sol\":53771:53812  hex_token.stakeStart(amount,STAKE_LENGTH) */\n      mload(0x40)\n      shl(0xe3, 0x0a548717)\n      dup2\n      mstore\n      0x04\n      dup2\n      add\n        /* \"#utility.yul\":14132:14157   */\n      dup5\n      swap1\n      mstore\n        /* \"#utility.yul\":14173:14191   */\n      0x24\n      dup2\n      add\n        /* \"#utility.yul\":14166:14200   */\n      swap2\n      swap1\n      swap2\n      mstore\n      sub(shl(0xa0, 0x01), 0x01)\n        /* \"PerpetualPool_flat.sol\":53771:53780  hex_token */\n      swap1\n      swap2\n      and\n      swap1\n        /* \"PerpetualPool_flat.sol\":53771:53791  hex_token.stakeStart */\n      0x52a438b8\n      swap1\n        /* \"#utility.yul\":14105:14123   */\n      0x44\n      add\n        /* \"PerpetualPool_flat.sol\":53771:53812  hex_token.stakeStart(amount,STAKE_LENGTH) */\n      0x00\n      mload(0x40)\n      dup1\n      dup4\n      sub\n      dup2\n      0x00\n      dup8\n      dup1\n      extcodesize\n      iszero\n      dup1\n      iszero\n      tag_431\n      jumpi\n      0x00\n      dup1\n      revert\n    tag_431:\n      pop\n      gas\n      call\n      iszero\n      dup1\n      iszero\n      tag_433\n      jumpi\n      returndatasize\n      0x00\n      dup1\n      returndatacopy\n      revert(0x00, returndatasize)\n    tag_433:\n      pop\n      pop\n      pop\n      pop\n        /* \"PerpetualPool_flat.sol\":53717:53823  function _stakeHEX(uint256 amount) private  {... */\n      pop\n      jump\t// out\n        /* \"PerpetualPool_flat.sol\":33935:34324  function _mint(address account, uint256 amount) internal virtual {... */\n    tag_389:\n      sub(shl(0xa0, 0x01), 0x01)\n        /* \"PerpetualPool_flat.sol\":34018:34039  account != address(0) */\n      dup3\n      and\n        /* \"PerpetualPool_flat.sol\":34010:34075  require(account != address(0), \"ERC20: mint to the zero address\") */\n      tag_437\n      jumpi\n      mload(0x40)\n      shl(0xe5, 0x461bcd)\n      dup2\n      mstore\n        /* \"#utility.yul\":14413:14415   */\n      0x20\n        /* \"PerpetualPool_flat.sol\":34010:34075  require(account != address(0), \"ERC20: mint to the zero address\") */\n      0x04\n      dup3\n      add\n        /* \"#utility.yul\":14395:14416   */\n      mstore\n        /* \"#utility.yul\":14452:14454   */\n      0x1f\n        /* \"#utility.yul\":14432:14450   */\n      0x24\n      dup3\n      add\n        /* \"#utility.yul\":14425:14455   */\n      mstore\n        /* \"#utility.yul\":14491:14524   */\n      0x45524332303a206d696e7420746f20746865207a65726f206164647265737300\n        /* \"#utility.yul\":14471:14489   */\n      0x44\n      dup3\n      add\n        /* \"#utility.yul\":14464:14525   */\n      mstore\n        /* \"#utility.yul\":14542:14560   */\n      0x64\n      add\n        /* \"PerpetualPool_flat.sol\":34010:34075  require(account != address(0), \"ERC20: mint to the zero address\") */\n      tag_184\n        /* \"#utility.yul\":14211:14566   */\n      jump\n        /* \"PerpetualPool_flat.sol\":34010:34075  require(account != address(0), \"ERC20: mint to the zero address\") */\n    tag_437:\n        /* \"PerpetualPool_flat.sol\":34162:34168  amount */\n      dup1\n        /* \"PerpetualPool_flat.sol\":34146:34158  _totalSupply */\n      0x02\n      0x00\n        /* \"PerpetualPool_flat.sol\":34146:34168  _totalSupply += amount */\n      dup3\n      dup3\n      sload\n      tag_441\n      swap2\n      swap1\n      tag_194\n      jump\t// in\n    tag_441:\n      swap1\n      swap2\n      sstore\n      pop\n      pop\n      sub(shl(0xa0, 0x01), 0x01)\n        /* \"PerpetualPool_flat.sol\":34178:34196  _balances[account] */\n      dup3\n      and\n        /* \"PerpetualPool_flat.sol\":34178:34187  _balances */\n      0x00\n        /* \"PerpetualPool_flat.sol\":34178:34196  _balances[account] */\n      swap1\n      dup2\n      mstore\n      0x20\n      dup2\n      swap1\n      mstore\n      0x40\n      dup2\n      keccak256\n        /* \"PerpetualPool_flat.sol\":34178:34206  _balances[account] += amount */\n      dup1\n      sload\n        /* \"PerpetualPool_flat.sol\":34200:34206  amount */\n      dup4\n      swap3\n        /* \"PerpetualPool_flat.sol\":34178:34187  _balances */\n      swap1\n        /* \"PerpetualPool_flat.sol\":34178:34206  _balances[account] += amount */\n      tag_442\n      swap1\n        /* \"PerpetualPool_flat.sol\":34200:34206  amount */\n      dup5\n      swap1\n        /* \"PerpetualPool_flat.sol\":34178:34206  _balances[account] += amount */\n      tag_194\n      jump\t// in\n    tag_442:\n      swap1\n      swap2\n      sstore\n      pop\n      pop\n        /* \"PerpetualPool_flat.sol\":34221:34258  Transfer(address(0), account, amount) */\n      mload(0x40)\n        /* \"#utility.yul\":713:738   */\n      dup2\n      dup2\n      mstore\n      sub(shl(0xa0, 0x01), 0x01)\n        /* \"PerpetualPool_flat.sol\":34221:34258  Transfer(address(0), account, amount) */\n      dup4\n      and\n      swap1\n        /* \"PerpetualPool_flat.sol\":34238:34239  0 */\n      0x00\n      swap1\n        /* \"PerpetualPool_flat.sol\":34221:34258  Transfer(address(0), account, amount) */\n      0xddf252ad1be2c89b69c2b068fc378daa952ba7f163c4a11628f55a4df523b3ef\n      swap1\n        /* \"#utility.yul\":701:703   */\n      0x20\n        /* \"#utility.yul\":686:704   */\n      add\n        /* \"PerpetualPool_flat.sol\":34221:34258  Transfer(address(0), account, amount) */\n      mload(0x40)\n      dup1\n      swap2\n      sub\n      swap1\n      log3\n        /* \"PerpetualPool_flat.sol\":58558:58675  function mintHedron(uint256 stakeIndex,uint40 stakeId ) external  {... */\n      pop\n      pop\n      jump\t// out\n        /* \"#utility.yul\":14:562   */\n    tag_46:\n        /* \"#utility.yul\":126:130   */\n      0x00\n        /* \"#utility.yul\":155:157   */\n      0x20\n        /* \"#utility.yul\":184:186   */\n      dup1\n        /* \"#utility.yul\":173:182   */\n      dup4\n        /* \"#utility.yul\":166:187   */\n      mstore\n        /* \"#utility.yul\":216:222   */\n      dup4\n        /* \"#utility.yul\":210:223   */\n      mload\n        /* \"#utility.yul\":259:265   */\n      dup1\n        /* \"#utility.yul\":254:256   */\n      dup3\n        /* \"#utility.yul\":243:252   */\n      dup6\n        /* \"#utility.yul\":239:257   */\n      add\n        /* \"#utility.yul\":232:266   */\n      mstore\n        /* \"#utility.yul\":284:285   */\n      0x00\n        /* \"#utility.yul\":294:434   */\n    tag_449:\n        /* \"#utility.yul\":308:314   */\n      dup2\n        /* \"#utility.yul\":305:306   */\n      dup2\n        /* \"#utility.yul\":302:315   */\n      lt\n        /* \"#utility.yul\":294:434   */\n      iszero\n      tag_451\n      jumpi\n        /* \"#utility.yul\":403:417   */\n      dup6\n      dup2\n      add\n        /* \"#utility.yul\":399:422   */\n      dup4\n      add\n        /* \"#utility.yul\":393:423   */\n      mload\n        /* \"#utility.yul\":369:386   */\n      dup6\n      dup3\n      add\n        /* \"#utility.yul\":388:390   */\n      0x40\n        /* \"#utility.yul\":365:391   */\n      add\n        /* \"#utility.yul\":358:424   */\n      mstore\n        /* \"#utility.yul\":323:333   */\n      dup3\n      add\n        /* \"#utility.yul\":294:434   */\n      jump(tag_449)\n    tag_451:\n        /* \"#utility.yul\":298:301   */\n      pop\n        /* \"#utility.yul\":483:484   */\n      0x00\n        /* \"#utility.yul\":478:480   */\n      0x40\n        /* \"#utility.yul\":469:475   */\n      dup3\n        /* \"#utility.yul\":458:467   */\n      dup7\n        /* \"#utility.yul\":454:476   */\n      add\n        /* \"#utility.yul\":450:481   */\n      add\n        /* \"#utility.yul\":443:485   */\n      mstore\n        /* \"#utility.yul\":553:555   */\n      0x40\n        /* \"#utility.yul\":546:548   */\n      0x1f\n        /* \"#utility.yul\":542:549   */\n      not\n        /* \"#utility.yul\":537:539   */\n      0x1f\n        /* \"#utility.yul\":529:535   */\n      dup4\n        /* \"#utility.yul\":525:540   */\n      add\n        /* \"#utility.yul\":521:550   */\n      and\n        /* \"#utility.yul\":510:519   */\n      dup6\n        /* \"#utility.yul\":506:551   */\n      add\n        /* \"#utility.yul\":502:556   */\n      add\n        /* \"#utility.yul\":494:556   */\n      swap3\n      pop\n      pop\n      pop\n        /* \"#utility.yul\":14:562   */\n      swap3\n      swap2\n      pop\n      pop\n      jump\t// out\n        /* \"#utility.yul\":749:922   */\n    tag_445:\n        /* \"#utility.yul\":817:837   */\n      dup1\n      calldataload\n      sub(shl(0xa0, 0x01), 0x01)\n        /* \"#utility.yul\":866:897   */\n      dup2\n      and\n        /* \"#utility.yul\":856:898   */\n      dup2\n      eq\n        /* \"#utility.yul\":846:916   */\n      tag_454\n      jumpi\n        /* \"#utility.yul\":912:913   */\n      0x00\n        /* \"#utility.yul\":909:910   */\n      dup1\n        /* \"#utility.yul\":902:914   */\n      revert\n        /* \"#utility.yul\":846:916   */\n    tag_454:\n        /* \"#utility.yul\":749:922   */\n      swap2\n      swap1\n      pop\n      jump\t// out\n        /* \"#utility.yul\":927:1181   */\n    tag_53:\n        /* \"#utility.yul\":995:1001   */\n      0x00\n        /* \"#utility.yul\":1003:1009   */\n      dup1\n        /* \"#utility.yul\":1056:1058   */\n      0x40\n        /* \"#utility.yul\":1044:1053   */\n      dup4\n        /* \"#utility.yul\":1035:1042   */\n      dup6\n        /* \"#utility.yul\":1031:1054   */\n      sub\n        /* \"#utility.yul\":1027:1059   */\n      slt\n        /* \"#utility.yul\":1024:1076   */\n      iszero\n      tag_456\n      jumpi\n        /* \"#utility.yul\":1072:1073   */\n      0x00\n        /* \"#utility.yul\":1069:1070   */\n      dup1\n        /* \"#utility.yul\":1062:1074   */\n      revert\n        /* \"#utility.yul\":1024:1076   */\n    tag_456:\n        /* \"#utility.yul\":1095:1124   */\n      tag_457\n        /* \"#utility.yul\":1114:1123   */\n      dup4\n        /* \"#utility.yul\":1095:1124   */\n      tag_445\n      jump\t// in\n    tag_457:\n        /* \"#utility.yul\":1085:1124   */\n      swap5\n        /* \"#utility.yul\":1171:1173   */\n      0x20\n        /* \"#utility.yul\":1156:1174   */\n      swap4\n      swap1\n      swap4\n      add\n        /* \"#utility.yul\":1143:1175   */\n      calldataload\n      swap4\n      pop\n      pop\n      pop\n        /* \"#utility.yul\":927:1181   */\n      jump\t// out\n        /* \"#utility.yul\":1586:1914   */\n    tag_75:\n        /* \"#utility.yul\":1663:1669   */\n      0x00\n        /* \"#utility.yul\":1671:1677   */\n      dup1\n        /* \"#utility.yul\":1679:1685   */\n      0x00\n        /* \"#utility.yul\":1732:1734   */\n      0x60\n        /* \"#utility.yul\":1720:1729   */\n      dup5\n        /* \"#utility.yul\":1711:1718   */\n      dup7\n        /* \"#utility.yul\":1707:1730   */\n      sub\n        /* \"#utility.yul\":1703:1735   */\n      slt\n        /* \"#utility.yul\":1700:1752   */\n      iszero\n      tag_461\n      jumpi\n        /* \"#utility.yul\":1748:1749   */\n      0x00\n        /* \"#utility.yul\":1745:1746   */\n      dup1\n        /* \"#utility.yul\":1738:1750   */\n      revert\n        /* \"#utility.yul\":1700:1752   */\n    tag_461:\n        /* \"#utility.yul\":1771:1800   */\n      tag_462\n        /* \"#utility.yul\":1790:1799   */\n      dup5\n        /* \"#utility.yul\":1771:1800   */\n      tag_445\n      jump\t// in\n    tag_462:\n        /* \"#utility.yul\":1761:1800   */\n      swap3\n      pop\n        /* \"#utility.yul\":1819:1857   */\n      tag_463\n        /* \"#utility.yul\":1853:1855   */\n      0x20\n        /* \"#utility.yul\":1842:1851   */\n      dup6\n        /* \"#utility.yul\":1838:1856   */\n      add\n        /* \"#utility.yul\":1819:1857   */\n      tag_445\n      jump\t// in\n    tag_463:\n        /* \"#utility.yul\":1809:1857   */\n      swap2\n      pop\n        /* \"#utility.yul\":1904:1906   */\n      0x40\n        /* \"#utility.yul\":1893:1902   */\n      dup5\n        /* \"#utility.yul\":1889:1907   */\n      add\n        /* \"#utility.yul\":1876:1908   */\n      calldataload\n        /* \"#utility.yul\":1866:1908   */\n      swap1\n      pop\n        /* \"#utility.yul\":1586:1914   */\n      swap3\n      pop\n      swap3\n      pop\n      swap3\n      jump\t// out\n        /* \"#utility.yul\":2108:2288   */\n    tag_91:\n        /* \"#utility.yul\":2167:2173   */\n      0x00\n        /* \"#utility.yul\":2220:2222   */\n      0x20\n        /* \"#utility.yul\":2208:2217   */\n      dup3\n        /* \"#utility.yul\":2199:2206   */\n      dup5\n        /* \"#utility.yul\":2195:2218   */\n      sub\n        /* \"#utility.yul\":2191:2223   */\n      slt\n        /* \"#utility.yul\":2188:2240   */\n      iszero\n      tag_466\n      jumpi\n        /* \"#utility.yul\":2236:2237   */\n      0x00\n        /* \"#utility.yul\":2233:2234   */\n      dup1\n        /* \"#utility.yul\":2226:2238   */\n      revert\n        /* \"#utility.yul\":2188:2240   */\n    tag_466:\n      pop\n        /* \"#utility.yul\":2259:2282   */\n      calldataload\n      swap2\n        /* \"#utility.yul\":2108:2288   */\n      swap1\n      pop\n      jump\t// out\n        /* \"#utility.yul\":2293:2639   */\n    tag_98:\n        /* \"#utility.yul\":2360:2366   */\n      0x00\n        /* \"#utility.yul\":2368:2374   */\n      dup1\n        /* \"#utility.yul\":2421:2423   */\n      0x40\n        /* \"#utility.yul\":2409:2418   */\n      dup4\n        /* \"#utility.yul\":2400:2407   */\n      dup6\n        /* \"#utility.yul\":2396:2419   */\n      sub\n        /* \"#utility.yul\":2392:2424   */\n      slt\n        /* \"#utility.yul\":2389:2441   */\n      iszero\n      tag_468\n      jumpi\n        /* \"#utility.yul\":2437:2438   */\n      0x00\n        /* \"#utility.yul\":2434:2435   */\n      dup1\n        /* \"#utility.yul\":2427:2439   */\n      revert\n        /* \"#utility.yul\":2389:2441   */\n    tag_468:\n        /* \"#utility.yul\":2473:2482   */\n      dup3\n        /* \"#utility.yul\":2460:2483   */\n      calldataload\n        /* \"#utility.yul\":2450:2483   */\n      swap2\n      pop\n        /* \"#utility.yul\":2533:2535   */\n      0x20\n        /* \"#utility.yul\":2522:2531   */\n      dup4\n        /* \"#utility.yul\":2518:2536   */\n      add\n        /* \"#utility.yul\":2505:2537   */\n      calldataload\n        /* \"#utility.yul\":2577:2589   */\n      0xffffffffff\n        /* \"#utility.yul\":2570:2575   */\n      dup2\n        /* \"#utility.yul\":2566:2590   */\n      and\n        /* \"#utility.yul\":2559:2564   */\n      dup2\n        /* \"#utility.yul\":2556:2591   */\n      eq\n        /* \"#utility.yul\":2546:2609   */\n      tag_469\n      jumpi\n        /* \"#utility.yul\":2605:2606   */\n      0x00\n        /* \"#utility.yul\":2602:2603   */\n      dup1\n        /* \"#utility.yul\":2595:2607   */\n      revert\n        /* \"#utility.yul\":2546:2609   */\n    tag_469:\n        /* \"#utility.yul\":2628:2633   */\n      dup1\n        /* \"#utility.yul\":2618:2633   */\n      swap2\n      pop\n      pop\n        /* \"#utility.yul\":2293:2639   */\n      swap3\n      pop\n      swap3\n      swap1\n      pop\n      jump\t// out\n        /* \"#utility.yul\":2644:2830   */\n    tag_108:\n        /* \"#utility.yul\":2703:2709   */\n      0x00\n        /* \"#utility.yul\":2756:2758   */\n      0x20\n        /* \"#utility.yul\":2744:2753   */\n      dup3\n        /* \"#utility.yul\":2735:2742   */\n      dup5\n        /* \"#utility.yul\":2731:2754   */\n      sub\n        /* \"#utility.yul\":2727:2759   */\n      slt\n        /* \"#utility.yul\":2724:2776   */\n      iszero\n      tag_471\n      jumpi\n        /* \"#utility.yul\":2772:2773   */\n      0x00\n        /* \"#utility.yul\":2769:2770   */\n      dup1\n        /* \"#utility.yul\":2762:2774   */\n      revert\n        /* \"#utility.yul\":2724:2776   */\n    tag_471:\n        /* \"#utility.yul\":2795:2824   */\n      tag_472\n        /* \"#utility.yul\":2814:2823   */\n      dup3\n        /* \"#utility.yul\":2795:2824   */\n      tag_445\n      jump\t// in\n    tag_472:\n        /* \"#utility.yul\":2785:2824   */\n      swap4\n        /* \"#utility.yul\":2644:2830   */\n      swap3\n      pop\n      pop\n      pop\n      jump\t// out\n        /* \"#utility.yul\":2835:3095   */\n    tag_150:\n        /* \"#utility.yul\":2903:2909   */\n      0x00\n        /* \"#utility.yul\":2911:2917   */\n      dup1\n        /* \"#utility.yul\":2964:2966   */\n      0x40\n        /* \"#utility.yul\":2952:2961   */\n      dup4\n        /* \"#utility.yul\":2943:2950   */\n      dup6\n        /* \"#utility.yul\":2939:2962   */\n      sub\n        /* \"#utility.yul\":2935:2967   */\n      slt\n        /* \"#utility.yul\":2932:2984   */\n      iszero\n      tag_474\n      jumpi\n        /* \"#utility.yul\":2980:2981   */\n      0x00\n        /* \"#utility.yul\":2977:2978   */\n      dup1\n        /* \"#utility.yul\":2970:2982   */\n      revert\n        /* \"#utility.yul\":2932:2984   */\n    tag_474:\n        /* \"#utility.yul\":3003:3032   */\n      tag_475\n        /* \"#utility.yul\":3022:3031   */\n      dup4\n        /* \"#utility.yul\":3003:3032   */\n      tag_445\n      jump\t// in\n    tag_475:\n        /* \"#utility.yul\":2993:3032   */\n      swap2\n      pop\n        /* \"#utility.yul\":3051:3089   */\n      tag_476\n        /* \"#utility.yul\":3085:3087   */\n      0x20\n        /* \"#utility.yul\":3074:3083   */\n      dup5\n        /* \"#utility.yul\":3070:3088   */\n      add\n        /* \"#utility.yul\":3051:3089   */\n      tag_445\n      jump\t// in\n    tag_476:\n        /* \"#utility.yul\":3041:3089   */\n      swap1\n      pop\n        /* \"#utility.yul\":2835:3095   */\n      swap3\n      pop\n      swap3\n      swap1\n      pop\n      jump\t// out\n        /* \"#utility.yul\":3100:3480   */\n    tag_161:\n        /* \"#utility.yul\":3179:3180   */\n      0x01\n        /* \"#utility.yul\":3175:3187   */\n      dup2\n      dup2\n      shr\n      swap1\n        /* \"#utility.yul\":3222:3234   */\n      dup3\n      and\n      dup1\n        /* \"#utility.yul\":3243:3304   */\n      tag_478\n      jumpi\n        /* \"#utility.yul\":3297:3301   */\n      0x7f\n        /* \"#utility.yul\":3289:3295   */\n      dup3\n        /* \"#utility.yul\":3285:3302   */\n      and\n        /* \"#utility.yul\":3275:3302   */\n      swap2\n      pop\n        /* \"#utility.yul\":3243:3304   */\n    tag_478:\n        /* \"#utility.yul\":3350:3352   */\n      0x20\n        /* \"#utility.yul\":3342:3348   */\n      dup3\n        /* \"#utility.yul\":3339:3353   */\n      lt\n        /* \"#utility.yul\":3319:3337   */\n      dup2\n        /* \"#utility.yul\":3316:3354   */\n      sub\n        /* \"#utility.yul\":3313:3474   */\n      tag_479\n      jumpi\n        /* \"#utility.yul\":3396:3406   */\n      0x4e487b71\n        /* \"#utility.yul\":3391:3394   */\n      0xe0\n        /* \"#utility.yul\":3387:3407   */\n      shl\n        /* \"#utility.yul\":3384:3385   */\n      0x00\n        /* \"#utility.yul\":3377:3408   */\n      mstore\n        /* \"#utility.yul\":3431:3435   */\n      0x22\n        /* \"#utility.yul\":3428:3429   */\n      0x04\n        /* \"#utility.yul\":3421:3436   */\n      mstore\n        /* \"#utility.yul\":3459:3463   */\n      0x24\n        /* \"#utility.yul\":3456:3457   */\n      0x00\n        /* \"#utility.yul\":3449:3464   */\n      revert\n        /* \"#utility.yul\":3313:3474   */\n    tag_479:\n      pop\n        /* \"#utility.yul\":3100:3480   */\n      swap2\n      swap1\n      pop\n      jump\t// out\n        /* \"#utility.yul\":3485:3669   */\n    tag_178:\n        /* \"#utility.yul\":3555:3561   */\n      0x00\n        /* \"#utility.yul\":3608:3610   */\n      0x20\n        /* \"#utility.yul\":3596:3605   */\n      dup3\n        /* \"#utility.yul\":3587:3594   */\n      dup5\n        /* \"#utility.yul\":3583:3606   */\n      sub\n        /* \"#utility.yul\":3579:3611   */\n      slt\n        /* \"#utility.yul\":3576:3628   */\n      iszero\n      tag_481\n      jumpi\n        /* \"#utility.yul\":3624:3625   */\n      0x00\n        /* \"#utility.yul\":3621:3622   */\n      dup1\n        /* \"#utility.yul\":3614:3626   */\n      revert\n        /* \"#utility.yul\":3576:3628   */\n    tag_481:\n      pop\n        /* \"#utility.yul\":3647:3663   */\n      mload\n      swap2\n        /* \"#utility.yul\":3485:3669   */\n      swap1\n      pop\n      jump\t// out\n        /* \"#utility.yul\":4083:4210   */\n    tag_446:\n        /* \"#utility.yul\":4144:4154   */\n      0x4e487b71\n        /* \"#utility.yul\":4139:4142   */\n      0xe0\n        /* \"#utility.yul\":4135:4155   */\n      shl\n        /* \"#utility.yul\":4132:4133   */\n      0x00\n        /* \"#utility.yul\":4125:4156   */\n      mstore\n        /* \"#utility.yul\":4175:4179   */\n      0x11\n        /* \"#utility.yul\":4172:4173   */\n      0x04\n        /* \"#utility.yul\":4165:4180   */\n      mstore\n        /* \"#utility.yul\":4199:4203   */\n      0x24\n        /* \"#utility.yul\":4196:4197   */\n      0x00\n        /* \"#utility.yul\":4189:4204   */\n      revert\n        /* \"#utility.yul\":4215:4340   */\n    tag_194:\n        /* \"#utility.yul\":4280:4289   */\n      dup1\n      dup3\n      add\n        /* \"#utility.yul\":4301:4311   */\n      dup1\n      dup3\n      gt\n        /* \"#utility.yul\":4298:4334   */\n      iszero\n      tag_167\n      jumpi\n        /* \"#utility.yul\":4314:4332   */\n      tag_167\n      tag_446\n      jump\t// in\n        /* \"#utility.yul\":4345:4700   */\n    tag_202:\n        /* \"#utility.yul\":4547:4549   */\n      0x20\n        /* \"#utility.yul\":4529:4550   */\n      dup1\n      dup3\n      mstore\n        /* \"#utility.yul\":4586:4588   */\n      0x1f\n        /* \"#utility.yul\":4566:4584   */\n      swap1\n      dup3\n      add\n        /* \"#utility.yul\":4559:4589   */\n      mstore\n        /* \"#utility.yul\":4625:4658   */\n      0x5265656e7472616e637947756172643a207265656e7472616e742063616c6c00\n        /* \"#utility.yul\":4620:4622   */\n      0x40\n        /* \"#utility.yul\":4605:4623   */\n      dup3\n      add\n        /* \"#utility.yul\":4598:4659   */\n      mstore\n        /* \"#utility.yul\":4691:4693   */\n      0x60\n        /* \"#utility.yul\":4676:4694   */\n      add\n      swap1\n        /* \"#utility.yul\":4345:4700   */\n      jump\t// out\n        /* \"#utility.yul\":6642:6919   */\n    tag_226:\n        /* \"#utility.yul\":6709:6715   */\n      0x00\n        /* \"#utility.yul\":6762:6764   */\n      0x20\n        /* \"#utility.yul\":6750:6759   */\n      dup3\n        /* \"#utility.yul\":6741:6748   */\n      dup5\n        /* \"#utility.yul\":6737:6760   */\n      sub\n        /* \"#utility.yul\":6733:6765   */\n      slt\n        /* \"#utility.yul\":6730:6782   */\n      iszero\n      tag_494\n      jumpi\n        /* \"#utility.yul\":6778:6779   */\n      0x00\n        /* \"#utility.yul\":6775:6776   */\n      dup1\n        /* \"#utility.yul\":6768:6780   */\n      revert\n        /* \"#utility.yul\":6730:6782   */\n    tag_494:\n        /* \"#utility.yul\":6810:6819   */\n      dup2\n        /* \"#utility.yul\":6804:6820   */\n      mload\n        /* \"#utility.yul\":6863:6868   */\n      dup1\n        /* \"#utility.yul\":6856:6869   */\n      iszero\n        /* \"#utility.yul\":6849:6870   */\n      iszero\n        /* \"#utility.yul\":6842:6847   */\n      dup2\n        /* \"#utility.yul\":6839:6871   */\n      eq\n        /* \"#utility.yul\":6829:6889   */\n      tag_472\n      jumpi\n        /* \"#utility.yul\":6885:6886   */\n      0x00\n        /* \"#utility.yul\":6882:6883   */\n      dup1\n        /* \"#utility.yul\":6875:6887   */\n      revert\n        /* \"#utility.yul\":6924:7092   */\n    tag_228:\n        /* \"#utility.yul\":6964:6971   */\n      0x00\n        /* \"#utility.yul\":7030:7031   */\n      dup2\n        /* \"#utility.yul\":7026:7027   */\n      0x00\n        /* \"#utility.yul\":7022:7028   */\n      not\n        /* \"#utility.yul\":7018:7032   */\n      div\n        /* \"#utility.yul\":7015:7016   */\n      dup4\n        /* \"#utility.yul\":7012:7033   */\n      gt\n        /* \"#utility.yul\":7007:7008   */\n      dup3\n        /* \"#utility.yul\":7000:7009   */\n      iszero\n        /* \"#utility.yul\":6993:7010   */\n      iszero\n        /* \"#utility.yul\":6989:7034   */\n      and\n        /* \"#utility.yul\":6986:7057   */\n      iszero\n      tag_498\n      jumpi\n        /* \"#utility.yul\":7037:7055   */\n      tag_498\n      tag_446\n      jump\t// in\n    tag_498:\n      pop\n        /* \"#utility.yul\":7077:7086   */\n      mul\n      swap1\n        /* \"#utility.yul\":6924:7092   */\n      jump\t// out\n        /* \"#utility.yul\":7097:7314   */\n    tag_230:\n        /* \"#utility.yul\":7137:7138   */\n      0x00\n        /* \"#utility.yul\":7163:7164   */\n      dup3\n        /* \"#utility.yul\":7153:7285   */\n      tag_500\n      jumpi\n        /* \"#utility.yul\":7207:7217   */\n      0x4e487b71\n        /* \"#utility.yul\":7202:7205   */\n      0xe0\n        /* \"#utility.yul\":7198:7218   */\n      shl\n        /* \"#utility.yul\":7195:7196   */\n      0x00\n        /* \"#utility.yul\":7188:7219   */\n      mstore\n        /* \"#utility.yul\":7242:7246   */\n      0x12\n        /* \"#utility.yul\":7239:7240   */\n      0x04\n        /* \"#utility.yul\":7232:7247   */\n      mstore\n        /* \"#utility.yul\":7270:7274   */\n      0x24\n        /* \"#utility.yul\":7267:7268   */\n      0x00\n        /* \"#utility.yul\":7260:7275   */\n      revert\n        /* \"#utility.yul\":7153:7285   */\n    tag_500:\n      pop\n        /* \"#utility.yul\":7299:7308   */\n      div\n      swap1\n        /* \"#utility.yul\":7097:7314   */\n      jump\t// out\n        /* \"#utility.yul\":13555:13683   */\n    tag_384:\n        /* \"#utility.yul\":13622:13631   */\n      dup2\n      dup2\n      sub\n        /* \"#utility.yul\":13643:13654   */\n      dup2\n      dup2\n      gt\n        /* \"#utility.yul\":13640:13677   */\n      iszero\n      tag_167\n      jumpi\n        /* \"#utility.yul\":13657:13675   */\n      tag_167\n      tag_446\n      jump\t// in\n\n    auxdata: 0xa2646970667358221220a7165a15b98e7209d77b1e37305f94a954a68ebfd2329005f68a3a017d97612164736f6c63430008100033\n}\n",
				"bytecode": {
					"linkReferences": {},
					"object": "6080604052601180546001600160a01b03199081163017909155601280548216732b591e99afe9f32eaa6214f7b7629768c40eeb39908117909155601380548316733819f64f282bf135d62168c1e513280daf905e06908117909155601480548416909217909155601580549092161790553480156200007e57600080fd5b50604051620022d0380380620022d0833981016040819052620000a19162000265565b81816003620000b183826200039c565b506004620000c082826200039c565b5050600160055550600684905560145460408051635c9302c960e01b815290516000926001600160a01b031691635c9302c99160048083019260209291908290030181865afa15801562000118573d6000803e3d6000fd5b505050506040513d601f19601f820116820180604052508101906200013e919062000468565b6007819055905062000151878262000482565b600855505050600b9290925550600d805460ff19169055600e80546001600160a01b0319166001600160a01b03909216919091179055506305f5e100600c556000600f819055601055620004aa565b634e487b7160e01b600052604160045260246000fd5b600082601f830112620001c857600080fd5b81516001600160401b0380821115620001e557620001e5620001a0565b604051601f8301601f19908116603f01168101908282118183101715620002105762000210620001a0565b816040528381526020925086838588010111156200022d57600080fd5b600091505b8382101562000251578582018301518183018401529082019062000232565b600093810190920192909252949350505050565b60008060008060008060c087890312156200027f57600080fd5b86516020880151604089015160608a015192985090965094506001600160a01b0381168114620002ae57600080fd5b60808801519093506001600160401b0380821115620002cc57600080fd5b620002da8a838b01620001b6565b935060a0890151915080821115620002f157600080fd5b506200030089828a01620001b6565b9150509295509295509295565b600181811c908216806200032257607f821691505b6020821081036200034357634e487b7160e01b600052602260045260246000fd5b50919050565b601f8211156200039757600081815260208120601f850160051c81016020861015620003725750805b601f850160051c820191505b8181101562000393578281556001016200037e565b5050505b505050565b81516001600160401b03811115620003b857620003b8620001a0565b620003d081620003c984546200030d565b8462000349565b602080601f831160018114620004085760008415620003ef5750858301515b600019600386901b1c1916600185901b17855562000393565b600085815260208120601f198616915b82811015620004395788860151825594840194600190910190840162000418565b5085821015620004585787850151600019600388901b60f8161c191681555b5050505050600190811b01905550565b6000602082840312156200047b57600080fd5b5051919050565b80820180821115620004a457634e487b7160e01b600052601160045260246000fd5b92915050565b611e1680620004ba6000396000f3fe608060405234801561001057600080fd5b50600436106101fb5760003560e01c80636a63ef6e1161011a578063a9059cbb116100ad578063ba777bcc1161007c578063ba777bcc146103f1578063ccaa408f146103f9578063dd62ed3e14610402578063e7644fb91461043b578063fecf706e1461044e57600080fd5b8063a9059cbb146103bf578063b2d2997a146103d2578063b4a2bc0e146103db578063b7241ba5146103e457600080fd5b80638d2fe35d116100e95780638d2fe35d146103795780638dff901b1461038c57806395d89b41146103a4578063a457c2d7146103ac57600080fd5b80636a63ef6e1461032157806370a082311461032a57806379cc6790146103535780638412d89b1461036657600080fd5b806323b872dd1161019257806342966c681161016157806342966c68146102dd5780634537523c146102f25780634953a509146103055780634e67581e1461031857600080fd5b806323b872dd1461029f578063313ce567146102b257806339509351146102c15780633d720dda146102d457600080fd5b806318160ddd116101ce57806318160ddd1461027d57806318edf0dd146102855780631d92803d1461028d5780631fa0bb3d1461029657600080fd5b806306fdde0314610200578063086146d21461021e578063095ea7b3146102305780630a19d93314610253575b600080fd5b610208610457565b6040516102159190611b3f565b60405180910390f35b6010545b604051908152602001610215565b61024361023e366004611ba9565b6104e9565b6040519015158152602001610215565b600d5461010090046001600160a01b03165b6040516001600160a01b039091168152602001610215565b600254610222565b610222610500565b61022260085481565b61022260105481565b6102436102ad366004611bd3565b61057a565b60405160088152602001610215565b6102436102cf366004611ba9565b610629565b610222600a5481565b6102f06102eb366004611c0f565b610665565b005b6102f0610300366004611c0f565b610672565b6102f0610313366004611c28565b61097c565b61022260065481565b610222600c5481565b610222610338366004611c62565b6001600160a01b031660009081526020819052604090205490565b6102f0610361366004611ba9565b610e41565b6102f0610374366004611c28565b610ec7565b600e54610265906001600160a01b031681565b600d546102659061010090046001600160a01b031681565b610208610ed5565b6102436103ba366004611ba9565b610ee4565b6102436103cd366004611ba9565b610f7d565b61022260075481565b610222600b5481565b600d546102439060ff1681565b6102f0610f8a565b610222600f5481565b610222610410366004611c84565b6001600160a01b03918216600090815260016020908152604080832093909416825291909152205490565b6102f0610449366004611c0f565b6111a5565b61022260095481565b60606003805461046690611cb7565b80601f016020809104026020016040519081016040528092919081815260200182805461049290611cb7565b80156104df5780601f106104b4576101008083540402835291602001916104df565b820191906000526020600020905b8154815290600101906020018083116104c257829003601f168201915b5050505050905090565b60006104f633848461135a565b5060015b92915050565b600080601460009054906101000a90046001600160a01b03166001600160a01b0316635c9302c96040518163ffffffff1660e01b8152600401602060405180830381865afa158015610556573d6000803e3d6000fd5b505050506040513d601f19601f820116820180604052508101906104fa9190611cf1565b600061058784848461147e565b6001600160a01b0384166000908152600160209081526040808320338452909152902054828110156106115760405162461bcd60e51b815260206004820152602860248201527f45524332303a207472616e7366657220616d6f756e74206578636565647320616044820152676c6c6f77616e636560c01b60648201526084015b60405180910390fd5b61061e853385840361135a565b506001949350505050565b3360008181526001602090815260408083206001600160a01b038716845290915281205490916104f6918590610660908690611d20565b61135a565b61066f338261164d565b50565b6002600554036106945760405162461bcd60e51b815260040161060890611d33565b6002600555600d5460ff16156107065760405162461bcd60e51b815260206004820152603160248201527f4d696e74696e67206d6179206f6e6c7920626520646f6e652069662061207374604482015270616b65206973206e6f742061637469766560781b6064820152608401610608565b600854601460009054906101000a90046001600160a01b03166001600160a01b0316635c9302c96040518163ffffffff1660e01b8152600401602060405180830381865afa15801561075c573d6000803e3d6000fd5b505050506040513d601f19601f820116820180604052508101906107809190611cf1565b11156107c65760405162461bcd60e51b81526020600482015260156024820152744d696e74696e6720506861736520697320446f6e6560581b6044820152606401610608565b601254601154604051636eb1769f60e11b81523360048201526001600160a01b0391821660248201528392919091169063dd62ed3e90604401602060405180830381865afa15801561081c573d6000803e3d6000fd5b505050506040513d601f19601f820116820180604052508101906108409190611cf1565b10156108c45760405162461bcd60e51b815260206004820152604760248201527f506c6561736520617070726f766520636f6e747261637420616464726573732060448201527f617320616c6c6f776564207370656e64657220696e207468652068657820636f606482015266373a3930b1ba1760c91b608482015260a401610608565b6012546011546040516323b872dd60e01b815233600482018190526001600160a01b039283166024830152604482018590529291909116906323b872dd906064016020604051808303816000875af1158015610924573d6000803e3d6000fd5b505050506040513d601f19601f820116820180604052508101906109489190611d6a565b50600c5460009061095d846305f5e100611d8c565b6109679190611dab565b90506109728161179b565b5050600160055550565b60026005540361099e5760405162461bcd60e51b815260040161060890611d33565b6002600555600a5460145460408051635c9302c960e01b815290516001600160a01b0390921691635c9302c9916004808201926020929091908290030181865afa1580156109f0573d6000803e3d6000fd5b505050506040513d601f19601f82011682018060405250810190610a149190611cf1565b11610a615760405162461bcd60e51b815260206004820152601a60248201527f5374616b65206973206e6f7420636f6d706c657465207965742e0000000000006044820152606401610608565b600d5460ff161515600114610ab05760405162461bcd60e51b815260206004820152601560248201527429ba30b5b29036bab9ba1031329030b1ba34bb329760591b6044820152606401610608565b610aba82826117a5565b6012546040516370a0823160e01b81523060048201526000916001600160a01b0316906370a0823190602401602060405180830381865afa158015610b03573d6000803e3d6000fd5b505050506040513d601f19601f82011682018060405250810190610b279190611cf1565b90506000610b3a600f5483600b54611814565b601454600e5460405163a9059cbb60e01b81526001600160a01b03918216600482015260248101849052929350169063a9059cbb906044016020604051808303816000875af1158015610b91573d6000803e3d6000fd5b505050506040513d601f19601f82011682018060405250810190610bb59190611d6a565b50601554600e546013546040516370a0823160e01b81523060048201526001600160a01b039384169363a9059cbb9381169216906370a0823190602401602060405180830381865afa158015610c0f573d6000803e3d6000fd5b505050506040513d601f19601f82011682018060405250810190610c339190611cf1565b6040516001600160e01b031960e085901b1681526001600160a01b03909216600483015260248201526044016020604051808303816000875af1158015610c7e573d6000803e3d6000fd5b505050506040513d601f19601f82011682018060405250810190610ca29190611d6a565b506000306001600160a01b03166318160ddd6040518163ffffffff1660e01b8152600401602060405180830381865afa158015610ce3573d6000803e3d6000fd5b505050506040513d601f19601f82011682018060405250810190610d079190611cf1565b6012546040516370a0823160e01b8152306004820152919250610d80916001600160a01b03909116906370a0823190602401602060405180830381865afa158015610d56573d6000803e3d6000fd5b505050506040513d601f19601f82011682018060405250810190610d7a9190611cf1565b82611952565b600c55600d80546000600f556001600160a81b031916336101000260ff191617905560145460408051635c9302c960e01b815290516001600160a01b0390921691635c9302c9916004808201926020929091908290030181865afa158015610dec573d6000803e3d6000fd5b505050506040513d601f19601f82011682018060405250810190610e109190611cf1565b6007819055600654610e2191611d20565b600855601054610e32906001611d20565b60105550506001600555505050565b6000610e4d8333610410565b905081811015610eab5760405162461bcd60e51b8152602060048201526024808201527f45524332303a206275726e20616d6f756e74206578636565647320616c6c6f77604482015263616e636560e01b6064820152608401610608565b610eb8833384840361135a565b610ec2838361164d565b505050565b610ed18282611978565b5050565b60606004805461046690611cb7565b3360009081526001602090815260408083206001600160a01b038616845290915281205482811015610f665760405162461bcd60e51b815260206004820152602560248201527f45524332303a2064656372656173656420616c6c6f77616e63652062656c6f77604482015264207a65726f60d81b6064820152608401610608565b610f73338585840361135a565b5060019392505050565b60006104f633848461147e565b600260055403610fac5760405162461bcd60e51b815260040161060890611d33565b6002600555600d5460ff16156110045760405162461bcd60e51b815260206004820152601a60248201527f5374616b652068617320616c726561647920737461727465642e0000000000006044820152606401610608565b60145460408051635c9302c960e01b815290516000926001600160a01b031691635c9302c99160048083019260209291908290030181865afa15801561104e573d6000803e3d6000fd5b505050506040513d601f19601f820116820180604052508101906110729190611cf1565b905060085481116110eb5760405162461bcd60e51b815260206004820152603a60248201527f4d696e74696e67205068617365206973207374696c6c206f6e676f696e67202d60448201527f207365652052454c4f41445f50484153455f454e44206461792e0000000000006064820152608401610608565b6012546040516370a0823160e01b81523060048201526000916001600160a01b0316906370a0823190602401602060405180830381865afa158015611134573d6000803e3d6000fd5b505050506040513d601f19601f820116820180604052508101906111589190611cf1565b9050611163816119f4565b600f8190556009829055600b5461117a9083611d20565b600a55600d805460ff1916600190811790915560105461119991611d20565b60105550506001600555565b6002600554036111c75760405162461bcd60e51b815260040161060890611d33565b6002600555600d5460ff16156112375760405162461bcd60e51b815260206004820152602f60248201527f526564656d7074696f6e2063616e206e6f742068617070656e207768696c652060448201526e7374616b652069732061637469766560881b6064820152608401610608565b33600090815260208190526040902054818110156112ac5760405162461bcd60e51b815260206004820152602c60248201527f596f7520646f206e6f7420686176652074686174206d756368206f662074686560448201526b102837b7b6102a37b5b2b71760a11b6064820152608401610608565b6000600c54836112bc9190611d8c565b905060006112ce6305f5e10083611dab565b90506112d984610665565b60145460405163a9059cbb60e01b8152336004820152602481018390526001600160a01b039091169063a9059cbb906044016020604051808303816000875af115801561132a573d6000803e3d6000fd5b505050506040513d601f19601f8201168201806040525081019061134e9190611d6a565b50506001600555505050565b6001600160a01b0383166113bc5760405162461bcd60e51b8152602060048201526024808201527f45524332303a20617070726f76652066726f6d20746865207a65726f206164646044820152637265737360e01b6064820152608401610608565b6001600160a01b03821661141d5760405162461bcd60e51b815260206004820152602260248201527f45524332303a20617070726f766520746f20746865207a65726f206164647265604482015261737360f01b6064820152608401610608565b6001600160a01b0383811660008181526001602090815260408083209487168084529482529182902085905590518481527f8c5be1e5ebec7d5bd14f71427d1e84f3dd0314c0f7b2291e5b200ac8c7c3b925910160405180910390a3505050565b6001600160a01b0383166114e25760405162461bcd60e51b815260206004820152602560248201527f45524332303a207472616e736665722066726f6d20746865207a65726f206164604482015264647265737360d81b6064820152608401610608565b6001600160a01b0382166115445760405162461bcd60e51b815260206004820152602360248201527f45524332303a207472616e7366657220746f20746865207a65726f206164647260448201526265737360e81b6064820152608401610608565b6001600160a01b038316600090815260208190526040902054818110156115bc5760405162461bcd60e51b815260206004820152602660248201527f45524332303a207472616e7366657220616d6f756e7420657863656564732062604482015265616c616e636560d01b6064820152608401610608565b6001600160a01b038085166000908152602081905260408082208585039055918516815290812080548492906115f3908490611d20565b92505081905550826001600160a01b0316846001600160a01b03167fddf252ad1be2c89b69c2b068fc378daa952ba7f163c4a11628f55a4df523b3ef8460405161163f91815260200190565b60405180910390a350505050565b6001600160a01b0382166116ad5760405162461bcd60e51b815260206004820152602160248201527f45524332303a206275726e2066726f6d20746865207a65726f206164647265736044820152607360f81b6064820152608401610608565b6001600160a01b038216600090815260208190526040902054818110156117215760405162461bcd60e51b815260206004820152602260248201527f45524332303a206275726e20616d6f756e7420657863656564732062616c616e604482015261636560f01b6064820152608401610608565b6001600160a01b0383166000908152602081905260408120838303905560028054849290611750908490611dcd565b90915550506040518281526000906001600160a01b038516907fddf252ad1be2c89b69c2b068fc378daa952ba7f163c4a11628f55a4df523b3ef9060200160405180910390a3505050565b61066f3382611a60565b601454604051631a1804d160e11b81526004810184905264ffffffffff831660248201526001600160a01b039091169063343009a290604401600060405180830381600087803b1580156117f857600080fd5b505af115801561180c573d6000803e3d6000fd5b505050505050565b60008066354a6ba7a180008086111561183957611832600a87611dab565b915061187d565b600061184682600a611d8c565b611854886305f5e100611d8c565b61185e9190611dab565b90506305f5e10061186f8289611d8c565b6118799190611dab565b9250505b600080610e428087111561189757630bebc20091506118be565b806118a6886305f5e100611d8c565b6118b1906002611d8c565b6118bb9190611dab565b91505b6305f5e1006118cd838b611d8c565b6118d79190611dab565b92506305f5e10060006118ea8b8b611dcd565b90506000856118f98d8a611d20565b6119039190611d20565b61190d8985611d8c565b6119179190611dab565b905060006119258284611d8c565b905060006119338583611dab565b9050611940600282611dab565b9e9d5050505050505050505050505050565b60006305f5e10081836119658387611d8c565b61196f9190611dab565b95945050505050565b601554604051633e04ae6960e21b81526004810184905264ffffffffff831660248201526001600160a01b039091169063f812b9a4906044016020604051808303816000875af11580156119d0573d6000803e3d6000fd5b505050506040513d601f19601f82011682018060405250810190610ec29190611cf1565b601454600b54604051630a54871760e31b81526004810184905260248101919091526001600160a01b03909116906352a438b890604401600060405180830381600087803b158015611a4557600080fd5b505af1158015611a59573d6000803e3d6000fd5b5050505050565b6001600160a01b038216611ab65760405162461bcd60e51b815260206004820152601f60248201527f45524332303a206d696e7420746f20746865207a65726f2061646472657373006044820152606401610608565b8060026000828254611ac89190611d20565b90915550506001600160a01b03821660009081526020819052604081208054839290611af5908490611d20565b90915550506040518181526001600160a01b038316906000907fddf252ad1be2c89b69c2b068fc378daa952ba7f163c4a11628f55a4df523b3ef9060200160405180910390a35050565b600060208083528351808285015260005b81811015611b6c57858101830151858201604001528201611b50565b506000604082860101526040601f19601f8301168501019250505092915050565b80356001600160a01b0381168114611ba457600080fd5b919050565b60008060408385031215611bbc57600080fd5b611bc583611b8d565b946020939093013593505050565b600080600060608486031215611be857600080fd5b611bf184611b8d565b9250611bff60208501611b8d565b9150604084013590509250925092565b600060208284031215611c2157600080fd5b5035919050565b60008060408385031215611c3b57600080fd5b82359150602083013564ffffffffff81168114611c5757600080fd5b809150509250929050565b600060208284031215611c7457600080fd5b611c7d82611b8d565b9392505050565b60008060408385031215611c9757600080fd5b611ca083611b8d565b9150611cae60208401611b8d565b90509250929050565b600181811c90821680611ccb57607f821691505b602082108103611ceb57634e487b7160e01b600052602260045260246000fd5b50919050565b600060208284031215611d0357600080fd5b5051919050565b634e487b7160e01b600052601160045260246000fd5b808201808211156104fa576104fa611d0a565b6020808252601f908201527f5265656e7472616e637947756172643a207265656e7472616e742063616c6c00604082015260600190565b600060208284031215611d7c57600080fd5b81518015158114611c7d57600080fd5b6000816000190483118215151615611da657611da6611d0a565b500290565b600082611dc857634e487b7160e01b600052601260045260246000fd5b500490565b818103818111156104fa576104fa611d0a56fea2646970667358221220a7165a15b98e7209d77b1e37305f94a954a68ebfd2329005f68a3a017d97612164736f6c63430008100033",
					"opcodes": "PUSH1 0x80 PUSH1 0x40 MSTORE PUSH1 0x11 DUP1 SLOAD PUSH1 0x1 PUSH1 0x1 PUSH1 0xA0 SHL SUB NOT SWAP1 DUP2 AND ADDRESS OR SWAP1 SWAP2 SSTORE PUSH1 0x12 DUP1 SLOAD DUP3 AND PUSH20 0x2B591E99AFE9F32EAA6214F7B7629768C40EEB39 SWAP1 DUP2 OR SWAP1 SWAP2 SSTORE PUSH1 0x13 DUP1 SLOAD DUP4 AND PUSH20 0x3819F64F282BF135D62168C1E513280DAF905E06 SWAP1 DUP2 OR SWAP1 SWAP2 SSTORE PUSH1 0x14 DUP1 SLOAD DUP5 AND SWAP1 SWAP3 OR SWAP1 SWAP2 SSTORE PUSH1 0x15 DUP1 SLOAD SWAP1 SWAP3 AND OR SWAP1 SSTORE CALLVALUE DUP1 ISZERO PUSH3 0x7E JUMPI PUSH1 0x0 DUP1 REVERT JUMPDEST POP PUSH1 0x40 MLOAD PUSH3 0x22D0 CODESIZE SUB DUP1 PUSH3 0x22D0 DUP4 CODECOPY DUP2 ADD PUSH1 0x40 DUP2 SWAP1 MSTORE PUSH3 0xA1 SWAP2 PUSH3 0x265 JUMP JUMPDEST DUP2 DUP2 PUSH1 0x3 PUSH3 0xB1 DUP4 DUP3 PUSH3 0x39C JUMP JUMPDEST POP PUSH1 0x4 PUSH3 0xC0 DUP3 DUP3 PUSH3 0x39C JUMP JUMPDEST POP POP PUSH1 0x1 PUSH1 0x5 SSTORE POP PUSH1 0x6 DUP5 SWAP1 SSTORE PUSH1 0x14 SLOAD PUSH1 0x40 DUP1 MLOAD PUSH4 0x5C9302C9 PUSH1 0xE0 SHL DUP2 MSTORE SWAP1 MLOAD PUSH1 0x0 SWAP3 PUSH1 0x1 PUSH1 0x1 PUSH1 0xA0 SHL SUB AND SWAP2 PUSH4 0x5C9302C9 SWAP2 PUSH1 0x4 DUP1 DUP4 ADD SWAP3 PUSH1 0x20 SWAP3 SWAP2 SWAP1 DUP3 SWAP1 SUB ADD DUP2 DUP7 GAS STATICCALL ISZERO DUP1 ISZERO PUSH3 0x118 JUMPI RETURNDATASIZE PUSH1 0x0 DUP1 RETURNDATACOPY RETURNDATASIZE PUSH1 0x0 REVERT JUMPDEST POP POP POP POP PUSH1 0x40 MLOAD RETURNDATASIZE PUSH1 0x1F NOT PUSH1 0x1F DUP3 ADD AND DUP3 ADD DUP1 PUSH1 0x40 MSTORE POP DUP2 ADD SWAP1 PUSH3 0x13E SWAP2 SWAP1 PUSH3 0x468 JUMP JUMPDEST PUSH1 0x7 DUP2 SWAP1 SSTORE SWAP1 POP PUSH3 0x151 DUP8 DUP3 PUSH3 0x482 JUMP JUMPDEST PUSH1 0x8 SSTORE POP POP POP PUSH1 0xB SWAP3 SWAP1 SWAP3 SSTORE POP PUSH1 0xD DUP1 SLOAD PUSH1 0xFF NOT AND SWAP1 SSTORE PUSH1 0xE DUP1 SLOAD PUSH1 0x1 PUSH1 0x1 PUSH1 0xA0 SHL SUB NOT AND PUSH1 0x1 PUSH1 0x1 PUSH1 0xA0 SHL SUB SWAP1 SWAP3 AND SWAP2 SWAP1 SWAP2 OR SWAP1 SSTORE POP PUSH4 0x5F5E100 PUSH1 0xC SSTORE PUSH1 0x0 PUSH1 0xF DUP2 SWAP1 SSTORE PUSH1 0x10 SSTORE PUSH3 0x4AA JUMP JUMPDEST PUSH4 0x4E487B71 PUSH1 0xE0 SHL PUSH1 0x0 MSTORE PUSH1 0x41 PUSH1 0x4 MSTORE PUSH1 0x24 PUSH1 0x0 REVERT JUMPDEST PUSH1 0x0 DUP3 PUSH1 0x1F DUP4 ADD SLT PUSH3 0x1C8 JUMPI PUSH1 0x0 DUP1 REVERT JUMPDEST DUP2 MLOAD PUSH1 0x1 PUSH1 0x1 PUSH1 0x40 SHL SUB DUP1 DUP3 GT ISZERO PUSH3 0x1E5 JUMPI PUSH3 0x1E5 PUSH3 0x1A0 JUMP JUMPDEST PUSH1 0x40 MLOAD PUSH1 0x1F DUP4 ADD PUSH1 0x1F NOT SWAP1 DUP2 AND PUSH1 0x3F ADD AND DUP2 ADD SWAP1 DUP3 DUP3 GT DUP2 DUP4 LT OR ISZERO PUSH3 0x210 JUMPI PUSH3 0x210 PUSH3 0x1A0 JUMP JUMPDEST DUP2 PUSH1 0x40 MSTORE DUP4 DUP2 MSTORE PUSH1 0x20 SWAP3 POP DUP7 DUP4 DUP6 DUP9 ADD ADD GT ISZERO PUSH3 0x22D JUMPI PUSH1 0x0 DUP1 REVERT JUMPDEST PUSH1 0x0 SWAP2 POP JUMPDEST DUP4 DUP3 LT ISZERO PUSH3 0x251 JUMPI DUP6 DUP3 ADD DUP4 ADD MLOAD DUP2 DUP4 ADD DUP5 ADD MSTORE SWAP1 DUP3 ADD SWAP1 PUSH3 0x232 JUMP JUMPDEST PUSH1 0x0 SWAP4 DUP2 ADD SWAP1 SWAP3 ADD SWAP3 SWAP1 SWAP3 MSTORE SWAP5 SWAP4 POP POP POP POP JUMP JUMPDEST PUSH1 0x0 DUP1 PUSH1 0x0 DUP1 PUSH1 0x0 DUP1 PUSH1 0xC0 DUP8 DUP10 SUB SLT ISZERO PUSH3 0x27F JUMPI PUSH1 0x0 DUP1 REVERT JUMPDEST DUP7 MLOAD PUSH1 0x20 DUP9 ADD MLOAD PUSH1 0x40 DUP10 ADD MLOAD PUSH1 0x60 DUP11 ADD MLOAD SWAP3 SWAP9 POP SWAP1 SWAP7 POP SWAP5 POP PUSH1 0x1 PUSH1 0x1 PUSH1 0xA0 SHL SUB DUP2 AND DUP2 EQ PUSH3 0x2AE JUMPI PUSH1 0x0 DUP1 REVERT JUMPDEST PUSH1 0x80 DUP9 ADD MLOAD SWAP1 SWAP4 POP PUSH1 0x1 PUSH1 0x1 PUSH1 0x40 SHL SUB DUP1 DUP3 GT ISZERO PUSH3 0x2CC JUMPI PUSH1 0x0 DUP1 REVERT JUMPDEST PUSH3 0x2DA DUP11 DUP4 DUP12 ADD PUSH3 0x1B6 JUMP JUMPDEST SWAP4 POP PUSH1 0xA0 DUP10 ADD MLOAD SWAP2 POP DUP1 DUP3 GT ISZERO PUSH3 0x2F1 JUMPI PUSH1 0x0 DUP1 REVERT JUMPDEST POP PUSH3 0x300 DUP10 DUP3 DUP11 ADD PUSH3 0x1B6 JUMP JUMPDEST SWAP2 POP POP SWAP3 SWAP6 POP SWAP3 SWAP6 POP SWAP3 SWAP6 JUMP JUMPDEST PUSH1 0x1 DUP2 DUP2 SHR SWAP1 DUP3 AND DUP1 PUSH3 0x322 JUMPI PUSH1 0x7F DUP3 AND SWAP2 POP JUMPDEST PUSH1 0x20 DUP3 LT DUP2 SUB PUSH3 0x343 JUMPI PUSH4 0x4E487B71 PUSH1 0xE0 SHL PUSH1 0x0 MSTORE PUSH1 0x22 PUSH1 0x4 MSTORE PUSH1 0x24 PUSH1 0x0 REVERT JUMPDEST POP SWAP2 SWAP1 POP JUMP JUMPDEST PUSH1 0x1F DUP3 GT ISZERO PUSH3 0x397 JUMPI PUSH1 0x0 DUP2 DUP2 MSTORE PUSH1 0x20 DUP2 KECCAK256 PUSH1 0x1F DUP6 ADD PUSH1 0x5 SHR DUP2 ADD PUSH1 0x20 DUP7 LT ISZERO PUSH3 0x372 JUMPI POP DUP1 JUMPDEST PUSH1 0x1F DUP6 ADD PUSH1 0x5 SHR DUP3 ADD SWAP2 POP JUMPDEST DUP2 DUP2 LT ISZERO PUSH3 0x393 JUMPI DUP3 DUP2 SSTORE PUSH1 0x1 ADD PUSH3 0x37E JUMP JUMPDEST POP POP POP JUMPDEST POP POP POP JUMP JUMPDEST DUP2 MLOAD PUSH1 0x1 PUSH1 0x1 PUSH1 0x40 SHL SUB DUP2 GT ISZERO PUSH3 0x3B8 JUMPI PUSH3 0x3B8 PUSH3 0x1A0 JUMP JUMPDEST PUSH3 0x3D0 DUP2 PUSH3 0x3C9 DUP5 SLOAD PUSH3 0x30D JUMP JUMPDEST DUP5 PUSH3 0x349 JUMP JUMPDEST PUSH1 0x20 DUP1 PUSH1 0x1F DUP4 GT PUSH1 0x1 DUP2 EQ PUSH3 0x408 JUMPI PUSH1 0x0 DUP5 ISZERO PUSH3 0x3EF JUMPI POP DUP6 DUP4 ADD MLOAD JUMPDEST PUSH1 0x0 NOT PUSH1 0x3 DUP7 SWAP1 SHL SHR NOT AND PUSH1 0x1 DUP6 SWAP1 SHL OR DUP6 SSTORE PUSH3 0x393 JUMP JUMPDEST PUSH1 0x0 DUP6 DUP2 MSTORE PUSH1 0x20 DUP2 KECCAK256 PUSH1 0x1F NOT DUP7 AND SWAP2 JUMPDEST DUP3 DUP2 LT ISZERO PUSH3 0x439 JUMPI DUP9 DUP7 ADD MLOAD DUP3 SSTORE SWAP5 DUP5 ADD SWAP5 PUSH1 0x1 SWAP1 SWAP2 ADD SWAP1 DUP5 ADD PUSH3 0x418 JUMP JUMPDEST POP DUP6 DUP3 LT ISZERO PUSH3 0x458 JUMPI DUP8 DUP6 ADD MLOAD PUSH1 0x0 NOT PUSH1 0x3 DUP9 SWAP1 SHL PUSH1 0xF8 AND SHR NOT AND DUP2 SSTORE JUMPDEST POP POP POP POP POP PUSH1 0x1 SWAP1 DUP2 SHL ADD SWAP1 SSTORE POP JUMP JUMPDEST PUSH1 0x0 PUSH1 0x20 DUP3 DUP5 SUB SLT ISZERO PUSH3 0x47B JUMPI PUSH1 0x0 DUP1 REVERT JUMPDEST POP MLOAD SWAP2 SWAP1 POP JUMP JUMPDEST DUP1 DUP3 ADD DUP1 DUP3 GT ISZERO PUSH3 0x4A4 JUMPI PUSH4 0x4E487B71 PUSH1 0xE0 SHL PUSH1 0x0 MSTORE PUSH1 0x11 PUSH1 0x4 MSTORE PUSH1 0x24 PUSH1 0x0 REVERT JUMPDEST SWAP3 SWAP2 POP POP JUMP JUMPDEST PUSH2 0x1E16 DUP1 PUSH3 0x4BA PUSH1 0x0 CODECOPY PUSH1 0x0 RETURN INVALID PUSH1 0x80 PUSH1 0x40 MSTORE CALLVALUE DUP1 ISZERO PUSH2 0x10 JUMPI PUSH1 0x0 DUP1 REVERT JUMPDEST POP PUSH1 0x4 CALLDATASIZE LT PUSH2 0x1FB JUMPI PUSH1 0x0 CALLDATALOAD PUSH1 0xE0 SHR DUP1 PUSH4 0x6A63EF6E GT PUSH2 0x11A JUMPI DUP1 PUSH4 0xA9059CBB GT PUSH2 0xAD JUMPI DUP1 PUSH4 0xBA777BCC GT PUSH2 0x7C JUMPI DUP1 PUSH4 0xBA777BCC EQ PUSH2 0x3F1 JUMPI DUP1 PUSH4 0xCCAA408F EQ PUSH2 0x3F9 JUMPI DUP1 PUSH4 0xDD62ED3E EQ PUSH2 0x402 JUMPI DUP1 PUSH4 0xE7644FB9 EQ PUSH2 0x43B JUMPI DUP1 PUSH4 0xFECF706E EQ PUSH2 0x44E JUMPI PUSH1 0x0 DUP1 REVERT JUMPDEST DUP1 PUSH4 0xA9059CBB EQ PUSH2 0x3BF JUMPI DUP1 PUSH4 0xB2D2997A EQ PUSH2 0x3D2 JUMPI DUP1 PUSH4 0xB4A2BC0E EQ PUSH2 0x3DB JUMPI DUP1 PUSH4 0xB7241BA5 EQ PUSH2 0x3E4 JUMPI PUSH1 0x0 DUP1 REVERT JUMPDEST DUP1 PUSH4 0x8D2FE35D GT PUSH2 0xE9 JUMPI DUP1 PUSH4 0x8D2FE35D EQ PUSH2 0x379 JUMPI DUP1 PUSH4 0x8DFF901B EQ PUSH2 0x38C JUMPI DUP1 PUSH4 0x95D89B41 EQ PUSH2 0x3A4 JUMPI DUP1 PUSH4 0xA457C2D7 EQ PUSH2 0x3AC JUMPI PUSH1 0x0 DUP1 REVERT JUMPDEST DUP1 PUSH4 0x6A63EF6E EQ PUSH2 0x321 JUMPI DUP1 PUSH4 0x70A08231 EQ PUSH2 0x32A JUMPI DUP1 PUSH4 0x79CC6790 EQ PUSH2 0x353 JUMPI DUP1 PUSH4 0x8412D89B EQ PUSH2 0x366 JUMPI PUSH1 0x0 DUP1 REVERT JUMPDEST DUP1 PUSH4 0x23B872DD GT PUSH2 0x192 JUMPI DUP1 PUSH4 0x42966C68 GT PUSH2 0x161 JUMPI DUP1 PUSH4 0x42966C68 EQ PUSH2 0x2DD JUMPI DUP1 PUSH4 0x4537523C EQ PUSH2 0x2F2 JUMPI DUP1 PUSH4 0x4953A509 EQ PUSH2 0x305 JUMPI DUP1 PUSH4 0x4E67581E EQ PUSH2 0x318 JUMPI PUSH1 0x0 DUP1 REVERT JUMPDEST DUP1 PUSH4 0x23B872DD EQ PUSH2 0x29F JUMPI DUP1 PUSH4 0x313CE567 EQ PUSH2 0x2B2 JUMPI DUP1 PUSH4 0x39509351 EQ PUSH2 0x2C1 JUMPI DUP1 PUSH4 0x3D720DDA EQ PUSH2 0x2D4 JUMPI PUSH1 0x0 DUP1 REVERT JUMPDEST DUP1 PUSH4 0x18160DDD GT PUSH2 0x1CE JUMPI DUP1 PUSH4 0x18160DDD EQ PUSH2 0x27D JUMPI DUP1 PUSH4 0x18EDF0DD EQ PUSH2 0x285 JUMPI DUP1 PUSH4 0x1D92803D EQ PUSH2 0x28D JUMPI DUP1 PUSH4 0x1FA0BB3D EQ PUSH2 0x296 JUMPI PUSH1 0x0 DUP1 REVERT JUMPDEST DUP1 PUSH4 0x6FDDE03 EQ PUSH2 0x200 JUMPI DUP1 PUSH4 0x86146D2 EQ PUSH2 0x21E JUMPI DUP1 PUSH4 0x95EA7B3 EQ PUSH2 0x230 JUMPI DUP1 PUSH4 0xA19D933 EQ PUSH2 0x253 JUMPI JUMPDEST PUSH1 0x0 DUP1 REVERT JUMPDEST PUSH2 0x208 PUSH2 0x457 JUMP JUMPDEST PUSH1 0x40 MLOAD PUSH2 0x215 SWAP2 SWAP1 PUSH2 0x1B3F JUMP JUMPDEST PUSH1 0x40 MLOAD DUP1 SWAP2 SUB SWAP1 RETURN JUMPDEST PUSH1 0x10 SLOAD JUMPDEST PUSH1 0x40 MLOAD SWAP1 DUP2 MSTORE PUSH1 0x20 ADD PUSH2 0x215 JUMP JUMPDEST PUSH2 0x243 PUSH2 0x23E CALLDATASIZE PUSH1 0x4 PUSH2 0x1BA9 JUMP JUMPDEST PUSH2 0x4E9 JUMP JUMPDEST PUSH1 0x40 MLOAD SWAP1 ISZERO ISZERO DUP2 MSTORE PUSH1 0x20 ADD PUSH2 0x215 JUMP JUMPDEST PUSH1 0xD SLOAD PUSH2 0x100 SWAP1 DIV PUSH1 0x1 PUSH1 0x1 PUSH1 0xA0 SHL SUB AND JUMPDEST PUSH1 0x40 MLOAD PUSH1 0x1 PUSH1 0x1 PUSH1 0xA0 SHL SUB SWAP1 SWAP2 AND DUP2 MSTORE PUSH1 0x20 ADD PUSH2 0x215 JUMP JUMPDEST PUSH1 0x2 SLOAD PUSH2 0x222 JUMP JUMPDEST PUSH2 0x222 PUSH2 0x500 JUMP JUMPDEST PUSH2 0x222 PUSH1 0x8 SLOAD DUP2 JUMP JUMPDEST PUSH2 0x222 PUSH1 0x10 SLOAD DUP2 JUMP JUMPDEST PUSH2 0x243 PUSH2 0x2AD CALLDATASIZE PUSH1 0x4 PUSH2 0x1BD3 JUMP JUMPDEST PUSH2 0x57A JUMP JUMPDEST PUSH1 0x40 MLOAD PUSH1 0x8 DUP2 MSTORE PUSH1 0x20 ADD PUSH2 0x215 JUMP JUMPDEST PUSH2 0x243 PUSH2 0x2CF CALLDATASIZE PUSH1 0x4 PUSH2 0x1BA9 JUMP JUMPDEST PUSH2 0x629 JUMP JUMPDEST PUSH2 0x222 PUSH1 0xA SLOAD DUP2 JUMP JUMPDEST PUSH2 0x2F0 PUSH2 0x2EB CALLDATASIZE PUSH1 0x4 PUSH2 0x1C0F JUMP JUMPDEST PUSH2 0x665 JUMP JUMPDEST STOP JUMPDEST PUSH2 0x2F0 PUSH2 0x300 CALLDATASIZE PUSH1 0x4 PUSH2 0x1C0F JUMP JUMPDEST PUSH2 0x672 JUMP JUMPDEST PUSH2 0x2F0 PUSH2 0x313 CALLDATASIZE PUSH1 0x4 PUSH2 0x1C28 JUMP JUMPDEST PUSH2 0x97C JUMP JUMPDEST PUSH2 0x222 PUSH1 0x6 SLOAD DUP2 JUMP JUMPDEST PUSH2 0x222 PUSH1 0xC SLOAD DUP2 JUMP JUMPDEST PUSH2 0x222 PUSH2 0x338 CALLDATASIZE PUSH1 0x4 PUSH2 0x1C62 JUMP JUMPDEST PUSH1 0x1 PUSH1 0x1 PUSH1 0xA0 SHL SUB AND PUSH1 0x0 SWAP1 DUP2 MSTORE PUSH1 0x20 DUP2 SWAP1 MSTORE PUSH1 0x40 SWAP1 KECCAK256 SLOAD SWAP1 JUMP JUMPDEST PUSH2 0x2F0 PUSH2 0x361 CALLDATASIZE PUSH1 0x4 PUSH2 0x1BA9 JUMP JUMPDEST PUSH2 0xE41 JUMP JUMPDEST PUSH2 0x2F0 PUSH2 0x374 CALLDATASIZE PUSH1 0x4 PUSH2 0x1C28 JUMP JUMPDEST PUSH2 0xEC7 JUMP JUMPDEST PUSH1 0xE SLOAD PUSH2 0x265 SWAP1 PUSH1 0x1 PUSH1 0x1 PUSH1 0xA0 SHL SUB AND DUP2 JUMP JUMPDEST PUSH1 0xD SLOAD PUSH2 0x265 SWAP1 PUSH2 0x100 SWAP1 DIV PUSH1 0x1 PUSH1 0x1 PUSH1 0xA0 SHL SUB AND DUP2 JUMP JUMPDEST PUSH2 0x208 PUSH2 0xED5 JUMP JUMPDEST PUSH2 0x243 PUSH2 0x3BA CALLDATASIZE PUSH1 0x4 PUSH2 0x1BA9 JUMP JUMPDEST PUSH2 0xEE4 JUMP JUMPDEST PUSH2 0x243 PUSH2 0x3CD CALLDATASIZE PUSH1 0x4 PUSH2 0x1BA9 JUMP JUMPDEST PUSH2 0xF7D JUMP JUMPDEST PUSH2 0x222 PUSH1 0x7 SLOAD DUP2 JUMP JUMPDEST PUSH2 0x222 PUSH1 0xB SLOAD DUP2 JUMP JUMPDEST PUSH1 0xD SLOAD PUSH2 0x243 SWAP1 PUSH1 0xFF AND DUP2 JUMP JUMPDEST PUSH2 0x2F0 PUSH2 0xF8A JUMP JUMPDEST PUSH2 0x222 PUSH1 0xF SLOAD DUP2 JUMP JUMPDEST PUSH2 0x222 PUSH2 0x410 CALLDATASIZE PUSH1 0x4 PUSH2 0x1C84 JUMP JUMPDEST PUSH1 0x1 PUSH1 0x1 PUSH1 0xA0 SHL SUB SWAP2 DUP3 AND PUSH1 0x0 SWAP1 DUP2 MSTORE PUSH1 0x1 PUSH1 0x20 SWAP1 DUP2 MSTORE PUSH1 0x40 DUP1 DUP4 KECCAK256 SWAP4 SWAP1 SWAP5 AND DUP3 MSTORE SWAP2 SWAP1 SWAP2 MSTORE KECCAK256 SLOAD SWAP1 JUMP JUMPDEST PUSH2 0x2F0 PUSH2 0x449 CALLDATASIZE PUSH1 0x4 PUSH2 0x1C0F JUMP JUMPDEST PUSH2 0x11A5 JUMP JUMPDEST PUSH2 0x222 PUSH1 0x9 SLOAD DUP2 JUMP JUMPDEST PUSH1 0x60 PUSH1 0x3 DUP1 SLOAD PUSH2 0x466 SWAP1 PUSH2 0x1CB7 JUMP JUMPDEST DUP1 PUSH1 0x1F ADD PUSH1 0x20 DUP1 SWAP2 DIV MUL PUSH1 0x20 ADD PUSH1 0x40 MLOAD SWAP1 DUP2 ADD PUSH1 0x40 MSTORE DUP1 SWAP3 SWAP2 SWAP1 DUP2 DUP2 MSTORE PUSH1 0x20 ADD DUP3 DUP1 SLOAD PUSH2 0x492 SWAP1 PUSH2 0x1CB7 JUMP JUMPDEST DUP1 ISZERO PUSH2 0x4DF JUMPI DUP1 PUSH1 0x1F LT PUSH2 0x4B4 JUMPI PUSH2 0x100 DUP1 DUP4 SLOAD DIV MUL DUP4 MSTORE SWAP2 PUSH1 0x20 ADD SWAP2 PUSH2 0x4DF JUMP JUMPDEST DUP3 ADD SWAP2 SWAP1 PUSH1 0x0 MSTORE PUSH1 0x20 PUSH1 0x0 KECCAK256 SWAP1 JUMPDEST DUP2 SLOAD DUP2 MSTORE SWAP1 PUSH1 0x1 ADD SWAP1 PUSH1 0x20 ADD DUP1 DUP4 GT PUSH2 0x4C2 JUMPI DUP3 SWAP1 SUB PUSH1 0x1F AND DUP3 ADD SWAP2 JUMPDEST POP POP POP POP POP SWAP1 POP SWAP1 JUMP JUMPDEST PUSH1 0x0 PUSH2 0x4F6 CALLER DUP5 DUP5 PUSH2 0x135A JUMP JUMPDEST POP PUSH1 0x1 JUMPDEST SWAP3 SWAP2 POP POP JUMP JUMPDEST PUSH1 0x0 DUP1 PUSH1 0x14 PUSH1 0x0 SWAP1 SLOAD SWAP1 PUSH2 0x100 EXP SWAP1 DIV PUSH1 0x1 PUSH1 0x1 PUSH1 0xA0 SHL SUB AND PUSH1 0x1 PUSH1 0x1 PUSH1 0xA0 SHL SUB AND PUSH4 0x5C9302C9 PUSH1 0x40 MLOAD DUP2 PUSH4 0xFFFFFFFF AND PUSH1 0xE0 SHL DUP2 MSTORE PUSH1 0x4 ADD PUSH1 0x20 PUSH1 0x40 MLOAD DUP1 DUP4 SUB DUP2 DUP7 GAS STATICCALL ISZERO DUP1 ISZERO PUSH2 0x556 JUMPI RETURNDATASIZE PUSH1 0x0 DUP1 RETURNDATACOPY RETURNDATASIZE PUSH1 0x0 REVERT JUMPDEST POP POP POP POP PUSH1 0x40 MLOAD RETURNDATASIZE PUSH1 0x1F NOT PUSH1 0x1F DUP3 ADD AND DUP3 ADD DUP1 PUSH1 0x40 MSTORE POP DUP2 ADD SWAP1 PUSH2 0x4FA SWAP2 SWAP1 PUSH2 0x1CF1 JUMP JUMPDEST PUSH1 0x0 PUSH2 0x587 DUP5 DUP5 DUP5 PUSH2 0x147E JUMP JUMPDEST PUSH1 0x1 PUSH1 0x1 PUSH1 0xA0 SHL SUB DUP5 AND PUSH1 0x0 SWAP1 DUP2 MSTORE PUSH1 0x1 PUSH1 0x20 SWAP1 DUP2 MSTORE PUSH1 0x40 DUP1 DUP4 KECCAK256 CALLER DUP5 MSTORE SWAP1 SWAP2 MSTORE SWAP1 KECCAK256 SLOAD DUP3 DUP2 LT ISZERO PUSH2 0x611 JUMPI PUSH1 0x40 MLOAD PUSH3 0x461BCD PUSH1 0xE5 SHL DUP2 MSTORE PUSH1 0x20 PUSH1 0x4 DUP3 ADD MSTORE PUSH1 0x28 PUSH1 0x24 DUP3 ADD MSTORE PUSH32 0x45524332303A207472616E7366657220616D6F756E7420657863656564732061 PUSH1 0x44 DUP3 ADD MSTORE PUSH8 0x6C6C6F77616E6365 PUSH1 0xC0 SHL PUSH1 0x64 DUP3 ADD MSTORE PUSH1 0x84 ADD JUMPDEST PUSH1 0x40 MLOAD DUP1 SWAP2 SUB SWAP1 REVERT JUMPDEST PUSH2 0x61E DUP6 CALLER DUP6 DUP5 SUB PUSH2 0x135A JUMP JUMPDEST POP PUSH1 0x1 SWAP5 SWAP4 POP POP POP POP JUMP JUMPDEST CALLER PUSH1 0x0 DUP2 DUP2 MSTORE PUSH1 0x1 PUSH1 0x20 SWAP1 DUP2 MSTORE PUSH1 0x40 DUP1 DUP4 KECCAK256 PUSH1 0x1 PUSH1 0x1 PUSH1 0xA0 SHL SUB DUP8 AND DUP5 MSTORE SWAP1 SWAP2 MSTORE DUP2 KECCAK256 SLOAD SWAP1 SWAP2 PUSH2 0x4F6 SWAP2 DUP6 SWAP1 PUSH2 0x660 SWAP1 DUP7 SWAP1 PUSH2 0x1D20 JUMP JUMPDEST PUSH2 0x135A JUMP JUMPDEST PUSH2 0x66F CALLER DUP3 PUSH2 0x164D JUMP JUMPDEST POP JUMP JUMPDEST PUSH1 0x2 PUSH1 0x5 SLOAD SUB PUSH2 0x694 JUMPI PUSH1 0x40 MLOAD PUSH3 0x461BCD PUSH1 0xE5 SHL DUP2 MSTORE PUSH1 0x4 ADD PUSH2 0x608 SWAP1 PUSH2 0x1D33 JUMP JUMPDEST PUSH1 0x2 PUSH1 0x5 SSTORE PUSH1 0xD SLOAD PUSH1 0xFF AND ISZERO PUSH2 0x706 JUMPI PUSH1 0x40 MLOAD PUSH3 0x461BCD PUSH1 0xE5 SHL DUP2 MSTORE PUSH1 0x20 PUSH1 0x4 DUP3 ADD MSTORE PUSH1 0x31 PUSH1 0x24 DUP3 ADD MSTORE PUSH32 0x4D696E74696E67206D6179206F6E6C7920626520646F6E652069662061207374 PUSH1 0x44 DUP3 ADD MSTORE PUSH17 0x616B65206973206E6F7420616374697665 PUSH1 0x78 SHL PUSH1 0x64 DUP3 ADD MSTORE PUSH1 0x84 ADD PUSH2 0x608 JUMP JUMPDEST PUSH1 0x8 SLOAD PUSH1 0x14 PUSH1 0x0 SWAP1 SLOAD SWAP1 PUSH2 0x100 EXP SWAP1 DIV PUSH1 0x1 PUSH1 0x1 PUSH1 0xA0 SHL SUB AND PUSH1 0x1 PUSH1 0x1 PUSH1 0xA0 SHL SUB AND PUSH4 0x5C9302C9 PUSH1 0x40 MLOAD DUP2 PUSH4 0xFFFFFFFF AND PUSH1 0xE0 SHL DUP2 MSTORE PUSH1 0x4 ADD PUSH1 0x20 PUSH1 0x40 MLOAD DUP1 DUP4 SUB DUP2 DUP7 GAS STATICCALL ISZERO DUP1 ISZERO PUSH2 0x75C JUMPI RETURNDATASIZE PUSH1 0x0 DUP1 RETURNDATACOPY RETURNDATASIZE PUSH1 0x0 REVERT JUMPDEST POP POP POP POP PUSH1 0x40 MLOAD RETURNDATASIZE PUSH1 0x1F NOT PUSH1 0x1F DUP3 ADD AND DUP3 ADD DUP1 PUSH1 0x40 MSTORE POP DUP2 ADD SWAP1 PUSH2 0x780 SWAP2 SWAP1 PUSH2 0x1CF1 JUMP JUMPDEST GT ISZERO PUSH2 0x7C6 JUMPI PUSH1 0x40 MLOAD PUSH3 0x461BCD PUSH1 0xE5 SHL DUP2 MSTORE PUSH1 0x20 PUSH1 0x4 DUP3 ADD MSTORE PUSH1 0x15 PUSH1 0x24 DUP3 ADD MSTORE PUSH21 0x4D696E74696E6720506861736520697320446F6E65 PUSH1 0x58 SHL PUSH1 0x44 DUP3 ADD MSTORE PUSH1 0x64 ADD PUSH2 0x608 JUMP JUMPDEST PUSH1 0x12 SLOAD PUSH1 0x11 SLOAD PUSH1 0x40 MLOAD PUSH4 0x6EB1769F PUSH1 0xE1 SHL DUP2 MSTORE CALLER PUSH1 0x4 DUP3 ADD MSTORE PUSH1 0x1 PUSH1 0x1 PUSH1 0xA0 SHL SUB SWAP2 DUP3 AND PUSH1 0x24 DUP3 ADD MSTORE DUP4 SWAP3 SWAP2 SWAP1 SWAP2 AND SWAP1 PUSH4 0xDD62ED3E SWAP1 PUSH1 0x44 ADD PUSH1 0x20 PUSH1 0x40 MLOAD DUP1 DUP4 SUB DUP2 DUP7 GAS STATICCALL ISZERO DUP1 ISZERO PUSH2 0x81C JUMPI RETURNDATASIZE PUSH1 0x0 DUP1 RETURNDATACOPY RETURNDATASIZE PUSH1 0x0 REVERT JUMPDEST POP POP POP POP PUSH1 0x40 MLOAD RETURNDATASIZE PUSH1 0x1F NOT PUSH1 0x1F DUP3 ADD AND DUP3 ADD DUP1 PUSH1 0x40 MSTORE POP DUP2 ADD SWAP1 PUSH2 0x840 SWAP2 SWAP1 PUSH2 0x1CF1 JUMP JUMPDEST LT ISZERO PUSH2 0x8C4 JUMPI PUSH1 0x40 MLOAD PUSH3 0x461BCD PUSH1 0xE5 SHL DUP2 MSTORE PUSH1 0x20 PUSH1 0x4 DUP3 ADD MSTORE PUSH1 0x47 PUSH1 0x24 DUP3 ADD MSTORE PUSH32 0x506C6561736520617070726F766520636F6E7472616374206164647265737320 PUSH1 0x44 DUP3 ADD MSTORE PUSH32 0x617320616C6C6F776564207370656E64657220696E207468652068657820636F PUSH1 0x64 DUP3 ADD MSTORE PUSH7 0x373A3930B1BA17 PUSH1 0xC9 SHL PUSH1 0x84 DUP3 ADD MSTORE PUSH1 0xA4 ADD PUSH2 0x608 JUMP JUMPDEST PUSH1 0x12 SLOAD PUSH1 0x11 SLOAD PUSH1 0x40 MLOAD PUSH4 0x23B872DD PUSH1 0xE0 SHL DUP2 MSTORE CALLER PUSH1 0x4 DUP3 ADD DUP2 SWAP1 MSTORE PUSH1 0x1 PUSH1 0x1 PUSH1 0xA0 SHL SUB SWAP3 DUP4 AND PUSH1 0x24 DUP4 ADD MSTORE PUSH1 0x44 DUP3 ADD DUP6 SWAP1 MSTORE SWAP3 SWAP2 SWAP1 SWAP2 AND SWAP1 PUSH4 0x23B872DD SWAP1 PUSH1 0x64 ADD PUSH1 0x20 PUSH1 0x40 MLOAD DUP1 DUP4 SUB DUP2 PUSH1 0x0 DUP8 GAS CALL ISZERO DUP1 ISZERO PUSH2 0x924 JUMPI RETURNDATASIZE PUSH1 0x0 DUP1 RETURNDATACOPY RETURNDATASIZE PUSH1 0x0 REVERT JUMPDEST POP POP POP POP PUSH1 0x40 MLOAD RETURNDATASIZE PUSH1 0x1F NOT PUSH1 0x1F DUP3 ADD AND DUP3 ADD DUP1 PUSH1 0x40 MSTORE POP DUP2 ADD SWAP1 PUSH2 0x948 SWAP2 SWAP1 PUSH2 0x1D6A JUMP JUMPDEST POP PUSH1 0xC SLOAD PUSH1 0x0 SWAP1 PUSH2 0x95D DUP5 PUSH4 0x5F5E100 PUSH2 0x1D8C JUMP JUMPDEST PUSH2 0x967 SWAP2 SWAP1 PUSH2 0x1DAB JUMP JUMPDEST SWAP1 POP PUSH2 0x972 DUP2 PUSH2 0x179B JUMP JUMPDEST POP POP PUSH1 0x1 PUSH1 0x5 SSTORE POP JUMP JUMPDEST PUSH1 0x2 PUSH1 0x5 SLOAD SUB PUSH2 0x99E JUMPI PUSH1 0x40 MLOAD PUSH3 0x461BCD PUSH1 0xE5 SHL DUP2 MSTORE PUSH1 0x4 ADD PUSH2 0x608 SWAP1 PUSH2 0x1D33 JUMP JUMPDEST PUSH1 0x2 PUSH1 0x5 SSTORE PUSH1 0xA SLOAD PUSH1 0x14 SLOAD PUSH1 0x40 DUP1 MLOAD PUSH4 0x5C9302C9 PUSH1 0xE0 SHL DUP2 MSTORE SWAP1 MLOAD PUSH1 0x1 PUSH1 0x1 PUSH1 0xA0 SHL SUB SWAP1 SWAP3 AND SWAP2 PUSH4 0x5C9302C9 SWAP2 PUSH1 0x4 DUP1 DUP3 ADD SWAP3 PUSH1 0x20 SWAP3 SWAP1 SWAP2 SWAP1 DUP3 SWAP1 SUB ADD DUP2 DUP7 GAS STATICCALL ISZERO DUP1 ISZERO PUSH2 0x9F0 JUMPI RETURNDATASIZE PUSH1 0x0 DUP1 RETURNDATACOPY RETURNDATASIZE PUSH1 0x0 REVERT JUMPDEST POP POP POP POP PUSH1 0x40 MLOAD RETURNDATASIZE PUSH1 0x1F NOT PUSH1 0x1F DUP3 ADD AND DUP3 ADD DUP1 PUSH1 0x40 MSTORE POP DUP2 ADD SWAP1 PUSH2 0xA14 SWAP2 SWAP1 PUSH2 0x1CF1 JUMP JUMPDEST GT PUSH2 0xA61 JUMPI PUSH1 0x40 MLOAD PUSH3 0x461BCD PUSH1 0xE5 SHL DUP2 MSTORE PUSH1 0x20 PUSH1 0x4 DUP3 ADD MSTORE PUSH1 0x1A PUSH1 0x24 DUP3 ADD MSTORE PUSH32 0x5374616B65206973206E6F7420636F6D706C657465207965742E000000000000 PUSH1 0x44 DUP3 ADD MSTORE PUSH1 0x64 ADD PUSH2 0x608 JUMP JUMPDEST PUSH1 0xD SLOAD PUSH1 0xFF AND ISZERO ISZERO PUSH1 0x1 EQ PUSH2 0xAB0 JUMPI PUSH1 0x40 MLOAD PUSH3 0x461BCD PUSH1 0xE5 SHL DUP2 MSTORE PUSH1 0x20 PUSH1 0x4 DUP3 ADD MSTORE PUSH1 0x15 PUSH1 0x24 DUP3 ADD MSTORE PUSH21 0x29BA30B5B29036BAB9BA1031329030B1BA34BB3297 PUSH1 0x59 SHL PUSH1 0x44 DUP3 ADD MSTORE PUSH1 0x64 ADD PUSH2 0x608 JUMP JUMPDEST PUSH2 0xABA DUP3 DUP3 PUSH2 0x17A5 JUMP JUMPDEST PUSH1 0x12 SLOAD PUSH1 0x40 MLOAD PUSH4 0x70A08231 PUSH1 0xE0 SHL DUP2 MSTORE ADDRESS PUSH1 0x4 DUP3 ADD MSTORE PUSH1 0x0 SWAP2 PUSH1 0x1 PUSH1 0x1 PUSH1 0xA0 SHL SUB AND SWAP1 PUSH4 0x70A08231 SWAP1 PUSH1 0x24 ADD PUSH1 0x20 PUSH1 0x40 MLOAD DUP1 DUP4 SUB DUP2 DUP7 GAS STATICCALL ISZERO DUP1 ISZERO PUSH2 0xB03 JUMPI RETURNDATASIZE PUSH1 0x0 DUP1 RETURNDATACOPY RETURNDATASIZE PUSH1 0x0 REVERT JUMPDEST POP POP POP POP PUSH1 0x40 MLOAD RETURNDATASIZE PUSH1 0x1F NOT PUSH1 0x1F DUP3 ADD AND DUP3 ADD DUP1 PUSH1 0x40 MSTORE POP DUP2 ADD SWAP1 PUSH2 0xB27 SWAP2 SWAP1 PUSH2 0x1CF1 JUMP JUMPDEST SWAP1 POP PUSH1 0x0 PUSH2 0xB3A PUSH1 0xF SLOAD DUP4 PUSH1 0xB SLOAD PUSH2 0x1814 JUMP JUMPDEST PUSH1 0x14 SLOAD PUSH1 0xE SLOAD PUSH1 0x40 MLOAD PUSH4 0xA9059CBB PUSH1 0xE0 SHL DUP2 MSTORE PUSH1 0x1 PUSH1 0x1 PUSH1 0xA0 SHL SUB SWAP2 DUP3 AND PUSH1 0x4 DUP3 ADD MSTORE PUSH1 0x24 DUP2 ADD DUP5 SWAP1 MSTORE SWAP3 SWAP4 POP AND SWAP1 PUSH4 0xA9059CBB SWAP1 PUSH1 0x44 ADD PUSH1 0x20 PUSH1 0x40 MLOAD DUP1 DUP4 SUB DUP2 PUSH1 0x0 DUP8 GAS CALL ISZERO DUP1 ISZERO PUSH2 0xB91 JUMPI RETURNDATASIZE PUSH1 0x0 DUP1 RETURNDATACOPY RETURNDATASIZE PUSH1 0x0 REVERT JUMPDEST POP POP POP POP PUSH1 0x40 MLOAD RETURNDATASIZE PUSH1 0x1F NOT PUSH1 0x1F DUP3 ADD AND DUP3 ADD DUP1 PUSH1 0x40 MSTORE POP DUP2 ADD SWAP1 PUSH2 0xBB5 SWAP2 SWAP1 PUSH2 0x1D6A JUMP JUMPDEST POP PUSH1 0x15 SLOAD PUSH1 0xE SLOAD PUSH1 0x13 SLOAD PUSH1 0x40 MLOAD PUSH4 0x70A08231 PUSH1 0xE0 SHL DUP2 MSTORE ADDRESS PUSH1 0x4 DUP3 ADD MSTORE PUSH1 0x1 PUSH1 0x1 PUSH1 0xA0 SHL SUB SWAP4 DUP5 AND SWAP4 PUSH4 0xA9059CBB SWAP4 DUP2 AND SWAP3 AND SWAP1 PUSH4 0x70A08231 SWAP1 PUSH1 0x24 ADD PUSH1 0x20 PUSH1 0x40 MLOAD DUP1 DUP4 SUB DUP2 DUP7 GAS STATICCALL ISZERO DUP1 ISZERO PUSH2 0xC0F JUMPI RETURNDATASIZE PUSH1 0x0 DUP1 RETURNDATACOPY RETURNDATASIZE PUSH1 0x0 REVERT JUMPDEST POP POP POP POP PUSH1 0x40 MLOAD RETURNDATASIZE PUSH1 0x1F NOT PUSH1 0x1F DUP3 ADD AND DUP3 ADD DUP1 PUSH1 0x40 MSTORE POP DUP2 ADD SWAP1 PUSH2 0xC33 SWAP2 SWAP1 PUSH2 0x1CF1 JUMP JUMPDEST PUSH1 0x40 MLOAD PUSH1 0x1 PUSH1 0x1 PUSH1 0xE0 SHL SUB NOT PUSH1 0xE0 DUP6 SWAP1 SHL AND DUP2 MSTORE PUSH1 0x1 PUSH1 0x1 PUSH1 0xA0 SHL SUB SWAP1 SWAP3 AND PUSH1 0x4 DUP4 ADD MSTORE PUSH1 0x24 DUP3 ADD MSTORE PUSH1 0x44 ADD PUSH1 0x20 PUSH1 0x40 MLOAD DUP1 DUP4 SUB DUP2 PUSH1 0x0 DUP8 GAS CALL ISZERO DUP1 ISZERO PUSH2 0xC7E JUMPI RETURNDATASIZE PUSH1 0x0 DUP1 RETURNDATACOPY RETURNDATASIZE PUSH1 0x0 REVERT JUMPDEST POP POP POP POP PUSH1 0x40 MLOAD RETURNDATASIZE PUSH1 0x1F NOT PUSH1 0x1F DUP3 ADD AND DUP3 ADD DUP1 PUSH1 0x40 MSTORE POP DUP2 ADD SWAP1 PUSH2 0xCA2 SWAP2 SWAP1 PUSH2 0x1D6A JUMP JUMPDEST POP PUSH1 0x0 ADDRESS PUSH1 0x1 PUSH1 0x1 PUSH1 0xA0 SHL SUB AND PUSH4 0x18160DDD PUSH1 0x40 MLOAD DUP2 PUSH4 0xFFFFFFFF AND PUSH1 0xE0 SHL DUP2 MSTORE PUSH1 0x4 ADD PUSH1 0x20 PUSH1 0x40 MLOAD DUP1 DUP4 SUB DUP2 DUP7 GAS STATICCALL ISZERO DUP1 ISZERO PUSH2 0xCE3 JUMPI RETURNDATASIZE PUSH1 0x0 DUP1 RETURNDATACOPY RETURNDATASIZE PUSH1 0x0 REVERT JUMPDEST POP POP POP POP PUSH1 0x40 MLOAD RETURNDATASIZE PUSH1 0x1F NOT PUSH1 0x1F DUP3 ADD AND DUP3 ADD DUP1 PUSH1 0x40 MSTORE POP DUP2 ADD SWAP1 PUSH2 0xD07 SWAP2 SWAP1 PUSH2 0x1CF1 JUMP JUMPDEST PUSH1 0x12 SLOAD PUSH1 0x40 MLOAD PUSH4 0x70A08231 PUSH1 0xE0 SHL DUP2 MSTORE ADDRESS PUSH1 0x4 DUP3 ADD MSTORE SWAP2 SWAP3 POP PUSH2 0xD80 SWAP2 PUSH1 0x1 PUSH1 0x1 PUSH1 0xA0 SHL SUB SWAP1 SWAP2 AND SWAP1 PUSH4 0x70A08231 SWAP1 PUSH1 0x24 ADD PUSH1 0x20 PUSH1 0x40 MLOAD DUP1 DUP4 SUB DUP2 DUP7 GAS STATICCALL ISZERO DUP1 ISZERO PUSH2 0xD56 JUMPI RETURNDATASIZE PUSH1 0x0 DUP1 RETURNDATACOPY RETURNDATASIZE PUSH1 0x0 REVERT JUMPDEST POP POP POP POP PUSH1 0x40 MLOAD RETURNDATASIZE PUSH1 0x1F NOT PUSH1 0x1F DUP3 ADD AND DUP3 ADD DUP1 PUSH1 0x40 MSTORE POP DUP2 ADD SWAP1 PUSH2 0xD7A SWAP2 SWAP1 PUSH2 0x1CF1 JUMP JUMPDEST DUP3 PUSH2 0x1952 JUMP JUMPDEST PUSH1 0xC SSTORE PUSH1 0xD DUP1 SLOAD PUSH1 0x0 PUSH1 0xF SSTORE PUSH1 0x1 PUSH1 0x1 PUSH1 0xA8 SHL SUB NOT AND CALLER PUSH2 0x100 MUL PUSH1 0xFF NOT AND OR SWAP1 SSTORE PUSH1 0x14 SLOAD PUSH1 0x40 DUP1 MLOAD PUSH4 0x5C9302C9 PUSH1 0xE0 SHL DUP2 MSTORE SWAP1 MLOAD PUSH1 0x1 PUSH1 0x1 PUSH1 0xA0 SHL SUB SWAP1 SWAP3 AND SWAP2 PUSH4 0x5C9302C9 SWAP2 PUSH1 0x4 DUP1 DUP3 ADD SWAP3 PUSH1 0x20 SWAP3 SWAP1 SWAP2 SWAP1 DUP3 SWAP1 SUB ADD DUP2 DUP7 GAS STATICCALL ISZERO DUP1 ISZERO PUSH2 0xDEC JUMPI RETURNDATASIZE PUSH1 0x0 DUP1 RETURNDATACOPY RETURNDATASIZE PUSH1 0x0 REVERT JUMPDEST POP POP POP POP PUSH1 0x40 MLOAD RETURNDATASIZE PUSH1 0x1F NOT PUSH1 0x1F DUP3 ADD AND DUP3 ADD DUP1 PUSH1 0x40 MSTORE POP DUP2 ADD SWAP1 PUSH2 0xE10 SWAP2 SWAP1 PUSH2 0x1CF1 JUMP JUMPDEST PUSH1 0x7 DUP2 SWAP1 SSTORE PUSH1 0x6 SLOAD PUSH2 0xE21 SWAP2 PUSH2 0x1D20 JUMP JUMPDEST PUSH1 0x8 SSTORE PUSH1 0x10 SLOAD PUSH2 0xE32 SWAP1 PUSH1 0x1 PUSH2 0x1D20 JUMP JUMPDEST PUSH1 0x10 SSTORE POP POP PUSH1 0x1 PUSH1 0x5 SSTORE POP POP POP JUMP JUMPDEST PUSH1 0x0 PUSH2 0xE4D DUP4 CALLER PUSH2 0x410 JUMP JUMPDEST SWAP1 POP DUP2 DUP2 LT ISZERO PUSH2 0xEAB JUMPI PUSH1 0x40 MLOAD PUSH3 0x461BCD PUSH1 0xE5 SHL DUP2 MSTORE PUSH1 0x20 PUSH1 0x4 DUP3 ADD MSTORE PUSH1 0x24 DUP1 DUP3 ADD MSTORE PUSH32 0x45524332303A206275726E20616D6F756E74206578636565647320616C6C6F77 PUSH1 0x44 DUP3 ADD MSTORE PUSH4 0x616E6365 PUSH1 0xE0 SHL PUSH1 0x64 DUP3 ADD MSTORE PUSH1 0x84 ADD PUSH2 0x608 JUMP JUMPDEST PUSH2 0xEB8 DUP4 CALLER DUP5 DUP5 SUB PUSH2 0x135A JUMP JUMPDEST PUSH2 0xEC2 DUP4 DUP4 PUSH2 0x164D JUMP JUMPDEST POP POP POP JUMP JUMPDEST PUSH2 0xED1 DUP3 DUP3 PUSH2 0x1978 JUMP JUMPDEST POP POP JUMP JUMPDEST PUSH1 0x60 PUSH1 0x4 DUP1 SLOAD PUSH2 0x466 SWAP1 PUSH2 0x1CB7 JUMP JUMPDEST CALLER PUSH1 0x0 SWAP1 DUP2 MSTORE PUSH1 0x1 PUSH1 0x20 SWAP1 DUP2 MSTORE PUSH1 0x40 DUP1 DUP4 KECCAK256 PUSH1 0x1 PUSH1 0x1 PUSH1 0xA0 SHL SUB DUP7 AND DUP5 MSTORE SWAP1 SWAP2 MSTORE DUP2 KECCAK256 SLOAD DUP3 DUP2 LT ISZERO PUSH2 0xF66 JUMPI PUSH1 0x40 MLOAD PUSH3 0x461BCD PUSH1 0xE5 SHL DUP2 MSTORE PUSH1 0x20 PUSH1 0x4 DUP3 ADD MSTORE PUSH1 0x25 PUSH1 0x24 DUP3 ADD MSTORE PUSH32 0x45524332303A2064656372656173656420616C6C6F77616E63652062656C6F77 PUSH1 0x44 DUP3 ADD MSTORE PUSH5 0x207A65726F PUSH1 0xD8 SHL PUSH1 0x64 DUP3 ADD MSTORE PUSH1 0x84 ADD PUSH2 0x608 JUMP JUMPDEST PUSH2 0xF73 CALLER DUP6 DUP6 DUP5 SUB PUSH2 0x135A JUMP JUMPDEST POP PUSH1 0x1 SWAP4 SWAP3 POP POP POP JUMP JUMPDEST PUSH1 0x0 PUSH2 0x4F6 CALLER DUP5 DUP5 PUSH2 0x147E JUMP JUMPDEST PUSH1 0x2 PUSH1 0x5 SLOAD SUB PUSH2 0xFAC JUMPI PUSH1 0x40 MLOAD PUSH3 0x461BCD PUSH1 0xE5 SHL DUP2 MSTORE PUSH1 0x4 ADD PUSH2 0x608 SWAP1 PUSH2 0x1D33 JUMP JUMPDEST PUSH1 0x2 PUSH1 0x5 SSTORE PUSH1 0xD SLOAD PUSH1 0xFF AND ISZERO PUSH2 0x1004 JUMPI PUSH1 0x40 MLOAD PUSH3 0x461BCD PUSH1 0xE5 SHL DUP2 MSTORE PUSH1 0x20 PUSH1 0x4 DUP3 ADD MSTORE PUSH1 0x1A PUSH1 0x24 DUP3 ADD MSTORE PUSH32 0x5374616B652068617320616C726561647920737461727465642E000000000000 PUSH1 0x44 DUP3 ADD MSTORE PUSH1 0x64 ADD PUSH2 0x608 JUMP JUMPDEST PUSH1 0x14 SLOAD PUSH1 0x40 DUP1 MLOAD PUSH4 0x5C9302C9 PUSH1 0xE0 SHL DUP2 MSTORE SWAP1 MLOAD PUSH1 0x0 SWAP3 PUSH1 0x1 PUSH1 0x1 PUSH1 0xA0 SHL SUB AND SWAP2 PUSH4 0x5C9302C9 SWAP2 PUSH1 0x4 DUP1 DUP4 ADD SWAP3 PUSH1 0x20 SWAP3 SWAP2 SWAP1 DUP3 SWAP1 SUB ADD DUP2 DUP7 GAS STATICCALL ISZERO DUP1 ISZERO PUSH2 0x104E JUMPI RETURNDATASIZE PUSH1 0x0 DUP1 RETURNDATACOPY RETURNDATASIZE PUSH1 0x0 REVERT JUMPDEST POP POP POP POP PUSH1 0x40 MLOAD RETURNDATASIZE PUSH1 0x1F NOT PUSH1 0x1F DUP3 ADD AND DUP3 ADD DUP1 PUSH1 0x40 MSTORE POP DUP2 ADD SWAP1 PUSH2 0x1072 SWAP2 SWAP1 PUSH2 0x1CF1 JUMP JUMPDEST SWAP1 POP PUSH1 0x8 SLOAD DUP2 GT PUSH2 0x10EB JUMPI PUSH1 0x40 MLOAD PUSH3 0x461BCD PUSH1 0xE5 SHL DUP2 MSTORE PUSH1 0x20 PUSH1 0x4 DUP3 ADD MSTORE PUSH1 0x3A PUSH1 0x24 DUP3 ADD MSTORE PUSH32 0x4D696E74696E67205068617365206973207374696C6C206F6E676F696E67202D PUSH1 0x44 DUP3 ADD MSTORE PUSH32 0x207365652052454C4F41445F50484153455F454E44206461792E000000000000 PUSH1 0x64 DUP3 ADD MSTORE PUSH1 0x84 ADD PUSH2 0x608 JUMP JUMPDEST PUSH1 0x12 SLOAD PUSH1 0x40 MLOAD PUSH4 0x70A08231 PUSH1 0xE0 SHL DUP2 MSTORE ADDRESS PUSH1 0x4 DUP3 ADD MSTORE PUSH1 0x0 SWAP2 PUSH1 0x1 PUSH1 0x1 PUSH1 0xA0 SHL SUB AND SWAP1 PUSH4 0x70A08231 SWAP1 PUSH1 0x24 ADD PUSH1 0x20 PUSH1 0x40 MLOAD DUP1 DUP4 SUB DUP2 DUP7 GAS STATICCALL ISZERO DUP1 ISZERO PUSH2 0x1134 JUMPI RETURNDATASIZE PUSH1 0x0 DUP1 RETURNDATACOPY RETURNDATASIZE PUSH1 0x0 REVERT JUMPDEST POP POP POP POP PUSH1 0x40 MLOAD RETURNDATASIZE PUSH1 0x1F NOT PUSH1 0x1F DUP3 ADD AND DUP3 ADD DUP1 PUSH1 0x40 MSTORE POP DUP2 ADD SWAP1 PUSH2 0x1158 SWAP2 SWAP1 PUSH2 0x1CF1 JUMP JUMPDEST SWAP1 POP PUSH2 0x1163 DUP2 PUSH2 0x19F4 JUMP JUMPDEST PUSH1 0xF DUP2 SWAP1 SSTORE PUSH1 0x9 DUP3 SWAP1 SSTORE PUSH1 0xB SLOAD PUSH2 0x117A SWAP1 DUP4 PUSH2 0x1D20 JUMP JUMPDEST PUSH1 0xA SSTORE PUSH1 0xD DUP1 SLOAD PUSH1 0xFF NOT AND PUSH1 0x1 SWAP1 DUP2 OR SWAP1 SWAP2 SSTORE PUSH1 0x10 SLOAD PUSH2 0x1199 SWAP2 PUSH2 0x1D20 JUMP JUMPDEST PUSH1 0x10 SSTORE POP POP PUSH1 0x1 PUSH1 0x5 SSTORE JUMP JUMPDEST PUSH1 0x2 PUSH1 0x5 SLOAD SUB PUSH2 0x11C7 JUMPI PUSH1 0x40 MLOAD PUSH3 0x461BCD PUSH1 0xE5 SHL DUP2 MSTORE PUSH1 0x4 ADD PUSH2 0x608 SWAP1 PUSH2 0x1D33 JUMP JUMPDEST PUSH1 0x2 PUSH1 0x5 SSTORE PUSH1 0xD SLOAD PUSH1 0xFF AND ISZERO PUSH2 0x1237 JUMPI PUSH1 0x40 MLOAD PUSH3 0x461BCD PUSH1 0xE5 SHL DUP2 MSTORE PUSH1 0x20 PUSH1 0x4 DUP3 ADD MSTORE PUSH1 0x2F PUSH1 0x24 DUP3 ADD MSTORE PUSH32 0x526564656D7074696F6E2063616E206E6F742068617070656E207768696C6520 PUSH1 0x44 DUP3 ADD MSTORE PUSH15 0x7374616B6520697320616374697665 PUSH1 0x88 SHL PUSH1 0x64 DUP3 ADD MSTORE PUSH1 0x84 ADD PUSH2 0x608 JUMP JUMPDEST CALLER PUSH1 0x0 SWAP1 DUP2 MSTORE PUSH1 0x20 DUP2 SWAP1 MSTORE PUSH1 0x40 SWAP1 KECCAK256 SLOAD DUP2 DUP2 LT ISZERO PUSH2 0x12AC JUMPI PUSH1 0x40 MLOAD PUSH3 0x461BCD PUSH1 0xE5 SHL DUP2 MSTORE PUSH1 0x20 PUSH1 0x4 DUP3 ADD MSTORE PUSH1 0x2C PUSH1 0x24 DUP3 ADD MSTORE PUSH32 0x596F7520646F206E6F7420686176652074686174206D756368206F6620746865 PUSH1 0x44 DUP3 ADD MSTORE PUSH12 0x102837B7B6102A37B5B2B717 PUSH1 0xA1 SHL PUSH1 0x64 DUP3 ADD MSTORE PUSH1 0x84 ADD PUSH2 0x608 JUMP JUMPDEST PUSH1 0x0 PUSH1 0xC SLOAD DUP4 PUSH2 0x12BC SWAP2 SWAP1 PUSH2 0x1D8C JUMP JUMPDEST SWAP1 POP PUSH1 0x0 PUSH2 0x12CE PUSH4 0x5F5E100 DUP4 PUSH2 0x1DAB JUMP JUMPDEST SWAP1 POP PUSH2 0x12D9 DUP5 PUSH2 0x665 JUMP JUMPDEST PUSH1 0x14 SLOAD PUSH1 0x40 MLOAD PUSH4 0xA9059CBB PUSH1 0xE0 SHL DUP2 MSTORE CALLER PUSH1 0x4 DUP3 ADD MSTORE PUSH1 0x24 DUP2 ADD DUP4 SWAP1 MSTORE PUSH1 0x1 PUSH1 0x1 PUSH1 0xA0 SHL SUB SWAP1 SWAP2 AND SWAP1 PUSH4 0xA9059CBB SWAP1 PUSH1 0x44 ADD PUSH1 0x20 PUSH1 0x40 MLOAD DUP1 DUP4 SUB DUP2 PUSH1 0x0 DUP8 GAS CALL ISZERO DUP1 ISZERO PUSH2 0x132A JUMPI RETURNDATASIZE PUSH1 0x0 DUP1 RETURNDATACOPY RETURNDATASIZE PUSH1 0x0 REVERT JUMPDEST POP POP POP POP PUSH1 0x40 MLOAD RETURNDATASIZE PUSH1 0x1F NOT PUSH1 0x1F DUP3 ADD AND DUP3 ADD DUP1 PUSH1 0x40 MSTORE POP DUP2 ADD SWAP1 PUSH2 0x134E SWAP2 SWAP1 PUSH2 0x1D6A JUMP JUMPDEST POP POP PUSH1 0x1 PUSH1 0x5 SSTORE POP POP POP JUMP JUMPDEST PUSH1 0x1 PUSH1 0x1 PUSH1 0xA0 SHL SUB DUP4 AND PUSH2 0x13BC JUMPI PUSH1 0x40 MLOAD PUSH3 0x461BCD PUSH1 0xE5 SHL DUP2 MSTORE PUSH1 0x20 PUSH1 0x4 DUP3 ADD MSTORE PUSH1 0x24 DUP1 DUP3 ADD MSTORE PUSH32 0x45524332303A20617070726F76652066726F6D20746865207A65726F20616464 PUSH1 0x44 DUP3 ADD MSTORE PUSH4 0x72657373 PUSH1 0xE0 SHL PUSH1 0x64 DUP3 ADD MSTORE PUSH1 0x84 ADD PUSH2 0x608 JUMP JUMPDEST PUSH1 0x1 PUSH1 0x1 PUSH1 0xA0 SHL SUB DUP3 AND PUSH2 0x141D JUMPI PUSH1 0x40 MLOAD PUSH3 0x461BCD PUSH1 0xE5 SHL DUP2 MSTORE PUSH1 0x20 PUSH1 0x4 DUP3 ADD MSTORE PUSH1 0x22 PUSH1 0x24 DUP3 ADD MSTORE PUSH32 0x45524332303A20617070726F766520746F20746865207A65726F206164647265 PUSH1 0x44 DUP3 ADD MSTORE PUSH2 0x7373 PUSH1 0xF0 SHL PUSH1 0x64 DUP3 ADD MSTORE PUSH1 0x84 ADD PUSH2 0x608 JUMP JUMPDEST PUSH1 0x1 PUSH1 0x1 PUSH1 0xA0 SHL SUB DUP4 DUP2 AND PUSH1 0x0 DUP2 DUP2 MSTORE PUSH1 0x1 PUSH1 0x20 SWAP1 DUP2 MSTORE PUSH1 0x40 DUP1 DUP4 KECCAK256 SWAP5 DUP8 AND DUP1 DUP5 MSTORE SWAP5 DUP3 MSTORE SWAP2 DUP3 SWAP1 KECCAK256 DUP6 SWAP1 SSTORE SWAP1 MLOAD DUP5 DUP2 MSTORE PUSH32 0x8C5BE1E5EBEC7D5BD14F71427D1E84F3DD0314C0F7B2291E5B200AC8C7C3B925 SWAP2 ADD PUSH1 0x40 MLOAD DUP1 SWAP2 SUB SWAP1 LOG3 POP POP POP JUMP JUMPDEST PUSH1 0x1 PUSH1 0x1 PUSH1 0xA0 SHL SUB DUP4 AND PUSH2 0x14E2 JUMPI PUSH1 0x40 MLOAD PUSH3 0x461BCD PUSH1 0xE5 SHL DUP2 MSTORE PUSH1 0x20 PUSH1 0x4 DUP3 ADD MSTORE PUSH1 0x25 PUSH1 0x24 DUP3 ADD MSTORE PUSH32 0x45524332303A207472616E736665722066726F6D20746865207A65726F206164 PUSH1 0x44 DUP3 ADD MSTORE PUSH5 0x6472657373 PUSH1 0xD8 SHL PUSH1 0x64 DUP3 ADD MSTORE PUSH1 0x84 ADD PUSH2 0x608 JUMP JUMPDEST PUSH1 0x1 PUSH1 0x1 PUSH1 0xA0 SHL SUB DUP3 AND PUSH2 0x1544 JUMPI PUSH1 0x40 MLOAD PUSH3 0x461BCD PUSH1 0xE5 SHL DUP2 MSTORE PUSH1 0x20 PUSH1 0x4 DUP3 ADD MSTORE PUSH1 0x23 PUSH1 0x24 DUP3 ADD MSTORE PUSH32 0x45524332303A207472616E7366657220746F20746865207A65726F2061646472 PUSH1 0x44 DUP3 ADD MSTORE PUSH3 0x657373 PUSH1 0xE8 SHL PUSH1 0x64 DUP3 ADD MSTORE PUSH1 0x84 ADD PUSH2 0x608 JUMP JUMPDEST PUSH1 0x1 PUSH1 0x1 PUSH1 0xA0 SHL SUB DUP4 AND PUSH1 0x0 SWAP1 DUP2 MSTORE PUSH1 0x20 DUP2 SWAP1 MSTORE PUSH1 0x40 SWAP1 KECCAK256 SLOAD DUP2 DUP2 LT ISZERO PUSH2 0x15BC JUMPI PUSH1 0x40 MLOAD PUSH3 0x461BCD PUSH1 0xE5 SHL DUP2 MSTORE PUSH1 0x20 PUSH1 0x4 DUP3 ADD MSTORE PUSH1 0x26 PUSH1 0x24 DUP3 ADD MSTORE PUSH32 0x45524332303A207472616E7366657220616D6F756E7420657863656564732062 PUSH1 0x44 DUP3 ADD MSTORE PUSH6 0x616C616E6365 PUSH1 0xD0 SHL PUSH1 0x64 DUP3 ADD MSTORE PUSH1 0x84 ADD PUSH2 0x608 JUMP JUMPDEST PUSH1 0x1 PUSH1 0x1 PUSH1 0xA0 SHL SUB DUP1 DUP6 AND PUSH1 0x0 SWAP1 DUP2 MSTORE PUSH1 0x20 DUP2 SWAP1 MSTORE PUSH1 0x40 DUP1 DUP3 KECCAK256 DUP6 DUP6 SUB SWAP1 SSTORE SWAP2 DUP6 AND DUP2 MSTORE SWAP1 DUP2 KECCAK256 DUP1 SLOAD DUP5 SWAP3 SWAP1 PUSH2 0x15F3 SWAP1 DUP5 SWAP1 PUSH2 0x1D20 JUMP JUMPDEST SWAP3 POP POP DUP2 SWAP1 SSTORE POP DUP3 PUSH1 0x1 PUSH1 0x1 PUSH1 0xA0 SHL SUB AND DUP5 PUSH1 0x1 PUSH1 0x1 PUSH1 0xA0 SHL SUB AND PUSH32 0xDDF252AD1BE2C89B69C2B068FC378DAA952BA7F163C4A11628F55A4DF523B3EF DUP5 PUSH1 0x40 MLOAD PUSH2 0x163F SWAP2 DUP2 MSTORE PUSH1 0x20 ADD SWAP1 JUMP JUMPDEST PUSH1 0x40 MLOAD DUP1 SWAP2 SUB SWAP1 LOG3 POP POP POP POP JUMP JUMPDEST PUSH1 0x1 PUSH1 0x1 PUSH1 0xA0 SHL SUB DUP3 AND PUSH2 0x16AD JUMPI PUSH1 0x40 MLOAD PUSH3 0x461BCD PUSH1 0xE5 SHL DUP2 MSTORE PUSH1 0x20 PUSH1 0x4 DUP3 ADD MSTORE PUSH1 0x21 PUSH1 0x24 DUP3 ADD MSTORE PUSH32 0x45524332303A206275726E2066726F6D20746865207A65726F20616464726573 PUSH1 0x44 DUP3 ADD MSTORE PUSH1 0x73 PUSH1 0xF8 SHL PUSH1 0x64 DUP3 ADD MSTORE PUSH1 0x84 ADD PUSH2 0x608 JUMP JUMPDEST PUSH1 0x1 PUSH1 0x1 PUSH1 0xA0 SHL SUB DUP3 AND PUSH1 0x0 SWAP1 DUP2 MSTORE PUSH1 0x20 DUP2 SWAP1 MSTORE PUSH1 0x40 SWAP1 KECCAK256 SLOAD DUP2 DUP2 LT ISZERO PUSH2 0x1721 JUMPI PUSH1 0x40 MLOAD PUSH3 0x461BCD PUSH1 0xE5 SHL DUP2 MSTORE PUSH1 0x20 PUSH1 0x4 DUP3 ADD MSTORE PUSH1 0x22 PUSH1 0x24 DUP3 ADD MSTORE PUSH32 0x45524332303A206275726E20616D6F756E7420657863656564732062616C616E PUSH1 0x44 DUP3 ADD MSTORE PUSH2 0x6365 PUSH1 0xF0 SHL PUSH1 0x64 DUP3 ADD MSTORE PUSH1 0x84 ADD PUSH2 0x608 JUMP JUMPDEST PUSH1 0x1 PUSH1 0x1 PUSH1 0xA0 SHL SUB DUP4 AND PUSH1 0x0 SWAP1 DUP2 MSTORE PUSH1 0x20 DUP2 SWAP1 MSTORE PUSH1 0x40 DUP2 KECCAK256 DUP4 DUP4 SUB SWAP1 SSTORE PUSH1 0x2 DUP1 SLOAD DUP5 SWAP3 SWAP1 PUSH2 0x1750 SWAP1 DUP5 SWAP1 PUSH2 0x1DCD JUMP JUMPDEST SWAP1 SWAP2 SSTORE POP POP PUSH1 0x40 MLOAD DUP3 DUP2 MSTORE PUSH1 0x0 SWAP1 PUSH1 0x1 PUSH1 0x1 PUSH1 0xA0 SHL SUB DUP6 AND SWAP1 PUSH32 0xDDF252AD1BE2C89B69C2B068FC378DAA952BA7F163C4A11628F55A4DF523B3EF SWAP1 PUSH1 0x20 ADD PUSH1 0x40 MLOAD DUP1 SWAP2 SUB SWAP1 LOG3 POP POP POP JUMP JUMPDEST PUSH2 0x66F CALLER DUP3 PUSH2 0x1A60 JUMP JUMPDEST PUSH1 0x14 SLOAD PUSH1 0x40 MLOAD PUSH4 0x1A1804D1 PUSH1 0xE1 SHL DUP2 MSTORE PUSH1 0x4 DUP2 ADD DUP5 SWAP1 MSTORE PUSH5 0xFFFFFFFFFF DUP4 AND PUSH1 0x24 DUP3 ADD MSTORE PUSH1 0x1 PUSH1 0x1 PUSH1 0xA0 SHL SUB SWAP1 SWAP2 AND SWAP1 PUSH4 0x343009A2 SWAP1 PUSH1 0x44 ADD PUSH1 0x0 PUSH1 0x40 MLOAD DUP1 DUP4 SUB DUP2 PUSH1 0x0 DUP8 DUP1 EXTCODESIZE ISZERO DUP1 ISZERO PUSH2 0x17F8 JUMPI PUSH1 0x0 DUP1 REVERT JUMPDEST POP GAS CALL ISZERO DUP1 ISZERO PUSH2 0x180C JUMPI RETURNDATASIZE PUSH1 0x0 DUP1 RETURNDATACOPY RETURNDATASIZE PUSH1 0x0 REVERT JUMPDEST POP POP POP POP POP POP JUMP JUMPDEST PUSH1 0x0 DUP1 PUSH7 0x354A6BA7A18000 DUP1 DUP7 GT ISZERO PUSH2 0x1839 JUMPI PUSH2 0x1832 PUSH1 0xA DUP8 PUSH2 0x1DAB JUMP JUMPDEST SWAP2 POP PUSH2 0x187D JUMP JUMPDEST PUSH1 0x0 PUSH2 0x1846 DUP3 PUSH1 0xA PUSH2 0x1D8C JUMP JUMPDEST PUSH2 0x1854 DUP9 PUSH4 0x5F5E100 PUSH2 0x1D8C JUMP JUMPDEST PUSH2 0x185E SWAP2 SWAP1 PUSH2 0x1DAB JUMP JUMPDEST SWAP1 POP PUSH4 0x5F5E100 PUSH2 0x186F DUP3 DUP10 PUSH2 0x1D8C JUMP JUMPDEST PUSH2 0x1879 SWAP2 SWAP1 PUSH2 0x1DAB JUMP JUMPDEST SWAP3 POP POP JUMPDEST PUSH1 0x0 DUP1 PUSH2 0xE42 DUP1 DUP8 GT ISZERO PUSH2 0x1897 JUMPI PUSH4 0xBEBC200 SWAP2 POP PUSH2 0x18BE JUMP JUMPDEST DUP1 PUSH2 0x18A6 DUP9 PUSH4 0x5F5E100 PUSH2 0x1D8C JUMP JUMPDEST PUSH2 0x18B1 SWAP1 PUSH1 0x2 PUSH2 0x1D8C JUMP JUMPDEST PUSH2 0x18BB SWAP2 SWAP1 PUSH2 0x1DAB JUMP JUMPDEST SWAP2 POP JUMPDEST PUSH4 0x5F5E100 PUSH2 0x18CD DUP4 DUP12 PUSH2 0x1D8C JUMP JUMPDEST PUSH2 0x18D7 SWAP2 SWAP1 PUSH2 0x1DAB JUMP JUMPDEST SWAP3 POP PUSH4 0x5F5E100 PUSH1 0x0 PUSH2 0x18EA DUP12 DUP12 PUSH2 0x1DCD JUMP JUMPDEST SWAP1 POP PUSH1 0x0 DUP6 PUSH2 0x18F9 DUP14 DUP11 PUSH2 0x1D20 JUMP JUMPDEST PUSH2 0x1903 SWAP2 SWAP1 PUSH2 0x1D20 JUMP JUMPDEST PUSH2 0x190D DUP10 DUP6 PUSH2 0x1D8C JUMP JUMPDEST PUSH2 0x1917 SWAP2 SWAP1 PUSH2 0x1DAB JUMP JUMPDEST SWAP1 POP PUSH1 0x0 PUSH2 0x1925 DUP3 DUP5 PUSH2 0x1D8C JUMP JUMPDEST SWAP1 POP PUSH1 0x0 PUSH2 0x1933 DUP6 DUP4 PUSH2 0x1DAB JUMP JUMPDEST SWAP1 POP PUSH2 0x1940 PUSH1 0x2 DUP3 PUSH2 0x1DAB JUMP JUMPDEST SWAP15 SWAP14 POP POP POP POP POP POP POP POP POP POP POP POP POP POP JUMP JUMPDEST PUSH1 0x0 PUSH4 0x5F5E100 DUP2 DUP4 PUSH2 0x1965 DUP4 DUP8 PUSH2 0x1D8C JUMP JUMPDEST PUSH2 0x196F SWAP2 SWAP1 PUSH2 0x1DAB JUMP JUMPDEST SWAP6 SWAP5 POP POP POP POP POP JUMP JUMPDEST PUSH1 0x15 SLOAD PUSH1 0x40 MLOAD PUSH4 0x3E04AE69 PUSH1 0xE2 SHL DUP2 MSTORE PUSH1 0x4 DUP2 ADD DUP5 SWAP1 MSTORE PUSH5 0xFFFFFFFFFF DUP4 AND PUSH1 0x24 DUP3 ADD MSTORE PUSH1 0x1 PUSH1 0x1 PUSH1 0xA0 SHL SUB SWAP1 SWAP2 AND SWAP1 PUSH4 0xF812B9A4 SWAP1 PUSH1 0x44 ADD PUSH1 0x20 PUSH1 0x40 MLOAD DUP1 DUP4 SUB DUP2 PUSH1 0x0 DUP8 GAS CALL ISZERO DUP1 ISZERO PUSH2 0x19D0 JUMPI RETURNDATASIZE PUSH1 0x0 DUP1 RETURNDATACOPY RETURNDATASIZE PUSH1 0x0 REVERT JUMPDEST POP POP POP POP PUSH1 0x40 MLOAD RETURNDATASIZE PUSH1 0x1F NOT PUSH1 0x1F DUP3 ADD AND DUP3 ADD DUP1 PUSH1 0x40 MSTORE POP DUP2 ADD SWAP1 PUSH2 0xEC2 SWAP2 SWAP1 PUSH2 0x1CF1 JUMP JUMPDEST PUSH1 0x14 SLOAD PUSH1 0xB SLOAD PUSH1 0x40 MLOAD PUSH4 0xA548717 PUSH1 0xE3 SHL DUP2 MSTORE PUSH1 0x4 DUP2 ADD DUP5 SWAP1 MSTORE PUSH1 0x24 DUP2 ADD SWAP2 SWAP1 SWAP2 MSTORE PUSH1 0x1 PUSH1 0x1 PUSH1 0xA0 SHL SUB SWAP1 SWAP2 AND SWAP1 PUSH4 0x52A438B8 SWAP1 PUSH1 0x44 ADD PUSH1 0x0 PUSH1 0x40 MLOAD DUP1 DUP4 SUB DUP2 PUSH1 0x0 DUP8 DUP1 EXTCODESIZE ISZERO DUP1 ISZERO PUSH2 0x1A45 JUMPI PUSH1 0x0 DUP1 REVERT JUMPDEST POP GAS CALL ISZERO DUP1 ISZERO PUSH2 0x1A59 JUMPI RETURNDATASIZE PUSH1 0x0 DUP1 RETURNDATACOPY RETURNDATASIZE PUSH1 0x0 REVERT JUMPDEST POP POP POP POP POP JUMP JUMPDEST PUSH1 0x1 PUSH1 0x1 PUSH1 0xA0 SHL SUB DUP3 AND PUSH2 0x1AB6 JUMPI PUSH1 0x40 MLOAD PUSH3 0x461BCD PUSH1 0xE5 SHL DUP2 MSTORE PUSH1 0x20 PUSH1 0x4 DUP3 ADD MSTORE PUSH1 0x1F PUSH1 0x24 DUP3 ADD MSTORE PUSH32 0x45524332303A206D696E7420746F20746865207A65726F206164647265737300 PUSH1 0x44 DUP3 ADD MSTORE PUSH1 0x64 ADD PUSH2 0x608 JUMP JUMPDEST DUP1 PUSH1 0x2 PUSH1 0x0 DUP3 DUP3 SLOAD PUSH2 0x1AC8 SWAP2 SWAP1 PUSH2 0x1D20 JUMP JUMPDEST SWAP1 SWAP2 SSTORE POP POP PUSH1 0x1 PUSH1 0x1 PUSH1 0xA0 SHL SUB DUP3 AND PUSH1 0x0 SWAP1 DUP2 MSTORE PUSH1 0x20 DUP2 SWAP1 MSTORE PUSH1 0x40 DUP2 KECCAK256 DUP1 SLOAD DUP4 SWAP3 SWAP1 PUSH2 0x1AF5 SWAP1 DUP5 SWAP1 PUSH2 0x1D20 JUMP JUMPDEST SWAP1 SWAP2 SSTORE POP POP PUSH1 0x40 MLOAD DUP2 DUP2 MSTORE PUSH1 0x1 PUSH1 0x1 PUSH1 0xA0 SHL SUB DUP4 AND SWAP1 PUSH1 0x0 SWAP1 PUSH32 0xDDF252AD1BE2C89B69C2B068FC378DAA952BA7F163C4A11628F55A4DF523B3EF SWAP1 PUSH1 0x20 ADD PUSH1 0x40 MLOAD DUP1 SWAP2 SUB SWAP1 LOG3 POP POP JUMP JUMPDEST PUSH1 0x0 PUSH1 0x20 DUP1 DUP4 MSTORE DUP4 MLOAD DUP1 DUP3 DUP6 ADD MSTORE PUSH1 0x0 JUMPDEST DUP2 DUP2 LT ISZERO PUSH2 0x1B6C JUMPI DUP6 DUP2 ADD DUP4 ADD MLOAD DUP6 DUP3 ADD PUSH1 0x40 ADD MSTORE DUP3 ADD PUSH2 0x1B50 JUMP JUMPDEST POP PUSH1 0x0 PUSH1 0x40 DUP3 DUP7 ADD ADD MSTORE PUSH1 0x40 PUSH1 0x1F NOT PUSH1 0x1F DUP4 ADD AND DUP6 ADD ADD SWAP3 POP POP POP SWAP3 SWAP2 POP POP JUMP JUMPDEST DUP1 CALLDATALOAD PUSH1 0x1 PUSH1 0x1 PUSH1 0xA0 SHL SUB DUP2 AND DUP2 EQ PUSH2 0x1BA4 JUMPI PUSH1 0x0 DUP1 REVERT JUMPDEST SWAP2 SWAP1 POP JUMP JUMPDEST PUSH1 0x0 DUP1 PUSH1 0x40 DUP4 DUP6 SUB SLT ISZERO PUSH2 0x1BBC JUMPI PUSH1 0x0 DUP1 REVERT JUMPDEST PUSH2 0x1BC5 DUP4 PUSH2 0x1B8D JUMP JUMPDEST SWAP5 PUSH1 0x20 SWAP4 SWAP1 SWAP4 ADD CALLDATALOAD SWAP4 POP POP POP JUMP JUMPDEST PUSH1 0x0 DUP1 PUSH1 0x0 PUSH1 0x60 DUP5 DUP7 SUB SLT ISZERO PUSH2 0x1BE8 JUMPI PUSH1 0x0 DUP1 REVERT JUMPDEST PUSH2 0x1BF1 DUP5 PUSH2 0x1B8D JUMP JUMPDEST SWAP3 POP PUSH2 0x1BFF PUSH1 0x20 DUP6 ADD PUSH2 0x1B8D JUMP JUMPDEST SWAP2 POP PUSH1 0x40 DUP5 ADD CALLDATALOAD SWAP1 POP SWAP3 POP SWAP3 POP SWAP3 JUMP JUMPDEST PUSH1 0x0 PUSH1 0x20 DUP3 DUP5 SUB SLT ISZERO PUSH2 0x1C21 JUMPI PUSH1 0x0 DUP1 REVERT JUMPDEST POP CALLDATALOAD SWAP2 SWAP1 POP JUMP JUMPDEST PUSH1 0x0 DUP1 PUSH1 0x40 DUP4 DUP6 SUB SLT ISZERO PUSH2 0x1C3B JUMPI PUSH1 0x0 DUP1 REVERT JUMPDEST DUP3 CALLDATALOAD SWAP2 POP PUSH1 0x20 DUP4 ADD CALLDATALOAD PUSH5 0xFFFFFFFFFF DUP2 AND DUP2 EQ PUSH2 0x1C57 JUMPI PUSH1 0x0 DUP1 REVERT JUMPDEST DUP1 SWAP2 POP POP SWAP3 POP SWAP3 SWAP1 POP JUMP JUMPDEST PUSH1 0x0 PUSH1 0x20 DUP3 DUP5 SUB SLT ISZERO PUSH2 0x1C74 JUMPI PUSH1 0x0 DUP1 REVERT JUMPDEST PUSH2 0x1C7D DUP3 PUSH2 0x1B8D JUMP JUMPDEST SWAP4 SWAP3 POP POP POP JUMP JUMPDEST PUSH1 0x0 DUP1 PUSH1 0x40 DUP4 DUP6 SUB SLT ISZERO PUSH2 0x1C97 JUMPI PUSH1 0x0 DUP1 REVERT JUMPDEST PUSH2 0x1CA0 DUP4 PUSH2 0x1B8D JUMP JUMPDEST SWAP2 POP PUSH2 0x1CAE PUSH1 0x20 DUP5 ADD PUSH2 0x1B8D JUMP JUMPDEST SWAP1 POP SWAP3 POP SWAP3 SWAP1 POP JUMP JUMPDEST PUSH1 0x1 DUP2 DUP2 SHR SWAP1 DUP3 AND DUP1 PUSH2 0x1CCB JUMPI PUSH1 0x7F DUP3 AND SWAP2 POP JUMPDEST PUSH1 0x20 DUP3 LT DUP2 SUB PUSH2 0x1CEB JUMPI PUSH4 0x4E487B71 PUSH1 0xE0 SHL PUSH1 0x0 MSTORE PUSH1 0x22 PUSH1 0x4 MSTORE PUSH1 0x24 PUSH1 0x0 REVERT JUMPDEST POP SWAP2 SWAP1 POP JUMP JUMPDEST PUSH1 0x0 PUSH1 0x20 DUP3 DUP5 SUB SLT ISZERO PUSH2 0x1D03 JUMPI PUSH1 0x0 DUP1 REVERT JUMPDEST POP MLOAD SWAP2 SWAP1 POP JUMP JUMPDEST PUSH4 0x4E487B71 PUSH1 0xE0 SHL PUSH1 0x0 MSTORE PUSH1 0x11 PUSH1 0x4 MSTORE PUSH1 0x24 PUSH1 0x0 REVERT JUMPDEST DUP1 DUP3 ADD DUP1 DUP3 GT ISZERO PUSH2 0x4FA JUMPI PUSH2 0x4FA PUSH2 0x1D0A JUMP JUMPDEST PUSH1 0x20 DUP1 DUP3 MSTORE PUSH1 0x1F SWAP1 DUP3 ADD MSTORE PUSH32 0x5265656E7472616E637947756172643A207265656E7472616E742063616C6C00 PUSH1 0x40 DUP3 ADD MSTORE PUSH1 0x60 ADD SWAP1 JUMP JUMPDEST PUSH1 0x0 PUSH1 0x20 DUP3 DUP5 SUB SLT ISZERO PUSH2 0x1D7C JUMPI PUSH1 0x0 DUP1 REVERT JUMPDEST DUP2 MLOAD DUP1 ISZERO ISZERO DUP2 EQ PUSH2 0x1C7D JUMPI PUSH1 0x0 DUP1 REVERT JUMPDEST PUSH1 0x0 DUP2 PUSH1 0x0 NOT DIV DUP4 GT DUP3 ISZERO ISZERO AND ISZERO PUSH2 0x1DA6 JUMPI PUSH2 0x1DA6 PUSH2 0x1D0A JUMP JUMPDEST POP MUL SWAP1 JUMP JUMPDEST PUSH1 0x0 DUP3 PUSH2 0x1DC8 JUMPI PUSH4 0x4E487B71 PUSH1 0xE0 SHL PUSH1 0x0 MSTORE PUSH1 0x12 PUSH1 0x4 MSTORE PUSH1 0x24 PUSH1 0x0 REVERT JUMPDEST POP DIV SWAP1 JUMP JUMPDEST DUP2 DUP2 SUB DUP2 DUP2 GT ISZERO PUSH2 0x4FA JUMPI PUSH2 0x4FA PUSH2 0x1D0A JUMP INVALID LOG2 PUSH5 0x6970667358 0x22 SLT KECCAK256 0xA7 AND GAS ISZERO 0xB9 DUP15 PUSH19 0x9D77B1E37305F94A954A68EBFD2329005F68A GASPRICE ADD PUSH30 0x97612164736F6C6343000810003300000000000000000000000000000000 "
				},
				"gasEstimates": {
					"creation": {
						"codeDepositCost": "1540400",
						"executionCost": "infinite",
						"totalCost": "infinite"
					},
					"external": {
						"CURRENT_PERIOD()": "2407",
						"CURRENT_STAKE_PRINCIPAL()": "2361",
						"END_STAKER()": "2415",
						"HEX_REDEMPTION_RATE()": "2341",
						"RELOAD_PHASE_DURATION()": "2406",
						"RELOAD_PHASE_END()": "2385",
						"RELOAD_PHASE_START()": "2362",
						"STAKE_END_DAY()": "2407",
						"STAKE_IS_ACTIVE()": "2421",
						"STAKE_LENGTH()": "2384",
						"STAKE_START_DAY()": "2427",
						"TEAM_CONTRACT_ADDRESS()": "2382",
						"allowance(address,address)": "infinite",
						"approve(address,uint256)": "24688",
						"balanceOf(address)": "2608",
						"burn(uint256)": "50902",
						"burnFrom(address,uint256)": "77592",
						"decimals()": "245",
						"decreaseAllowance(address,uint256)": "26999",
						"endStakeHEX(uint256,uint40)": "infinite",
						"getCurrentPeriod()": "2350",
						"getEndStaker()": "2444",
						"getHexDay()": "infinite",
						"increaseAllowance(address,uint256)": "infinite",
						"mintHedron(uint256,uint40)": "infinite",
						"name()": "infinite",
						"pledgeHEX(uint256)": "infinite",
						"redeemHEX(uint256)": "infinite",
						"stakeHEX()": "infinite",
						"symbol()": "infinite",
						"totalSupply()": "2338",
						"transfer(address,uint256)": "infinite",
						"transferFrom(address,address,uint256)": "infinite"
					},
					"internal": {
						"_endStakeHEX(uint256,uint40)": "infinite",
						"_mintHedron(uint256,uint40)": "infinite",
						"_stakeHEX(uint256)": "infinite",
						"calculate_redemption_rate(uint256,uint256)": "189",
						"get_bonus_sharing_amount(uint256,uint256,uint256)": "infinite",
						"mint(uint256)": "infinite"
					}
				},
				"methodIdentifiers": {
					"CURRENT_PERIOD()": "1fa0bb3d",
					"CURRENT_STAKE_PRINCIPAL()": "ccaa408f",
					"END_STAKER()": "8dff901b",
					"HEX_REDEMPTION_RATE()": "6a63ef6e",
					"RELOAD_PHASE_DURATION()": "4e67581e",
					"RELOAD_PHASE_END()": "1d92803d",
					"RELOAD_PHASE_START()": "b2d2997a",
					"STAKE_END_DAY()": "3d720dda",
					"STAKE_IS_ACTIVE()": "b7241ba5",
					"STAKE_LENGTH()": "b4a2bc0e",
					"STAKE_START_DAY()": "fecf706e",
					"TEAM_CONTRACT_ADDRESS()": "8d2fe35d",
					"allowance(address,address)": "dd62ed3e",
					"approve(address,uint256)": "095ea7b3",
					"balanceOf(address)": "70a08231",
					"burn(uint256)": "42966c68",
					"burnFrom(address,uint256)": "79cc6790",
					"decimals()": "313ce567",
					"decreaseAllowance(address,uint256)": "a457c2d7",
					"endStakeHEX(uint256,uint40)": "4953a509",
					"getCurrentPeriod()": "086146d2",
					"getEndStaker()": "0a19d933",
					"getHexDay()": "18edf0dd",
					"increaseAllowance(address,uint256)": "39509351",
					"mintHedron(uint256,uint40)": "8412d89b",
					"name()": "06fdde03",
					"pledgeHEX(uint256)": "4537523c",
					"redeemHEX(uint256)": "e7644fb9",
					"stakeHEX()": "ba777bcc",
					"symbol()": "95d89b41",
					"totalSupply()": "18160ddd",
					"transfer(address,uint256)": "a9059cbb",
					"transferFrom(address,address,uint256)": "23b872dd"
				}
			},
			"storageLayout": {
				"storage": [
					{
						"astId": 1000,
						"contract": "PerpetualPool_flat.sol:PerpetualPool",
						"label": "_balances",
						"offset": 0,
						"slot": "0",
						"type": "t_mapping(t_address,t_uint256)"
					},
					{
						"astId": 1006,
						"contract": "PerpetualPool_flat.sol:PerpetualPool",
						"label": "_allowances",
						"offset": 0,
						"slot": "1",
						"type": "t_mapping(t_address,t_mapping(t_address,t_uint256))"
					},
					{
						"astId": 1008,
						"contract": "PerpetualPool_flat.sol:PerpetualPool",
						"label": "_totalSupply",
						"offset": 0,
						"slot": "2",
						"type": "t_uint256"
					},
					{
						"astId": 1010,
						"contract": "PerpetualPool_flat.sol:PerpetualPool",
						"label": "_name",
						"offset": 0,
						"slot": "3",
						"type": "t_string_storage"
					},
					{
						"astId": 1012,
						"contract": "PerpetualPool_flat.sol:PerpetualPool",
						"label": "_symbol",
						"offset": 0,
						"slot": "4",
						"type": "t_string_storage"
					},
					{
						"astId": 10,
						"contract": "PerpetualPool_flat.sol:PerpetualPool",
						"label": "_status",
						"offset": 0,
						"slot": "5",
						"type": "t_uint256"
					},
					{
						"astId": 1696,
						"contract": "PerpetualPool_flat.sol:PerpetualPool",
						"label": "RELOAD_PHASE_DURATION",
						"offset": 0,
						"slot": "6",
						"type": "t_uint256"
					},
					{
						"astId": 1698,
						"contract": "PerpetualPool_flat.sol:PerpetualPool",
						"label": "RELOAD_PHASE_START",
						"offset": 0,
						"slot": "7",
						"type": "t_uint256"
					},
					{
						"astId": 1700,
						"contract": "PerpetualPool_flat.sol:PerpetualPool",
						"label": "RELOAD_PHASE_END",
						"offset": 0,
						"slot": "8",
						"type": "t_uint256"
					},
					{
						"astId": 1702,
						"contract": "PerpetualPool_flat.sol:PerpetualPool",
						"label": "STAKE_START_DAY",
						"offset": 0,
						"slot": "9",
						"type": "t_uint256"
					},
					{
						"astId": 1704,
						"contract": "PerpetualPool_flat.sol:PerpetualPool",
						"label": "STAKE_END_DAY",
						"offset": 0,
						"slot": "10",
						"type": "t_uint256"
					},
					{
						"astId": 1706,
						"contract": "PerpetualPool_flat.sol:PerpetualPool",
						"label": "STAKE_LENGTH",
						"offset": 0,
						"slot": "11",
						"type": "t_uint256"
					},
					{
						"astId": 1708,
						"contract": "PerpetualPool_flat.sol:PerpetualPool",
						"label": "HEX_REDEMPTION_RATE",
						"offset": 0,
						"slot": "12",
						"type": "t_uint256"
					},
					{
						"astId": 1710,
						"contract": "PerpetualPool_flat.sol:PerpetualPool",
						"label": "STAKE_IS_ACTIVE",
						"offset": 0,
						"slot": "13",
						"type": "t_bool"
					},
					{
						"astId": 1712,
						"contract": "PerpetualPool_flat.sol:PerpetualPool",
						"label": "END_STAKER",
						"offset": 1,
						"slot": "13",
						"type": "t_address"
					},
					{
						"astId": 1714,
						"contract": "PerpetualPool_flat.sol:PerpetualPool",
						"label": "TEAM_CONTRACT_ADDRESS",
						"offset": 0,
						"slot": "14",
						"type": "t_address"
					},
					{
						"astId": 1716,
						"contract": "PerpetualPool_flat.sol:PerpetualPool",
						"label": "CURRENT_STAKE_PRINCIPAL",
						"offset": 0,
						"slot": "15",
						"type": "t_uint256"
					},
					{
						"astId": 1718,
						"contract": "PerpetualPool_flat.sol:PerpetualPool",
						"label": "CURRENT_PERIOD",
						"offset": 0,
						"slot": "16",
						"type": "t_uint256"
					},
					{
						"astId": 1790,
						"contract": "PerpetualPool_flat.sol:PerpetualPool",
						"label": "POOL_ADDRESS",
						"offset": 0,
						"slot": "17",
						"type": "t_address"
					},
					{
						"astId": 1802,
						"contract": "PerpetualPool_flat.sol:PerpetualPool",
						"label": "hex_contract",
						"offset": 0,
						"slot": "18",
						"type": "t_contract(IERC20)744"
					},
					{
						"astId": 1808,
						"contract": "PerpetualPool_flat.sol:PerpetualPool",
						"label": "hedron_contract",
						"offset": 0,
						"slot": "19",
						"type": "t_contract(IERC20)744"
					},
					{
						"astId": 1814,
						"contract": "PerpetualPool_flat.sol:PerpetualPool",
						"label": "hex_token",
						"offset": 0,
						"slot": "20",
						"type": "t_contract(HEXToken)1688"
					},
					{
						"astId": 1820,
						"contract": "PerpetualPool_flat.sol:PerpetualPool",
						"label": "hedron_token",
						"offset": 0,
						"slot": "21",
						"type": "t_contract(HedronToken)1637"
					}
				],
				"types": {
					"t_address": {
						"encoding": "inplace",
						"label": "address",
						"numberOfBytes": "20"
					},
					"t_bool": {
						"encoding": "inplace",
						"label": "bool",
						"numberOfBytes": "1"
					},
					"t_contract(HEXToken)1688": {
						"encoding": "inplace",
						"label": "contract HEXToken",
						"numberOfBytes": "20"
					},
					"t_contract(HedronToken)1637": {
						"encoding": "inplace",
						"label": "contract HedronToken",
						"numberOfBytes": "20"
					},
					"t_contract(IERC20)744": {
						"encoding": "inplace",
						"label": "contract IERC20",
						"numberOfBytes": "20"
					},
					"t_mapping(t_address,t_mapping(t_address,t_uint256))": {
						"encoding": "mapping",
						"key": "t_address",
						"label": "mapping(address => mapping(address => uint256))",
						"numberOfBytes": "32",
						"value": "t_mapping(t_address,t_uint256)"
					},
					"t_mapping(t_address,t_uint256)": {
						"encoding": "mapping",
						"key": "t_address",
						"label": "mapping(address => uint256)",
						"numberOfBytes": "32",
						"value": "t_uint256"
					},
					"t_string_storage": {
						"encoding": "bytes",
						"label": "string",
						"numberOfBytes": "32"
					},
					"t_uint256": {
						"encoding": "inplace",
						"label": "uint256",
						"numberOfBytes": "32"
					}
				}
			},
			"userdoc": {
				"kind": "user",
				"methods": {
					"endStakeHEX(uint256,uint40)": {
						"notice": "This will trigger the ending of the HEX stake and calculate the new redemption rate. This may be very expensive. If you run this, you will pay the gas on behalf of the contract and you should not expect reimbursement."
					},
					"mintHedron(uint256,uint40)": {
						"notice": "This will trigger the minting of the mintable Hedron earned by the stake. If you run this, you will pay the gas on behalf of the contract and you should not expect reimbursement. If check to make sure this has not been run yet already or the transaction will fail."
					},
					"stakeHEX()": {
						"notice": "This will trigger the start of the HEX stake. If you run this, you will pay the gas on behalf of the contract and you should not expect reimbursement."
					}
				},
				"version": 1
			}
		}
	}
}