{
	"PerpetualPool_flat.sol": {
		"HedronToken": {
			"abi": [
				{
					"inputs": [
						{
							"internalType": "address",
							"name": "spender",
							"type": "address"
						},
						{
							"internalType": "uint256",
							"name": "amount",
							"type": "uint256"
						}
					],
					"name": "approve",
					"outputs": [
						{
							"internalType": "bool",
							"name": "",
							"type": "bool"
						}
					],
					"stateMutability": "nonpayable",
					"type": "function"
				},
				{
					"inputs": [
						{
							"internalType": "uint256",
							"name": "stakeIndex",
							"type": "uint256"
						},
						{
							"internalType": "uint40",
							"name": "stakeId",
							"type": "uint40"
						}
					],
					"name": "claimNative",
					"outputs": [
						{
							"internalType": "uint256",
							"name": "",
							"type": "uint256"
						}
					],
					"stateMutability": "nonpayable",
					"type": "function"
				},
				{
					"inputs": [],
					"name": "currentDay",
					"outputs": [
						{
							"internalType": "uint256",
							"name": "",
							"type": "uint256"
						}
					],
					"stateMutability": "view",
					"type": "function"
				},
				{
					"inputs": [
						{
							"internalType": "uint256",
							"name": "stakeIndex",
							"type": "uint256"
						},
						{
							"internalType": "uint40",
							"name": "stakeId",
							"type": "uint40"
						}
					],
					"name": "mintNative",
					"outputs": [
						{
							"internalType": "uint256",
							"name": "",
							"type": "uint256"
						}
					],
					"stateMutability": "nonpayable",
					"type": "function"
				},
				{
					"inputs": [
						{
							"internalType": "address",
							"name": "recipient",
							"type": "address"
						},
						{
							"internalType": "uint256",
							"name": "amount",
							"type": "uint256"
						}
					],
					"name": "transfer",
					"outputs": [
						{
							"internalType": "bool",
							"name": "",
							"type": "bool"
						}
					],
					"stateMutability": "nonpayable",
					"type": "function"
				}
			],
			"devdoc": {
				"kind": "dev",
				"methods": {},
				"version": 1
			},
			"evm": {
				"assembly": "    /* \"PerpetualPool_flat.sol\":38846:39267  contract HedronToken {... */\n  mstore(0x40, 0x80)\n  callvalue\n  dup1\n  iszero\n  tag_1\n  jumpi\n  0x00\n  dup1\n  revert\ntag_1:\n  pop\n  dataSize(sub_0)\n  dup1\n  dataOffset(sub_0)\n  0x00\n  codecopy\n  0x00\n  return\nstop\n\nsub_0: assembly {\n        /* \"PerpetualPool_flat.sol\":38846:39267  contract HedronToken {... */\n      mstore(0x40, 0x80)\n      callvalue\n      dup1\n      iszero\n      tag_1\n      jumpi\n      0x00\n      dup1\n      revert\n    tag_1:\n      pop\n      jumpi(tag_2, lt(calldatasize, 0x04))\n      shr(0xe0, calldataload(0x00))\n      dup1\n      0x095ea7b3\n      eq\n      tag_3\n      jumpi\n      dup1\n      0x5c9302c9\n      eq\n      tag_4\n      jumpi\n      dup1\n      0xa9059cbb\n      eq\n      tag_3\n      jumpi\n      dup1\n      0xb488dbc6\n      eq\n      tag_6\n      jumpi\n      dup1\n      0xf812b9a4\n      eq\n      tag_6\n      jumpi\n    tag_2:\n      0x00\n      dup1\n      revert\n        /* \"PerpetualPool_flat.sol\":38871:38947  function approve(address spender, uint256 amount) external returns (bool) {} */\n    tag_3:\n      tag_8\n      tag_9\n      calldatasize\n      0x04\n      tag_10\n      jump\t// in\n    tag_9:\n        /* \"PerpetualPool_flat.sol\":38939:38943  bool */\n      0x00\n        /* \"PerpetualPool_flat.sol\":38871:38947  function approve(address spender, uint256 amount) external returns (bool) {} */\n      swap3\n      swap2\n      pop\n      pop\n      jump\n    tag_8:\n      mload(0x40)\n        /* \"#utility.yul\":538:552   */\n      swap1\n      iszero\n        /* \"#utility.yul\":531:553   */\n      iszero\n        /* \"#utility.yul\":513:554   */\n      dup2\n      mstore\n        /* \"#utility.yul\":501:503   */\n      0x20\n        /* \"#utility.yul\":486:504   */\n      add\n        /* \"PerpetualPool_flat.sol\":38871:38947  function approve(address spender, uint256 amount) external returns (bool) {} */\n    tag_12:\n      mload(0x40)\n      dup1\n      swap2\n      sub\n      swap1\n      return\n        /* \"PerpetualPool_flat.sol\":39209:39265  function currentDay() external view returns (uint256) {} */\n    tag_4:\n        /* \"PerpetualPool_flat.sol\":39254:39261  uint256 */\n      0x00\n        /* \"PerpetualPool_flat.sol\":39209:39265  function currentDay() external view returns (uint256) {} */\n    tag_14:\n      mload(0x40)\n        /* \"#utility.yul\":711:736   */\n      swap1\n      dup2\n      mstore\n        /* \"#utility.yul\":699:701   */\n      0x20\n        /* \"#utility.yul\":684:702   */\n      add\n        /* \"PerpetualPool_flat.sol\":39209:39265  function currentDay() external view returns (uint256) {} */\n      tag_12\n        /* \"#utility.yul\":565:742   */\n      jump\n        /* \"PerpetualPool_flat.sol\":39120:39206  function claimNative(uint256 stakeIndex, uint40 stakeId) external returns (uint256) {} */\n    tag_6:\n      tag_14\n      tag_9\n      calldatasize\n      0x04\n      tag_24\n      jump\t// in\n        /* \"#utility.yul\":14:368   */\n    tag_10:\n        /* \"#utility.yul\":82:88   */\n      0x00\n        /* \"#utility.yul\":90:96   */\n      dup1\n        /* \"#utility.yul\":143:145   */\n      0x40\n        /* \"#utility.yul\":131:140   */\n      dup4\n        /* \"#utility.yul\":122:129   */\n      dup6\n        /* \"#utility.yul\":118:141   */\n      sub\n        /* \"#utility.yul\":114:146   */\n      slt\n        /* \"#utility.yul\":111:163   */\n      iszero\n      tag_38\n      jumpi\n        /* \"#utility.yul\":159:160   */\n      0x00\n        /* \"#utility.yul\":156:157   */\n      dup1\n        /* \"#utility.yul\":149:161   */\n      revert\n        /* \"#utility.yul\":111:163   */\n    tag_38:\n        /* \"#utility.yul\":185:208   */\n      dup3\n      calldataload\n      sub(shl(0xa0, 0x01), 0x01)\n        /* \"#utility.yul\":237:268   */\n      dup2\n      and\n        /* \"#utility.yul\":227:269   */\n      dup2\n      eq\n        /* \"#utility.yul\":217:287   */\n      tag_39\n      jumpi\n        /* \"#utility.yul\":283:284   */\n      0x00\n        /* \"#utility.yul\":280:281   */\n      dup1\n        /* \"#utility.yul\":273:285   */\n      revert\n        /* \"#utility.yul\":217:287   */\n    tag_39:\n        /* \"#utility.yul\":306:311   */\n      swap5\n        /* \"#utility.yul\":358:360   */\n      0x20\n        /* \"#utility.yul\":343:361   */\n      swap4\n      swap1\n      swap4\n      add\n        /* \"#utility.yul\":330:362   */\n      calldataload\n      swap4\n      pop\n      pop\n      pop\n        /* \"#utility.yul\":14:368   */\n      jump\t// out\n        /* \"#utility.yul\":747:1093   */\n    tag_24:\n        /* \"#utility.yul\":814:820   */\n      0x00\n        /* \"#utility.yul\":822:828   */\n      dup1\n        /* \"#utility.yul\":875:877   */\n      0x40\n        /* \"#utility.yul\":863:872   */\n      dup4\n        /* \"#utility.yul\":854:861   */\n      dup6\n        /* \"#utility.yul\":850:873   */\n      sub\n        /* \"#utility.yul\":846:878   */\n      slt\n        /* \"#utility.yul\":843:895   */\n      iszero\n      tag_43\n      jumpi\n        /* \"#utility.yul\":891:892   */\n      0x00\n        /* \"#utility.yul\":888:889   */\n      dup1\n        /* \"#utility.yul\":881:893   */\n      revert\n        /* \"#utility.yul\":843:895   */\n    tag_43:\n        /* \"#utility.yul\":927:936   */\n      dup3\n        /* \"#utility.yul\":914:937   */\n      calldataload\n        /* \"#utility.yul\":904:937   */\n      swap2\n      pop\n        /* \"#utility.yul\":987:989   */\n      0x20\n        /* \"#utility.yul\":976:985   */\n      dup4\n        /* \"#utility.yul\":972:990   */\n      add\n        /* \"#utility.yul\":959:991   */\n      calldataload\n        /* \"#utility.yul\":1031:1043   */\n      0xffffffffff\n        /* \"#utility.yul\":1024:1029   */\n      dup2\n        /* \"#utility.yul\":1020:1044   */\n      and\n        /* \"#utility.yul\":1013:1018   */\n      dup2\n        /* \"#utility.yul\":1010:1045   */\n      eq\n        /* \"#utility.yul\":1000:1063   */\n      tag_44\n      jumpi\n        /* \"#utility.yul\":1059:1060   */\n      0x00\n        /* \"#utility.yul\":1056:1057   */\n      dup1\n        /* \"#utility.yul\":1049:1061   */\n      revert\n        /* \"#utility.yul\":1000:1063   */\n    tag_44:\n        /* \"#utility.yul\":1082:1087   */\n      dup1\n        /* \"#utility.yul\":1072:1087   */\n      swap2\n      pop\n      pop\n        /* \"#utility.yul\":747:1093   */\n      swap3\n      pop\n      swap3\n      swap1\n      pop\n      jump\t// out\n\n    auxdata: 0xa26469706673582212200a8156373b1ba53b72ee3f702bce9fbd894dd01a31ae8886067cba7d2a523dfa64736f6c63430008100033\n}\n",
				"bytecode": {
					"linkReferences": {},
					"object": "608060405234801561001057600080fd5b5061014e806100206000396000f3fe608060405234801561001057600080fd5b50600436106100575760003560e01c8063095ea7b31461005c5780635c9302c914610087578063a9059cbb1461005c578063b488dbc614610098578063f812b9a414610098575b600080fd5b61007261006a3660046100a6565b600092915050565b60405190151581526020015b60405180910390f35b60005b60405190815260200161007e565b61008a61006a3660046100de565b600080604083850312156100b957600080fd5b82356001600160a01b03811681146100d057600080fd5b946020939093013593505050565b600080604083850312156100f157600080fd5b82359150602083013564ffffffffff8116811461010d57600080fd5b80915050925092905056fea26469706673582212200a8156373b1ba53b72ee3f702bce9fbd894dd01a31ae8886067cba7d2a523dfa64736f6c63430008100033",
					"opcodes": "PUSH1 0x80 PUSH1 0x40 MSTORE CALLVALUE DUP1 ISZERO PUSH2 0x10 JUMPI PUSH1 0x0 DUP1 REVERT JUMPDEST POP PUSH2 0x14E DUP1 PUSH2 0x20 PUSH1 0x0 CODECOPY PUSH1 0x0 RETURN INVALID PUSH1 0x80 PUSH1 0x40 MSTORE CALLVALUE DUP1 ISZERO PUSH2 0x10 JUMPI PUSH1 0x0 DUP1 REVERT JUMPDEST POP PUSH1 0x4 CALLDATASIZE LT PUSH2 0x57 JUMPI PUSH1 0x0 CALLDATALOAD PUSH1 0xE0 SHR DUP1 PUSH4 0x95EA7B3 EQ PUSH2 0x5C JUMPI DUP1 PUSH4 0x5C9302C9 EQ PUSH2 0x87 JUMPI DUP1 PUSH4 0xA9059CBB EQ PUSH2 0x5C JUMPI DUP1 PUSH4 0xB488DBC6 EQ PUSH2 0x98 JUMPI DUP1 PUSH4 0xF812B9A4 EQ PUSH2 0x98 JUMPI JUMPDEST PUSH1 0x0 DUP1 REVERT JUMPDEST PUSH2 0x72 PUSH2 0x6A CALLDATASIZE PUSH1 0x4 PUSH2 0xA6 JUMP JUMPDEST PUSH1 0x0 SWAP3 SWAP2 POP POP JUMP JUMPDEST PUSH1 0x40 MLOAD SWAP1 ISZERO ISZERO DUP2 MSTORE PUSH1 0x20 ADD JUMPDEST PUSH1 0x40 MLOAD DUP1 SWAP2 SUB SWAP1 RETURN JUMPDEST PUSH1 0x0 JUMPDEST PUSH1 0x40 MLOAD SWAP1 DUP2 MSTORE PUSH1 0x20 ADD PUSH2 0x7E JUMP JUMPDEST PUSH2 0x8A PUSH2 0x6A CALLDATASIZE PUSH1 0x4 PUSH2 0xDE JUMP JUMPDEST PUSH1 0x0 DUP1 PUSH1 0x40 DUP4 DUP6 SUB SLT ISZERO PUSH2 0xB9 JUMPI PUSH1 0x0 DUP1 REVERT JUMPDEST DUP3 CALLDATALOAD PUSH1 0x1 PUSH1 0x1 PUSH1 0xA0 SHL SUB DUP2 AND DUP2 EQ PUSH2 0xD0 JUMPI PUSH1 0x0 DUP1 REVERT JUMPDEST SWAP5 PUSH1 0x20 SWAP4 SWAP1 SWAP4 ADD CALLDATALOAD SWAP4 POP POP POP JUMP JUMPDEST PUSH1 0x0 DUP1 PUSH1 0x40 DUP4 DUP6 SUB SLT ISZERO PUSH2 0xF1 JUMPI PUSH1 0x0 DUP1 REVERT JUMPDEST DUP3 CALLDATALOAD SWAP2 POP PUSH1 0x20 DUP4 ADD CALLDATALOAD PUSH5 0xFFFFFFFFFF DUP2 AND DUP2 EQ PUSH2 0x10D JUMPI PUSH1 0x0 DUP1 REVERT JUMPDEST DUP1 SWAP2 POP POP SWAP3 POP SWAP3 SWAP1 POP JUMP INVALID LOG2 PUSH5 0x6970667358 0x22 SLT KECCAK256 EXP DUP2 JUMP CALLDATACOPY EXTCODESIZE SHL 0xA5 EXTCODESIZE PUSH19 0xEE3F702BCE9FBD894DD01A31AE8886067CBA7D 0x2A MSTORE RETURNDATASIZE STATICCALL PUSH5 0x736F6C6343 STOP ADDMOD LT STOP CALLER "
				},
				"gasEstimates": {
					"creation": {
						"codeDepositCost": "66800",
						"executionCost": "117",
						"totalCost": "66917"
					},
					"external": {
						"approve(address,uint256)": "319",
						"claimNative(uint256,uint40)": "388",
						"currentDay()": "181",
						"mintNative(uint256,uint40)": "410",
						"transfer(address,uint256)": "363"
					}
				},
				"methodIdentifiers": {
					"approve(address,uint256)": "095ea7b3",
					"claimNative(uint256,uint40)": "b488dbc6",
					"currentDay()": "5c9302c9",
					"mintNative(uint256,uint40)": "f812b9a4",
					"transfer(address,uint256)": "a9059cbb"
				}
			},
			"storageLayout": {
				"storage": [],
				"types": null
			},
			"userdoc": {
				"kind": "user",
				"methods": {},
				"version": 1
			}
		}
	}
}