{
	"PerpetualPool_flat.sol": {
		"ERC20": {
			"abi": [
				{
					"inputs": [
						{
							"internalType": "string",
							"name": "name_",
							"type": "string"
						},
						{
							"internalType": "string",
							"name": "symbol_",
							"type": "string"
						}
					],
					"stateMutability": "nonpayable",
					"type": "constructor"
				},
				{
					"anonymous": false,
					"inputs": [
						{
							"indexed": true,
							"internalType": "address",
							"name": "owner",
							"type": "address"
						},
						{
							"indexed": true,
							"internalType": "address",
							"name": "spender",
							"type": "address"
						},
						{
							"indexed": false,
							"internalType": "uint256",
							"name": "value",
							"type": "uint256"
						}
					],
					"name": "Approval",
					"type": "event"
				},
				{
					"anonymous": false,
					"inputs": [
						{
							"indexed": true,
							"internalType": "address",
							"name": "from",
							"type": "address"
						},
						{
							"indexed": true,
							"internalType": "address",
							"name": "to",
							"type": "address"
						},
						{
							"indexed": false,
							"internalType": "uint256",
							"name": "value",
							"type": "uint256"
						}
					],
					"name": "Transfer",
					"type": "event"
				},
				{
					"inputs": [
						{
							"internalType": "address",
							"name": "owner",
							"type": "address"
						},
						{
							"internalType": "address",
							"name": "spender",
							"type": "address"
						}
					],
					"name": "allowance",
					"outputs": [
						{
							"internalType": "uint256",
							"name": "",
							"type": "uint256"
						}
					],
					"stateMutability": "view",
					"type": "function"
				},
				{
					"inputs": [
						{
							"internalType": "address",
							"name": "spender",
							"type": "address"
						},
						{
							"internalType": "uint256",
							"name": "amount",
							"type": "uint256"
						}
					],
					"name": "approve",
					"outputs": [
						{
							"internalType": "bool",
							"name": "",
							"type": "bool"
						}
					],
					"stateMutability": "nonpayable",
					"type": "function"
				},
				{
					"inputs": [
						{
							"internalType": "address",
							"name": "account",
							"type": "address"
						}
					],
					"name": "balanceOf",
					"outputs": [
						{
							"internalType": "uint256",
							"name": "",
							"type": "uint256"
						}
					],
					"stateMutability": "view",
					"type": "function"
				},
				{
					"inputs": [],
					"name": "decimals",
					"outputs": [
						{
							"internalType": "uint8",
							"name": "",
							"type": "uint8"
						}
					],
					"stateMutability": "view",
					"type": "function"
				},
				{
					"inputs": [
						{
							"internalType": "address",
							"name": "spender",
							"type": "address"
						},
						{
							"internalType": "uint256",
							"name": "subtractedValue",
							"type": "uint256"
						}
					],
					"name": "decreaseAllowance",
					"outputs": [
						{
							"internalType": "bool",
							"name": "",
							"type": "bool"
						}
					],
					"stateMutability": "nonpayable",
					"type": "function"
				},
				{
					"inputs": [
						{
							"internalType": "address",
							"name": "spender",
							"type": "address"
						},
						{
							"internalType": "uint256",
							"name": "addedValue",
							"type": "uint256"
						}
					],
					"name": "increaseAllowance",
					"outputs": [
						{
							"internalType": "bool",
							"name": "",
							"type": "bool"
						}
					],
					"stateMutability": "nonpayable",
					"type": "function"
				},
				{
					"inputs": [],
					"name": "name",
					"outputs": [
						{
							"internalType": "string",
							"name": "",
							"type": "string"
						}
					],
					"stateMutability": "view",
					"type": "function"
				},
				{
					"inputs": [],
					"name": "symbol",
					"outputs": [
						{
							"internalType": "string",
							"name": "",
							"type": "string"
						}
					],
					"stateMutability": "view",
					"type": "function"
				},
				{
					"inputs": [],
					"name": "totalSupply",
					"outputs": [
						{
							"internalType": "uint256",
							"name": "",
							"type": "uint256"
						}
					],
					"stateMutability": "view",
					"type": "function"
				},
				{
					"inputs": [
						{
							"internalType": "address",
							"name": "recipient",
							"type": "address"
						},
						{
							"internalType": "uint256",
							"name": "amount",
							"type": "uint256"
						}
					],
					"name": "transfer",
					"outputs": [
						{
							"internalType": "bool",
							"name": "",
							"type": "bool"
						}
					],
					"stateMutability": "nonpayable",
					"type": "function"
				},
				{
					"inputs": [
						{
							"internalType": "address",
							"name": "sender",
							"type": "address"
						},
						{
							"internalType": "address",
							"name": "recipient",
							"type": "address"
						},
						{
							"internalType": "uint256",
							"name": "amount",
							"type": "uint256"
						}
					],
					"name": "transferFrom",
					"outputs": [
						{
							"internalType": "bool",
							"name": "",
							"type": "bool"
						}
					],
					"stateMutability": "nonpayable",
					"type": "function"
				}
			],
			"devdoc": {
				"details": "Implementation of the {IERC20} interface. This implementation is agnostic to the way tokens are created. This means that a supply mechanism has to be added in a derived contract using {_mint}. For a generic mechanism see {ERC20PresetMinterPauser}. TIP: For a detailed writeup see our guide https://forum.zeppelin.solutions/t/how-to-implement-erc20-supply-mechanisms/226[How to implement supply mechanisms]. We have followed general OpenZeppelin Contracts guidelines: functions revert instead returning `false` on failure. This behavior is nonetheless conventional and does not conflict with the expectations of ERC20 applications. Additionally, an {Approval} event is emitted on calls to {transferFrom}. This allows applications to reconstruct the allowance for all accounts just by listening to said events. Other implementations of the EIP may not emit these events, as it isn't required by the specification. Finally, the non-standard {decreaseAllowance} and {increaseAllowance} functions have been added to mitigate the well-known issues around setting allowances. See {IERC20-approve}.",
				"kind": "dev",
				"methods": {
					"allowance(address,address)": {
						"details": "See {IERC20-allowance}."
					},
					"approve(address,uint256)": {
						"details": "See {IERC20-approve}. Requirements: - `spender` cannot be the zero address."
					},
					"balanceOf(address)": {
						"details": "See {IERC20-balanceOf}."
					},
					"constructor": {
						"details": "Sets the values for {name} and {symbol}. The default value of {decimals} is 18. To select a different value for {decimals} you should overload it. All two of these values are immutable: they can only be set once during construction."
					},
					"decimals()": {
						"details": "Returns the number of decimals used to get its user representation. For example, if `decimals` equals `2`, a balance of `505` tokens should be displayed to a user as `5.05` (`505 / 10 ** 2`). Tokens usually opt for a value of 18, imitating the relationship between Ether and Wei. This is the value {ERC20} uses, unless this function is overridden; NOTE: This information is only used for _display_ purposes: it in no way affects any of the arithmetic of the contract, including {IERC20-balanceOf} and {IERC20-transfer}."
					},
					"decreaseAllowance(address,uint256)": {
						"details": "Atomically decreases the allowance granted to `spender` by the caller. This is an alternative to {approve} that can be used as a mitigation for problems described in {IERC20-approve}. Emits an {Approval} event indicating the updated allowance. Requirements: - `spender` cannot be the zero address. - `spender` must have allowance for the caller of at least `subtractedValue`."
					},
					"increaseAllowance(address,uint256)": {
						"details": "Atomically increases the allowance granted to `spender` by the caller. This is an alternative to {approve} that can be used as a mitigation for problems described in {IERC20-approve}. Emits an {Approval} event indicating the updated allowance. Requirements: - `spender` cannot be the zero address."
					},
					"name()": {
						"details": "Returns the name of the token."
					},
					"symbol()": {
						"details": "Returns the symbol of the token, usually a shorter version of the name."
					},
					"totalSupply()": {
						"details": "See {IERC20-totalSupply}."
					},
					"transfer(address,uint256)": {
						"details": "See {IERC20-transfer}. Requirements: - `recipient` cannot be the zero address. - the caller must have a balance of at least `amount`."
					},
					"transferFrom(address,address,uint256)": {
						"details": "See {IERC20-transferFrom}. Emits an {Approval} event indicating the updated allowance. This is not required by the EIP. See the note at the beginning of {ERC20}. Requirements: - `sender` and `recipient` cannot be the zero address. - `sender` must have a balance of at least `amount`. - the caller must have allowance for ``sender``'s tokens of at least `amount`."
					}
				},
				"version": 1
			},
			"evm": {
				"assembly": "    /* \"PerpetualPool_flat.sol\":27012:37428  contract ERC20 is Context, IERC20, IERC20Metadata {... */\n  mstore(0x40, 0x80)\n    /* \"PerpetualPool_flat.sol\":27587:27700  constructor(string memory name_, string memory symbol_) {... */\n  callvalue\n  dup1\n  iszero\n  tag_1\n  jumpi\n  0x00\n  dup1\n  revert\ntag_1:\n  pop\n  mload(0x40)\n  sub(codesize, bytecodeSize)\n  dup1\n  bytecodeSize\n  dup4\n  codecopy\n  dup2\n  add\n  0x40\n  dup2\n  swap1\n  mstore\n  tag_2\n  swap2\n  tag_3\n  jump\t// in\ntag_2:\n    /* \"PerpetualPool_flat.sol\":27653:27658  _name */\n  0x03\n    /* \"PerpetualPool_flat.sol\":27653:27666  _name = name_ */\n  tag_6\n    /* \"PerpetualPool_flat.sol\":27661:27666  name_ */\n  dup4\n    /* \"PerpetualPool_flat.sol\":27653:27658  _name */\n  dup3\n    /* \"PerpetualPool_flat.sol\":27653:27666  _name = name_ */\n  tag_7\n  jump\t// in\ntag_6:\n  pop\n    /* \"PerpetualPool_flat.sol\":27676:27683  _symbol */\n  0x04\n    /* \"PerpetualPool_flat.sol\":27676:27693  _symbol = symbol_ */\n  tag_8\n    /* \"PerpetualPool_flat.sol\":27686:27693  symbol_ */\n  dup3\n    /* \"PerpetualPool_flat.sol\":27676:27683  _symbol */\n  dup3\n    /* \"PerpetualPool_flat.sol\":27676:27693  _symbol = symbol_ */\n  tag_7\n  jump\t// in\ntag_8:\n  pop\n    /* \"PerpetualPool_flat.sol\":27587:27700  constructor(string memory name_, string memory symbol_) {... */\n  pop\n  pop\n    /* \"PerpetualPool_flat.sol\":27012:37428  contract ERC20 is Context, IERC20, IERC20Metadata {... */\n  jump(tag_16)\n    /* \"#utility.yul\":14:141   */\ntag_10:\n    /* \"#utility.yul\":75:85   */\n  0x4e487b71\n    /* \"#utility.yul\":70:73   */\n  0xe0\n    /* \"#utility.yul\":66:86   */\n  shl\n    /* \"#utility.yul\":63:64   */\n  0x00\n    /* \"#utility.yul\":56:87   */\n  mstore\n    /* \"#utility.yul\":106:110   */\n  0x41\n    /* \"#utility.yul\":103:104   */\n  0x04\n    /* \"#utility.yul\":96:111   */\n  mstore\n    /* \"#utility.yul\":130:134   */\n  0x24\n    /* \"#utility.yul\":127:128   */\n  0x00\n    /* \"#utility.yul\":120:135   */\n  revert\n    /* \"#utility.yul\":146:986   */\ntag_11:\n    /* \"#utility.yul\":200:205   */\n  0x00\n    /* \"#utility.yul\":253:256   */\n  dup3\n    /* \"#utility.yul\":246:250   */\n  0x1f\n    /* \"#utility.yul\":238:244   */\n  dup4\n    /* \"#utility.yul\":234:251   */\n  add\n    /* \"#utility.yul\":230:257   */\n  slt\n    /* \"#utility.yul\":220:275   */\n  tag_19\n  jumpi\n    /* \"#utility.yul\":271:272   */\n  0x00\n    /* \"#utility.yul\":268:269   */\n  dup1\n    /* \"#utility.yul\":261:273   */\n  revert\n    /* \"#utility.yul\":220:275   */\ntag_19:\n    /* \"#utility.yul\":294:307   */\n  dup2\n  mload\n  sub(shl(0x40, 0x01), 0x01)\n    /* \"#utility.yul\":356:366   */\n  dup1\n  dup3\n  gt\n    /* \"#utility.yul\":353:389   */\n  iszero\n  tag_21\n  jumpi\n    /* \"#utility.yul\":369:387   */\n  tag_21\n  tag_10\n  jump\t// in\ntag_21:\n    /* \"#utility.yul\":444:446   */\n  0x40\n    /* \"#utility.yul\":438:447   */\n  mload\n    /* \"#utility.yul\":412:414   */\n  0x1f\n    /* \"#utility.yul\":498:511   */\n  dup4\n  add\n  not(0x1f)\n    /* \"#utility.yul\":494:516   */\n  swap1\n  dup2\n  and\n    /* \"#utility.yul\":518:520   */\n  0x3f\n    /* \"#utility.yul\":490:521   */\n  add\n    /* \"#utility.yul\":486:526   */\n  and\n    /* \"#utility.yul\":474:527   */\n  dup2\n  add\n  swap1\n    /* \"#utility.yul\":542:560   */\n  dup3\n  dup3\n  gt\n    /* \"#utility.yul\":562:584   */\n  dup2\n  dup4\n  lt\n    /* \"#utility.yul\":539:585   */\n  or\n    /* \"#utility.yul\":536:608   */\n  iszero\n  tag_23\n  jumpi\n    /* \"#utility.yul\":588:606   */\n  tag_23\n  tag_10\n  jump\t// in\ntag_23:\n    /* \"#utility.yul\":628:638   */\n  dup2\n    /* \"#utility.yul\":624:626   */\n  0x40\n    /* \"#utility.yul\":617:639   */\n  mstore\n    /* \"#utility.yul\":663:665   */\n  dup4\n    /* \"#utility.yul\":655:661   */\n  dup2\n    /* \"#utility.yul\":648:666   */\n  mstore\n    /* \"#utility.yul\":685:689   */\n  0x20\n    /* \"#utility.yul\":675:689   */\n  swap3\n  pop\n    /* \"#utility.yul\":730:733   */\n  dup7\n    /* \"#utility.yul\":725:727   */\n  dup4\n    /* \"#utility.yul\":720:722   */\n  dup6\n    /* \"#utility.yul\":712:718   */\n  dup9\n    /* \"#utility.yul\":708:723   */\n  add\n    /* \"#utility.yul\":704:728   */\n  add\n    /* \"#utility.yul\":701:734   */\n  gt\n    /* \"#utility.yul\":698:751   */\n  iszero\n  tag_24\n  jumpi\n    /* \"#utility.yul\":747:748   */\n  0x00\n    /* \"#utility.yul\":744:745   */\n  dup1\n    /* \"#utility.yul\":737:749   */\n  revert\n    /* \"#utility.yul\":698:751   */\ntag_24:\n    /* \"#utility.yul\":769:770   */\n  0x00\n    /* \"#utility.yul\":760:770   */\n  swap2\n  pop\n    /* \"#utility.yul\":779:912   */\ntag_25:\n    /* \"#utility.yul\":793:795   */\n  dup4\n    /* \"#utility.yul\":790:791   */\n  dup3\n    /* \"#utility.yul\":787:796   */\n  lt\n    /* \"#utility.yul\":779:912   */\n  iszero\n  tag_27\n  jumpi\n    /* \"#utility.yul\":881:895   */\n  dup6\n  dup3\n  add\n    /* \"#utility.yul\":877:900   */\n  dup4\n  add\n    /* \"#utility.yul\":871:901   */\n  mload\n    /* \"#utility.yul\":850:864   */\n  dup2\n  dup4\n  add\n    /* \"#utility.yul\":846:869   */\n  dup5\n  add\n    /* \"#utility.yul\":839:902   */\n  mstore\n    /* \"#utility.yul\":804:814   */\n  swap1\n  dup3\n  add\n  swap1\n    /* \"#utility.yul\":779:912   */\n  jump(tag_25)\ntag_27:\n    /* \"#utility.yul\":954:955   */\n  0x00\n    /* \"#utility.yul\":932:947   */\n  swap4\n  dup2\n  add\n    /* \"#utility.yul\":928:952   */\n  swap1\n  swap3\n  add\n    /* \"#utility.yul\":921:956   */\n  swap3\n  swap1\n  swap3\n  mstore\n    /* \"#utility.yul\":936:942   */\n  swap5\n    /* \"#utility.yul\":146:986   */\n  swap4\n  pop\n  pop\n  pop\n  pop\n  jump\t// out\n    /* \"#utility.yul\":991:1553   */\ntag_3:\n    /* \"#utility.yul\":1090:1096   */\n  0x00\n    /* \"#utility.yul\":1098:1104   */\n  dup1\n    /* \"#utility.yul\":1151:1153   */\n  0x40\n    /* \"#utility.yul\":1139:1148   */\n  dup4\n    /* \"#utility.yul\":1130:1137   */\n  dup6\n    /* \"#utility.yul\":1126:1149   */\n  sub\n    /* \"#utility.yul\":1122:1154   */\n  slt\n    /* \"#utility.yul\":1119:1171   */\n  iszero\n  tag_29\n  jumpi\n    /* \"#utility.yul\":1167:1168   */\n  0x00\n    /* \"#utility.yul\":1164:1165   */\n  dup1\n    /* \"#utility.yul\":1157:1169   */\n  revert\n    /* \"#utility.yul\":1119:1171   */\ntag_29:\n    /* \"#utility.yul\":1194:1210   */\n  dup3\n  mload\n  sub(shl(0x40, 0x01), 0x01)\n    /* \"#utility.yul\":1259:1273   */\n  dup1\n  dup3\n  gt\n    /* \"#utility.yul\":1256:1290   */\n  iszero\n  tag_30\n  jumpi\n    /* \"#utility.yul\":1286:1287   */\n  0x00\n    /* \"#utility.yul\":1283:1284   */\n  dup1\n    /* \"#utility.yul\":1276:1288   */\n  revert\n    /* \"#utility.yul\":1256:1290   */\ntag_30:\n    /* \"#utility.yul\":1309:1370   */\n  tag_31\n    /* \"#utility.yul\":1362:1369   */\n  dup7\n    /* \"#utility.yul\":1353:1359   */\n  dup4\n    /* \"#utility.yul\":1342:1351   */\n  dup8\n    /* \"#utility.yul\":1338:1360   */\n  add\n    /* \"#utility.yul\":1309:1370   */\n  tag_11\n  jump\t// in\ntag_31:\n    /* \"#utility.yul\":1299:1370   */\n  swap4\n  pop\n    /* \"#utility.yul\":1416:1418   */\n  0x20\n    /* \"#utility.yul\":1405:1414   */\n  dup6\n    /* \"#utility.yul\":1401:1419   */\n  add\n    /* \"#utility.yul\":1395:1420   */\n  mload\n    /* \"#utility.yul\":1379:1420   */\n  swap2\n  pop\n    /* \"#utility.yul\":1445:1447   */\n  dup1\n    /* \"#utility.yul\":1435:1443   */\n  dup3\n    /* \"#utility.yul\":1432:1448   */\n  gt\n    /* \"#utility.yul\":1429:1465   */\n  iszero\n  tag_32\n  jumpi\n    /* \"#utility.yul\":1461:1462   */\n  0x00\n    /* \"#utility.yul\":1458:1459   */\n  dup1\n    /* \"#utility.yul\":1451:1463   */\n  revert\n    /* \"#utility.yul\":1429:1465   */\ntag_32:\n  pop\n    /* \"#utility.yul\":1484:1547   */\n  tag_33\n    /* \"#utility.yul\":1539:1546   */\n  dup6\n    /* \"#utility.yul\":1528:1536   */\n  dup3\n    /* \"#utility.yul\":1517:1526   */\n  dup7\n    /* \"#utility.yul\":1513:1537   */\n  add\n    /* \"#utility.yul\":1484:1547   */\n  tag_11\n  jump\t// in\ntag_33:\n    /* \"#utility.yul\":1474:1547   */\n  swap2\n  pop\n  pop\n    /* \"#utility.yul\":991:1553   */\n  swap3\n  pop\n  swap3\n  swap1\n  pop\n  jump\t// out\n    /* \"#utility.yul\":1558:1938   */\ntag_12:\n    /* \"#utility.yul\":1637:1638   */\n  0x01\n    /* \"#utility.yul\":1633:1645   */\n  dup2\n  dup2\n  shr\n  swap1\n    /* \"#utility.yul\":1680:1692   */\n  dup3\n  and\n  dup1\n    /* \"#utility.yul\":1701:1762   */\n  tag_35\n  jumpi\n    /* \"#utility.yul\":1755:1759   */\n  0x7f\n    /* \"#utility.yul\":1747:1753   */\n  dup3\n    /* \"#utility.yul\":1743:1760   */\n  and\n    /* \"#utility.yul\":1733:1760   */\n  swap2\n  pop\n    /* \"#utility.yul\":1701:1762   */\ntag_35:\n    /* \"#utility.yul\":1808:1810   */\n  0x20\n    /* \"#utility.yul\":1800:1806   */\n  dup3\n    /* \"#utility.yul\":1797:1811   */\n  lt\n    /* \"#utility.yul\":1777:1795   */\n  dup2\n    /* \"#utility.yul\":1774:1812   */\n  sub\n    /* \"#utility.yul\":1771:1932   */\n  tag_36\n  jumpi\n    /* \"#utility.yul\":1854:1864   */\n  0x4e487b71\n    /* \"#utility.yul\":1849:1852   */\n  0xe0\n    /* \"#utility.yul\":1845:1865   */\n  shl\n    /* \"#utility.yul\":1842:1843   */\n  0x00\n    /* \"#utility.yul\":1835:1866   */\n  mstore\n    /* \"#utility.yul\":1889:1893   */\n  0x22\n    /* \"#utility.yul\":1886:1887   */\n  0x04\n    /* \"#utility.yul\":1879:1894   */\n  mstore\n    /* \"#utility.yul\":1917:1921   */\n  0x24\n    /* \"#utility.yul\":1914:1915   */\n  0x00\n    /* \"#utility.yul\":1907:1922   */\n  revert\n    /* \"#utility.yul\":1771:1932   */\ntag_36:\n  pop\n    /* \"#utility.yul\":1558:1938   */\n  swap2\n  swap1\n  pop\n  jump\t// out\n    /* \"#utility.yul\":2069:2614   */\ntag_14:\n    /* \"#utility.yul\":2171:2173   */\n  0x1f\n    /* \"#utility.yul\":2166:2169   */\n  dup3\n    /* \"#utility.yul\":2163:2174   */\n  gt\n    /* \"#utility.yul\":2160:2608   */\n  iszero\n  tag_39\n  jumpi\n    /* \"#utility.yul\":2207:2208   */\n  0x00\n    /* \"#utility.yul\":2232:2237   */\n  dup2\n    /* \"#utility.yul\":2228:2230   */\n  dup2\n    /* \"#utility.yul\":2221:2238   */\n  mstore\n    /* \"#utility.yul\":2277:2281   */\n  0x20\n    /* \"#utility.yul\":2273:2275   */\n  dup2\n    /* \"#utility.yul\":2263:2282   */\n  keccak256\n    /* \"#utility.yul\":2347:2349   */\n  0x1f\n    /* \"#utility.yul\":2335:2345   */\n  dup6\n    /* \"#utility.yul\":2331:2350   */\n  add\n    /* \"#utility.yul\":2328:2329   */\n  0x05\n    /* \"#utility.yul\":2324:2351   */\n  shr\n    /* \"#utility.yul\":2318:2322   */\n  dup2\n    /* \"#utility.yul\":2314:2352   */\n  add\n    /* \"#utility.yul\":2383:2387   */\n  0x20\n    /* \"#utility.yul\":2371:2381   */\n  dup7\n    /* \"#utility.yul\":2368:2388   */\n  lt\n    /* \"#utility.yul\":2365:2412   */\n  iszero\n  tag_40\n  jumpi\n  pop\n    /* \"#utility.yul\":2406:2410   */\n  dup1\n    /* \"#utility.yul\":2365:2412   */\ntag_40:\n    /* \"#utility.yul\":2461:2463   */\n  0x1f\n    /* \"#utility.yul\":2456:2459   */\n  dup6\n    /* \"#utility.yul\":2452:2464   */\n  add\n    /* \"#utility.yul\":2449:2450   */\n  0x05\n    /* \"#utility.yul\":2445:2465   */\n  shr\n    /* \"#utility.yul\":2439:2443   */\n  dup3\n    /* \"#utility.yul\":2435:2466   */\n  add\n    /* \"#utility.yul\":2425:2466   */\n  swap2\n  pop\n    /* \"#utility.yul\":2516:2598   */\ntag_41:\n    /* \"#utility.yul\":2534:2536   */\n  dup2\n    /* \"#utility.yul\":2527:2532   */\n  dup2\n    /* \"#utility.yul\":2524:2537   */\n  lt\n    /* \"#utility.yul\":2516:2598   */\n  iszero\n  tag_43\n  jumpi\n    /* \"#utility.yul\":2579:2596   */\n  dup3\n  dup2\n  sstore\n    /* \"#utility.yul\":2560:2561   */\n  0x01\n    /* \"#utility.yul\":2549:2562   */\n  add\n    /* \"#utility.yul\":2516:2598   */\n  jump(tag_41)\ntag_43:\n    /* \"#utility.yul\":2520:2523   */\n  pop\n  pop\n  pop\n    /* \"#utility.yul\":2160:2608   */\ntag_39:\n    /* \"#utility.yul\":2069:2614   */\n  pop\n  pop\n  pop\n  jump\t// out\n    /* \"#utility.yul\":2790:4142   */\ntag_7:\n    /* \"#utility.yul\":2910:2920   */\n  dup2\n  mload\n  sub(shl(0x40, 0x01), 0x01)\n    /* \"#utility.yul\":2932:2962   */\n  dup2\n  gt\n    /* \"#utility.yul\":2929:2985   */\n  iszero\n  tag_47\n  jumpi\n    /* \"#utility.yul\":2965:2983   */\n  tag_47\n  tag_10\n  jump\t// in\ntag_47:\n    /* \"#utility.yul\":2994:3091   */\n  tag_48\n    /* \"#utility.yul\":3084:3090   */\n  dup2\n    /* \"#utility.yul\":3044:3082   */\n  tag_49\n    /* \"#utility.yul\":3076:3080   */\n  dup5\n    /* \"#utility.yul\":3070:3081   */\n  sload\n    /* \"#utility.yul\":3044:3082   */\n  tag_12\n  jump\t// in\ntag_49:\n    /* \"#utility.yul\":3038:3042   */\n  dup5\n    /* \"#utility.yul\":2994:3091   */\n  tag_14\n  jump\t// in\ntag_48:\n    /* \"#utility.yul\":3146:3150   */\n  0x20\n  dup1\n    /* \"#utility.yul\":3210:3212   */\n  0x1f\n    /* \"#utility.yul\":3199:3213   */\n  dup4\n  gt\n    /* \"#utility.yul\":3227:3228   */\n  0x01\n    /* \"#utility.yul\":3222:3885   */\n  dup2\n  eq\n  tag_51\n  jumpi\n    /* \"#utility.yul\":3929:3930   */\n  0x00\n    /* \"#utility.yul\":3946:3952   */\n  dup5\n    /* \"#utility.yul\":3943:4032   */\n  iszero\n  tag_52\n  jumpi\n  pop\n    /* \"#utility.yul\":3998:4017   */\n  dup6\n  dup4\n  add\n    /* \"#utility.yul\":3992:4018   */\n  mload\n    /* \"#utility.yul\":3943:4032   */\ntag_52:\n  not(0x00)\n    /* \"#utility.yul\":2747:2748   */\n  0x03\n    /* \"#utility.yul\":2743:2754   */\n  dup7\n  swap1\n  shl\n    /* \"#utility.yul\":2739:2763   */\n  shr\n    /* \"#utility.yul\":2735:2764   */\n  not\n    /* \"#utility.yul\":2725:2765   */\n  and\n    /* \"#utility.yul\":2771:2772   */\n  0x01\n    /* \"#utility.yul\":2767:2778   */\n  dup6\n  swap1\n  shl\n    /* \"#utility.yul\":2722:2779   */\n  or\n    /* \"#utility.yul\":4045:4126   */\n  dup6\n  sstore\n    /* \"#utility.yul\":3192:4136   */\n  jump(tag_43)\n    /* \"#utility.yul\":3222:3885   */\ntag_51:\n    /* \"#utility.yul\":2016:2017   */\n  0x00\n    /* \"#utility.yul\":2009:2023   */\n  dup6\n  dup2\n  mstore\n    /* \"#utility.yul\":2053:2057   */\n  0x20\n    /* \"#utility.yul\":2040:2058   */\n  dup2\n  keccak256\n  not(0x1f)\n    /* \"#utility.yul\":3258:3278   */\n  dup7\n  and\n  swap2\n    /* \"#utility.yul\":3376:3612   */\ntag_55:\n    /* \"#utility.yul\":3390:3397   */\n  dup3\n    /* \"#utility.yul\":3387:3388   */\n  dup2\n    /* \"#utility.yul\":3384:3398   */\n  lt\n    /* \"#utility.yul\":3376:3612   */\n  iszero\n  tag_57\n  jumpi\n    /* \"#utility.yul\":3479:3498   */\n  dup9\n  dup7\n  add\n    /* \"#utility.yul\":3473:3499   */\n  mload\n    /* \"#utility.yul\":3458:3500   */\n  dup3\n  sstore\n    /* \"#utility.yul\":3571:3598   */\n  swap5\n  dup5\n  add\n  swap5\n    /* \"#utility.yul\":3539:3540   */\n  0x01\n    /* \"#utility.yul\":3527:3541   */\n  swap1\n  swap2\n  add\n  swap1\n    /* \"#utility.yul\":3406:3425   */\n  dup5\n  add\n    /* \"#utility.yul\":3376:3612   */\n  jump(tag_55)\ntag_57:\n    /* \"#utility.yul\":3380:3383   */\n  pop\n    /* \"#utility.yul\":3640:3646   */\n  dup6\n    /* \"#utility.yul\":3631:3638   */\n  dup3\n    /* \"#utility.yul\":3628:3647   */\n  lt\n    /* \"#utility.yul\":3625:3826   */\n  iszero\n  tag_58\n  jumpi\n    /* \"#utility.yul\":3701:3720   */\n  dup8\n  dup6\n  add\n    /* \"#utility.yul\":3695:3721   */\n  mload\n  not(0x00)\n    /* \"#utility.yul\":3784:3785   */\n  0x03\n    /* \"#utility.yul\":3780:3794   */\n  dup9\n  swap1\n  shl\n    /* \"#utility.yul\":3796:3799   */\n  0xf8\n    /* \"#utility.yul\":3776:3800   */\n  and\n    /* \"#utility.yul\":3772:3809   */\n  shr\n    /* \"#utility.yul\":3768:3810   */\n  not\n    /* \"#utility.yul\":3753:3811   */\n  and\n    /* \"#utility.yul\":3738:3812   */\n  dup2\n  sstore\n    /* \"#utility.yul\":3625:3826   */\ntag_58:\n  pop\n  pop\n  pop\n  pop\n  pop\n    /* \"#utility.yul\":3872:3873   */\n  0x01\n    /* \"#utility.yul\":3856:3870   */\n  swap1\n  dup2\n  shl\n    /* \"#utility.yul\":3852:3874   */\n  add\n    /* \"#utility.yul\":3839:3875   */\n  swap1\n  sstore\n  pop\n    /* \"#utility.yul\":2790:4142   */\n  jump\t// out\ntag_16:\n    /* \"PerpetualPool_flat.sol\":27012:37428  contract ERC20 is Context, IERC20, IERC20Metadata {... */\n  dataSize(sub_0)\n  dup1\n  dataOffset(sub_0)\n  0x00\n  codecopy\n  0x00\n  return\nstop\n\nsub_0: assembly {\n        /* \"PerpetualPool_flat.sol\":27012:37428  contract ERC20 is Context, IERC20, IERC20Metadata {... */\n      mstore(0x40, 0x80)\n      callvalue\n      dup1\n      iszero\n      tag_1\n      jumpi\n      0x00\n      dup1\n      revert\n    tag_1:\n      pop\n      jumpi(tag_2, lt(calldatasize, 0x04))\n      shr(0xe0, calldataload(0x00))\n      dup1\n      0x39509351\n      gt\n      tag_14\n      jumpi\n      dup1\n      0x39509351\n      eq\n      tag_8\n      jumpi\n      dup1\n      0x70a08231\n      eq\n      tag_9\n      jumpi\n      dup1\n      0x95d89b41\n      eq\n      tag_10\n      jumpi\n      dup1\n      0xa457c2d7\n      eq\n      tag_11\n      jumpi\n      dup1\n      0xa9059cbb\n      eq\n      tag_12\n      jumpi\n      dup1\n      0xdd62ed3e\n      eq\n      tag_13\n      jumpi\n      0x00\n      dup1\n      revert\n    tag_14:\n      dup1\n      0x06fdde03\n      eq\n      tag_3\n      jumpi\n      dup1\n      0x095ea7b3\n      eq\n      tag_4\n      jumpi\n      dup1\n      0x18160ddd\n      eq\n      tag_5\n      jumpi\n      dup1\n      0x23b872dd\n      eq\n      tag_6\n      jumpi\n      dup1\n      0x313ce567\n      eq\n      tag_7\n      jumpi\n    tag_2:\n      0x00\n      dup1\n      revert\n        /* \"PerpetualPool_flat.sol\":27765:27863  function name() public view virtual override returns (string memory) {... */\n    tag_3:\n      tag_15\n      tag_16\n      jump\t// in\n    tag_15:\n      mload(0x40)\n      tag_17\n      swap2\n      swap1\n      tag_18\n      jump\t// in\n    tag_17:\n      mload(0x40)\n      dup1\n      swap2\n      sub\n      swap1\n      return\n        /* \"PerpetualPool_flat.sol\":29862:30028  function approve(address spender, uint256 amount) public virtual override returns (bool) {... */\n    tag_4:\n      tag_19\n      tag_20\n      calldatasize\n      0x04\n      tag_21\n      jump\t// in\n    tag_20:\n      tag_22\n      jump\t// in\n    tag_19:\n      mload(0x40)\n        /* \"#utility.yul\":1169:1183   */\n      swap1\n      iszero\n        /* \"#utility.yul\":1162:1184   */\n      iszero\n        /* \"#utility.yul\":1144:1185   */\n      dup2\n      mstore\n        /* \"#utility.yul\":1132:1134   */\n      0x20\n        /* \"#utility.yul\":1117:1135   */\n      add\n        /* \"PerpetualPool_flat.sol\":29862:30028  function approve(address spender, uint256 amount) public virtual override returns (bool) {... */\n      tag_17\n        /* \"#utility.yul\":1004:1191   */\n      jump\n        /* \"PerpetualPool_flat.sol\":28853:28959  function totalSupply() public view virtual override returns (uint256) {... */\n    tag_5:\n        /* \"PerpetualPool_flat.sol\":28940:28952  _totalSupply */\n      sload(0x02)\n        /* \"PerpetualPool_flat.sol\":28853:28959  function totalSupply() public view virtual override returns (uint256) {... */\n    tag_25:\n      mload(0x40)\n        /* \"#utility.yul\":1342:1367   */\n      swap1\n      dup2\n      mstore\n        /* \"#utility.yul\":1330:1332   */\n      0x20\n        /* \"#utility.yul\":1315:1333   */\n      add\n        /* \"PerpetualPool_flat.sol\":28853:28959  function totalSupply() public view virtual override returns (uint256) {... */\n      tag_17\n        /* \"#utility.yul\":1196:1373   */\n      jump\n        /* \"PerpetualPool_flat.sol\":30495:30973  function transferFrom(... */\n    tag_6:\n      tag_19\n      tag_30\n      calldatasize\n      0x04\n      tag_31\n      jump\t// in\n    tag_30:\n      tag_32\n      jump\t// in\n        /* \"PerpetualPool_flat.sol\":28702:28793  function decimals() public view virtual override returns (uint8) {... */\n    tag_7:\n      mload(0x40)\n        /* \"PerpetualPool_flat.sol\":28784:28786  18 */\n      0x12\n        /* \"#utility.yul\":1853:1889   */\n      dup2\n      mstore\n        /* \"#utility.yul\":1841:1843   */\n      0x20\n        /* \"#utility.yul\":1826:1844   */\n      add\n        /* \"PerpetualPool_flat.sol\":28702:28793  function decimals() public view virtual override returns (uint8) {... */\n      tag_17\n        /* \"#utility.yul\":1711:1895   */\n      jump\n        /* \"PerpetualPool_flat.sol\":31368:31580  function increaseAllowance(address spender, uint256 addedValue) public virtual returns (bool) {... */\n    tag_8:\n      tag_19\n      tag_39\n      calldatasize\n      0x04\n      tag_21\n      jump\t// in\n    tag_39:\n      tag_40\n      jump\t// in\n        /* \"PerpetualPool_flat.sol\":29017:29142  function balanceOf(address account) public view virtual override returns (uint256) {... */\n    tag_9:\n      tag_25\n      tag_43\n      calldatasize\n      0x04\n      tag_44\n      jump\t// in\n    tag_43:\n      sub(shl(0xa0, 0x01), 0x01)\n        /* \"PerpetualPool_flat.sol\":29117:29135  _balances[account] */\n      and\n        /* \"PerpetualPool_flat.sol\":29091:29098  uint256 */\n      0x00\n        /* \"PerpetualPool_flat.sol\":29117:29135  _balances[account] */\n      swap1\n      dup2\n      mstore\n      0x20\n      dup2\n      swap1\n      mstore\n      0x40\n      swap1\n      keccak256\n      sload\n      swap1\n        /* \"PerpetualPool_flat.sol\":29017:29142  function balanceOf(address account) public view virtual override returns (uint256) {... */\n      jump\n        /* \"PerpetualPool_flat.sol\":27976:28078  function symbol() public view virtual override returns (string memory) {... */\n    tag_10:\n      tag_15\n      tag_48\n      jump\t// in\n        /* \"PerpetualPool_flat.sol\":32067:32472  function decreaseAllowance(address spender, uint256 subtractedValue) public virtual returns (bool) {... */\n    tag_11:\n      tag_19\n      tag_51\n      calldatasize\n      0x04\n      tag_21\n      jump\t// in\n    tag_51:\n      tag_52\n      jump\t// in\n        /* \"PerpetualPool_flat.sol\":29345:29517  function transfer(address recipient, uint256 amount) public virtual override returns (bool) {... */\n    tag_12:\n      tag_19\n      tag_55\n      calldatasize\n      0x04\n      tag_21\n      jump\t// in\n    tag_55:\n      tag_56\n      jump\t// in\n        /* \"PerpetualPool_flat.sol\":29575:29724  function allowance(address owner, address spender) public view virtual override returns (uint256) {... */\n    tag_13:\n      tag_25\n      tag_59\n      calldatasize\n      0x04\n      tag_60\n      jump\t// in\n    tag_59:\n      sub(shl(0xa0, 0x01), 0x01)\n        /* \"PerpetualPool_flat.sol\":29690:29708  _allowances[owner] */\n      swap2\n      dup3\n      and\n        /* \"PerpetualPool_flat.sol\":29664:29671  uint256 */\n      0x00\n        /* \"PerpetualPool_flat.sol\":29690:29708  _allowances[owner] */\n      swap1\n      dup2\n      mstore\n        /* \"PerpetualPool_flat.sol\":29690:29701  _allowances */\n      0x01\n        /* \"PerpetualPool_flat.sol\":29690:29708  _allowances[owner] */\n      0x20\n      swap1\n      dup2\n      mstore\n      0x40\n      dup1\n      dup4\n      keccak256\n        /* \"PerpetualPool_flat.sol\":29690:29717  _allowances[owner][spender] */\n      swap4\n      swap1\n      swap5\n      and\n      dup3\n      mstore\n      swap2\n      swap1\n      swap2\n      mstore\n      keccak256\n      sload\n      swap1\n        /* \"PerpetualPool_flat.sol\":29575:29724  function allowance(address owner, address spender) public view virtual override returns (uint256) {... */\n      jump\n        /* \"PerpetualPool_flat.sol\":27765:27863  function name() public view virtual override returns (string memory) {... */\n    tag_16:\n        /* \"PerpetualPool_flat.sol\":27819:27832  string memory */\n      0x60\n        /* \"PerpetualPool_flat.sol\":27851:27856  _name */\n      0x03\n        /* \"PerpetualPool_flat.sol\":27844:27856  return _name */\n      dup1\n      sload\n      tag_64\n      swap1\n      tag_65\n      jump\t// in\n    tag_64:\n      dup1\n      0x1f\n      add\n      0x20\n      dup1\n      swap2\n      div\n      mul\n      0x20\n      add\n      mload(0x40)\n      swap1\n      dup2\n      add\n      0x40\n      mstore\n      dup1\n      swap3\n      swap2\n      swap1\n      dup2\n      dup2\n      mstore\n      0x20\n      add\n      dup3\n      dup1\n      sload\n      tag_66\n      swap1\n      tag_65\n      jump\t// in\n    tag_66:\n      dup1\n      iszero\n      tag_67\n      jumpi\n      dup1\n      0x1f\n      lt\n      tag_68\n      jumpi\n      0x0100\n      dup1\n      dup4\n      sload\n      div\n      mul\n      dup4\n      mstore\n      swap2\n      0x20\n      add\n      swap2\n      jump(tag_67)\n    tag_68:\n      dup3\n      add\n      swap2\n      swap1\n      0x00\n      mstore\n      keccak256(0x00, 0x20)\n      swap1\n    tag_69:\n      dup2\n      sload\n      dup2\n      mstore\n      swap1\n      0x01\n      add\n      swap1\n      0x20\n      add\n      dup1\n      dup4\n      gt\n      tag_69\n      jumpi\n      dup3\n      swap1\n      sub\n      0x1f\n      and\n      dup3\n      add\n      swap2\n    tag_67:\n      pop\n      pop\n      pop\n      pop\n      pop\n      swap1\n      pop\n        /* \"PerpetualPool_flat.sol\":27765:27863  function name() public view virtual override returns (string memory) {... */\n      swap1\n      jump\t// out\n        /* \"PerpetualPool_flat.sol\":29862:30028  function approve(address spender, uint256 amount) public virtual override returns (bool) {... */\n    tag_22:\n        /* \"PerpetualPool_flat.sol\":29945:29949  bool */\n      0x00\n        /* \"PerpetualPool_flat.sol\":29961:30000  _approve(_msgSender(), spender, amount) */\n      tag_71\n        /* \"PerpetualPool_flat.sol\":18162:18172  msg.sender */\n      caller\n        /* \"PerpetualPool_flat.sol\":29984:29991  spender */\n      dup5\n        /* \"PerpetualPool_flat.sol\":29993:29999  amount */\n      dup5\n        /* \"PerpetualPool_flat.sol\":29961:29969  _approve */\n      tag_74\n        /* \"PerpetualPool_flat.sol\":29961:30000  _approve(_msgSender(), spender, amount) */\n      jump\t// in\n    tag_71:\n      pop\n        /* \"PerpetualPool_flat.sol\":30017:30021  true */\n      0x01\n        /* \"PerpetualPool_flat.sol\":29862:30028  function approve(address spender, uint256 amount) public virtual override returns (bool) {... */\n    tag_70:\n      swap3\n      swap2\n      pop\n      pop\n      jump\t// out\n        /* \"PerpetualPool_flat.sol\":30495:30973  function transferFrom(... */\n    tag_32:\n        /* \"PerpetualPool_flat.sol\":30631:30635  bool */\n      0x00\n        /* \"PerpetualPool_flat.sol\":30647:30683  _transfer(sender, recipient, amount) */\n      tag_77\n        /* \"PerpetualPool_flat.sol\":30657:30663  sender */\n      dup5\n        /* \"PerpetualPool_flat.sol\":30665:30674  recipient */\n      dup5\n        /* \"PerpetualPool_flat.sol\":30676:30682  amount */\n      dup5\n        /* \"PerpetualPool_flat.sol\":30647:30656  _transfer */\n      tag_78\n        /* \"PerpetualPool_flat.sol\":30647:30683  _transfer(sender, recipient, amount) */\n      jump\t// in\n    tag_77:\n      sub(shl(0xa0, 0x01), 0x01)\n        /* \"PerpetualPool_flat.sol\":30721:30740  _allowances[sender] */\n      dup5\n      and\n        /* \"PerpetualPool_flat.sol\":30694:30718  uint256 currentAllowance */\n      0x00\n        /* \"PerpetualPool_flat.sol\":30721:30740  _allowances[sender] */\n      swap1\n      dup2\n      mstore\n        /* \"PerpetualPool_flat.sol\":30721:30732  _allowances */\n      0x01\n        /* \"PerpetualPool_flat.sol\":30721:30740  _allowances[sender] */\n      0x20\n      swap1\n      dup2\n      mstore\n      0x40\n      dup1\n      dup4\n      keccak256\n        /* \"PerpetualPool_flat.sol\":18162:18172  msg.sender */\n      caller\n        /* \"PerpetualPool_flat.sol\":30721:30754  _allowances[sender][_msgSender()] */\n      dup5\n      mstore\n      swap1\n      swap2\n      mstore\n      swap1\n      keccak256\n      sload\n        /* \"PerpetualPool_flat.sol\":30772:30798  currentAllowance >= amount */\n      dup3\n      dup2\n      lt\n      iszero\n        /* \"PerpetualPool_flat.sol\":30764:30843  require(currentAllowance >= amount, \"ERC20: transfer amount exceeds allowance\") */\n      tag_80\n      jumpi\n      mload(0x40)\n      shl(0xe5, 0x461bcd)\n      dup2\n      mstore\n        /* \"#utility.yul\":2943:2945   */\n      0x20\n        /* \"PerpetualPool_flat.sol\":30764:30843  require(currentAllowance >= amount, \"ERC20: transfer amount exceeds allowance\") */\n      0x04\n      dup3\n      add\n        /* \"#utility.yul\":2925:2946   */\n      mstore\n        /* \"#utility.yul\":2982:2984   */\n      0x28\n        /* \"#utility.yul\":2962:2980   */\n      0x24\n      dup3\n      add\n        /* \"#utility.yul\":2955:2985   */\n      mstore\n        /* \"#utility.yul\":3021:3055   */\n      0x45524332303a207472616e7366657220616d6f756e7420657863656564732061\n        /* \"#utility.yul\":3001:3019   */\n      0x44\n      dup3\n      add\n        /* \"#utility.yul\":2994:3056   */\n      mstore\n      shl(0xc0, 0x6c6c6f77616e6365)\n        /* \"#utility.yul\":3072:3090   */\n      0x64\n      dup3\n      add\n        /* \"#utility.yul\":3065:3103   */\n      mstore\n        /* \"#utility.yul\":3120:3139   */\n      0x84\n      add\n        /* \"PerpetualPool_flat.sol\":30764:30843  require(currentAllowance >= amount, \"ERC20: transfer amount exceeds allowance\") */\n    tag_81:\n      mload(0x40)\n      dup1\n      swap2\n      sub\n      swap1\n      revert\n    tag_80:\n        /* \"PerpetualPool_flat.sol\":30877:30934  _approve(sender, _msgSender(), currentAllowance - amount) */\n      tag_83\n        /* \"PerpetualPool_flat.sol\":30886:30892  sender */\n      dup6\n        /* \"PerpetualPool_flat.sol\":18162:18172  msg.sender */\n      caller\n        /* \"PerpetualPool_flat.sol\":30927:30933  amount */\n      dup6\n        /* \"PerpetualPool_flat.sol\":30908:30924  currentAllowance */\n      dup5\n        /* \"PerpetualPool_flat.sol\":30908:30933  currentAllowance - amount */\n      sub\n        /* \"PerpetualPool_flat.sol\":30877:30885  _approve */\n      tag_74\n        /* \"PerpetualPool_flat.sol\":30877:30934  _approve(sender, _msgSender(), currentAllowance - amount) */\n      jump\t// in\n    tag_83:\n      pop\n        /* \"PerpetualPool_flat.sol\":30962:30966  true */\n      0x01\n      swap5\n        /* \"PerpetualPool_flat.sol\":30495:30973  function transferFrom(... */\n      swap4\n      pop\n      pop\n      pop\n      pop\n      jump\t// out\n        /* \"PerpetualPool_flat.sol\":31368:31580  function increaseAllowance(address spender, uint256 addedValue) public virtual returns (bool) {... */\n    tag_40:\n        /* \"PerpetualPool_flat.sol\":18162:18172  msg.sender */\n      caller\n        /* \"PerpetualPool_flat.sol\":31456:31460  bool */\n      0x00\n        /* \"PerpetualPool_flat.sol\":31504:31529  _allowances[_msgSender()] */\n      dup2\n      dup2\n      mstore\n        /* \"PerpetualPool_flat.sol\":31504:31515  _allowances */\n      0x01\n        /* \"PerpetualPool_flat.sol\":31504:31529  _allowances[_msgSender()] */\n      0x20\n      swap1\n      dup2\n      mstore\n      0x40\n      dup1\n      dup4\n      keccak256\n      sub(shl(0xa0, 0x01), 0x01)\n        /* \"PerpetualPool_flat.sol\":31504:31538  _allowances[_msgSender()][spender] */\n      dup8\n      and\n      dup5\n      mstore\n      swap1\n      swap2\n      mstore\n      dup2\n      keccak256\n      sload\n        /* \"PerpetualPool_flat.sol\":31456:31460  bool */\n      swap1\n      swap2\n        /* \"PerpetualPool_flat.sol\":31472:31552  _approve(_msgSender(), spender, _allowances[_msgSender()][spender] + addedValue) */\n      tag_71\n      swap2\n        /* \"PerpetualPool_flat.sol\":31495:31502  spender */\n      dup6\n      swap1\n        /* \"PerpetualPool_flat.sol\":31504:31551  _allowances[_msgSender()][spender] + addedValue */\n      tag_90\n      swap1\n        /* \"PerpetualPool_flat.sol\":31541:31551  addedValue */\n      dup7\n      swap1\n        /* \"PerpetualPool_flat.sol\":31504:31551  _allowances[_msgSender()][spender] + addedValue */\n      tag_91\n      jump\t// in\n    tag_90:\n        /* \"PerpetualPool_flat.sol\":31472:31480  _approve */\n      tag_74\n        /* \"PerpetualPool_flat.sol\":31472:31552  _approve(_msgSender(), spender, _allowances[_msgSender()][spender] + addedValue) */\n      jump\t// in\n        /* \"PerpetualPool_flat.sol\":27976:28078  function symbol() public view virtual override returns (string memory) {... */\n    tag_48:\n        /* \"PerpetualPool_flat.sol\":28032:28045  string memory */\n      0x60\n        /* \"PerpetualPool_flat.sol\":28064:28071  _symbol */\n      0x04\n        /* \"PerpetualPool_flat.sol\":28057:28071  return _symbol */\n      dup1\n      sload\n      tag_64\n      swap1\n      tag_65\n      jump\t// in\n        /* \"PerpetualPool_flat.sol\":32067:32472  function decreaseAllowance(address spender, uint256 subtractedValue) public virtual returns (bool) {... */\n    tag_52:\n        /* \"PerpetualPool_flat.sol\":18162:18172  msg.sender */\n      caller\n        /* \"PerpetualPool_flat.sol\":32160:32164  bool */\n      0x00\n        /* \"PerpetualPool_flat.sol\":32203:32228  _allowances[_msgSender()] */\n      swap1\n      dup2\n      mstore\n        /* \"PerpetualPool_flat.sol\":32203:32214  _allowances */\n      0x01\n        /* \"PerpetualPool_flat.sol\":32203:32228  _allowances[_msgSender()] */\n      0x20\n      swap1\n      dup2\n      mstore\n      0x40\n      dup1\n      dup4\n      keccak256\n      sub(shl(0xa0, 0x01), 0x01)\n        /* \"PerpetualPool_flat.sol\":32203:32237  _allowances[_msgSender()][spender] */\n      dup7\n      and\n      dup5\n      mstore\n      swap1\n      swap2\n      mstore\n      dup2\n      keccak256\n      sload\n        /* \"PerpetualPool_flat.sol\":32255:32290  currentAllowance >= subtractedValue */\n      dup3\n      dup2\n      lt\n      iszero\n        /* \"PerpetualPool_flat.sol\":32247:32332  require(currentAllowance >= subtractedValue, \"ERC20: decreased allowance below zero\") */\n      tag_101\n      jumpi\n      mload(0x40)\n      shl(0xe5, 0x461bcd)\n      dup2\n      mstore\n        /* \"#utility.yul\":3579:3581   */\n      0x20\n        /* \"PerpetualPool_flat.sol\":32247:32332  require(currentAllowance >= subtractedValue, \"ERC20: decreased allowance below zero\") */\n      0x04\n      dup3\n      add\n        /* \"#utility.yul\":3561:3582   */\n      mstore\n        /* \"#utility.yul\":3618:3620   */\n      0x25\n        /* \"#utility.yul\":3598:3616   */\n      0x24\n      dup3\n      add\n        /* \"#utility.yul\":3591:3621   */\n      mstore\n        /* \"#utility.yul\":3657:3691   */\n      0x45524332303a2064656372656173656420616c6c6f77616e63652062656c6f77\n        /* \"#utility.yul\":3637:3655   */\n      0x44\n      dup3\n      add\n        /* \"#utility.yul\":3630:3692   */\n      mstore\n      shl(0xd8, 0x207a65726f)\n        /* \"#utility.yul\":3708:3726   */\n      0x64\n      dup3\n      add\n        /* \"#utility.yul\":3701:3736   */\n      mstore\n        /* \"#utility.yul\":3753:3772   */\n      0x84\n      add\n        /* \"PerpetualPool_flat.sol\":32247:32332  require(currentAllowance >= subtractedValue, \"ERC20: decreased allowance below zero\") */\n      tag_81\n        /* \"#utility.yul\":3377:3778   */\n      jump\n        /* \"PerpetualPool_flat.sol\":32247:32332  require(currentAllowance >= subtractedValue, \"ERC20: decreased allowance below zero\") */\n    tag_101:\n        /* \"PerpetualPool_flat.sol\":32366:32433  _approve(_msgSender(), spender, currentAllowance - subtractedValue) */\n      tag_104\n        /* \"PerpetualPool_flat.sol\":18162:18172  msg.sender */\n      caller\n        /* \"PerpetualPool_flat.sol\":32389:32396  spender */\n      dup6\n        /* \"PerpetualPool_flat.sol\":32417:32432  subtractedValue */\n      dup6\n        /* \"PerpetualPool_flat.sol\":32398:32414  currentAllowance */\n      dup5\n        /* \"PerpetualPool_flat.sol\":32398:32432  currentAllowance - subtractedValue */\n      sub\n        /* \"PerpetualPool_flat.sol\":32366:32374  _approve */\n      tag_74\n        /* \"PerpetualPool_flat.sol\":32366:32433  _approve(_msgSender(), spender, currentAllowance - subtractedValue) */\n      jump\t// in\n    tag_104:\n      pop\n        /* \"PerpetualPool_flat.sol\":32461:32465  true */\n      0x01\n      swap4\n        /* \"PerpetualPool_flat.sol\":32067:32472  function decreaseAllowance(address spender, uint256 subtractedValue) public virtual returns (bool) {... */\n      swap3\n      pop\n      pop\n      pop\n      jump\t// out\n        /* \"PerpetualPool_flat.sol\":29345:29517  function transfer(address recipient, uint256 amount) public virtual override returns (bool) {... */\n    tag_56:\n        /* \"PerpetualPool_flat.sol\":29431:29435  bool */\n      0x00\n        /* \"PerpetualPool_flat.sol\":29447:29489  _transfer(_msgSender(), recipient, amount) */\n      tag_71\n        /* \"PerpetualPool_flat.sol\":18162:18172  msg.sender */\n      caller\n        /* \"PerpetualPool_flat.sol\":29471:29480  recipient */\n      dup5\n        /* \"PerpetualPool_flat.sol\":29482:29488  amount */\n      dup5\n        /* \"PerpetualPool_flat.sol\":29447:29456  _transfer */\n      tag_78\n        /* \"PerpetualPool_flat.sol\":29447:29489  _transfer(_msgSender(), recipient, amount) */\n      jump\t// in\n        /* \"PerpetualPool_flat.sol\":35643:36013  function _approve(... */\n    tag_74:\n      sub(shl(0xa0, 0x01), 0x01)\n        /* \"PerpetualPool_flat.sol\":35774:35793  owner != address(0) */\n      dup4\n      and\n        /* \"PerpetualPool_flat.sol\":35766:35834  require(owner != address(0), \"ERC20: approve from the zero address\") */\n      tag_112\n      jumpi\n      mload(0x40)\n      shl(0xe5, 0x461bcd)\n      dup2\n      mstore\n        /* \"#utility.yul\":3985:3987   */\n      0x20\n        /* \"PerpetualPool_flat.sol\":35766:35834  require(owner != address(0), \"ERC20: approve from the zero address\") */\n      0x04\n      dup3\n      add\n        /* \"#utility.yul\":3967:3988   */\n      mstore\n        /* \"#utility.yul\":4024:4026   */\n      0x24\n        /* \"#utility.yul\":4004:4022   */\n      dup1\n      dup3\n      add\n        /* \"#utility.yul\":3997:4027   */\n      mstore\n        /* \"#utility.yul\":4063:4097   */\n      0x45524332303a20617070726f76652066726f6d20746865207a65726f20616464\n        /* \"#utility.yul\":4043:4061   */\n      0x44\n      dup3\n      add\n        /* \"#utility.yul\":4036:4098   */\n      mstore\n      shl(0xe0, 0x72657373)\n        /* \"#utility.yul\":4114:4132   */\n      0x64\n      dup3\n      add\n        /* \"#utility.yul\":4107:4141   */\n      mstore\n        /* \"#utility.yul\":4158:4177   */\n      0x84\n      add\n        /* \"PerpetualPool_flat.sol\":35766:35834  require(owner != address(0), \"ERC20: approve from the zero address\") */\n      tag_81\n        /* \"#utility.yul\":3783:4183   */\n      jump\n        /* \"PerpetualPool_flat.sol\":35766:35834  require(owner != address(0), \"ERC20: approve from the zero address\") */\n    tag_112:\n      sub(shl(0xa0, 0x01), 0x01)\n        /* \"PerpetualPool_flat.sol\":35852:35873  spender != address(0) */\n      dup3\n      and\n        /* \"PerpetualPool_flat.sol\":35844:35912  require(spender != address(0), \"ERC20: approve to the zero address\") */\n      tag_115\n      jumpi\n      mload(0x40)\n      shl(0xe5, 0x461bcd)\n      dup2\n      mstore\n        /* \"#utility.yul\":4390:4392   */\n      0x20\n        /* \"PerpetualPool_flat.sol\":35844:35912  require(spender != address(0), \"ERC20: approve to the zero address\") */\n      0x04\n      dup3\n      add\n        /* \"#utility.yul\":4372:4393   */\n      mstore\n        /* \"#utility.yul\":4429:4431   */\n      0x22\n        /* \"#utility.yul\":4409:4427   */\n      0x24\n      dup3\n      add\n        /* \"#utility.yul\":4402:4432   */\n      mstore\n        /* \"#utility.yul\":4468:4502   */\n      0x45524332303a20617070726f766520746f20746865207a65726f206164647265\n        /* \"#utility.yul\":4448:4466   */\n      0x44\n      dup3\n      add\n        /* \"#utility.yul\":4441:4503   */\n      mstore\n      shl(0xf0, 0x7373)\n        /* \"#utility.yul\":4519:4537   */\n      0x64\n      dup3\n      add\n        /* \"#utility.yul\":4512:4544   */\n      mstore\n        /* \"#utility.yul\":4561:4580   */\n      0x84\n      add\n        /* \"PerpetualPool_flat.sol\":35844:35912  require(spender != address(0), \"ERC20: approve to the zero address\") */\n      tag_81\n        /* \"#utility.yul\":4188:4586   */\n      jump\n        /* \"PerpetualPool_flat.sol\":35844:35912  require(spender != address(0), \"ERC20: approve to the zero address\") */\n    tag_115:\n      sub(shl(0xa0, 0x01), 0x01)\n        /* \"PerpetualPool_flat.sol\":35923:35941  _allowances[owner] */\n      dup4\n      dup2\n      and\n      0x00\n      dup2\n      dup2\n      mstore\n        /* \"PerpetualPool_flat.sol\":35923:35934  _allowances */\n      0x01\n        /* \"PerpetualPool_flat.sol\":35923:35941  _allowances[owner] */\n      0x20\n      swap1\n      dup2\n      mstore\n      0x40\n      dup1\n      dup4\n      keccak256\n        /* \"PerpetualPool_flat.sol\":35923:35950  _allowances[owner][spender] */\n      swap5\n      dup8\n      and\n      dup1\n      dup5\n      mstore\n      swap5\n      dup3\n      mstore\n      swap2\n      dup3\n      swap1\n      keccak256\n        /* \"PerpetualPool_flat.sol\":35923:35959  _allowances[owner][spender] = amount */\n      dup6\n      swap1\n      sstore\n        /* \"PerpetualPool_flat.sol\":35974:36006  Approval(owner, spender, amount) */\n      swap1\n      mload\n        /* \"#utility.yul\":1342:1367   */\n      dup5\n      dup2\n      mstore\n        /* \"PerpetualPool_flat.sol\":35974:36006  Approval(owner, spender, amount) */\n      0x8c5be1e5ebec7d5bd14f71427d1e84f3dd0314c0f7b2291e5b200ac8c7c3b925\n      swap2\n        /* \"#utility.yul\":1315:1333   */\n      add\n        /* \"PerpetualPool_flat.sol\":35974:36006  Approval(owner, spender, amount) */\n      mload(0x40)\n      dup1\n      swap2\n      sub\n      swap1\n      log3\n        /* \"PerpetualPool_flat.sol\":35643:36013  function _approve(... */\n      pop\n      pop\n      pop\n      jump\t// out\n        /* \"PerpetualPool_flat.sol\":32946:33659  function _transfer(... */\n    tag_78:\n      sub(shl(0xa0, 0x01), 0x01)\n        /* \"PerpetualPool_flat.sol\":33081:33101  sender != address(0) */\n      dup4\n      and\n        /* \"PerpetualPool_flat.sol\":33073:33143  require(sender != address(0), \"ERC20: transfer from the zero address\") */\n      tag_120\n      jumpi\n      mload(0x40)\n      shl(0xe5, 0x461bcd)\n      dup2\n      mstore\n        /* \"#utility.yul\":4793:4795   */\n      0x20\n        /* \"PerpetualPool_flat.sol\":33073:33143  require(sender != address(0), \"ERC20: transfer from the zero address\") */\n      0x04\n      dup3\n      add\n        /* \"#utility.yul\":4775:4796   */\n      mstore\n        /* \"#utility.yul\":4832:4834   */\n      0x25\n        /* \"#utility.yul\":4812:4830   */\n      0x24\n      dup3\n      add\n        /* \"#utility.yul\":4805:4835   */\n      mstore\n        /* \"#utility.yul\":4871:4905   */\n      0x45524332303a207472616e736665722066726f6d20746865207a65726f206164\n        /* \"#utility.yul\":4851:4869   */\n      0x44\n      dup3\n      add\n        /* \"#utility.yul\":4844:4906   */\n      mstore\n      shl(0xd8, 0x6472657373)\n        /* \"#utility.yul\":4922:4940   */\n      0x64\n      dup3\n      add\n        /* \"#utility.yul\":4915:4950   */\n      mstore\n        /* \"#utility.yul\":4967:4986   */\n      0x84\n      add\n        /* \"PerpetualPool_flat.sol\":33073:33143  require(sender != address(0), \"ERC20: transfer from the zero address\") */\n      tag_81\n        /* \"#utility.yul\":4591:4992   */\n      jump\n        /* \"PerpetualPool_flat.sol\":33073:33143  require(sender != address(0), \"ERC20: transfer from the zero address\") */\n    tag_120:\n      sub(shl(0xa0, 0x01), 0x01)\n        /* \"PerpetualPool_flat.sol\":33161:33184  recipient != address(0) */\n      dup3\n      and\n        /* \"PerpetualPool_flat.sol\":33153:33224  require(recipient != address(0), \"ERC20: transfer to the zero address\") */\n      tag_123\n      jumpi\n      mload(0x40)\n      shl(0xe5, 0x461bcd)\n      dup2\n      mstore\n        /* \"#utility.yul\":5199:5201   */\n      0x20\n        /* \"PerpetualPool_flat.sol\":33153:33224  require(recipient != address(0), \"ERC20: transfer to the zero address\") */\n      0x04\n      dup3\n      add\n        /* \"#utility.yul\":5181:5202   */\n      mstore\n        /* \"#utility.yul\":5238:5240   */\n      0x23\n        /* \"#utility.yul\":5218:5236   */\n      0x24\n      dup3\n      add\n        /* \"#utility.yul\":5211:5241   */\n      mstore\n        /* \"#utility.yul\":5277:5311   */\n      0x45524332303a207472616e7366657220746f20746865207a65726f2061646472\n        /* \"#utility.yul\":5257:5275   */\n      0x44\n      dup3\n      add\n        /* \"#utility.yul\":5250:5312   */\n      mstore\n      shl(0xe8, 0x657373)\n        /* \"#utility.yul\":5328:5346   */\n      0x64\n      dup3\n      add\n        /* \"#utility.yul\":5321:5354   */\n      mstore\n        /* \"#utility.yul\":5371:5390   */\n      0x84\n      add\n        /* \"PerpetualPool_flat.sol\":33153:33224  require(recipient != address(0), \"ERC20: transfer to the zero address\") */\n      tag_81\n        /* \"#utility.yul\":4997:5396   */\n      jump\n        /* \"PerpetualPool_flat.sol\":33153:33224  require(recipient != address(0), \"ERC20: transfer to the zero address\") */\n    tag_123:\n      sub(shl(0xa0, 0x01), 0x01)\n        /* \"PerpetualPool_flat.sol\":33317:33334  _balances[sender] */\n      dup4\n      and\n        /* \"PerpetualPool_flat.sol\":33293:33314  uint256 senderBalance */\n      0x00\n        /* \"PerpetualPool_flat.sol\":33317:33334  _balances[sender] */\n      swap1\n      dup2\n      mstore\n      0x20\n      dup2\n      swap1\n      mstore\n      0x40\n      swap1\n      keccak256\n      sload\n        /* \"PerpetualPool_flat.sol\":33352:33375  senderBalance >= amount */\n      dup2\n      dup2\n      lt\n      iszero\n        /* \"PerpetualPool_flat.sol\":33344:33418  require(senderBalance >= amount, \"ERC20: transfer amount exceeds balance\") */\n      tag_128\n      jumpi\n      mload(0x40)\n      shl(0xe5, 0x461bcd)\n      dup2\n      mstore\n        /* \"#utility.yul\":5603:5605   */\n      0x20\n        /* \"PerpetualPool_flat.sol\":33344:33418  require(senderBalance >= amount, \"ERC20: transfer amount exceeds balance\") */\n      0x04\n      dup3\n      add\n        /* \"#utility.yul\":5585:5606   */\n      mstore\n        /* \"#utility.yul\":5642:5644   */\n      0x26\n        /* \"#utility.yul\":5622:5640   */\n      0x24\n      dup3\n      add\n        /* \"#utility.yul\":5615:5645   */\n      mstore\n        /* \"#utility.yul\":5681:5715   */\n      0x45524332303a207472616e7366657220616d6f756e7420657863656564732062\n        /* \"#utility.yul\":5661:5679   */\n      0x44\n      dup3\n      add\n        /* \"#utility.yul\":5654:5716   */\n      mstore\n      shl(0xd0, 0x616c616e6365)\n        /* \"#utility.yul\":5732:5750   */\n      0x64\n      dup3\n      add\n        /* \"#utility.yul\":5725:5761   */\n      mstore\n        /* \"#utility.yul\":5778:5797   */\n      0x84\n      add\n        /* \"PerpetualPool_flat.sol\":33344:33418  require(senderBalance >= amount, \"ERC20: transfer amount exceeds balance\") */\n      tag_81\n        /* \"#utility.yul\":5401:5803   */\n      jump\n        /* \"PerpetualPool_flat.sol\":33344:33418  require(senderBalance >= amount, \"ERC20: transfer amount exceeds balance\") */\n    tag_128:\n      sub(shl(0xa0, 0x01), 0x01)\n        /* \"PerpetualPool_flat.sol\":33452:33469  _balances[sender] */\n      dup1\n      dup6\n      and\n        /* \"PerpetualPool_flat.sol\":33452:33461  _balances */\n      0x00\n        /* \"PerpetualPool_flat.sol\":33452:33469  _balances[sender] */\n      swap1\n      dup2\n      mstore\n      0x20\n      dup2\n      swap1\n      mstore\n      0x40\n      dup1\n      dup3\n      keccak256\n        /* \"PerpetualPool_flat.sol\":33472:33494  senderBalance - amount */\n      dup6\n      dup6\n      sub\n        /* \"PerpetualPool_flat.sol\":33452:33494  _balances[sender] = senderBalance - amount */\n      swap1\n      sstore\n        /* \"PerpetualPool_flat.sol\":33514:33534  _balances[recipient] */\n      swap2\n      dup6\n      and\n      dup2\n      mstore\n      swap1\n      dup2\n      keccak256\n        /* \"PerpetualPool_flat.sol\":33514:33544  _balances[recipient] += amount */\n      dup1\n      sload\n        /* \"PerpetualPool_flat.sol\":33488:33494  amount */\n      dup5\n      swap3\n        /* \"PerpetualPool_flat.sol\":33452:33461  _balances */\n      swap1\n        /* \"PerpetualPool_flat.sol\":33514:33544  _balances[recipient] += amount */\n      tag_131\n      swap1\n        /* \"PerpetualPool_flat.sol\":33488:33494  amount */\n      dup5\n      swap1\n        /* \"PerpetualPool_flat.sol\":33514:33544  _balances[recipient] += amount */\n      tag_91\n      jump\t// in\n    tag_131:\n      swap3\n      pop\n      pop\n      dup2\n      swap1\n      sstore\n      pop\n        /* \"PerpetualPool_flat.sol\":33577:33586  recipient */\n      dup3\n      sub(shl(0xa0, 0x01), 0x01)\n        /* \"PerpetualPool_flat.sol\":33560:33595  Transfer(sender, recipient, amount) */\n      and\n        /* \"PerpetualPool_flat.sol\":33569:33575  sender */\n      dup5\n      sub(shl(0xa0, 0x01), 0x01)\n        /* \"PerpetualPool_flat.sol\":33560:33595  Transfer(sender, recipient, amount) */\n      and\n      0xddf252ad1be2c89b69c2b068fc378daa952ba7f163c4a11628f55a4df523b3ef\n        /* \"PerpetualPool_flat.sol\":33588:33594  amount */\n      dup5\n        /* \"PerpetualPool_flat.sol\":33560:33595  Transfer(sender, recipient, amount) */\n      mload(0x40)\n      tag_132\n      swap2\n        /* \"#utility.yul\":1342:1367   */\n      dup2\n      mstore\n        /* \"#utility.yul\":1330:1332   */\n      0x20\n        /* \"#utility.yul\":1315:1333   */\n      add\n      swap1\n        /* \"#utility.yul\":1196:1373   */\n      jump\n        /* \"PerpetualPool_flat.sol\":33560:33595  Transfer(sender, recipient, amount) */\n    tag_132:\n      mload(0x40)\n      dup1\n      swap2\n      sub\n      swap1\n      log3\n        /* \"PerpetualPool_flat.sol\":33063:33659  {... */\n      pop\n        /* \"PerpetualPool_flat.sol\":32946:33659  function _transfer(... */\n      pop\n      pop\n      pop\n      jump\t// out\n        /* \"#utility.yul\":14:562   */\n    tag_18:\n        /* \"#utility.yul\":126:130   */\n      0x00\n        /* \"#utility.yul\":155:157   */\n      0x20\n        /* \"#utility.yul\":184:186   */\n      dup1\n        /* \"#utility.yul\":173:182   */\n      dup4\n        /* \"#utility.yul\":166:187   */\n      mstore\n        /* \"#utility.yul\":216:222   */\n      dup4\n        /* \"#utility.yul\":210:223   */\n      mload\n        /* \"#utility.yul\":259:265   */\n      dup1\n        /* \"#utility.yul\":254:256   */\n      dup3\n        /* \"#utility.yul\":243:252   */\n      dup6\n        /* \"#utility.yul\":239:257   */\n      add\n        /* \"#utility.yul\":232:266   */\n      mstore\n        /* \"#utility.yul\":284:285   */\n      0x00\n        /* \"#utility.yul\":294:434   */\n    tag_140:\n        /* \"#utility.yul\":308:314   */\n      dup2\n        /* \"#utility.yul\":305:306   */\n      dup2\n        /* \"#utility.yul\":302:315   */\n      lt\n        /* \"#utility.yul\":294:434   */\n      iszero\n      tag_142\n      jumpi\n        /* \"#utility.yul\":403:417   */\n      dup6\n      dup2\n      add\n        /* \"#utility.yul\":399:422   */\n      dup4\n      add\n        /* \"#utility.yul\":393:423   */\n      mload\n        /* \"#utility.yul\":369:386   */\n      dup6\n      dup3\n      add\n        /* \"#utility.yul\":388:390   */\n      0x40\n        /* \"#utility.yul\":365:391   */\n      add\n        /* \"#utility.yul\":358:424   */\n      mstore\n        /* \"#utility.yul\":323:333   */\n      dup3\n      add\n        /* \"#utility.yul\":294:434   */\n      jump(tag_140)\n    tag_142:\n        /* \"#utility.yul\":298:301   */\n      pop\n        /* \"#utility.yul\":483:484   */\n      0x00\n        /* \"#utility.yul\":478:480   */\n      0x40\n        /* \"#utility.yul\":469:475   */\n      dup3\n        /* \"#utility.yul\":458:467   */\n      dup7\n        /* \"#utility.yul\":454:476   */\n      add\n        /* \"#utility.yul\":450:481   */\n      add\n        /* \"#utility.yul\":443:485   */\n      mstore\n        /* \"#utility.yul\":553:555   */\n      0x40\n        /* \"#utility.yul\":546:548   */\n      0x1f\n        /* \"#utility.yul\":542:549   */\n      not\n        /* \"#utility.yul\":537:539   */\n      0x1f\n        /* \"#utility.yul\":529:535   */\n      dup4\n        /* \"#utility.yul\":525:540   */\n      add\n        /* \"#utility.yul\":521:550   */\n      and\n        /* \"#utility.yul\":510:519   */\n      dup6\n        /* \"#utility.yul\":506:551   */\n      add\n        /* \"#utility.yul\":502:556   */\n      add\n        /* \"#utility.yul\":494:556   */\n      swap3\n      pop\n      pop\n      pop\n        /* \"#utility.yul\":14:562   */\n      swap3\n      swap2\n      pop\n      pop\n      jump\t// out\n        /* \"#utility.yul\":567:740   */\n    tag_137:\n        /* \"#utility.yul\":635:655   */\n      dup1\n      calldataload\n      sub(shl(0xa0, 0x01), 0x01)\n        /* \"#utility.yul\":684:715   */\n      dup2\n      and\n        /* \"#utility.yul\":674:716   */\n      dup2\n      eq\n        /* \"#utility.yul\":664:734   */\n      tag_144\n      jumpi\n        /* \"#utility.yul\":730:731   */\n      0x00\n        /* \"#utility.yul\":727:728   */\n      dup1\n        /* \"#utility.yul\":720:732   */\n      revert\n        /* \"#utility.yul\":664:734   */\n    tag_144:\n        /* \"#utility.yul\":567:740   */\n      swap2\n      swap1\n      pop\n      jump\t// out\n        /* \"#utility.yul\":745:999   */\n    tag_21:\n        /* \"#utility.yul\":813:819   */\n      0x00\n        /* \"#utility.yul\":821:827   */\n      dup1\n        /* \"#utility.yul\":874:876   */\n      0x40\n        /* \"#utility.yul\":862:871   */\n      dup4\n        /* \"#utility.yul\":853:860   */\n      dup6\n        /* \"#utility.yul\":849:872   */\n      sub\n        /* \"#utility.yul\":845:877   */\n      slt\n        /* \"#utility.yul\":842:894   */\n      iszero\n      tag_146\n      jumpi\n        /* \"#utility.yul\":890:891   */\n      0x00\n        /* \"#utility.yul\":887:888   */\n      dup1\n        /* \"#utility.yul\":880:892   */\n      revert\n        /* \"#utility.yul\":842:894   */\n    tag_146:\n        /* \"#utility.yul\":913:942   */\n      tag_147\n        /* \"#utility.yul\":932:941   */\n      dup4\n        /* \"#utility.yul\":913:942   */\n      tag_137\n      jump\t// in\n    tag_147:\n        /* \"#utility.yul\":903:942   */\n      swap5\n        /* \"#utility.yul\":989:991   */\n      0x20\n        /* \"#utility.yul\":974:992   */\n      swap4\n      swap1\n      swap4\n      add\n        /* \"#utility.yul\":961:993   */\n      calldataload\n      swap4\n      pop\n      pop\n      pop\n        /* \"#utility.yul\":745:999   */\n      jump\t// out\n        /* \"#utility.yul\":1378:1706   */\n    tag_31:\n        /* \"#utility.yul\":1455:1461   */\n      0x00\n        /* \"#utility.yul\":1463:1469   */\n      dup1\n        /* \"#utility.yul\":1471:1477   */\n      0x00\n        /* \"#utility.yul\":1524:1526   */\n      0x60\n        /* \"#utility.yul\":1512:1521   */\n      dup5\n        /* \"#utility.yul\":1503:1510   */\n      dup7\n        /* \"#utility.yul\":1499:1522   */\n      sub\n        /* \"#utility.yul\":1495:1527   */\n      slt\n        /* \"#utility.yul\":1492:1544   */\n      iszero\n      tag_151\n      jumpi\n        /* \"#utility.yul\":1540:1541   */\n      0x00\n        /* \"#utility.yul\":1537:1538   */\n      dup1\n        /* \"#utility.yul\":1530:1542   */\n      revert\n        /* \"#utility.yul\":1492:1544   */\n    tag_151:\n        /* \"#utility.yul\":1563:1592   */\n      tag_152\n        /* \"#utility.yul\":1582:1591   */\n      dup5\n        /* \"#utility.yul\":1563:1592   */\n      tag_137\n      jump\t// in\n    tag_152:\n        /* \"#utility.yul\":1553:1592   */\n      swap3\n      pop\n        /* \"#utility.yul\":1611:1649   */\n      tag_153\n        /* \"#utility.yul\":1645:1647   */\n      0x20\n        /* \"#utility.yul\":1634:1643   */\n      dup6\n        /* \"#utility.yul\":1630:1648   */\n      add\n        /* \"#utility.yul\":1611:1649   */\n      tag_137\n      jump\t// in\n    tag_153:\n        /* \"#utility.yul\":1601:1649   */\n      swap2\n      pop\n        /* \"#utility.yul\":1696:1698   */\n      0x40\n        /* \"#utility.yul\":1685:1694   */\n      dup5\n        /* \"#utility.yul\":1681:1699   */\n      add\n        /* \"#utility.yul\":1668:1700   */\n      calldataload\n        /* \"#utility.yul\":1658:1700   */\n      swap1\n      pop\n        /* \"#utility.yul\":1378:1706   */\n      swap3\n      pop\n      swap3\n      pop\n      swap3\n      jump\t// out\n        /* \"#utility.yul\":1900:2086   */\n    tag_44:\n        /* \"#utility.yul\":1959:1965   */\n      0x00\n        /* \"#utility.yul\":2012:2014   */\n      0x20\n        /* \"#utility.yul\":2000:2009   */\n      dup3\n        /* \"#utility.yul\":1991:1998   */\n      dup5\n        /* \"#utility.yul\":1987:2010   */\n      sub\n        /* \"#utility.yul\":1983:2015   */\n      slt\n        /* \"#utility.yul\":1980:2032   */\n      iszero\n      tag_156\n      jumpi\n        /* \"#utility.yul\":2028:2029   */\n      0x00\n        /* \"#utility.yul\":2025:2026   */\n      dup1\n        /* \"#utility.yul\":2018:2030   */\n      revert\n        /* \"#utility.yul\":1980:2032   */\n    tag_156:\n        /* \"#utility.yul\":2051:2080   */\n      tag_157\n        /* \"#utility.yul\":2070:2079   */\n      dup3\n        /* \"#utility.yul\":2051:2080   */\n      tag_137\n      jump\t// in\n    tag_157:\n        /* \"#utility.yul\":2041:2080   */\n      swap4\n        /* \"#utility.yul\":1900:2086   */\n      swap3\n      pop\n      pop\n      pop\n      jump\t// out\n        /* \"#utility.yul\":2091:2351   */\n    tag_60:\n        /* \"#utility.yul\":2159:2165   */\n      0x00\n        /* \"#utility.yul\":2167:2173   */\n      dup1\n        /* \"#utility.yul\":2220:2222   */\n      0x40\n        /* \"#utility.yul\":2208:2217   */\n      dup4\n        /* \"#utility.yul\":2199:2206   */\n      dup6\n        /* \"#utility.yul\":2195:2218   */\n      sub\n        /* \"#utility.yul\":2191:2223   */\n      slt\n        /* \"#utility.yul\":2188:2240   */\n      iszero\n      tag_159\n      jumpi\n        /* \"#utility.yul\":2236:2237   */\n      0x00\n        /* \"#utility.yul\":2233:2234   */\n      dup1\n        /* \"#utility.yul\":2226:2238   */\n      revert\n        /* \"#utility.yul\":2188:2240   */\n    tag_159:\n        /* \"#utility.yul\":2259:2288   */\n      tag_160\n        /* \"#utility.yul\":2278:2287   */\n      dup4\n        /* \"#utility.yul\":2259:2288   */\n      tag_137\n      jump\t// in\n    tag_160:\n        /* \"#utility.yul\":2249:2288   */\n      swap2\n      pop\n        /* \"#utility.yul\":2307:2345   */\n      tag_161\n        /* \"#utility.yul\":2341:2343   */\n      0x20\n        /* \"#utility.yul\":2330:2339   */\n      dup5\n        /* \"#utility.yul\":2326:2344   */\n      add\n        /* \"#utility.yul\":2307:2345   */\n      tag_137\n      jump\t// in\n    tag_161:\n        /* \"#utility.yul\":2297:2345   */\n      swap1\n      pop\n        /* \"#utility.yul\":2091:2351   */\n      swap3\n      pop\n      swap3\n      swap1\n      pop\n      jump\t// out\n        /* \"#utility.yul\":2356:2736   */\n    tag_65:\n        /* \"#utility.yul\":2435:2436   */\n      0x01\n        /* \"#utility.yul\":2431:2443   */\n      dup2\n      dup2\n      shr\n      swap1\n        /* \"#utility.yul\":2478:2490   */\n      dup3\n      and\n      dup1\n        /* \"#utility.yul\":2499:2560   */\n      tag_163\n      jumpi\n        /* \"#utility.yul\":2553:2557   */\n      0x7f\n        /* \"#utility.yul\":2545:2551   */\n      dup3\n        /* \"#utility.yul\":2541:2558   */\n      and\n        /* \"#utility.yul\":2531:2558   */\n      swap2\n      pop\n        /* \"#utility.yul\":2499:2560   */\n    tag_163:\n        /* \"#utility.yul\":2606:2608   */\n      0x20\n        /* \"#utility.yul\":2598:2604   */\n      dup3\n        /* \"#utility.yul\":2595:2609   */\n      lt\n        /* \"#utility.yul\":2575:2593   */\n      dup2\n        /* \"#utility.yul\":2572:2610   */\n      sub\n        /* \"#utility.yul\":2569:2730   */\n      tag_164\n      jumpi\n        /* \"#utility.yul\":2652:2662   */\n      0x4e487b71\n        /* \"#utility.yul\":2647:2650   */\n      0xe0\n        /* \"#utility.yul\":2643:2663   */\n      shl\n        /* \"#utility.yul\":2640:2641   */\n      0x00\n        /* \"#utility.yul\":2633:2664   */\n      mstore\n        /* \"#utility.yul\":2687:2691   */\n      0x22\n        /* \"#utility.yul\":2684:2685   */\n      0x04\n        /* \"#utility.yul\":2677:2692   */\n      mstore\n        /* \"#utility.yul\":2715:2719   */\n      0x24\n        /* \"#utility.yul\":2712:2713   */\n      0x00\n        /* \"#utility.yul\":2705:2720   */\n      revert\n        /* \"#utility.yul\":2569:2730   */\n    tag_164:\n      pop\n        /* \"#utility.yul\":2356:2736   */\n      swap2\n      swap1\n      pop\n      jump\t// out\n        /* \"#utility.yul\":3150:3372   */\n    tag_91:\n        /* \"#utility.yul\":3215:3224   */\n      dup1\n      dup3\n      add\n        /* \"#utility.yul\":3236:3246   */\n      dup1\n      dup3\n      gt\n        /* \"#utility.yul\":3233:3366   */\n      iszero\n      tag_70\n      jumpi\n        /* \"#utility.yul\":3288:3298   */\n      0x4e487b71\n        /* \"#utility.yul\":3283:3286   */\n      0xe0\n        /* \"#utility.yul\":3279:3299   */\n      shl\n        /* \"#utility.yul\":3276:3277   */\n      0x00\n        /* \"#utility.yul\":3269:3300   */\n      mstore\n        /* \"#utility.yul\":3323:3327   */\n      0x11\n        /* \"#utility.yul\":3320:3321   */\n      0x04\n        /* \"#utility.yul\":3313:3328   */\n      mstore\n        /* \"#utility.yul\":3351:3355   */\n      0x24\n        /* \"#utility.yul\":3348:3349   */\n      0x00\n        /* \"#utility.yul\":3341:3356   */\n      revert\n\n    auxdata: 0xa26469706673582212203877745f56016241febcf7bb969143a47aa9553995119a2c652e40c7df94681164736f6c63430008100033\n}\n",
				"bytecode": {
					"linkReferences": {},
					"object": "60806040523480156200001157600080fd5b5060405162000bac38038062000bac83398101604081905262000034916200011f565b600362000042838262000218565b50600462000051828262000218565b505050620002e4565b634e487b7160e01b600052604160045260246000fd5b600082601f8301126200008257600080fd5b81516001600160401b03808211156200009f576200009f6200005a565b604051601f8301601f19908116603f01168101908282118183101715620000ca57620000ca6200005a565b81604052838152602092508683858801011115620000e757600080fd5b600091505b838210156200010b5785820183015181830184015290820190620000ec565b600093810190920192909252949350505050565b600080604083850312156200013357600080fd5b82516001600160401b03808211156200014b57600080fd5b620001598683870162000070565b935060208501519150808211156200017057600080fd5b506200017f8582860162000070565b9150509250929050565b600181811c908216806200019e57607f821691505b602082108103620001bf57634e487b7160e01b600052602260045260246000fd5b50919050565b601f8211156200021357600081815260208120601f850160051c81016020861015620001ee5750805b601f850160051c820191505b818110156200020f57828155600101620001fa565b5050505b505050565b81516001600160401b038111156200023457620002346200005a565b6200024c8162000245845462000189565b84620001c5565b602080601f8311600181146200028457600084156200026b5750858301515b600019600386901b1c1916600185901b1785556200020f565b600085815260208120601f198616915b82811015620002b55788860151825594840194600190910190840162000294565b5085821015620002d45787850151600019600388901b60f8161c191681555b5050505050600190811b01905550565b6108b880620002f46000396000f3fe608060405234801561001057600080fd5b50600436106100a95760003560e01c80633950935111610071578063395093511461012357806370a082311461013657806395d89b411461015f578063a457c2d714610167578063a9059cbb1461017a578063dd62ed3e1461018d57600080fd5b806306fdde03146100ae578063095ea7b3146100cc57806318160ddd146100ef57806323b872dd14610101578063313ce56714610114575b600080fd5b6100b66101c6565b6040516100c39190610702565b60405180910390f35b6100df6100da36600461076c565b610258565b60405190151581526020016100c3565b6002545b6040519081526020016100c3565b6100df61010f366004610796565b61026f565b604051601281526020016100c3565b6100df61013136600461076c565b61031e565b6100f36101443660046107d2565b6001600160a01b031660009081526020819052604090205490565b6100b661035a565b6100df61017536600461076c565b610369565b6100df61018836600461076c565b610402565b6100f361019b3660046107f4565b6001600160a01b03918216600090815260016020908152604080832093909416825291909152205490565b6060600380546101d590610827565b80601f016020809104026020016040519081016040528092919081815260200182805461020190610827565b801561024e5780601f106102235761010080835404028352916020019161024e565b820191906000526020600020905b81548152906001019060200180831161023157829003601f168201915b5050505050905090565b600061026533848461040f565b5060015b92915050565b600061027c848484610533565b6001600160a01b0384166000908152600160209081526040808320338452909152902054828110156103065760405162461bcd60e51b815260206004820152602860248201527f45524332303a207472616e7366657220616d6f756e74206578636565647320616044820152676c6c6f77616e636560c01b60648201526084015b60405180910390fd5b610313853385840361040f565b506001949350505050565b3360008181526001602090815260408083206001600160a01b03871684529091528120549091610265918590610355908690610861565b61040f565b6060600480546101d590610827565b3360009081526001602090815260408083206001600160a01b0386168452909152812054828110156103eb5760405162461bcd60e51b815260206004820152602560248201527f45524332303a2064656372656173656420616c6c6f77616e63652062656c6f77604482015264207a65726f60d81b60648201526084016102fd565b6103f8338585840361040f565b5060019392505050565b6000610265338484610533565b6001600160a01b0383166104715760405162461bcd60e51b8152602060048201526024808201527f45524332303a20617070726f76652066726f6d20746865207a65726f206164646044820152637265737360e01b60648201526084016102fd565b6001600160a01b0382166104d25760405162461bcd60e51b815260206004820152602260248201527f45524332303a20617070726f766520746f20746865207a65726f206164647265604482015261737360f01b60648201526084016102fd565b6001600160a01b0383811660008181526001602090815260408083209487168084529482529182902085905590518481527f8c5be1e5ebec7d5bd14f71427d1e84f3dd0314c0f7b2291e5b200ac8c7c3b925910160405180910390a3505050565b6001600160a01b0383166105975760405162461bcd60e51b815260206004820152602560248201527f45524332303a207472616e736665722066726f6d20746865207a65726f206164604482015264647265737360d81b60648201526084016102fd565b6001600160a01b0382166105f95760405162461bcd60e51b815260206004820152602360248201527f45524332303a207472616e7366657220746f20746865207a65726f206164647260448201526265737360e81b60648201526084016102fd565b6001600160a01b038316600090815260208190526040902054818110156106715760405162461bcd60e51b815260206004820152602660248201527f45524332303a207472616e7366657220616d6f756e7420657863656564732062604482015265616c616e636560d01b60648201526084016102fd565b6001600160a01b038085166000908152602081905260408082208585039055918516815290812080548492906106a8908490610861565b92505081905550826001600160a01b0316846001600160a01b03167fddf252ad1be2c89b69c2b068fc378daa952ba7f163c4a11628f55a4df523b3ef846040516106f491815260200190565b60405180910390a350505050565b600060208083528351808285015260005b8181101561072f57858101830151858201604001528201610713565b506000604082860101526040601f19601f8301168501019250505092915050565b80356001600160a01b038116811461076757600080fd5b919050565b6000806040838503121561077f57600080fd5b61078883610750565b946020939093013593505050565b6000806000606084860312156107ab57600080fd5b6107b484610750565b92506107c260208501610750565b9150604084013590509250925092565b6000602082840312156107e457600080fd5b6107ed82610750565b9392505050565b6000806040838503121561080757600080fd5b61081083610750565b915061081e60208401610750565b90509250929050565b600181811c9082168061083b57607f821691505b60208210810361085b57634e487b7160e01b600052602260045260246000fd5b50919050565b8082018082111561026957634e487b7160e01b600052601160045260246000fdfea26469706673582212203877745f56016241febcf7bb969143a47aa9553995119a2c652e40c7df94681164736f6c63430008100033",
					"opcodes": "PUSH1 0x80 PUSH1 0x40 MSTORE CALLVALUE DUP1 ISZERO PUSH3 0x11 JUMPI PUSH1 0x0 DUP1 REVERT JUMPDEST POP PUSH1 0x40 MLOAD PUSH3 0xBAC CODESIZE SUB DUP1 PUSH3 0xBAC DUP4 CODECOPY DUP2 ADD PUSH1 0x40 DUP2 SWAP1 MSTORE PUSH3 0x34 SWAP2 PUSH3 0x11F JUMP JUMPDEST PUSH1 0x3 PUSH3 0x42 DUP4 DUP3 PUSH3 0x218 JUMP JUMPDEST POP PUSH1 0x4 PUSH3 0x51 DUP3 DUP3 PUSH3 0x218 JUMP JUMPDEST POP POP POP PUSH3 0x2E4 JUMP JUMPDEST PUSH4 0x4E487B71 PUSH1 0xE0 SHL PUSH1 0x0 MSTORE PUSH1 0x41 PUSH1 0x4 MSTORE PUSH1 0x24 PUSH1 0x0 REVERT JUMPDEST PUSH1 0x0 DUP3 PUSH1 0x1F DUP4 ADD SLT PUSH3 0x82 JUMPI PUSH1 0x0 DUP1 REVERT JUMPDEST DUP2 MLOAD PUSH1 0x1 PUSH1 0x1 PUSH1 0x40 SHL SUB DUP1 DUP3 GT ISZERO PUSH3 0x9F JUMPI PUSH3 0x9F PUSH3 0x5A JUMP JUMPDEST PUSH1 0x40 MLOAD PUSH1 0x1F DUP4 ADD PUSH1 0x1F NOT SWAP1 DUP2 AND PUSH1 0x3F ADD AND DUP2 ADD SWAP1 DUP3 DUP3 GT DUP2 DUP4 LT OR ISZERO PUSH3 0xCA JUMPI PUSH3 0xCA PUSH3 0x5A JUMP JUMPDEST DUP2 PUSH1 0x40 MSTORE DUP4 DUP2 MSTORE PUSH1 0x20 SWAP3 POP DUP7 DUP4 DUP6 DUP9 ADD ADD GT ISZERO PUSH3 0xE7 JUMPI PUSH1 0x0 DUP1 REVERT JUMPDEST PUSH1 0x0 SWAP2 POP JUMPDEST DUP4 DUP3 LT ISZERO PUSH3 0x10B JUMPI DUP6 DUP3 ADD DUP4 ADD MLOAD DUP2 DUP4 ADD DUP5 ADD MSTORE SWAP1 DUP3 ADD SWAP1 PUSH3 0xEC JUMP JUMPDEST PUSH1 0x0 SWAP4 DUP2 ADD SWAP1 SWAP3 ADD SWAP3 SWAP1 SWAP3 MSTORE SWAP5 SWAP4 POP POP POP POP JUMP JUMPDEST PUSH1 0x0 DUP1 PUSH1 0x40 DUP4 DUP6 SUB SLT ISZERO PUSH3 0x133 JUMPI PUSH1 0x0 DUP1 REVERT JUMPDEST DUP3 MLOAD PUSH1 0x1 PUSH1 0x1 PUSH1 0x40 SHL SUB DUP1 DUP3 GT ISZERO PUSH3 0x14B JUMPI PUSH1 0x0 DUP1 REVERT JUMPDEST PUSH3 0x159 DUP7 DUP4 DUP8 ADD PUSH3 0x70 JUMP JUMPDEST SWAP4 POP PUSH1 0x20 DUP6 ADD MLOAD SWAP2 POP DUP1 DUP3 GT ISZERO PUSH3 0x170 JUMPI PUSH1 0x0 DUP1 REVERT JUMPDEST POP PUSH3 0x17F DUP6 DUP3 DUP7 ADD PUSH3 0x70 JUMP JUMPDEST SWAP2 POP POP SWAP3 POP SWAP3 SWAP1 POP JUMP JUMPDEST PUSH1 0x1 DUP2 DUP2 SHR SWAP1 DUP3 AND DUP1 PUSH3 0x19E JUMPI PUSH1 0x7F DUP3 AND SWAP2 POP JUMPDEST PUSH1 0x20 DUP3 LT DUP2 SUB PUSH3 0x1BF JUMPI PUSH4 0x4E487B71 PUSH1 0xE0 SHL PUSH1 0x0 MSTORE PUSH1 0x22 PUSH1 0x4 MSTORE PUSH1 0x24 PUSH1 0x0 REVERT JUMPDEST POP SWAP2 SWAP1 POP JUMP JUMPDEST PUSH1 0x1F DUP3 GT ISZERO PUSH3 0x213 JUMPI PUSH1 0x0 DUP2 DUP2 MSTORE PUSH1 0x20 DUP2 KECCAK256 PUSH1 0x1F DUP6 ADD PUSH1 0x5 SHR DUP2 ADD PUSH1 0x20 DUP7 LT ISZERO PUSH3 0x1EE JUMPI POP DUP1 JUMPDEST PUSH1 0x1F DUP6 ADD PUSH1 0x5 SHR DUP3 ADD SWAP2 POP JUMPDEST DUP2 DUP2 LT ISZERO PUSH3 0x20F JUMPI DUP3 DUP2 SSTORE PUSH1 0x1 ADD PUSH3 0x1FA JUMP JUMPDEST POP POP POP JUMPDEST POP POP POP JUMP JUMPDEST DUP2 MLOAD PUSH1 0x1 PUSH1 0x1 PUSH1 0x40 SHL SUB DUP2 GT ISZERO PUSH3 0x234 JUMPI PUSH3 0x234 PUSH3 0x5A JUMP JUMPDEST PUSH3 0x24C DUP2 PUSH3 0x245 DUP5 SLOAD PUSH3 0x189 JUMP JUMPDEST DUP5 PUSH3 0x1C5 JUMP JUMPDEST PUSH1 0x20 DUP1 PUSH1 0x1F DUP4 GT PUSH1 0x1 DUP2 EQ PUSH3 0x284 JUMPI PUSH1 0x0 DUP5 ISZERO PUSH3 0x26B JUMPI POP DUP6 DUP4 ADD MLOAD JUMPDEST PUSH1 0x0 NOT PUSH1 0x3 DUP7 SWAP1 SHL SHR NOT AND PUSH1 0x1 DUP6 SWAP1 SHL OR DUP6 SSTORE PUSH3 0x20F JUMP JUMPDEST PUSH1 0x0 DUP6 DUP2 MSTORE PUSH1 0x20 DUP2 KECCAK256 PUSH1 0x1F NOT DUP7 AND SWAP2 JUMPDEST DUP3 DUP2 LT ISZERO PUSH3 0x2B5 JUMPI DUP9 DUP7 ADD MLOAD DUP3 SSTORE SWAP5 DUP5 ADD SWAP5 PUSH1 0x1 SWAP1 SWAP2 ADD SWAP1 DUP5 ADD PUSH3 0x294 JUMP JUMPDEST POP DUP6 DUP3 LT ISZERO PUSH3 0x2D4 JUMPI DUP8 DUP6 ADD MLOAD PUSH1 0x0 NOT PUSH1 0x3 DUP9 SWAP1 SHL PUSH1 0xF8 AND SHR NOT AND DUP2 SSTORE JUMPDEST POP POP POP POP POP PUSH1 0x1 SWAP1 DUP2 SHL ADD SWAP1 SSTORE POP JUMP JUMPDEST PUSH2 0x8B8 DUP1 PUSH3 0x2F4 PUSH1 0x0 CODECOPY PUSH1 0x0 RETURN INVALID PUSH1 0x80 PUSH1 0x40 MSTORE CALLVALUE DUP1 ISZERO PUSH2 0x10 JUMPI PUSH1 0x0 DUP1 REVERT JUMPDEST POP PUSH1 0x4 CALLDATASIZE LT PUSH2 0xA9 JUMPI PUSH1 0x0 CALLDATALOAD PUSH1 0xE0 SHR DUP1 PUSH4 0x39509351 GT PUSH2 0x71 JUMPI DUP1 PUSH4 0x39509351 EQ PUSH2 0x123 JUMPI DUP1 PUSH4 0x70A08231 EQ PUSH2 0x136 JUMPI DUP1 PUSH4 0x95D89B41 EQ PUSH2 0x15F JUMPI DUP1 PUSH4 0xA457C2D7 EQ PUSH2 0x167 JUMPI DUP1 PUSH4 0xA9059CBB EQ PUSH2 0x17A JUMPI DUP1 PUSH4 0xDD62ED3E EQ PUSH2 0x18D JUMPI PUSH1 0x0 DUP1 REVERT JUMPDEST DUP1 PUSH4 0x6FDDE03 EQ PUSH2 0xAE JUMPI DUP1 PUSH4 0x95EA7B3 EQ PUSH2 0xCC JUMPI DUP1 PUSH4 0x18160DDD EQ PUSH2 0xEF JUMPI DUP1 PUSH4 0x23B872DD EQ PUSH2 0x101 JUMPI DUP1 PUSH4 0x313CE567 EQ PUSH2 0x114 JUMPI JUMPDEST PUSH1 0x0 DUP1 REVERT JUMPDEST PUSH2 0xB6 PUSH2 0x1C6 JUMP JUMPDEST PUSH1 0x40 MLOAD PUSH2 0xC3 SWAP2 SWAP1 PUSH2 0x702 JUMP JUMPDEST PUSH1 0x40 MLOAD DUP1 SWAP2 SUB SWAP1 RETURN JUMPDEST PUSH2 0xDF PUSH2 0xDA CALLDATASIZE PUSH1 0x4 PUSH2 0x76C JUMP JUMPDEST PUSH2 0x258 JUMP JUMPDEST PUSH1 0x40 MLOAD SWAP1 ISZERO ISZERO DUP2 MSTORE PUSH1 0x20 ADD PUSH2 0xC3 JUMP JUMPDEST PUSH1 0x2 SLOAD JUMPDEST PUSH1 0x40 MLOAD SWAP1 DUP2 MSTORE PUSH1 0x20 ADD PUSH2 0xC3 JUMP JUMPDEST PUSH2 0xDF PUSH2 0x10F CALLDATASIZE PUSH1 0x4 PUSH2 0x796 JUMP JUMPDEST PUSH2 0x26F JUMP JUMPDEST PUSH1 0x40 MLOAD PUSH1 0x12 DUP2 MSTORE PUSH1 0x20 ADD PUSH2 0xC3 JUMP JUMPDEST PUSH2 0xDF PUSH2 0x131 CALLDATASIZE PUSH1 0x4 PUSH2 0x76C JUMP JUMPDEST PUSH2 0x31E JUMP JUMPDEST PUSH2 0xF3 PUSH2 0x144 CALLDATASIZE PUSH1 0x4 PUSH2 0x7D2 JUMP JUMPDEST PUSH1 0x1 PUSH1 0x1 PUSH1 0xA0 SHL SUB AND PUSH1 0x0 SWAP1 DUP2 MSTORE PUSH1 0x20 DUP2 SWAP1 MSTORE PUSH1 0x40 SWAP1 KECCAK256 SLOAD SWAP1 JUMP JUMPDEST PUSH2 0xB6 PUSH2 0x35A JUMP JUMPDEST PUSH2 0xDF PUSH2 0x175 CALLDATASIZE PUSH1 0x4 PUSH2 0x76C JUMP JUMPDEST PUSH2 0x369 JUMP JUMPDEST PUSH2 0xDF PUSH2 0x188 CALLDATASIZE PUSH1 0x4 PUSH2 0x76C JUMP JUMPDEST PUSH2 0x402 JUMP JUMPDEST PUSH2 0xF3 PUSH2 0x19B CALLDATASIZE PUSH1 0x4 PUSH2 0x7F4 JUMP JUMPDEST PUSH1 0x1 PUSH1 0x1 PUSH1 0xA0 SHL SUB SWAP2 DUP3 AND PUSH1 0x0 SWAP1 DUP2 MSTORE PUSH1 0x1 PUSH1 0x20 SWAP1 DUP2 MSTORE PUSH1 0x40 DUP1 DUP4 KECCAK256 SWAP4 SWAP1 SWAP5 AND DUP3 MSTORE SWAP2 SWAP1 SWAP2 MSTORE KECCAK256 SLOAD SWAP1 JUMP JUMPDEST PUSH1 0x60 PUSH1 0x3 DUP1 SLOAD PUSH2 0x1D5 SWAP1 PUSH2 0x827 JUMP JUMPDEST DUP1 PUSH1 0x1F ADD PUSH1 0x20 DUP1 SWAP2 DIV MUL PUSH1 0x20 ADD PUSH1 0x40 MLOAD SWAP1 DUP2 ADD PUSH1 0x40 MSTORE DUP1 SWAP3 SWAP2 SWAP1 DUP2 DUP2 MSTORE PUSH1 0x20 ADD DUP3 DUP1 SLOAD PUSH2 0x201 SWAP1 PUSH2 0x827 JUMP JUMPDEST DUP1 ISZERO PUSH2 0x24E JUMPI DUP1 PUSH1 0x1F LT PUSH2 0x223 JUMPI PUSH2 0x100 DUP1 DUP4 SLOAD DIV MUL DUP4 MSTORE SWAP2 PUSH1 0x20 ADD SWAP2 PUSH2 0x24E JUMP JUMPDEST DUP3 ADD SWAP2 SWAP1 PUSH1 0x0 MSTORE PUSH1 0x20 PUSH1 0x0 KECCAK256 SWAP1 JUMPDEST DUP2 SLOAD DUP2 MSTORE SWAP1 PUSH1 0x1 ADD SWAP1 PUSH1 0x20 ADD DUP1 DUP4 GT PUSH2 0x231 JUMPI DUP3 SWAP1 SUB PUSH1 0x1F AND DUP3 ADD SWAP2 JUMPDEST POP POP POP POP POP SWAP1 POP SWAP1 JUMP JUMPDEST PUSH1 0x0 PUSH2 0x265 CALLER DUP5 DUP5 PUSH2 0x40F JUMP JUMPDEST POP PUSH1 0x1 JUMPDEST SWAP3 SWAP2 POP POP JUMP JUMPDEST PUSH1 0x0 PUSH2 0x27C DUP5 DUP5 DUP5 PUSH2 0x533 JUMP JUMPDEST PUSH1 0x1 PUSH1 0x1 PUSH1 0xA0 SHL SUB DUP5 AND PUSH1 0x0 SWAP1 DUP2 MSTORE PUSH1 0x1 PUSH1 0x20 SWAP1 DUP2 MSTORE PUSH1 0x40 DUP1 DUP4 KECCAK256 CALLER DUP5 MSTORE SWAP1 SWAP2 MSTORE SWAP1 KECCAK256 SLOAD DUP3 DUP2 LT ISZERO PUSH2 0x306 JUMPI PUSH1 0x40 MLOAD PUSH3 0x461BCD PUSH1 0xE5 SHL DUP2 MSTORE PUSH1 0x20 PUSH1 0x4 DUP3 ADD MSTORE PUSH1 0x28 PUSH1 0x24 DUP3 ADD MSTORE PUSH32 0x45524332303A207472616E7366657220616D6F756E7420657863656564732061 PUSH1 0x44 DUP3 ADD MSTORE PUSH8 0x6C6C6F77616E6365 PUSH1 0xC0 SHL PUSH1 0x64 DUP3 ADD MSTORE PUSH1 0x84 ADD JUMPDEST PUSH1 0x40 MLOAD DUP1 SWAP2 SUB SWAP1 REVERT JUMPDEST PUSH2 0x313 DUP6 CALLER DUP6 DUP5 SUB PUSH2 0x40F JUMP JUMPDEST POP PUSH1 0x1 SWAP5 SWAP4 POP POP POP POP JUMP JUMPDEST CALLER PUSH1 0x0 DUP2 DUP2 MSTORE PUSH1 0x1 PUSH1 0x20 SWAP1 DUP2 MSTORE PUSH1 0x40 DUP1 DUP4 KECCAK256 PUSH1 0x1 PUSH1 0x1 PUSH1 0xA0 SHL SUB DUP8 AND DUP5 MSTORE SWAP1 SWAP2 MSTORE DUP2 KECCAK256 SLOAD SWAP1 SWAP2 PUSH2 0x265 SWAP2 DUP6 SWAP1 PUSH2 0x355 SWAP1 DUP7 SWAP1 PUSH2 0x861 JUMP JUMPDEST PUSH2 0x40F JUMP JUMPDEST PUSH1 0x60 PUSH1 0x4 DUP1 SLOAD PUSH2 0x1D5 SWAP1 PUSH2 0x827 JUMP JUMPDEST CALLER PUSH1 0x0 SWAP1 DUP2 MSTORE PUSH1 0x1 PUSH1 0x20 SWAP1 DUP2 MSTORE PUSH1 0x40 DUP1 DUP4 KECCAK256 PUSH1 0x1 PUSH1 0x1 PUSH1 0xA0 SHL SUB DUP7 AND DUP5 MSTORE SWAP1 SWAP2 MSTORE DUP2 KECCAK256 SLOAD DUP3 DUP2 LT ISZERO PUSH2 0x3EB JUMPI PUSH1 0x40 MLOAD PUSH3 0x461BCD PUSH1 0xE5 SHL DUP2 MSTORE PUSH1 0x20 PUSH1 0x4 DUP3 ADD MSTORE PUSH1 0x25 PUSH1 0x24 DUP3 ADD MSTORE PUSH32 0x45524332303A2064656372656173656420616C6C6F77616E63652062656C6F77 PUSH1 0x44 DUP3 ADD MSTORE PUSH5 0x207A65726F PUSH1 0xD8 SHL PUSH1 0x64 DUP3 ADD MSTORE PUSH1 0x84 ADD PUSH2 0x2FD JUMP JUMPDEST PUSH2 0x3F8 CALLER DUP6 DUP6 DUP5 SUB PUSH2 0x40F JUMP JUMPDEST POP PUSH1 0x1 SWAP4 SWAP3 POP POP POP JUMP JUMPDEST PUSH1 0x0 PUSH2 0x265 CALLER DUP5 DUP5 PUSH2 0x533 JUMP JUMPDEST PUSH1 0x1 PUSH1 0x1 PUSH1 0xA0 SHL SUB DUP4 AND PUSH2 0x471 JUMPI PUSH1 0x40 MLOAD PUSH3 0x461BCD PUSH1 0xE5 SHL DUP2 MSTORE PUSH1 0x20 PUSH1 0x4 DUP3 ADD MSTORE PUSH1 0x24 DUP1 DUP3 ADD MSTORE PUSH32 0x45524332303A20617070726F76652066726F6D20746865207A65726F20616464 PUSH1 0x44 DUP3 ADD MSTORE PUSH4 0x72657373 PUSH1 0xE0 SHL PUSH1 0x64 DUP3 ADD MSTORE PUSH1 0x84 ADD PUSH2 0x2FD JUMP JUMPDEST PUSH1 0x1 PUSH1 0x1 PUSH1 0xA0 SHL SUB DUP3 AND PUSH2 0x4D2 JUMPI PUSH1 0x40 MLOAD PUSH3 0x461BCD PUSH1 0xE5 SHL DUP2 MSTORE PUSH1 0x20 PUSH1 0x4 DUP3 ADD MSTORE PUSH1 0x22 PUSH1 0x24 DUP3 ADD MSTORE PUSH32 0x45524332303A20617070726F766520746F20746865207A65726F206164647265 PUSH1 0x44 DUP3 ADD MSTORE PUSH2 0x7373 PUSH1 0xF0 SHL PUSH1 0x64 DUP3 ADD MSTORE PUSH1 0x84 ADD PUSH2 0x2FD JUMP JUMPDEST PUSH1 0x1 PUSH1 0x1 PUSH1 0xA0 SHL SUB DUP4 DUP2 AND PUSH1 0x0 DUP2 DUP2 MSTORE PUSH1 0x1 PUSH1 0x20 SWAP1 DUP2 MSTORE PUSH1 0x40 DUP1 DUP4 KECCAK256 SWAP5 DUP8 AND DUP1 DUP5 MSTORE SWAP5 DUP3 MSTORE SWAP2 DUP3 SWAP1 KECCAK256 DUP6 SWAP1 SSTORE SWAP1 MLOAD DUP5 DUP2 MSTORE PUSH32 0x8C5BE1E5EBEC7D5BD14F71427D1E84F3DD0314C0F7B2291E5B200AC8C7C3B925 SWAP2 ADD PUSH1 0x40 MLOAD DUP1 SWAP2 SUB SWAP1 LOG3 POP POP POP JUMP JUMPDEST PUSH1 0x1 PUSH1 0x1 PUSH1 0xA0 SHL SUB DUP4 AND PUSH2 0x597 JUMPI PUSH1 0x40 MLOAD PUSH3 0x461BCD PUSH1 0xE5 SHL DUP2 MSTORE PUSH1 0x20 PUSH1 0x4 DUP3 ADD MSTORE PUSH1 0x25 PUSH1 0x24 DUP3 ADD MSTORE PUSH32 0x45524332303A207472616E736665722066726F6D20746865207A65726F206164 PUSH1 0x44 DUP3 ADD MSTORE PUSH5 0x6472657373 PUSH1 0xD8 SHL PUSH1 0x64 DUP3 ADD MSTORE PUSH1 0x84 ADD PUSH2 0x2FD JUMP JUMPDEST PUSH1 0x1 PUSH1 0x1 PUSH1 0xA0 SHL SUB DUP3 AND PUSH2 0x5F9 JUMPI PUSH1 0x40 MLOAD PUSH3 0x461BCD PUSH1 0xE5 SHL DUP2 MSTORE PUSH1 0x20 PUSH1 0x4 DUP3 ADD MSTORE PUSH1 0x23 PUSH1 0x24 DUP3 ADD MSTORE PUSH32 0x45524332303A207472616E7366657220746F20746865207A65726F2061646472 PUSH1 0x44 DUP3 ADD MSTORE PUSH3 0x657373 PUSH1 0xE8 SHL PUSH1 0x64 DUP3 ADD MSTORE PUSH1 0x84 ADD PUSH2 0x2FD JUMP JUMPDEST PUSH1 0x1 PUSH1 0x1 PUSH1 0xA0 SHL SUB DUP4 AND PUSH1 0x0 SWAP1 DUP2 MSTORE PUSH1 0x20 DUP2 SWAP1 MSTORE PUSH1 0x40 SWAP1 KECCAK256 SLOAD DUP2 DUP2 LT ISZERO PUSH2 0x671 JUMPI PUSH1 0x40 MLOAD PUSH3 0x461BCD PUSH1 0xE5 SHL DUP2 MSTORE PUSH1 0x20 PUSH1 0x4 DUP3 ADD MSTORE PUSH1 0x26 PUSH1 0x24 DUP3 ADD MSTORE PUSH32 0x45524332303A207472616E7366657220616D6F756E7420657863656564732062 PUSH1 0x44 DUP3 ADD MSTORE PUSH6 0x616C616E6365 PUSH1 0xD0 SHL PUSH1 0x64 DUP3 ADD MSTORE PUSH1 0x84 ADD PUSH2 0x2FD JUMP JUMPDEST PUSH1 0x1 PUSH1 0x1 PUSH1 0xA0 SHL SUB DUP1 DUP6 AND PUSH1 0x0 SWAP1 DUP2 MSTORE PUSH1 0x20 DUP2 SWAP1 MSTORE PUSH1 0x40 DUP1 DUP3 KECCAK256 DUP6 DUP6 SUB SWAP1 SSTORE SWAP2 DUP6 AND DUP2 MSTORE SWAP1 DUP2 KECCAK256 DUP1 SLOAD DUP5 SWAP3 SWAP1 PUSH2 0x6A8 SWAP1 DUP5 SWAP1 PUSH2 0x861 JUMP JUMPDEST SWAP3 POP POP DUP2 SWAP1 SSTORE POP DUP3 PUSH1 0x1 PUSH1 0x1 PUSH1 0xA0 SHL SUB AND DUP5 PUSH1 0x1 PUSH1 0x1 PUSH1 0xA0 SHL SUB AND PUSH32 0xDDF252AD1BE2C89B69C2B068FC378DAA952BA7F163C4A11628F55A4DF523B3EF DUP5 PUSH1 0x40 MLOAD PUSH2 0x6F4 SWAP2 DUP2 MSTORE PUSH1 0x20 ADD SWAP1 JUMP JUMPDEST PUSH1 0x40 MLOAD DUP1 SWAP2 SUB SWAP1 LOG3 POP POP POP POP JUMP JUMPDEST PUSH1 0x0 PUSH1 0x20 DUP1 DUP4 MSTORE DUP4 MLOAD DUP1 DUP3 DUP6 ADD MSTORE PUSH1 0x0 JUMPDEST DUP2 DUP2 LT ISZERO PUSH2 0x72F JUMPI DUP6 DUP2 ADD DUP4 ADD MLOAD DUP6 DUP3 ADD PUSH1 0x40 ADD MSTORE DUP3 ADD PUSH2 0x713 JUMP JUMPDEST POP PUSH1 0x0 PUSH1 0x40 DUP3 DUP7 ADD ADD MSTORE PUSH1 0x40 PUSH1 0x1F NOT PUSH1 0x1F DUP4 ADD AND DUP6 ADD ADD SWAP3 POP POP POP SWAP3 SWAP2 POP POP JUMP JUMPDEST DUP1 CALLDATALOAD PUSH1 0x1 PUSH1 0x1 PUSH1 0xA0 SHL SUB DUP2 AND DUP2 EQ PUSH2 0x767 JUMPI PUSH1 0x0 DUP1 REVERT JUMPDEST SWAP2 SWAP1 POP JUMP JUMPDEST PUSH1 0x0 DUP1 PUSH1 0x40 DUP4 DUP6 SUB SLT ISZERO PUSH2 0x77F JUMPI PUSH1 0x0 DUP1 REVERT JUMPDEST PUSH2 0x788 DUP4 PUSH2 0x750 JUMP JUMPDEST SWAP5 PUSH1 0x20 SWAP4 SWAP1 SWAP4 ADD CALLDATALOAD SWAP4 POP POP POP JUMP JUMPDEST PUSH1 0x0 DUP1 PUSH1 0x0 PUSH1 0x60 DUP5 DUP7 SUB SLT ISZERO PUSH2 0x7AB JUMPI PUSH1 0x0 DUP1 REVERT JUMPDEST PUSH2 0x7B4 DUP5 PUSH2 0x750 JUMP JUMPDEST SWAP3 POP PUSH2 0x7C2 PUSH1 0x20 DUP6 ADD PUSH2 0x750 JUMP JUMPDEST SWAP2 POP PUSH1 0x40 DUP5 ADD CALLDATALOAD SWAP1 POP SWAP3 POP SWAP3 POP SWAP3 JUMP JUMPDEST PUSH1 0x0 PUSH1 0x20 DUP3 DUP5 SUB SLT ISZERO PUSH2 0x7E4 JUMPI PUSH1 0x0 DUP1 REVERT JUMPDEST PUSH2 0x7ED DUP3 PUSH2 0x750 JUMP JUMPDEST SWAP4 SWAP3 POP POP POP JUMP JUMPDEST PUSH1 0x0 DUP1 PUSH1 0x40 DUP4 DUP6 SUB SLT ISZERO PUSH2 0x807 JUMPI PUSH1 0x0 DUP1 REVERT JUMPDEST PUSH2 0x810 DUP4 PUSH2 0x750 JUMP JUMPDEST SWAP2 POP PUSH2 0x81E PUSH1 0x20 DUP5 ADD PUSH2 0x750 JUMP JUMPDEST SWAP1 POP SWAP3 POP SWAP3 SWAP1 POP JUMP JUMPDEST PUSH1 0x1 DUP2 DUP2 SHR SWAP1 DUP3 AND DUP1 PUSH2 0x83B JUMPI PUSH1 0x7F DUP3 AND SWAP2 POP JUMPDEST PUSH1 0x20 DUP3 LT DUP2 SUB PUSH2 0x85B JUMPI PUSH4 0x4E487B71 PUSH1 0xE0 SHL PUSH1 0x0 MSTORE PUSH1 0x22 PUSH1 0x4 MSTORE PUSH1 0x24 PUSH1 0x0 REVERT JUMPDEST POP SWAP2 SWAP1 POP JUMP JUMPDEST DUP1 DUP3 ADD DUP1 DUP3 GT ISZERO PUSH2 0x269 JUMPI PUSH4 0x4E487B71 PUSH1 0xE0 SHL PUSH1 0x0 MSTORE PUSH1 0x11 PUSH1 0x4 MSTORE PUSH1 0x24 PUSH1 0x0 REVERT INVALID LOG2 PUSH5 0x6970667358 0x22 SLT KECCAK256 CODESIZE PUSH24 0x745F56016241FEBCF7BB969143A47AA9553995119A2C652E BLOCKHASH 0xC7 0xDF SWAP5 PUSH9 0x1164736F6C63430008 LT STOP CALLER "
				},
				"gasEstimates": {
					"creation": {
						"codeDepositCost": "446400",
						"executionCost": "infinite",
						"totalCost": "infinite"
					},
					"external": {
						"allowance(address,address)": "infinite",
						"approve(address,uint256)": "24620",
						"balanceOf(address)": "2562",
						"decimals()": "266",
						"decreaseAllowance(address,uint256)": "26954",
						"increaseAllowance(address,uint256)": "infinite",
						"name()": "infinite",
						"symbol()": "infinite",
						"totalSupply()": "2326",
						"transfer(address,uint256)": "infinite",
						"transferFrom(address,address,uint256)": "infinite"
					},
					"internal": {
						"_afterTokenTransfer(address,address,uint256)": "infinite",
						"_approve(address,address,uint256)": "infinite",
						"_beforeTokenTransfer(address,address,uint256)": "infinite",
						"_burn(address,uint256)": "infinite",
						"_mint(address,uint256)": "infinite",
						"_transfer(address,address,uint256)": "infinite"
					}
				},
				"methodIdentifiers": {
					"allowance(address,address)": "dd62ed3e",
					"approve(address,uint256)": "095ea7b3",
					"balanceOf(address)": "70a08231",
					"decimals()": "313ce567",
					"decreaseAllowance(address,uint256)": "a457c2d7",
					"increaseAllowance(address,uint256)": "39509351",
					"name()": "06fdde03",
					"symbol()": "95d89b41",
					"totalSupply()": "18160ddd",
					"transfer(address,uint256)": "a9059cbb",
					"transferFrom(address,address,uint256)": "23b872dd"
				}
			},
			"storageLayout": {
				"storage": [
					{
						"astId": 1000,
						"contract": "PerpetualPool_flat.sol:ERC20",
						"label": "_balances",
						"offset": 0,
						"slot": "0",
						"type": "t_mapping(t_address,t_uint256)"
					},
					{
						"astId": 1006,
						"contract": "PerpetualPool_flat.sol:ERC20",
						"label": "_allowances",
						"offset": 0,
						"slot": "1",
						"type": "t_mapping(t_address,t_mapping(t_address,t_uint256))"
					},
					{
						"astId": 1008,
						"contract": "PerpetualPool_flat.sol:ERC20",
						"label": "_totalSupply",
						"offset": 0,
						"slot": "2",
						"type": "t_uint256"
					},
					{
						"astId": 1010,
						"contract": "PerpetualPool_flat.sol:ERC20",
						"label": "_name",
						"offset": 0,
						"slot": "3",
						"type": "t_string_storage"
					},
					{
						"astId": 1012,
						"contract": "PerpetualPool_flat.sol:ERC20",
						"label": "_symbol",
						"offset": 0,
						"slot": "4",
						"type": "t_string_storage"
					}
				],
				"types": {
					"t_address": {
						"encoding": "inplace",
						"label": "address",
						"numberOfBytes": "20"
					},
					"t_mapping(t_address,t_mapping(t_address,t_uint256))": {
						"encoding": "mapping",
						"key": "t_address",
						"label": "mapping(address => mapping(address => uint256))",
						"numberOfBytes": "32",
						"value": "t_mapping(t_address,t_uint256)"
					},
					"t_mapping(t_address,t_uint256)": {
						"encoding": "mapping",
						"key": "t_address",
						"label": "mapping(address => uint256)",
						"numberOfBytes": "32",
						"value": "t_uint256"
					},
					"t_string_storage": {
						"encoding": "bytes",
						"label": "string",
						"numberOfBytes": "32"
					},
					"t_uint256": {
						"encoding": "inplace",
						"label": "uint256",
						"numberOfBytes": "32"
					}
				}
			},
			"userdoc": {
				"kind": "user",
				"methods": {},
				"version": 1
			}
		}
	}
}