{
	"contracts/maximus.sol": {
		"MyToken": {
			"abi": [
				{
					"inputs": [
						{
							"internalType": "uint256",
							"name": "start_day",
							"type": "uint256"
						},
						{
							"internalType": "uint256",
							"name": "duration",
							"type": "uint256"
						}
					],
					"stateMutability": "nonpayable",
					"type": "constructor"
				},
				{
					"anonymous": false,
					"inputs": [
						{
							"indexed": true,
							"internalType": "address",
							"name": "owner",
							"type": "address"
						},
						{
							"indexed": true,
							"internalType": "address",
							"name": "spender",
							"type": "address"
						},
						{
							"indexed": false,
							"internalType": "uint256",
							"name": "value",
							"type": "uint256"
						}
					],
					"name": "Approval",
					"type": "event"
				},
				{
					"anonymous": false,
					"inputs": [
						{
							"indexed": true,
							"internalType": "address",
							"name": "previousOwner",
							"type": "address"
						},
						{
							"indexed": true,
							"internalType": "address",
							"name": "newOwner",
							"type": "address"
						}
					],
					"name": "OwnershipTransferred",
					"type": "event"
				},
				{
					"anonymous": false,
					"inputs": [
						{
							"indexed": true,
							"internalType": "address",
							"name": "from",
							"type": "address"
						},
						{
							"indexed": true,
							"internalType": "address",
							"name": "to",
							"type": "address"
						},
						{
							"indexed": false,
							"internalType": "uint256",
							"name": "value",
							"type": "uint256"
						}
					],
					"name": "Transfer",
					"type": "event"
				},
				{
					"inputs": [
						{
							"internalType": "address",
							"name": "owner",
							"type": "address"
						},
						{
							"internalType": "address",
							"name": "spender",
							"type": "address"
						}
					],
					"name": "allowance",
					"outputs": [
						{
							"internalType": "uint256",
							"name": "",
							"type": "uint256"
						}
					],
					"stateMutability": "view",
					"type": "function"
				},
				{
					"inputs": [
						{
							"internalType": "address",
							"name": "spender",
							"type": "address"
						},
						{
							"internalType": "uint256",
							"name": "amount",
							"type": "uint256"
						}
					],
					"name": "approve",
					"outputs": [
						{
							"internalType": "bool",
							"name": "",
							"type": "bool"
						}
					],
					"stateMutability": "nonpayable",
					"type": "function"
				},
				{
					"inputs": [
						{
							"internalType": "address",
							"name": "account",
							"type": "address"
						}
					],
					"name": "balanceOf",
					"outputs": [
						{
							"internalType": "uint256",
							"name": "",
							"type": "uint256"
						}
					],
					"stateMutability": "view",
					"type": "function"
				},
				{
					"inputs": [
						{
							"internalType": "uint256",
							"name": "amount",
							"type": "uint256"
						}
					],
					"name": "burn",
					"outputs": [],
					"stateMutability": "nonpayable",
					"type": "function"
				},
				{
					"inputs": [
						{
							"internalType": "address",
							"name": "account",
							"type": "address"
						},
						{
							"internalType": "uint256",
							"name": "amount",
							"type": "uint256"
						}
					],
					"name": "burnFrom",
					"outputs": [],
					"stateMutability": "nonpayable",
					"type": "function"
				},
				{
					"inputs": [],
					"name": "decimals",
					"outputs": [
						{
							"internalType": "uint8",
							"name": "",
							"type": "uint8"
						}
					],
					"stateMutability": "view",
					"type": "function"
				},
				{
					"inputs": [
						{
							"internalType": "address",
							"name": "spender",
							"type": "address"
						},
						{
							"internalType": "uint256",
							"name": "subtractedValue",
							"type": "uint256"
						}
					],
					"name": "decreaseAllowance",
					"outputs": [
						{
							"internalType": "bool",
							"name": "",
							"type": "bool"
						}
					],
					"stateMutability": "nonpayable",
					"type": "function"
				},
				{
					"inputs": [
						{
							"internalType": "uint256",
							"name": "stakeIndex",
							"type": "uint256"
						},
						{
							"internalType": "uint40",
							"name": "stakeIdParam",
							"type": "uint40"
						}
					],
					"name": "endStakeHEX",
					"outputs": [],
					"stateMutability": "nonpayable",
					"type": "function"
				},
				{
					"inputs": [],
					"name": "getAllowanceHEX",
					"outputs": [
						{
							"internalType": "uint256",
							"name": "",
							"type": "uint256"
						}
					],
					"stateMutability": "view",
					"type": "function"
				},
				{
					"inputs": [],
					"name": "getBalanceHEX",
					"outputs": [
						{
							"internalType": "uint256",
							"name": "",
							"type": "uint256"
						}
					],
					"stateMutability": "view",
					"type": "function"
				},
				{
					"inputs": [],
					"name": "getMintingPhaseEndDay",
					"outputs": [
						{
							"internalType": "uint256",
							"name": "",
							"type": "uint256"
						}
					],
					"stateMutability": "view",
					"type": "function"
				},
				{
					"inputs": [],
					"name": "getMintingPhaseStartDay",
					"outputs": [
						{
							"internalType": "uint256",
							"name": "",
							"type": "uint256"
						}
					],
					"stateMutability": "view",
					"type": "function"
				},
				{
					"inputs": [],
					"name": "getNumStake",
					"outputs": [
						{
							"internalType": "uint256",
							"name": "",
							"type": "uint256"
						}
					],
					"stateMutability": "view",
					"type": "function"
				},
				{
					"inputs": [],
					"name": "getRedemptionRate",
					"outputs": [
						{
							"internalType": "uint256",
							"name": "",
							"type": "uint256"
						}
					],
					"stateMutability": "view",
					"type": "function"
				},
				{
					"inputs": [],
					"name": "getStakeEndDay",
					"outputs": [
						{
							"internalType": "uint256",
							"name": "",
							"type": "uint256"
						}
					],
					"stateMutability": "view",
					"type": "function"
				},
				{
					"inputs": [],
					"name": "getStakeStartDay",
					"outputs": [
						{
							"internalType": "uint256",
							"name": "",
							"type": "uint256"
						}
					],
					"stateMutability": "view",
					"type": "function"
				},
				{
					"inputs": [
						{
							"internalType": "uint256",
							"name": "amt",
							"type": "uint256"
						}
					],
					"name": "get_amount_redeem_hex",
					"outputs": [
						{
							"internalType": "uint256",
							"name": "",
							"type": "uint256"
						}
					],
					"stateMutability": "view",
					"type": "function"
				},
				{
					"inputs": [],
					"name": "get_hex_day",
					"outputs": [
						{
							"internalType": "uint256",
							"name": "",
							"type": "uint256"
						}
					],
					"stateMutability": "view",
					"type": "function"
				},
				{
					"inputs": [],
					"name": "hasStakeStarted",
					"outputs": [
						{
							"internalType": "bool",
							"name": "",
							"type": "bool"
						}
					],
					"stateMutability": "view",
					"type": "function"
				},
				{
					"inputs": [
						{
							"internalType": "address",
							"name": "spender",
							"type": "address"
						},
						{
							"internalType": "uint256",
							"name": "addedValue",
							"type": "uint256"
						}
					],
					"name": "increaseAllowance",
					"outputs": [
						{
							"internalType": "bool",
							"name": "",
							"type": "bool"
						}
					],
					"stateMutability": "nonpayable",
					"type": "function"
				},
				{
					"inputs": [],
					"name": "name",
					"outputs": [
						{
							"internalType": "string",
							"name": "",
							"type": "string"
						}
					],
					"stateMutability": "view",
					"type": "function"
				},
				{
					"inputs": [],
					"name": "owner",
					"outputs": [
						{
							"internalType": "address",
							"name": "",
							"type": "address"
						}
					],
					"stateMutability": "view",
					"type": "function"
				},
				{
					"inputs": [
						{
							"internalType": "uint256",
							"name": "numerator",
							"type": "uint256"
						},
						{
							"internalType": "uint256",
							"name": "denominator",
							"type": "uint256"
						},
						{
							"internalType": "uint256",
							"name": "precision",
							"type": "uint256"
						}
					],
					"name": "percent",
					"outputs": [
						{
							"internalType": "uint256",
							"name": "quotient",
							"type": "uint256"
						}
					],
					"stateMutability": "view",
					"type": "function"
				},
				{
					"inputs": [
						{
							"internalType": "uint256",
							"name": "amount",
							"type": "uint256"
						}
					],
					"name": "pledgeHEX",
					"outputs": [],
					"stateMutability": "nonpayable",
					"type": "function"
				},
				{
					"inputs": [
						{
							"internalType": "uint256",
							"name": "amount_MAXI",
							"type": "uint256"
						}
					],
					"name": "redeemHEX",
					"outputs": [],
					"stateMutability": "nonpayable",
					"type": "function"
				},
				{
					"inputs": [],
					"name": "renounceOwnership",
					"outputs": [],
					"stateMutability": "nonpayable",
					"type": "function"
				},
				{
					"inputs": [],
					"name": "stakeHEX",
					"outputs": [],
					"stateMutability": "nonpayable",
					"type": "function"
				},
				{
					"inputs": [],
					"name": "symbol",
					"outputs": [
						{
							"internalType": "string",
							"name": "",
							"type": "string"
						}
					],
					"stateMutability": "view",
					"type": "function"
				},
				{
					"inputs": [],
					"name": "totalSupply",
					"outputs": [
						{
							"internalType": "uint256",
							"name": "",
							"type": "uint256"
						}
					],
					"stateMutability": "view",
					"type": "function"
				},
				{
					"inputs": [
						{
							"internalType": "address",
							"name": "recipient",
							"type": "address"
						},
						{
							"internalType": "uint256",
							"name": "amount",
							"type": "uint256"
						}
					],
					"name": "transfer",
					"outputs": [
						{
							"internalType": "bool",
							"name": "",
							"type": "bool"
						}
					],
					"stateMutability": "nonpayable",
					"type": "function"
				},
				{
					"inputs": [
						{
							"internalType": "address",
							"name": "sender",
							"type": "address"
						},
						{
							"internalType": "address",
							"name": "recipient",
							"type": "address"
						},
						{
							"internalType": "uint256",
							"name": "amount",
							"type": "uint256"
						}
					],
					"name": "transferFrom",
					"outputs": [
						{
							"internalType": "bool",
							"name": "",
							"type": "bool"
						}
					],
					"stateMutability": "nonpayable",
					"type": "function"
				},
				{
					"inputs": [
						{
							"internalType": "address",
							"name": "newOwner",
							"type": "address"
						}
					],
					"name": "transferOwnership",
					"outputs": [],
					"stateMutability": "nonpayable",
					"type": "function"
				}
			],
			"devdoc": {
				"kind": "dev",
				"methods": {
					"allowance(address,address)": {
						"details": "See {IERC20-allowance}."
					},
					"approve(address,uint256)": {
						"details": "See {IERC20-approve}. Requirements: - `spender` cannot be the zero address."
					},
					"balanceOf(address)": {
						"details": "See {IERC20-balanceOf}."
					},
					"burn(uint256)": {
						"details": "Destroys `amount` tokens from the caller. See {ERC20-_burn}."
					},
					"burnFrom(address,uint256)": {
						"details": "Destroys `amount` tokens from `account`, deducting from the caller's allowance. See {ERC20-_burn} and {ERC20-allowance}. Requirements: - the caller must have allowance for ``accounts``'s tokens of at least `amount`."
					},
					"decimals()": {
						"details": "Returns the number of decimals used to get its user representation. For example, if `decimals` equals `2`, a balance of `505` tokens should be displayed to a user as `5.05` (`505 / 10 ** 2`). Tokens usually opt for a value of 18, imitating the relationship between Ether and Wei. This is the value {ERC20} uses, unless this function is overridden; NOTE: This information is only used for _display_ purposes: it in no way affects any of the arithmetic of the contract, including {IERC20-balanceOf} and {IERC20-transfer}."
					},
					"decreaseAllowance(address,uint256)": {
						"details": "Atomically decreases the allowance granted to `spender` by the caller. This is an alternative to {approve} that can be used as a mitigation for problems described in {IERC20-approve}. Emits an {Approval} event indicating the updated allowance. Requirements: - `spender` cannot be the zero address. - `spender` must have allowance for the caller of at least `subtractedValue`."
					},
					"increaseAllowance(address,uint256)": {
						"details": "Atomically increases the allowance granted to `spender` by the caller. This is an alternative to {approve} that can be used as a mitigation for problems described in {IERC20-approve}. Emits an {Approval} event indicating the updated allowance. Requirements: - `spender` cannot be the zero address."
					},
					"name()": {
						"details": "Returns the name of the token."
					},
					"owner()": {
						"details": "Returns the address of the current owner."
					},
					"renounceOwnership()": {
						"details": "Leaves the contract without owner. It will not be possible to call `onlyOwner` functions anymore. Can only be called by the current owner. NOTE: Renouncing ownership will leave the contract without an owner, thereby removing any functionality that is only available to the owner."
					},
					"symbol()": {
						"details": "Returns the symbol of the token, usually a shorter version of the name."
					},
					"totalSupply()": {
						"details": "See {IERC20-totalSupply}."
					},
					"transfer(address,uint256)": {
						"details": "See {IERC20-transfer}. Requirements: - `recipient` cannot be the zero address. - the caller must have a balance of at least `amount`."
					},
					"transferFrom(address,address,uint256)": {
						"details": "See {IERC20-transferFrom}. Emits an {Approval} event indicating the updated allowance. This is not required by the EIP. See the note at the beginning of {ERC20}. Requirements: - `sender` and `recipient` cannot be the zero address. - `sender` must have a balance of at least `amount`. - the caller must have allowance for ``sender``'s tokens of at least `amount`."
					},
					"transferOwnership(address)": {
						"details": "Transfers ownership of the contract to a new account (`newOwner`). Can only be called by the current owner."
					}
				},
				"version": 1
			},
			"evm": {
				"assembly": "    /* \"contracts/maximus.sol\":1057:6782  contract MyToken is ERC20, ERC20Burnable, Ownable {... */\n  mstore(0x40, 0x80)\n    /* \"contracts/maximus.sol\":2754:2793  address CONTRACT_ADDRESS =address(this) */\n  0x0e\n  dup1\n  sload\n  not(sub(shl(0xa0, 0x01), 0x01))\n  swap1\n  dup2\n  and\n    /* \"contracts/maximus.sol\":2788:2792  this */\n  address\n    /* \"contracts/maximus.sol\":2754:2793  address CONTRACT_ADDRESS =address(this) */\n  or\n  swap1\n  swap2\n  sstore\n    /* \"contracts/maximus.sol\":2799:2863  address HEX_ADDRESS = 0x2b591e99afE9f32eAA6214f7B7629768c40Eeb39 */\n  0x0f\n  dup1\n  sload\n  dup3\n  and\n    /* \"contracts/maximus.sol\":2821:2863  0x2b591e99afE9f32eAA6214f7B7629768c40Eeb39 */\n  0x2b591e99afe9f32eaa6214f7b7629768c40eeb39\n    /* \"contracts/maximus.sol\":2799:2863  address HEX_ADDRESS = 0x2b591e99afE9f32eAA6214f7B7629768c40Eeb39 */\n  swap1\n  dup2\n  or\n  swap1\n  swap2\n  sstore\n    /* \"contracts/maximus.sol\":2915:2956  IERC20 hex_contract = IERC20(HEX_ADDRESS) */\n  0x10\n  dup1\n  sload\n  dup4\n  and\n  dup3\n  or\n  swap1\n  sstore\n    /* \"contracts/maximus.sol\":2962:3000  HEXToken token = HEXToken(HEX_ADDRESS) */\n  0x11\n  dup1\n  sload\n  swap1\n  swap3\n  and\n  or\n  swap1\n  sstore\n    /* \"contracts/maximus.sol\":1439:1742  constructor(uint256 start_day, uint256 duration) ERC20(\"MyToken\", \"MTK\") {... */\n  callvalue\n  dup1\n  iszero\n  tag_1\n  jumpi\n  0x00\n  dup1\n  revert\ntag_1:\n  pop\n  mload(0x40)\n  sub(codesize, bytecodeSize)\n  dup1\n  bytecodeSize\n  dup4\n  codecopy\n  dup2\n  add\n  0x40\n  dup2\n  swap1\n  mstore\n  tag_2\n  swap2\n  tag_3\n  jump\t// in\ntag_2:\n    /* \"@openzeppelin/contracts/token/ERC20/ERC20.sol\":1963:2076  constructor(string memory name_, string memory symbol_) {... */\n  mload(0x40)\n  dup1\n  0x40\n  add\n  0x40\n  mstore\n  dup1\n  0x07\n  dup2\n  mstore\n  0x20\n  add\n  shl(0xc9, 0x26bcaa37b5b2b7)\n  dup2\n  mstore\n  pop\n  mload(0x40)\n  dup1\n  0x40\n  add\n  0x40\n  mstore\n  dup1\n  0x03\n  dup2\n  mstore\n  0x20\n  add\n  shl(0xe8, 0x4d544b)\n  dup2\n  mstore\n  pop\n    /* \"@openzeppelin/contracts/token/ERC20/ERC20.sol\":2037:2042  name_ */\n  dup2\n    /* \"@openzeppelin/contracts/token/ERC20/ERC20.sol\":2029:2034  _name */\n  0x03\n    /* \"@openzeppelin/contracts/token/ERC20/ERC20.sol\":2029:2042  _name = name_ */\n  swap1\n  dup2\n  tag_8\n  swap2\n  swap1\n  tag_9\n  jump\t// in\ntag_8:\n  pop\n    /* \"@openzeppelin/contracts/token/ERC20/ERC20.sol\":2052:2059  _symbol */\n  0x04\n    /* \"@openzeppelin/contracts/token/ERC20/ERC20.sol\":2052:2069  _symbol = symbol_ */\n  tag_10\n    /* \"@openzeppelin/contracts/token/ERC20/ERC20.sol\":2062:2069  symbol_ */\n  dup3\n    /* \"@openzeppelin/contracts/token/ERC20/ERC20.sol\":2052:2059  _symbol */\n  dup3\n    /* \"@openzeppelin/contracts/token/ERC20/ERC20.sol\":2052:2069  _symbol = symbol_ */\n  tag_9\n  jump\t// in\ntag_10:\n  pop\n    /* \"@openzeppelin/contracts/token/ERC20/ERC20.sol\":1963:2076  constructor(string memory name_, string memory symbol_) {... */\n  pop\n  pop\n    /* \"@openzeppelin/contracts/access/Ownable.sol\":921:953  _transferOwnership(_msgSender()) */\n  tag_12\n    /* \"@openzeppelin/contracts/access/Ownable.sol\":940:952  _msgSender() */\n  tag_13\n    /* \"@openzeppelin/contracts/access/Ownable.sol\":940:950  _msgSender */\n  shl(0x20, tag_14)\n    /* \"@openzeppelin/contracts/access/Ownable.sol\":940:952  _msgSender() */\n  0x20\n  shr\n  jump\t// in\ntag_13:\n    /* \"@openzeppelin/contracts/access/Ownable.sol\":921:939  _transferOwnership */\n  tag_15\n    /* \"@openzeppelin/contracts/access/Ownable.sol\":921:953  _transferOwnership(_msgSender()) */\n  jump\t// in\ntag_12:\n    /* \"contracts/maximus.sol\":1531:1550  MINTING_PHASE_START */\n  0x06\n    /* \"contracts/maximus.sol\":1531:1562  MINTING_PHASE_START = start_day */\n  dup3\n  swap1\n  sstore\n    /* \"contracts/maximus.sol\":1592:1610  start_day+duration */\n  tag_17\n    /* \"contracts/maximus.sol\":1602:1610  duration */\n  dup2\n    /* \"contracts/maximus.sol\":1553:1562  start_day */\n  dup4\n    /* \"contracts/maximus.sol\":1592:1610  start_day+duration */\n  tag_18\n  jump\t// in\ntag_17:\n    /* \"contracts/maximus.sol\":1572:1589  MINTING_PHASE_END */\n  0x07\n    /* \"contracts/maximus.sol\":1572:1610  MINTING_PHASE_END = start_day+duration */\n  sstore\n  pop\n  pop\n    /* \"contracts/maximus.sol\":1620:1637  HAS_STAKE_STARTED */\n  0x08\n    /* \"contracts/maximus.sol\":1620:1643  HAS_STAKE_STARTED=false */\n  dup1\n  sload\n  not(0xffff)\n    /* \"contracts/maximus.sol\":1653:1676  HAS_STAKE_ENDED = false */\n  and\n  swap1\n  sstore\n    /* \"contracts/maximus.sol\":1620:1643  HAS_STAKE_STARTED=false */\n  0x01\n    /* \"contracts/maximus.sol\":1686:1701  REDEMPTION_RATE */\n  0x0b\n    /* \"contracts/maximus.sol\":1686:1703  REDEMPTION_RATE=1 */\n  dup2\n  swap1\n  sstore\n    /* \"contracts/maximus.sol\":1713:1725  STAKE_LENGTH */\n  0x0c\n    /* \"contracts/maximus.sol\":1713:1727  STAKE_LENGTH=1 */\n  sstore\n    /* \"contracts/maximus.sol\":1057:6782  contract MyToken is ERC20, ERC20Burnable, Ownable {... */\n  jump(tag_27)\n    /* \"@openzeppelin/contracts/utils/Context.sol\":640:736  function _msgSender() internal view virtual returns (address) {... */\ntag_14:\n    /* \"@openzeppelin/contracts/utils/Context.sol\":719:729  msg.sender */\n  caller\n  swap1\n    /* \"@openzeppelin/contracts/utils/Context.sol\":640:736  function _msgSender() internal view virtual returns (address) {... */\n  jump\t// out\n    /* \"@openzeppelin/contracts/access/Ownable.sol\":2270:2457  function _transferOwnership(address newOwner) internal virtual {... */\ntag_15:\n    /* \"@openzeppelin/contracts/access/Ownable.sol\":2362:2368  _owner */\n  0x05\n  dup1\n  sload\n  sub(shl(0xa0, 0x01), 0x01)\n    /* \"@openzeppelin/contracts/access/Ownable.sol\":2378:2395  _owner = newOwner */\n  dup4\n  dup2\n  and\n  not(sub(shl(0xa0, 0x01), 0x01))\n  dup4\n  and\n  dup2\n  or\n  swap1\n  swap4\n  sstore\n    /* \"@openzeppelin/contracts/access/Ownable.sol\":2410:2450  OwnershipTransferred(oldOwner, newOwner) */\n  mload(0x40)\n    /* \"@openzeppelin/contracts/access/Ownable.sol\":2362:2368  _owner */\n  swap2\n  and\n  swap2\n    /* \"@openzeppelin/contracts/access/Ownable.sol\":2378:2395  _owner = newOwner */\n  swap1\n    /* \"@openzeppelin/contracts/access/Ownable.sol\":2362:2368  _owner */\n  dup3\n  swap1\n    /* \"@openzeppelin/contracts/access/Ownable.sol\":2410:2450  OwnershipTransferred(oldOwner, newOwner) */\n  0x8be0079c531659141344cd1fd0a4f28419497f9722a3daafe3b4186f6b6457e0\n  swap1\n    /* \"@openzeppelin/contracts/access/Ownable.sol\":2343:2359  address oldOwner */\n  0x00\n  swap1\n    /* \"@openzeppelin/contracts/access/Ownable.sol\":2410:2450  OwnershipTransferred(oldOwner, newOwner) */\n  log3\n    /* \"@openzeppelin/contracts/access/Ownable.sol\":2333:2457  {... */\n  pop\n    /* \"@openzeppelin/contracts/access/Ownable.sol\":2270:2457  function _transferOwnership(address newOwner) internal virtual {... */\n  pop\n  jump\t// out\n    /* \"#utility.yul\":14:259   */\ntag_3:\n    /* \"#utility.yul\":93:99   */\n  0x00\n    /* \"#utility.yul\":101:107   */\n  dup1\n    /* \"#utility.yul\":154:156   */\n  0x40\n    /* \"#utility.yul\":142:151   */\n  dup4\n    /* \"#utility.yul\":133:140   */\n  dup6\n    /* \"#utility.yul\":129:152   */\n  sub\n    /* \"#utility.yul\":125:157   */\n  slt\n    /* \"#utility.yul\":122:174   */\n  iszero\n  tag_29\n  jumpi\n    /* \"#utility.yul\":170:171   */\n  0x00\n    /* \"#utility.yul\":167:168   */\n  dup1\n    /* \"#utility.yul\":160:172   */\n  revert\n    /* \"#utility.yul\":122:174   */\ntag_29:\n  pop\n  pop\n    /* \"#utility.yul\":193:209   */\n  dup1\n  mload\n    /* \"#utility.yul\":249:251   */\n  0x20\n    /* \"#utility.yul\":234:252   */\n  swap1\n  swap2\n  add\n    /* \"#utility.yul\":228:253   */\n  mload\n    /* \"#utility.yul\":193:209   */\n  swap1\n  swap3\n    /* \"#utility.yul\":228:253   */\n  swap1\n  swap2\n  pop\n    /* \"#utility.yul\":14:259   */\n  jump\t// out\n    /* \"#utility.yul\":264:391   */\ntag_22:\n    /* \"#utility.yul\":325:335   */\n  0x4e487b71\n    /* \"#utility.yul\":320:323   */\n  0xe0\n    /* \"#utility.yul\":316:336   */\n  shl\n    /* \"#utility.yul\":313:314   */\n  0x00\n    /* \"#utility.yul\":306:337   */\n  mstore\n    /* \"#utility.yul\":356:360   */\n  0x41\n    /* \"#utility.yul\":353:354   */\n  0x04\n    /* \"#utility.yul\":346:361   */\n  mstore\n    /* \"#utility.yul\":380:384   */\n  0x24\n    /* \"#utility.yul\":377:378   */\n  0x00\n    /* \"#utility.yul\":370:385   */\n  revert\n    /* \"#utility.yul\":396:776   */\ntag_23:\n    /* \"#utility.yul\":475:476   */\n  0x01\n    /* \"#utility.yul\":471:483   */\n  dup2\n  dup2\n  shr\n  swap1\n    /* \"#utility.yul\":518:530   */\n  dup3\n  and\n  dup1\n    /* \"#utility.yul\":539:600   */\n  tag_32\n  jumpi\n    /* \"#utility.yul\":593:597   */\n  0x7f\n    /* \"#utility.yul\":585:591   */\n  dup3\n    /* \"#utility.yul\":581:598   */\n  and\n    /* \"#utility.yul\":571:598   */\n  swap2\n  pop\n    /* \"#utility.yul\":539:600   */\ntag_32:\n    /* \"#utility.yul\":646:648   */\n  0x20\n    /* \"#utility.yul\":638:644   */\n  dup3\n    /* \"#utility.yul\":635:649   */\n  lt\n    /* \"#utility.yul\":615:633   */\n  dup2\n    /* \"#utility.yul\":612:650   */\n  sub\n    /* \"#utility.yul\":609:770   */\n  tag_33\n  jumpi\n    /* \"#utility.yul\":692:702   */\n  0x4e487b71\n    /* \"#utility.yul\":687:690   */\n  0xe0\n    /* \"#utility.yul\":683:703   */\n  shl\n    /* \"#utility.yul\":680:681   */\n  0x00\n    /* \"#utility.yul\":673:704   */\n  mstore\n    /* \"#utility.yul\":727:731   */\n  0x22\n    /* \"#utility.yul\":724:725   */\n  0x04\n    /* \"#utility.yul\":717:732   */\n  mstore\n    /* \"#utility.yul\":755:759   */\n  0x24\n    /* \"#utility.yul\":752:753   */\n  0x00\n    /* \"#utility.yul\":745:760   */\n  revert\n    /* \"#utility.yul\":609:770   */\ntag_33:\n  pop\n    /* \"#utility.yul\":396:776   */\n  swap2\n  swap1\n  pop\n  jump\t// out\n    /* \"#utility.yul\":907:1452   */\ntag_25:\n    /* \"#utility.yul\":1009:1011   */\n  0x1f\n    /* \"#utility.yul\":1004:1007   */\n  dup3\n    /* \"#utility.yul\":1001:1012   */\n  gt\n    /* \"#utility.yul\":998:1446   */\n  iszero\n  tag_36\n  jumpi\n    /* \"#utility.yul\":1045:1046   */\n  0x00\n    /* \"#utility.yul\":1070:1075   */\n  dup2\n    /* \"#utility.yul\":1066:1068   */\n  dup2\n    /* \"#utility.yul\":1059:1076   */\n  mstore\n    /* \"#utility.yul\":1115:1119   */\n  0x20\n    /* \"#utility.yul\":1111:1113   */\n  dup2\n    /* \"#utility.yul\":1101:1120   */\n  keccak256\n    /* \"#utility.yul\":1185:1187   */\n  0x1f\n    /* \"#utility.yul\":1173:1183   */\n  dup6\n    /* \"#utility.yul\":1169:1188   */\n  add\n    /* \"#utility.yul\":1166:1167   */\n  0x05\n    /* \"#utility.yul\":1162:1189   */\n  shr\n    /* \"#utility.yul\":1156:1160   */\n  dup2\n    /* \"#utility.yul\":1152:1190   */\n  add\n    /* \"#utility.yul\":1221:1225   */\n  0x20\n    /* \"#utility.yul\":1209:1219   */\n  dup7\n    /* \"#utility.yul\":1206:1226   */\n  lt\n    /* \"#utility.yul\":1203:1250   */\n  iszero\n  tag_37\n  jumpi\n  pop\n    /* \"#utility.yul\":1244:1248   */\n  dup1\n    /* \"#utility.yul\":1203:1250   */\ntag_37:\n    /* \"#utility.yul\":1299:1301   */\n  0x1f\n    /* \"#utility.yul\":1294:1297   */\n  dup6\n    /* \"#utility.yul\":1290:1302   */\n  add\n    /* \"#utility.yul\":1287:1288   */\n  0x05\n    /* \"#utility.yul\":1283:1303   */\n  shr\n    /* \"#utility.yul\":1277:1281   */\n  dup3\n    /* \"#utility.yul\":1273:1304   */\n  add\n    /* \"#utility.yul\":1263:1304   */\n  swap2\n  pop\n    /* \"#utility.yul\":1354:1436   */\ntag_38:\n    /* \"#utility.yul\":1372:1374   */\n  dup2\n    /* \"#utility.yul\":1365:1370   */\n  dup2\n    /* \"#utility.yul\":1362:1375   */\n  lt\n    /* \"#utility.yul\":1354:1436   */\n  iszero\n  tag_40\n  jumpi\n    /* \"#utility.yul\":1417:1434   */\n  dup3\n  dup2\n  sstore\n    /* \"#utility.yul\":1398:1399   */\n  0x01\n    /* \"#utility.yul\":1387:1400   */\n  add\n    /* \"#utility.yul\":1354:1436   */\n  jump(tag_38)\ntag_40:\n    /* \"#utility.yul\":1358:1361   */\n  pop\n  pop\n  pop\n    /* \"#utility.yul\":998:1446   */\ntag_36:\n    /* \"#utility.yul\":907:1452   */\n  pop\n  pop\n  pop\n  jump\t// out\n    /* \"#utility.yul\":1628:2980   */\ntag_9:\n    /* \"#utility.yul\":1748:1758   */\n  dup2\n  mload\n  sub(shl(0x40, 0x01), 0x01)\n    /* \"#utility.yul\":1770:1800   */\n  dup2\n  gt\n    /* \"#utility.yul\":1767:1823   */\n  iszero\n  tag_44\n  jumpi\n    /* \"#utility.yul\":1803:1821   */\n  tag_44\n  tag_22\n  jump\t// in\ntag_44:\n    /* \"#utility.yul\":1832:1929   */\n  tag_45\n    /* \"#utility.yul\":1922:1928   */\n  dup2\n    /* \"#utility.yul\":1882:1920   */\n  tag_46\n    /* \"#utility.yul\":1914:1918   */\n  dup5\n    /* \"#utility.yul\":1908:1919   */\n  sload\n    /* \"#utility.yul\":1882:1920   */\n  tag_23\n  jump\t// in\ntag_46:\n    /* \"#utility.yul\":1876:1880   */\n  dup5\n    /* \"#utility.yul\":1832:1929   */\n  tag_25\n  jump\t// in\ntag_45:\n    /* \"#utility.yul\":1984:1988   */\n  0x20\n  dup1\n    /* \"#utility.yul\":2048:2050   */\n  0x1f\n    /* \"#utility.yul\":2037:2051   */\n  dup4\n  gt\n    /* \"#utility.yul\":2065:2066   */\n  0x01\n    /* \"#utility.yul\":2060:2723   */\n  dup2\n  eq\n  tag_48\n  jumpi\n    /* \"#utility.yul\":2767:2768   */\n  0x00\n    /* \"#utility.yul\":2784:2790   */\n  dup5\n    /* \"#utility.yul\":2781:2870   */\n  iszero\n  tag_49\n  jumpi\n  pop\n    /* \"#utility.yul\":2836:2855   */\n  dup6\n  dup4\n  add\n    /* \"#utility.yul\":2830:2856   */\n  mload\n    /* \"#utility.yul\":2781:2870   */\ntag_49:\n  not(0x00)\n    /* \"#utility.yul\":1585:1586   */\n  0x03\n    /* \"#utility.yul\":1581:1592   */\n  dup7\n  swap1\n  shl\n    /* \"#utility.yul\":1577:1601   */\n  shr\n    /* \"#utility.yul\":1573:1602   */\n  not\n    /* \"#utility.yul\":1563:1603   */\n  and\n    /* \"#utility.yul\":1609:1610   */\n  0x01\n    /* \"#utility.yul\":1605:1616   */\n  dup6\n  swap1\n  shl\n    /* \"#utility.yul\":1560:1617   */\n  or\n    /* \"#utility.yul\":2883:2964   */\n  dup6\n  sstore\n    /* \"#utility.yul\":2030:2974   */\n  jump(tag_40)\n    /* \"#utility.yul\":2060:2723   */\ntag_48:\n    /* \"#utility.yul\":854:855   */\n  0x00\n    /* \"#utility.yul\":847:861   */\n  dup6\n  dup2\n  mstore\n    /* \"#utility.yul\":891:895   */\n  0x20\n    /* \"#utility.yul\":878:896   */\n  dup2\n  keccak256\n  not(0x1f)\n    /* \"#utility.yul\":2096:2116   */\n  dup7\n  and\n  swap2\n    /* \"#utility.yul\":2214:2450   */\ntag_52:\n    /* \"#utility.yul\":2228:2235   */\n  dup3\n    /* \"#utility.yul\":2225:2226   */\n  dup2\n    /* \"#utility.yul\":2222:2236   */\n  lt\n    /* \"#utility.yul\":2214:2450   */\n  iszero\n  tag_54\n  jumpi\n    /* \"#utility.yul\":2317:2336   */\n  dup9\n  dup7\n  add\n    /* \"#utility.yul\":2311:2337   */\n  mload\n    /* \"#utility.yul\":2296:2338   */\n  dup3\n  sstore\n    /* \"#utility.yul\":2409:2436   */\n  swap5\n  dup5\n  add\n  swap5\n    /* \"#utility.yul\":2377:2378   */\n  0x01\n    /* \"#utility.yul\":2365:2379   */\n  swap1\n  swap2\n  add\n  swap1\n    /* \"#utility.yul\":2244:2263   */\n  dup5\n  add\n    /* \"#utility.yul\":2214:2450   */\n  jump(tag_52)\ntag_54:\n    /* \"#utility.yul\":2218:2221   */\n  pop\n    /* \"#utility.yul\":2478:2484   */\n  dup6\n    /* \"#utility.yul\":2469:2476   */\n  dup3\n    /* \"#utility.yul\":2466:2485   */\n  lt\n    /* \"#utility.yul\":2463:2664   */\n  iszero\n  tag_55\n  jumpi\n    /* \"#utility.yul\":2539:2558   */\n  dup8\n  dup6\n  add\n    /* \"#utility.yul\":2533:2559   */\n  mload\n  not(0x00)\n    /* \"#utility.yul\":2622:2623   */\n  0x03\n    /* \"#utility.yul\":2618:2632   */\n  dup9\n  swap1\n  shl\n    /* \"#utility.yul\":2634:2637   */\n  0xf8\n    /* \"#utility.yul\":2614:2638   */\n  and\n    /* \"#utility.yul\":2610:2647   */\n  shr\n    /* \"#utility.yul\":2606:2648   */\n  not\n    /* \"#utility.yul\":2591:2649   */\n  and\n    /* \"#utility.yul\":2576:2650   */\n  dup2\n  sstore\n    /* \"#utility.yul\":2463:2664   */\ntag_55:\n  pop\n  pop\n  pop\n  pop\n  pop\n    /* \"#utility.yul\":2710:2711   */\n  0x01\n    /* \"#utility.yul\":2694:2708   */\n  swap1\n  dup2\n  shl\n    /* \"#utility.yul\":2690:2712   */\n  add\n    /* \"#utility.yul\":2677:2713   */\n  swap1\n  sstore\n  pop\n    /* \"#utility.yul\":1628:2980   */\n  jump\t// out\n    /* \"#utility.yul\":2985:3207   */\ntag_18:\n    /* \"#utility.yul\":3050:3059   */\n  dup1\n  dup3\n  add\n    /* \"#utility.yul\":3071:3081   */\n  dup1\n  dup3\n  gt\n    /* \"#utility.yul\":3068:3201   */\n  iszero\n  tag_57\n  jumpi\n    /* \"#utility.yul\":3123:3133   */\n  0x4e487b71\n    /* \"#utility.yul\":3118:3121   */\n  0xe0\n    /* \"#utility.yul\":3114:3134   */\n  shl\n    /* \"#utility.yul\":3111:3112   */\n  0x00\n    /* \"#utility.yul\":3104:3135   */\n  mstore\n    /* \"#utility.yul\":3158:3162   */\n  0x11\n    /* \"#utility.yul\":3155:3156   */\n  0x04\n    /* \"#utility.yul\":3148:3163   */\n  mstore\n    /* \"#utility.yul\":3186:3190   */\n  0x24\n    /* \"#utility.yul\":3183:3184   */\n  0x00\n    /* \"#utility.yul\":3176:3191   */\n  revert\n    /* \"#utility.yul\":3068:3201   */\ntag_57:\n    /* \"#utility.yul\":2985:3207   */\n  swap3\n  swap2\n  pop\n  pop\n  jump\t// out\ntag_27:\n    /* \"contracts/maximus.sol\":1057:6782  contract MyToken is ERC20, ERC20Burnable, Ownable {... */\n  dataSize(sub_0)\n  dup1\n  dataOffset(sub_0)\n  0x00\n  codecopy\n  0x00\n  return\nstop\n\nsub_0: assembly {\n        /* \"contracts/maximus.sol\":1057:6782  contract MyToken is ERC20, ERC20Burnable, Ownable {... */\n      mstore(0x40, 0x80)\n      callvalue\n      dup1\n      iszero\n      tag_1\n      jumpi\n      0x00\n      dup1\n      revert\n    tag_1:\n      pop\n      jumpi(tag_2, lt(calldatasize, 0x04))\n      shr(0xe0, calldataload(0x00))\n      dup1\n      0x715018a6\n      gt\n      tag_35\n      jumpi\n      dup1\n      0xa9059cbb\n      gt\n      tag_36\n      jumpi\n      dup1\n      0xdb141222\n      gt\n      tag_37\n      jumpi\n      dup1\n      0xdb141222\n      eq\n      tag_31\n      jumpi\n      dup1\n      0xdd62ed3e\n      eq\n      tag_32\n      jumpi\n      dup1\n      0xe7644fb9\n      eq\n      tag_33\n      jumpi\n      dup1\n      0xf2fde38b\n      eq\n      tag_34\n      jumpi\n      0x00\n      dup1\n      revert\n    tag_37:\n      dup1\n      0xa9059cbb\n      eq\n      tag_27\n      jumpi\n      dup1\n      0xba777bcc\n      eq\n      tag_28\n      jumpi\n      dup1\n      0xd2dea365\n      eq\n      tag_29\n      jumpi\n      dup1\n      0xd720d871\n      eq\n      tag_30\n      jumpi\n      0x00\n      dup1\n      revert\n    tag_36:\n      dup1\n      0x88b022c6\n      gt\n      tag_38\n      jumpi\n      dup1\n      0x88b022c6\n      eq\n      tag_23\n      jumpi\n      dup1\n      0x8da5cb5b\n      eq\n      tag_24\n      jumpi\n      dup1\n      0x95d89b41\n      eq\n      tag_25\n      jumpi\n      dup1\n      0xa457c2d7\n      eq\n      tag_26\n      jumpi\n      0x00\n      dup1\n      revert\n    tag_38:\n      dup1\n      0x715018a6\n      eq\n      tag_19\n      jumpi\n      dup1\n      0x751279b9\n      eq\n      tag_20\n      jumpi\n      dup1\n      0x79cc6790\n      eq\n      tag_21\n      jumpi\n      dup1\n      0x79f82bde\n      eq\n      tag_22\n      jumpi\n      0x00\n      dup1\n      revert\n    tag_35:\n      dup1\n      0x39509351\n      gt\n      tag_39\n      jumpi\n      dup1\n      0x488b4783\n      gt\n      tag_40\n      jumpi\n      dup1\n      0x488b4783\n      eq\n      tag_15\n      jumpi\n      dup1\n      0x4953a509\n      eq\n      tag_16\n      jumpi\n      dup1\n      0x669d751e\n      eq\n      tag_17\n      jumpi\n      dup1\n      0x70a08231\n      eq\n      tag_18\n      jumpi\n      0x00\n      dup1\n      revert\n    tag_40:\n      dup1\n      0x39509351\n      eq\n      tag_11\n      jumpi\n      dup1\n      0x42966c68\n      eq\n      tag_12\n      jumpi\n      dup1\n      0x4537523c\n      eq\n      tag_13\n      jumpi\n      dup1\n      0x46cbbe9e\n      eq\n      tag_14\n      jumpi\n      0x00\n      dup1\n      revert\n    tag_39:\n      dup1\n      0x18160ddd\n      gt\n      tag_41\n      jumpi\n      dup1\n      0x18160ddd\n      eq\n      tag_7\n      jumpi\n      dup1\n      0x23b872dd\n      eq\n      tag_8\n      jumpi\n      dup1\n      0x2b11551a\n      eq\n      tag_9\n      jumpi\n      dup1\n      0x313ce567\n      eq\n      tag_10\n      jumpi\n      0x00\n      dup1\n      revert\n    tag_41:\n      dup1\n      0x2c1a9e\n      eq\n      tag_3\n      jumpi\n      dup1\n      0x037c3f5d\n      eq\n      tag_4\n      jumpi\n      dup1\n      0x06fdde03\n      eq\n      tag_5\n      jumpi\n      dup1\n      0x095ea7b3\n      eq\n      tag_6\n      jumpi\n    tag_2:\n      0x00\n      dup1\n      revert\n        /* \"contracts/maximus.sol\":2399:2749  function percent(uint numerator, uint denominator, uint precision) public view returns(uint quotient) {... */\n    tag_3:\n      tag_42\n      tag_43\n      calldatasize\n      0x04\n      tag_44\n      jump\t// in\n    tag_43:\n      tag_45\n      jump\t// in\n    tag_42:\n      mload(0x40)\n        /* \"#utility.yul\":481:506   */\n      swap1\n      dup2\n      mstore\n        /* \"#utility.yul\":469:471   */\n      0x20\n        /* \"#utility.yul\":454:472   */\n      add\n        /* \"contracts/maximus.sol\":2399:2749  function percent(uint numerator, uint denominator, uint precision) public view returns(uint quotient) {... */\n    tag_46:\n      mload(0x40)\n      dup1\n      swap2\n      sub\n      swap1\n      return\n        /* \"contracts/maximus.sol\":3134:3224  function getMintingPhaseEndDay() public view returns (uint256) {return MINTING_PHASE_END;} */\n    tag_4:\n        /* \"contracts/maximus.sol\":3205:3222  MINTING_PHASE_END */\n      sload(0x07)\n        /* \"contracts/maximus.sol\":3134:3224  function getMintingPhaseEndDay() public view returns (uint256) {return MINTING_PHASE_END;} */\n      jump(tag_42)\n        /* \"@openzeppelin/contracts/token/ERC20/ERC20.sol\":2141:2239  function name() public view virtual override returns (string memory) {... */\n    tag_5:\n      tag_51\n      tag_52\n      jump\t// in\n    tag_51:\n      mload(0x40)\n      tag_46\n      swap2\n      swap1\n      tag_54\n      jump\t// in\n        /* \"@openzeppelin/contracts/token/ERC20/ERC20.sol\":4238:4404  function approve(address spender, uint256 amount) public virtual override returns (bool) {... */\n    tag_6:\n      tag_55\n      tag_56\n      calldatasize\n      0x04\n      tag_57\n      jump\t// in\n    tag_56:\n      tag_58\n      jump\t// in\n    tag_55:\n      mload(0x40)\n        /* \"#utility.yul\":1672:1686   */\n      swap1\n      iszero\n        /* \"#utility.yul\":1665:1687   */\n      iszero\n        /* \"#utility.yul\":1647:1688   */\n      dup2\n      mstore\n        /* \"#utility.yul\":1635:1637   */\n      0x20\n        /* \"#utility.yul\":1620:1638   */\n      add\n        /* \"@openzeppelin/contracts/token/ERC20/ERC20.sol\":4238:4404  function approve(address spender, uint256 amount) public virtual override returns (bool) {... */\n      tag_46\n        /* \"#utility.yul\":1507:1694   */\n      jump\n        /* \"@openzeppelin/contracts/token/ERC20/ERC20.sol\":3229:3335  function totalSupply() public view virtual override returns (uint256) {... */\n    tag_7:\n        /* \"@openzeppelin/contracts/token/ERC20/ERC20.sol\":3316:3328  _totalSupply */\n      sload(0x02)\n        /* \"@openzeppelin/contracts/token/ERC20/ERC20.sol\":3229:3335  function totalSupply() public view virtual override returns (uint256) {... */\n      jump(tag_42)\n        /* \"@openzeppelin/contracts/token/ERC20/ERC20.sol\":4871:5349  function transferFrom(... */\n    tag_8:\n      tag_55\n      tag_65\n      calldatasize\n      0x04\n      tag_66\n      jump\t// in\n    tag_65:\n      tag_67\n      jump\t// in\n        /* \"contracts/maximus.sol\":3493:3577  function getRedemptionRate() public view returns (uint256) {return REDEMPTION_RATE;} */\n    tag_9:\n        /* \"contracts/maximus.sol\":3560:3575  REDEMPTION_RATE */\n      sload(0x0b)\n        /* \"contracts/maximus.sol\":3493:3577  function getRedemptionRate() public view returns (uint256) {return REDEMPTION_RATE;} */\n      jump(tag_42)\n        /* \"contracts/maximus.sol\":1747:1879  function decimals() public view override returns (uint8) {... */\n    tag_10:\n      mload(0x40)\n        /* \"contracts/maximus.sol\":1874:1875  8 */\n      0x08\n        /* \"#utility.yul\":2174:2210   */\n      dup2\n      mstore\n        /* \"#utility.yul\":2162:2164   */\n      0x20\n        /* \"#utility.yul\":2147:2165   */\n      add\n        /* \"contracts/maximus.sol\":1747:1879  function decimals() public view override returns (uint8) {... */\n      tag_46\n        /* \"#utility.yul\":2032:2216   */\n      jump\n        /* \"@openzeppelin/contracts/token/ERC20/ERC20.sol\":5744:5956  function increaseAllowance(address spender, uint256 addedValue) public virtual returns (bool) {... */\n    tag_11:\n      tag_55\n      tag_77\n      calldatasize\n      0x04\n      tag_57\n      jump\t// in\n    tag_77:\n      tag_78\n      jump\t// in\n        /* \"@openzeppelin/contracts/token/ERC20/extensions/ERC20Burnable.sol\":563:652  function burn(uint256 amount) public virtual {... */\n    tag_12:\n      tag_80\n      tag_81\n      calldatasize\n      0x04\n      tag_82\n      jump\t// in\n    tag_81:\n      tag_83\n      jump\t// in\n    tag_80:\n      stop\n        /* \"contracts/maximus.sol\":4172:4596  function pledgeHEX(uint256 amount) public {... */\n    tag_13:\n      tag_80\n      tag_85\n      calldatasize\n      0x04\n      tag_82\n      jump\t// in\n    tag_85:\n      tag_86\n      jump\t// in\n        /* \"contracts/maximus.sol\":3582:3703  function get_hex_day() public view returns (uint256){... */\n    tag_14:\n      tag_42\n      tag_88\n      jump\t// in\n        /* \"contracts/maximus.sol\":3035:3129  function getMintingPhaseStartDay() public view returns (uint256) {return MINTING_PHASE_START;} */\n    tag_15:\n        /* \"contracts/maximus.sol\":3108:3127  MINTING_PHASE_START */\n      sload(0x06)\n        /* \"contracts/maximus.sol\":3035:3129  function getMintingPhaseStartDay() public view returns (uint256) {return MINTING_PHASE_START;} */\n      jump(tag_42)\n        /* \"contracts/maximus.sol\":6129:6769  function endStakeHEX(uint256 stakeIndex,uint40 stakeIdParam ) public {... */\n    tag_16:\n      tag_80\n      tag_94\n      calldatasize\n      0x04\n      tag_95\n      jump\t// in\n    tag_94:\n      tag_96\n      jump\t// in\n        /* \"contracts/maximus.sol\":3708:3807  function getBalanceHEX() public view returns (uint256) {return hex_contract.balanceOf(msg.sender);} */\n    tag_17:\n      tag_42\n      tag_98\n      jump\t// in\n        /* \"@openzeppelin/contracts/token/ERC20/ERC20.sol\":3393:3518  function balanceOf(address account) public view virtual override returns (uint256) {... */\n    tag_18:\n      tag_42\n      tag_101\n      calldatasize\n      0x04\n      tag_102\n      jump\t// in\n    tag_101:\n      sub(shl(0xa0, 0x01), 0x01)\n        /* \"@openzeppelin/contracts/token/ERC20/ERC20.sol\":3493:3511  _balances[account] */\n      and\n        /* \"@openzeppelin/contracts/token/ERC20/ERC20.sol\":3467:3474  uint256 */\n      0x00\n        /* \"@openzeppelin/contracts/token/ERC20/ERC20.sol\":3493:3511  _balances[account] */\n      swap1\n      dup2\n      mstore\n      0x20\n      dup2\n      swap1\n      mstore\n      0x40\n      swap1\n      keccak256\n      sload\n      swap1\n        /* \"@openzeppelin/contracts/token/ERC20/ERC20.sol\":3393:3518  function balanceOf(address account) public view virtual override returns (uint256) {... */\n      jump\n        /* \"@openzeppelin/contracts/access/Ownable.sol\":1668:1769  function renounceOwnership() public virtual onlyOwner {... */\n    tag_19:\n      tag_80\n      tag_106\n      jump\t// in\n        /* \"contracts/maximus.sol\":3318:3397  function getStakeEndDay() public view returns (uint256) {return STAKE_END_DAY;} */\n    tag_20:\n        /* \"contracts/maximus.sol\":3382:3395  STAKE_END_DAY */\n      sload(0x0a)\n        /* \"contracts/maximus.sol\":3318:3397  function getStakeEndDay() public view returns (uint256) {return STAKE_END_DAY;} */\n      jump(tag_42)\n        /* \"@openzeppelin/contracts/token/ERC20/extensions/ERC20Burnable.sol\":958:1319  function burnFrom(address account, uint256 amount) public virtual {... */\n    tag_21:\n      tag_80\n      tag_111\n      calldatasize\n      0x04\n      tag_57\n      jump\t// in\n    tag_111:\n      tag_112\n      jump\t// in\n        /* \"contracts/maximus.sol\":3936:4051  function getNumStake() public view returns(uint256) {... */\n    tag_22:\n      tag_42\n      tag_114\n      jump\t// in\n        /* \"contracts/maximus.sol\":3407:3488  function hasStakeStarted() public view returns (bool) {return HAS_STAKE_STARTED;} */\n    tag_23:\n        /* \"contracts/maximus.sol\":3469:3486  HAS_STAKE_STARTED */\n      and(0xff, sload(0x08))\n        /* \"contracts/maximus.sol\":3407:3488  function hasStakeStarted() public view returns (bool) {return HAS_STAKE_STARTED;} */\n      jump(tag_55)\n        /* \"@openzeppelin/contracts/access/Ownable.sol\":1036:1121  function owner() public view virtual returns (address) {... */\n    tag_24:\n        /* \"@openzeppelin/contracts/access/Ownable.sol\":1108:1114  _owner */\n      sload(0x05)\n        /* \"@openzeppelin/contracts/access/Ownable.sol\":1036:1121  function owner() public view virtual returns (address) {... */\n      mload(0x40)\n      sub(shl(0xa0, 0x01), 0x01)\n        /* \"@openzeppelin/contracts/access/Ownable.sol\":1108:1114  _owner */\n      swap1\n      swap2\n      and\n        /* \"#utility.yul\":3094:3145   */\n      dup2\n      mstore\n        /* \"#utility.yul\":3082:3084   */\n      0x20\n        /* \"#utility.yul\":3067:3085   */\n      add\n        /* \"@openzeppelin/contracts/access/Ownable.sol\":1036:1121  function owner() public view virtual returns (address) {... */\n      tag_46\n        /* \"#utility.yul\":2948:3151   */\n      jump\n        /* \"@openzeppelin/contracts/token/ERC20/ERC20.sol\":2352:2454  function symbol() public view virtual override returns (string memory) {... */\n    tag_25:\n      tag_51\n      tag_124\n      jump\t// in\n        /* \"@openzeppelin/contracts/token/ERC20/ERC20.sol\":6443:6848  function decreaseAllowance(address spender, uint256 subtractedValue) public virtual returns (bool) {... */\n    tag_26:\n      tag_55\n      tag_127\n      calldatasize\n      0x04\n      tag_57\n      jump\t// in\n    tag_127:\n      tag_128\n      jump\t// in\n        /* \"@openzeppelin/contracts/token/ERC20/ERC20.sol\":3721:3893  function transfer(address recipient, uint256 amount) public virtual override returns (bool) {... */\n    tag_27:\n      tag_55\n      tag_131\n      calldatasize\n      0x04\n      tag_57\n      jump\t// in\n    tag_131:\n      tag_132\n      jump\t// in\n        /* \"contracts/maximus.sol\":5267:5868  function stakeHEX() public {... */\n    tag_28:\n      tag_80\n      tag_135\n      jump\t// in\n        /* \"contracts/maximus.sol\":1884:2111  function get_amount_redeem_hex(uint amt) public view returns (uint256){... */\n    tag_29:\n      tag_42\n      tag_137\n      calldatasize\n      0x04\n      tag_82\n      jump\t// in\n    tag_137:\n      tag_138\n      jump\t// in\n        /* \"contracts/maximus.sol\":3812:3931  function getAllowanceHEX() public view returns (uint256) {return hex_contract.allowance(msg.sender, CONTRACT_ADDRESS);} */\n    tag_30:\n      tag_42\n      tag_141\n      jump\t// in\n        /* \"contracts/maximus.sol\":3230:3313  function getStakeStartDay() public view returns (uint256) {return STAKE_START_DAY;} */\n    tag_31:\n        /* \"contracts/maximus.sol\":3296:3311  STAKE_START_DAY */\n      sload(0x09)\n        /* \"contracts/maximus.sol\":3230:3313  function getStakeStartDay() public view returns (uint256) {return STAKE_START_DAY;} */\n      jump(tag_42)\n        /* \"@openzeppelin/contracts/token/ERC20/ERC20.sol\":3951:4100  function allowance(address owner, address spender) public view virtual override returns (uint256) {... */\n    tag_32:\n      tag_42\n      tag_147\n      calldatasize\n      0x04\n      tag_148\n      jump\t// in\n    tag_147:\n      sub(shl(0xa0, 0x01), 0x01)\n        /* \"@openzeppelin/contracts/token/ERC20/ERC20.sol\":4066:4084  _allowances[owner] */\n      swap2\n      dup3\n      and\n        /* \"@openzeppelin/contracts/token/ERC20/ERC20.sol\":4040:4047  uint256 */\n      0x00\n        /* \"@openzeppelin/contracts/token/ERC20/ERC20.sol\":4066:4084  _allowances[owner] */\n      swap1\n      dup2\n      mstore\n        /* \"@openzeppelin/contracts/token/ERC20/ERC20.sol\":4066:4077  _allowances */\n      0x01\n        /* \"@openzeppelin/contracts/token/ERC20/ERC20.sol\":4066:4084  _allowances[owner] */\n      0x20\n      swap1\n      dup2\n      mstore\n      0x40\n      dup1\n      dup4\n      keccak256\n        /* \"@openzeppelin/contracts/token/ERC20/ERC20.sol\":4066:4093  _allowances[owner][spender] */\n      swap4\n      swap1\n      swap5\n      and\n      dup3\n      mstore\n      swap2\n      swap1\n      swap2\n      mstore\n      keccak256\n      sload\n      swap1\n        /* \"@openzeppelin/contracts/token/ERC20/ERC20.sol\":3951:4100  function allowance(address owner, address spender) public view virtual override returns (uint256) {... */\n      jump\n        /* \"contracts/maximus.sol\":4601:5022  function redeemHEX(uint256 amount_MAXI) public {... */\n    tag_33:\n      tag_80\n      tag_152\n      calldatasize\n      0x04\n      tag_82\n      jump\t// in\n    tag_152:\n      tag_153\n      jump\t// in\n        /* \"@openzeppelin/contracts/access/Ownable.sol\":1918:2116  function transferOwnership(address newOwner) public virtual onlyOwner {... */\n    tag_34:\n      tag_80\n      tag_155\n      calldatasize\n      0x04\n      tag_102\n      jump\t// in\n    tag_155:\n      tag_156\n      jump\t// in\n        /* \"contracts/maximus.sol\":2399:2749  function percent(uint numerator, uint denominator, uint precision) public view returns(uint quotient) {... */\n    tag_45:\n        /* \"contracts/maximus.sol\":2486:2499  uint quotient */\n      0x00\n      dup1\n        /* \"contracts/maximus.sol\":2599:2610  precision+1 */\n      tag_158\n        /* \"contracts/maximus.sol\":2599:2608  precision */\n      dup4\n        /* \"contracts/maximus.sol\":2609:2610  1 */\n      0x01\n        /* \"contracts/maximus.sol\":2599:2610  precision+1 */\n      tag_159\n      jump\t// in\n    tag_158:\n        /* \"contracts/maximus.sol\":2592:2611  10 ** (precision+1) */\n      tag_160\n      swap1\n        /* \"contracts/maximus.sol\":2592:2594  10 */\n      0x0a\n        /* \"contracts/maximus.sol\":2592:2611  10 ** (precision+1) */\n      tag_161\n      jump\t// in\n    tag_160:\n        /* \"contracts/maximus.sol\":2580:2611  numerator * 10 ** (precision+1) */\n      tag_162\n      swap1\n        /* \"contracts/maximus.sol\":2580:2589  numerator */\n      dup7\n        /* \"contracts/maximus.sol\":2580:2611  numerator * 10 ** (precision+1) */\n      tag_163\n      jump\t// in\n    tag_162:\n        /* \"contracts/maximus.sol\":2561:2611  uint _numerator  = numerator * 10 ** (precision+1) */\n      swap1\n      pop\n        /* \"contracts/maximus.sol\":2660:2674  uint _quotient */\n      0x00\n        /* \"contracts/maximus.sol\":2713:2715  10 */\n      0x0a\n        /* \"contracts/maximus.sol\":2680:2704  _numerator / denominator */\n      tag_164\n        /* \"contracts/maximus.sol\":2693:2704  denominator */\n      dup7\n        /* \"contracts/maximus.sol\":2561:2611  uint _numerator  = numerator * 10 ** (precision+1) */\n      dup5\n        /* \"contracts/maximus.sol\":2680:2704  _numerator / denominator */\n      tag_165\n      jump\t// in\n    tag_164:\n        /* \"contracts/maximus.sol\":2679:2709  (_numerator / denominator) + 5 */\n      tag_166\n      swap1\n        /* \"contracts/maximus.sol\":2708:2709  5 */\n      0x05\n        /* \"contracts/maximus.sol\":2679:2709  (_numerator / denominator) + 5 */\n      tag_159\n      jump\t// in\n    tag_166:\n        /* \"contracts/maximus.sol\":2678:2715  ((_numerator / denominator) + 5) / 10 */\n      tag_167\n      swap2\n      swap1\n      tag_165\n      jump\t// in\n    tag_167:\n        /* \"contracts/maximus.sol\":2660:2715  uint _quotient =  ((_numerator / denominator) + 5) / 10 */\n      swap7\n        /* \"contracts/maximus.sol\":2399:2749  function percent(uint numerator, uint denominator, uint precision) public view returns(uint quotient) {... */\n      swap6\n      pop\n      pop\n      pop\n      pop\n      pop\n      pop\n      jump\t// out\n        /* \"@openzeppelin/contracts/token/ERC20/ERC20.sol\":2141:2239  function name() public view virtual override returns (string memory) {... */\n    tag_52:\n        /* \"@openzeppelin/contracts/token/ERC20/ERC20.sol\":2195:2208  string memory */\n      0x60\n        /* \"@openzeppelin/contracts/token/ERC20/ERC20.sol\":2227:2232  _name */\n      0x03\n        /* \"@openzeppelin/contracts/token/ERC20/ERC20.sol\":2220:2232  return _name */\n      dup1\n      sload\n      tag_170\n      swap1\n      tag_171\n      jump\t// in\n    tag_170:\n      dup1\n      0x1f\n      add\n      0x20\n      dup1\n      swap2\n      div\n      mul\n      0x20\n      add\n      mload(0x40)\n      swap1\n      dup2\n      add\n      0x40\n      mstore\n      dup1\n      swap3\n      swap2\n      swap1\n      dup2\n      dup2\n      mstore\n      0x20\n      add\n      dup3\n      dup1\n      sload\n      tag_172\n      swap1\n      tag_171\n      jump\t// in\n    tag_172:\n      dup1\n      iszero\n      tag_173\n      jumpi\n      dup1\n      0x1f\n      lt\n      tag_174\n      jumpi\n      0x0100\n      dup1\n      dup4\n      sload\n      div\n      mul\n      dup4\n      mstore\n      swap2\n      0x20\n      add\n      swap2\n      jump(tag_173)\n    tag_174:\n      dup3\n      add\n      swap2\n      swap1\n      0x00\n      mstore\n      keccak256(0x00, 0x20)\n      swap1\n    tag_175:\n      dup2\n      sload\n      dup2\n      mstore\n      swap1\n      0x01\n      add\n      swap1\n      0x20\n      add\n      dup1\n      dup4\n      gt\n      tag_175\n      jumpi\n      dup3\n      swap1\n      sub\n      0x1f\n      and\n      dup3\n      add\n      swap2\n    tag_173:\n      pop\n      pop\n      pop\n      pop\n      pop\n      swap1\n      pop\n        /* \"@openzeppelin/contracts/token/ERC20/ERC20.sol\":2141:2239  function name() public view virtual override returns (string memory) {... */\n      swap1\n      jump\t// out\n        /* \"@openzeppelin/contracts/token/ERC20/ERC20.sol\":4238:4404  function approve(address spender, uint256 amount) public virtual override returns (bool) {... */\n    tag_58:\n        /* \"@openzeppelin/contracts/token/ERC20/ERC20.sol\":4321:4325  bool */\n      0x00\n        /* \"@openzeppelin/contracts/token/ERC20/ERC20.sol\":4337:4376  _approve(_msgSender(), spender, amount) */\n      tag_177\n        /* \"@openzeppelin/contracts/utils/Context.sol\":719:729  msg.sender */\n      caller\n        /* \"@openzeppelin/contracts/token/ERC20/ERC20.sol\":4360:4367  spender */\n      dup5\n        /* \"@openzeppelin/contracts/token/ERC20/ERC20.sol\":4369:4375  amount */\n      dup5\n        /* \"@openzeppelin/contracts/token/ERC20/ERC20.sol\":4337:4345  _approve */\n      tag_180\n        /* \"@openzeppelin/contracts/token/ERC20/ERC20.sol\":4337:4376  _approve(_msgSender(), spender, amount) */\n      jump\t// in\n    tag_177:\n      pop\n        /* \"@openzeppelin/contracts/token/ERC20/ERC20.sol\":4393:4397  true */\n      0x01\n        /* \"@openzeppelin/contracts/token/ERC20/ERC20.sol\":4238:4404  function approve(address spender, uint256 amount) public virtual override returns (bool) {... */\n    tag_176:\n      swap3\n      swap2\n      pop\n      pop\n      jump\t// out\n        /* \"@openzeppelin/contracts/token/ERC20/ERC20.sol\":4871:5349  function transferFrom(... */\n    tag_67:\n        /* \"@openzeppelin/contracts/token/ERC20/ERC20.sol\":5007:5011  bool */\n      0x00\n        /* \"@openzeppelin/contracts/token/ERC20/ERC20.sol\":5023:5059  _transfer(sender, recipient, amount) */\n      tag_183\n        /* \"@openzeppelin/contracts/token/ERC20/ERC20.sol\":5033:5039  sender */\n      dup5\n        /* \"@openzeppelin/contracts/token/ERC20/ERC20.sol\":5041:5050  recipient */\n      dup5\n        /* \"@openzeppelin/contracts/token/ERC20/ERC20.sol\":5052:5058  amount */\n      dup5\n        /* \"@openzeppelin/contracts/token/ERC20/ERC20.sol\":5023:5032  _transfer */\n      tag_184\n        /* \"@openzeppelin/contracts/token/ERC20/ERC20.sol\":5023:5059  _transfer(sender, recipient, amount) */\n      jump\t// in\n    tag_183:\n      sub(shl(0xa0, 0x01), 0x01)\n        /* \"@openzeppelin/contracts/token/ERC20/ERC20.sol\":5097:5116  _allowances[sender] */\n      dup5\n      and\n        /* \"@openzeppelin/contracts/token/ERC20/ERC20.sol\":5070:5094  uint256 currentAllowance */\n      0x00\n        /* \"@openzeppelin/contracts/token/ERC20/ERC20.sol\":5097:5116  _allowances[sender] */\n      swap1\n      dup2\n      mstore\n        /* \"@openzeppelin/contracts/token/ERC20/ERC20.sol\":5097:5108  _allowances */\n      0x01\n        /* \"@openzeppelin/contracts/token/ERC20/ERC20.sol\":5097:5116  _allowances[sender] */\n      0x20\n      swap1\n      dup2\n      mstore\n      0x40\n      dup1\n      dup4\n      keccak256\n        /* \"@openzeppelin/contracts/utils/Context.sol\":719:729  msg.sender */\n      caller\n        /* \"@openzeppelin/contracts/token/ERC20/ERC20.sol\":5097:5130  _allowances[sender][_msgSender()] */\n      dup5\n      mstore\n      swap1\n      swap2\n      mstore\n      swap1\n      keccak256\n      sload\n        /* \"@openzeppelin/contracts/token/ERC20/ERC20.sol\":5148:5174  currentAllowance >= amount */\n      dup3\n      dup2\n      lt\n      iszero\n        /* \"@openzeppelin/contracts/token/ERC20/ERC20.sol\":5140:5219  require(currentAllowance >= amount, \"ERC20: transfer amount exceeds allowance\") */\n      tag_186\n      jumpi\n      mload(0x40)\n      shl(0xe5, 0x461bcd)\n      dup2\n      mstore\n        /* \"#utility.yul\":6039:6041   */\n      0x20\n        /* \"@openzeppelin/contracts/token/ERC20/ERC20.sol\":5140:5219  require(currentAllowance >= amount, \"ERC20: transfer amount exceeds allowance\") */\n      0x04\n      dup3\n      add\n        /* \"#utility.yul\":6021:6042   */\n      mstore\n        /* \"#utility.yul\":6078:6080   */\n      0x28\n        /* \"#utility.yul\":6058:6076   */\n      0x24\n      dup3\n      add\n        /* \"#utility.yul\":6051:6081   */\n      mstore\n        /* \"#utility.yul\":6117:6151   */\n      0x45524332303a207472616e7366657220616d6f756e7420657863656564732061\n        /* \"#utility.yul\":6097:6115   */\n      0x44\n      dup3\n      add\n        /* \"#utility.yul\":6090:6152   */\n      mstore\n      shl(0xc0, 0x6c6c6f77616e6365)\n        /* \"#utility.yul\":6168:6186   */\n      0x64\n      dup3\n      add\n        /* \"#utility.yul\":6161:6199   */\n      mstore\n        /* \"#utility.yul\":6216:6235   */\n      0x84\n      add\n        /* \"@openzeppelin/contracts/token/ERC20/ERC20.sol\":5140:5219  require(currentAllowance >= amount, \"ERC20: transfer amount exceeds allowance\") */\n    tag_187:\n      mload(0x40)\n      dup1\n      swap2\n      sub\n      swap1\n      revert\n    tag_186:\n        /* \"@openzeppelin/contracts/token/ERC20/ERC20.sol\":5253:5310  _approve(sender, _msgSender(), currentAllowance - amount) */\n      tag_189\n        /* \"@openzeppelin/contracts/token/ERC20/ERC20.sol\":5262:5268  sender */\n      dup6\n        /* \"@openzeppelin/contracts/utils/Context.sol\":719:729  msg.sender */\n      caller\n        /* \"@openzeppelin/contracts/token/ERC20/ERC20.sol\":5303:5309  amount */\n      dup6\n        /* \"@openzeppelin/contracts/token/ERC20/ERC20.sol\":5284:5300  currentAllowance */\n      dup5\n        /* \"@openzeppelin/contracts/token/ERC20/ERC20.sol\":5284:5309  currentAllowance - amount */\n      sub\n        /* \"@openzeppelin/contracts/token/ERC20/ERC20.sol\":5253:5261  _approve */\n      tag_180\n        /* \"@openzeppelin/contracts/token/ERC20/ERC20.sol\":5253:5310  _approve(sender, _msgSender(), currentAllowance - amount) */\n      jump\t// in\n    tag_189:\n      pop\n        /* \"@openzeppelin/contracts/token/ERC20/ERC20.sol\":5338:5342  true */\n      0x01\n      swap5\n        /* \"@openzeppelin/contracts/token/ERC20/ERC20.sol\":4871:5349  function transferFrom(... */\n      swap4\n      pop\n      pop\n      pop\n      pop\n      jump\t// out\n        /* \"@openzeppelin/contracts/token/ERC20/ERC20.sol\":5744:5956  function increaseAllowance(address spender, uint256 addedValue) public virtual returns (bool) {... */\n    tag_78:\n        /* \"@openzeppelin/contracts/utils/Context.sol\":719:729  msg.sender */\n      caller\n        /* \"@openzeppelin/contracts/token/ERC20/ERC20.sol\":5832:5836  bool */\n      0x00\n        /* \"@openzeppelin/contracts/token/ERC20/ERC20.sol\":5880:5905  _allowances[_msgSender()] */\n      dup2\n      dup2\n      mstore\n        /* \"@openzeppelin/contracts/token/ERC20/ERC20.sol\":5880:5891  _allowances */\n      0x01\n        /* \"@openzeppelin/contracts/token/ERC20/ERC20.sol\":5880:5905  _allowances[_msgSender()] */\n      0x20\n      swap1\n      dup2\n      mstore\n      0x40\n      dup1\n      dup4\n      keccak256\n      sub(shl(0xa0, 0x01), 0x01)\n        /* \"@openzeppelin/contracts/token/ERC20/ERC20.sol\":5880:5914  _allowances[_msgSender()][spender] */\n      dup8\n      and\n      dup5\n      mstore\n      swap1\n      swap2\n      mstore\n      dup2\n      keccak256\n      sload\n        /* \"@openzeppelin/contracts/token/ERC20/ERC20.sol\":5832:5836  bool */\n      swap1\n      swap2\n        /* \"@openzeppelin/contracts/token/ERC20/ERC20.sol\":5848:5928  _approve(_msgSender(), spender, _allowances[_msgSender()][spender] + addedValue) */\n      tag_177\n      swap2\n        /* \"@openzeppelin/contracts/token/ERC20/ERC20.sol\":5871:5878  spender */\n      dup6\n      swap1\n        /* \"@openzeppelin/contracts/token/ERC20/ERC20.sol\":5880:5927  _allowances[_msgSender()][spender] + addedValue */\n      tag_197\n      swap1\n        /* \"@openzeppelin/contracts/token/ERC20/ERC20.sol\":5917:5927  addedValue */\n      dup7\n      swap1\n        /* \"@openzeppelin/contracts/token/ERC20/ERC20.sol\":5880:5927  _allowances[_msgSender()][spender] + addedValue */\n      tag_159\n      jump\t// in\n    tag_197:\n        /* \"@openzeppelin/contracts/token/ERC20/ERC20.sol\":5848:5856  _approve */\n      tag_180\n        /* \"@openzeppelin/contracts/token/ERC20/ERC20.sol\":5848:5928  _approve(_msgSender(), spender, _allowances[_msgSender()][spender] + addedValue) */\n      jump\t// in\n        /* \"@openzeppelin/contracts/token/ERC20/extensions/ERC20Burnable.sol\":563:652  function burn(uint256 amount) public virtual {... */\n    tag_83:\n        /* \"@openzeppelin/contracts/token/ERC20/extensions/ERC20Burnable.sol\":618:645  _burn(_msgSender(), amount) */\n      tag_199\n        /* \"@openzeppelin/contracts/utils/Context.sol\":719:729  msg.sender */\n      caller\n        /* \"@openzeppelin/contracts/token/ERC20/extensions/ERC20Burnable.sol\":638:644  amount */\n      dup3\n        /* \"@openzeppelin/contracts/token/ERC20/extensions/ERC20Burnable.sol\":618:623  _burn */\n      tag_201\n        /* \"@openzeppelin/contracts/token/ERC20/extensions/ERC20Burnable.sol\":618:645  _burn(_msgSender(), amount) */\n      jump\t// in\n    tag_199:\n        /* \"@openzeppelin/contracts/token/ERC20/extensions/ERC20Burnable.sol\":563:652  function burn(uint256 amount) public virtual {... */\n      pop\n      jump\t// out\n        /* \"contracts/maximus.sol\":4172:4596  function pledgeHEX(uint256 amount) public {... */\n    tag_86:\n        /* \"contracts/maximus.sol\":4268:4285  MINTING_PHASE_END */\n      sload(0x07)\n        /* \"contracts/maximus.sol\":4241:4252  HEX_ADDRESS */\n      0x0f\n      0x00\n      swap1\n      sload\n      swap1\n      0x0100\n      exp\n      swap1\n      div\n      sub(shl(0xa0, 0x01), 0x01)\n      and\n      sub(shl(0xa0, 0x01), 0x01)\n        /* \"contracts/maximus.sol\":4232:4264  HEXToken(HEX_ADDRESS).currentDay */\n      and\n      0x5c9302c9\n        /* \"contracts/maximus.sol\":4232:4266  HEXToken(HEX_ADDRESS).currentDay() */\n      mload(0x40)\n      dup2\n      0xffffffff\n      and\n      0xe0\n      shl\n      dup2\n      mstore\n      0x04\n      add\n      0x20\n      mload(0x40)\n      dup1\n      dup4\n      sub\n      dup2\n      dup7\n      gas\n      staticcall\n      iszero\n      dup1\n      iszero\n      tag_204\n      jumpi\n      returndatasize\n      0x00\n      dup1\n      returndatacopy\n      revert(0x00, returndatasize)\n    tag_204:\n      pop\n      pop\n      pop\n      pop\n      mload(0x40)\n      returndatasize\n      not(0x1f)\n      0x1f\n      dup3\n      add\n      and\n      dup3\n      add\n      dup1\n      0x40\n      mstore\n      pop\n      dup2\n      add\n      swap1\n      tag_205\n      swap2\n      swap1\n      tag_206\n      jump\t// in\n    tag_205:\n        /* \"contracts/maximus.sol\":4232:4285  HEXToken(HEX_ADDRESS).currentDay()<=MINTING_PHASE_END */\n      gt\n      iszero\n        /* \"contracts/maximus.sol\":4224:4311  require(HEXToken(HEX_ADDRESS).currentDay()<=MINTING_PHASE_END, \"Minting Phase is Done\") */\n      tag_207\n      jumpi\n      mload(0x40)\n      shl(0xe5, 0x461bcd)\n      dup2\n      mstore\n        /* \"#utility.yul\":6637:6639   */\n      0x20\n        /* \"contracts/maximus.sol\":4224:4311  require(HEXToken(HEX_ADDRESS).currentDay()<=MINTING_PHASE_END, \"Minting Phase is Done\") */\n      0x04\n      dup3\n      add\n        /* \"#utility.yul\":6619:6640   */\n      mstore\n        /* \"#utility.yul\":6676:6678   */\n      0x15\n        /* \"#utility.yul\":6656:6674   */\n      0x24\n      dup3\n      add\n        /* \"#utility.yul\":6649:6679   */\n      mstore\n      shl(0x58, 0x4d696e74696e6720506861736520697320446f6e65)\n        /* \"#utility.yul\":6695:6713   */\n      0x44\n      dup3\n      add\n        /* \"#utility.yul\":6688:6739   */\n      mstore\n        /* \"#utility.yul\":6756:6774   */\n      0x64\n      add\n        /* \"contracts/maximus.sol\":4224:4311  require(HEXToken(HEX_ADDRESS).currentDay()<=MINTING_PHASE_END, \"Minting Phase is Done\") */\n      tag_187\n        /* \"#utility.yul\":6435:6780   */\n      jump\n        /* \"contracts/maximus.sol\":4224:4311  require(HEXToken(HEX_ADDRESS).currentDay()<=MINTING_PHASE_END, \"Minting Phase is Done\") */\n    tag_207:\n        /* \"contracts/maximus.sol\":4329:4341  hex_contract */\n      sload(0x10)\n        /* \"contracts/maximus.sol\":4364:4380  CONTRACT_ADDRESS */\n      sload(0x0e)\n        /* \"contracts/maximus.sol\":4329:4381  hex_contract.allowance(msg.sender, CONTRACT_ADDRESS) */\n      mload(0x40)\n      shl(0xe1, 0x6eb1769f)\n      dup2\n      mstore\n        /* \"contracts/maximus.sol\":4352:4362  msg.sender */\n      caller\n        /* \"contracts/maximus.sol\":4329:4381  hex_contract.allowance(msg.sender, CONTRACT_ADDRESS) */\n      0x04\n      dup3\n      add\n        /* \"#utility.yul\":6997:7031   */\n      mstore\n      sub(shl(0xa0, 0x01), 0x01)\n        /* \"contracts/maximus.sol\":4364:4380  CONTRACT_ADDRESS */\n      swap2\n      dup3\n      and\n        /* \"#utility.yul\":7047:7065   */\n      0x24\n      dup3\n      add\n        /* \"#utility.yul\":7040:7083   */\n      mstore\n        /* \"contracts/maximus.sol\":4383:4389  amount */\n      dup4\n      swap3\n        /* \"contracts/maximus.sol\":4329:4341  hex_contract */\n      swap2\n      swap1\n      swap2\n      and\n      swap1\n        /* \"contracts/maximus.sol\":4329:4351  hex_contract.allowance */\n      0xdd62ed3e\n      swap1\n        /* \"#utility.yul\":6932:6950   */\n      0x44\n      add\n        /* \"contracts/maximus.sol\":4329:4381  hex_contract.allowance(msg.sender, CONTRACT_ADDRESS) */\n      0x20\n      mload(0x40)\n      dup1\n      dup4\n      sub\n      dup2\n      dup7\n      gas\n      staticcall\n      iszero\n      dup1\n      iszero\n      tag_213\n      jumpi\n      returndatasize\n      0x00\n      dup1\n      returndatacopy\n      revert(0x00, returndatasize)\n    tag_213:\n      pop\n      pop\n      pop\n      pop\n      mload(0x40)\n      returndatasize\n      not(0x1f)\n      0x1f\n      dup3\n      add\n      and\n      dup3\n      add\n      dup1\n      0x40\n      mstore\n      pop\n      dup2\n      add\n      swap1\n      tag_214\n      swap2\n      swap1\n      tag_206\n      jump\t// in\n    tag_214:\n        /* \"contracts/maximus.sol\":4329:4389  hex_contract.allowance(msg.sender, CONTRACT_ADDRESS)>=amount */\n      lt\n      iszero\n        /* \"contracts/maximus.sol\":4321:4465  require(hex_contract.allowance(msg.sender, CONTRACT_ADDRESS)>=amount, \"Please approve contract address as allowed spender in the hex contract.\") */\n      tag_215\n      jumpi\n      mload(0x40)\n      shl(0xe5, 0x461bcd)\n      dup2\n      mstore\n        /* \"#utility.yul\":7296:7298   */\n      0x20\n        /* \"contracts/maximus.sol\":4321:4465  require(hex_contract.allowance(msg.sender, CONTRACT_ADDRESS)>=amount, \"Please approve contract address as allowed spender in the hex contract.\") */\n      0x04\n      dup3\n      add\n        /* \"#utility.yul\":7278:7299   */\n      mstore\n        /* \"#utility.yul\":7335:7337   */\n      0x47\n        /* \"#utility.yul\":7315:7333   */\n      0x24\n      dup3\n      add\n        /* \"#utility.yul\":7308:7338   */\n      mstore\n        /* \"#utility.yul\":7374:7408   */\n      0x506c6561736520617070726f766520636f6e7472616374206164647265737320\n        /* \"#utility.yul\":7354:7372   */\n      0x44\n      dup3\n      add\n        /* \"#utility.yul\":7347:7409   */\n      mstore\n        /* \"#utility.yul\":7445:7479   */\n      0x617320616c6c6f776564207370656e64657220696e207468652068657820636f\n        /* \"#utility.yul\":7425:7443   */\n      0x64\n      dup3\n      add\n        /* \"#utility.yul\":7418:7480   */\n      mstore\n      shl(0xc9, 0x373a3930b1ba17)\n        /* \"#utility.yul\":7496:7515   */\n      0x84\n      dup3\n      add\n        /* \"#utility.yul\":7489:7527   */\n      mstore\n        /* \"#utility.yul\":7544:7563   */\n      0xa4\n      add\n        /* \"contracts/maximus.sol\":4321:4465  require(hex_contract.allowance(msg.sender, CONTRACT_ADDRESS)>=amount, \"Please approve contract address as allowed spender in the hex contract.\") */\n      tag_187\n        /* \"#utility.yul\":7094:7569   */\n      jump\n        /* \"contracts/maximus.sol\":4321:4465  require(hex_contract.allowance(msg.sender, CONTRACT_ADDRESS)>=amount, \"Please approve contract address as allowed spender in the hex contract.\") */\n    tag_215:\n        /* \"contracts/maximus.sol\":4510:4522  hex_contract */\n      sload(0x10)\n        /* \"contracts/maximus.sol\":4542:4558  CONTRACT_ADDRESS */\n      sload(0x0e)\n        /* \"contracts/maximus.sol\":4510:4567  hex_contract.transferFrom(from, CONTRACT_ADDRESS, amount) */\n      mload(0x40)\n      shl(0xe0, 0x23b872dd)\n      dup2\n      mstore\n        /* \"contracts/maximus.sol\":4490:4500  msg.sender */\n      caller\n        /* \"contracts/maximus.sol\":4510:4567  hex_contract.transferFrom(from, CONTRACT_ADDRESS, amount) */\n      0x04\n      dup3\n      add\n        /* \"#utility.yul\":7814:7848   */\n      dup2\n      swap1\n      mstore\n      sub(shl(0xa0, 0x01), 0x01)\n        /* \"contracts/maximus.sol\":4542:4558  CONTRACT_ADDRESS */\n      swap3\n      dup4\n      and\n        /* \"#utility.yul\":7864:7882   */\n      0x24\n      dup4\n      add\n        /* \"#utility.yul\":7857:7900   */\n      mstore\n        /* \"#utility.yul\":7916:7934   */\n      0x44\n      dup3\n      add\n        /* \"#utility.yul\":7909:7943   */\n      dup6\n      swap1\n      mstore\n        /* \"contracts/maximus.sol\":4490:4500  msg.sender */\n      swap3\n        /* \"contracts/maximus.sol\":4510:4522  hex_contract */\n      swap2\n      swap1\n      swap2\n      and\n      swap1\n        /* \"contracts/maximus.sol\":4510:4535  hex_contract.transferFrom */\n      0x23b872dd\n      swap1\n        /* \"#utility.yul\":7749:7767   */\n      0x64\n      add\n        /* \"contracts/maximus.sol\":4510:4567  hex_contract.transferFrom(from, CONTRACT_ADDRESS, amount) */\n      0x20\n      mload(0x40)\n      dup1\n      dup4\n      sub\n      dup2\n      0x00\n      dup8\n      gas\n      call\n      iszero\n      dup1\n      iszero\n      tag_221\n      jumpi\n      returndatasize\n      0x00\n      dup1\n      returndatacopy\n      revert(0x00, returndatasize)\n    tag_221:\n      pop\n      pop\n      pop\n      pop\n      mload(0x40)\n      returndatasize\n      not(0x1f)\n      0x1f\n      dup3\n      add\n      and\n      dup3\n      add\n      dup1\n      0x40\n      mstore\n      pop\n      dup2\n      add\n      swap1\n      tag_222\n      swap2\n      swap1\n      tag_223\n      jump\t// in\n    tag_222:\n      pop\n        /* \"contracts/maximus.sol\":4577:4589  mint(amount) */\n      tag_224\n        /* \"contracts/maximus.sol\":4582:4588  amount */\n      dup3\n        /* \"contracts/maximus.sol\":4577:4581  mint */\n      tag_225\n        /* \"contracts/maximus.sol\":4577:4589  mint(amount) */\n      jump\t// in\n    tag_224:\n        /* \"contracts/maximus.sol\":4214:4596  {... */\n      pop\n        /* \"contracts/maximus.sol\":4172:4596  function pledgeHEX(uint256 amount) public {... */\n      pop\n      jump\t// out\n        /* \"contracts/maximus.sol\":3582:3703  function get_hex_day() public view returns (uint256){... */\n    tag_88:\n        /* \"contracts/maximus.sol\":3626:3633  uint256 */\n      0x00\n        /* \"contracts/maximus.sol\":3644:3655  uint256 day */\n      dup1\n        /* \"contracts/maximus.sol\":3658:3663  token */\n      0x11\n      0x00\n      swap1\n      sload\n      swap1\n      0x0100\n      exp\n      swap1\n      div\n      sub(shl(0xa0, 0x01), 0x01)\n      and\n      sub(shl(0xa0, 0x01), 0x01)\n        /* \"contracts/maximus.sol\":3658:3674  token.currentDay */\n      and\n      0x5c9302c9\n        /* \"contracts/maximus.sol\":3658:3676  token.currentDay() */\n      mload(0x40)\n      dup2\n      0xffffffff\n      and\n      0xe0\n      shl\n      dup2\n      mstore\n      0x04\n      add\n      0x20\n      mload(0x40)\n      dup1\n      dup4\n      sub\n      dup2\n      dup7\n      gas\n      staticcall\n      iszero\n      dup1\n      iszero\n      tag_228\n      jumpi\n      returndatasize\n      0x00\n      dup1\n      returndatacopy\n      revert(0x00, returndatasize)\n    tag_228:\n      pop\n      pop\n      pop\n      pop\n      mload(0x40)\n      returndatasize\n      not(0x1f)\n      0x1f\n      dup3\n      add\n      and\n      dup3\n      add\n      dup1\n      0x40\n      mstore\n      pop\n      dup2\n      add\n      swap1\n      tag_176\n      swap2\n      swap1\n      tag_206\n      jump\t// in\n        /* \"contracts/maximus.sol\":6129:6769  function endStakeHEX(uint256 stakeIndex,uint40 stakeIdParam ) public {... */\n    tag_96:\n        /* \"contracts/maximus.sol\":6344:6357  STAKE_END_DAY */\n      sload(0x0a)\n        /* \"contracts/maximus.sol\":6318:6329  HEX_ADDRESS */\n      0x0f\n      0x00\n      swap1\n      sload\n      swap1\n      0x0100\n      exp\n      swap1\n      div\n      sub(shl(0xa0, 0x01), 0x01)\n      and\n      sub(shl(0xa0, 0x01), 0x01)\n        /* \"contracts/maximus.sol\":6309:6341  HEXToken(HEX_ADDRESS).currentDay */\n      and\n      0x5c9302c9\n        /* \"contracts/maximus.sol\":6309:6343  HEXToken(HEX_ADDRESS).currentDay() */\n      mload(0x40)\n      dup2\n      0xffffffff\n      and\n      0xe0\n      shl\n      dup2\n      mstore\n      0x04\n      add\n      0x20\n      mload(0x40)\n      dup1\n      dup4\n      sub\n      dup2\n      dup7\n      gas\n      staticcall\n      iszero\n      dup1\n      iszero\n      tag_233\n      jumpi\n      returndatasize\n      0x00\n      dup1\n      returndatacopy\n      revert(0x00, returndatasize)\n    tag_233:\n      pop\n      pop\n      pop\n      pop\n      mload(0x40)\n      returndatasize\n      not(0x1f)\n      0x1f\n      dup3\n      add\n      and\n      dup3\n      add\n      dup1\n      0x40\n      mstore\n      pop\n      dup2\n      add\n      swap1\n      tag_234\n      swap2\n      swap1\n      tag_206\n      jump\t// in\n    tag_234:\n        /* \"contracts/maximus.sol\":6309:6357  HEXToken(HEX_ADDRESS).currentDay()>STAKE_END_DAY */\n      gt\n        /* \"contracts/maximus.sol\":6301:6388  require(HEXToken(HEX_ADDRESS).currentDay()>STAKE_END_DAY, \"Stake is not complete yet.\") */\n      tag_235\n      jumpi\n      mload(0x40)\n      shl(0xe5, 0x461bcd)\n      dup2\n      mstore\n        /* \"#utility.yul\":8438:8440   */\n      0x20\n        /* \"contracts/maximus.sol\":6301:6388  require(HEXToken(HEX_ADDRESS).currentDay()>STAKE_END_DAY, \"Stake is not complete yet.\") */\n      0x04\n      dup3\n      add\n        /* \"#utility.yul\":8420:8441   */\n      mstore\n        /* \"#utility.yul\":8477:8479   */\n      0x1a\n        /* \"#utility.yul\":8457:8475   */\n      0x24\n      dup3\n      add\n        /* \"#utility.yul\":8450:8480   */\n      mstore\n        /* \"#utility.yul\":8516:8544   */\n      0x5374616b65206973206e6f7420636f6d706c657465207965742e000000000000\n        /* \"#utility.yul\":8496:8514   */\n      0x44\n      dup3\n      add\n        /* \"#utility.yul\":8489:8545   */\n      mstore\n        /* \"#utility.yul\":8562:8580   */\n      0x64\n      add\n        /* \"contracts/maximus.sol\":6301:6388  require(HEXToken(HEX_ADDRESS).currentDay()>STAKE_END_DAY, \"Stake is not complete yet.\") */\n      tag_187\n        /* \"#utility.yul\":8236:8586   */\n      jump\n        /* \"contracts/maximus.sol\":6301:6388  require(HEXToken(HEX_ADDRESS).currentDay()>STAKE_END_DAY, \"Stake is not complete yet.\") */\n    tag_235:\n        /* \"contracts/maximus.sol\":6406:6423  HAS_STAKE_STARTED */\n      and(0xff, sload(0x08))\n        /* \"contracts/maximus.sol\":6406:6429  HAS_STAKE_STARTED==true */\n      iszero\n      iszero\n        /* \"contracts/maximus.sol\":6406:6423  HAS_STAKE_STARTED */\n      0x01\n        /* \"contracts/maximus.sol\":6406:6429  HAS_STAKE_STARTED==true */\n      eq\n        /* \"contracts/maximus.sol\":6406:6455  HAS_STAKE_STARTED==true && HAS_STAKE_ENDED==false */\n      dup1\n      iszero\n      tag_238\n      jumpi\n      pop\n        /* \"contracts/maximus.sol\":6433:6448  HAS_STAKE_ENDED */\n      sload(0x08)\n      0x0100\n      swap1\n      div\n      0xff\n      and\n        /* \"contracts/maximus.sol\":6433:6455  HAS_STAKE_ENDED==false */\n      iszero\n        /* \"contracts/maximus.sol\":6406:6455  HAS_STAKE_STARTED==true && HAS_STAKE_ENDED==false */\n    tag_238:\n        /* \"contracts/maximus.sol\":6398:6491  require(HAS_STAKE_STARTED==true && HAS_STAKE_ENDED==false, \"Stake has already been started.\") */\n      tag_239\n      jumpi\n      mload(0x40)\n      shl(0xe5, 0x461bcd)\n      dup2\n      mstore\n        /* \"#utility.yul\":8793:8795   */\n      0x20\n        /* \"contracts/maximus.sol\":6398:6491  require(HAS_STAKE_STARTED==true && HAS_STAKE_ENDED==false, \"Stake has already been started.\") */\n      0x04\n      dup3\n      add\n        /* \"#utility.yul\":8775:8796   */\n      mstore\n        /* \"#utility.yul\":8832:8834   */\n      0x1f\n        /* \"#utility.yul\":8812:8830   */\n      0x24\n      dup3\n      add\n        /* \"#utility.yul\":8805:8835   */\n      mstore\n        /* \"#utility.yul\":8871:8904   */\n      0x5374616b652068617320616c7265616479206265656e20737461727465642e00\n        /* \"#utility.yul\":8851:8869   */\n      0x44\n      dup3\n      add\n        /* \"#utility.yul\":8844:8905   */\n      mstore\n        /* \"#utility.yul\":8922:8940   */\n      0x64\n      add\n        /* \"contracts/maximus.sol\":6398:6491  require(HAS_STAKE_STARTED==true && HAS_STAKE_ENDED==false, \"Stake has already been started.\") */\n      tag_187\n        /* \"#utility.yul\":8591:8946   */\n      jump\n        /* \"contracts/maximus.sol\":6398:6491  require(HAS_STAKE_STARTED==true && HAS_STAKE_ENDED==false, \"Stake has already been started.\") */\n    tag_239:\n        /* \"contracts/maximus.sol\":6501:6539  _endStakeHEX(stakeIndex, stakeIdParam) */\n      tag_242\n        /* \"contracts/maximus.sol\":6514:6524  stakeIndex */\n      dup3\n        /* \"contracts/maximus.sol\":6526:6538  stakeIdParam */\n      dup3\n        /* \"contracts/maximus.sol\":6501:6513  _endStakeHEX */\n      tag_243\n        /* \"contracts/maximus.sol\":6501:6539  _endStakeHEX(stakeIndex, stakeIdParam) */\n      jump\t// in\n    tag_242:\n        /* \"contracts/maximus.sol\":6549:6564  HAS_STAKE_ENDED */\n      0x08\n        /* \"contracts/maximus.sol\":6549:6569  HAS_STAKE_ENDED=true */\n      dup1\n      sload\n      not(0xff00)\n      and\n      0x0100\n      or\n      swap1\n      sstore\n        /* \"contracts/maximus.sol\":6601:6613  hex_contract */\n      sload(0x10)\n        /* \"contracts/maximus.sol\":6601:6638  hex_contract.balanceOf(address(this)) */\n      mload(0x40)\n      shl(0xe0, 0x70a08231)\n      dup2\n      mstore\n        /* \"contracts/maximus.sol\":6632:6636  this */\n      address\n        /* \"contracts/maximus.sol\":6601:6638  hex_contract.balanceOf(address(this)) */\n      0x04\n      dup3\n      add\n        /* \"#utility.yul\":3094:3145   */\n      mstore\n      0x00\n      swap2\n      sub(shl(0xa0, 0x01), 0x01)\n        /* \"contracts/maximus.sol\":6601:6613  hex_contract */\n      and\n      swap1\n        /* \"contracts/maximus.sol\":6601:6623  hex_contract.balanceOf */\n      0x70a08231\n      swap1\n        /* \"#utility.yul\":3067:3085   */\n      0x24\n      add\n        /* \"contracts/maximus.sol\":6601:6638  hex_contract.balanceOf(address(this)) */\n      0x20\n      mload(0x40)\n      dup1\n      dup4\n      sub\n      dup2\n      dup7\n      gas\n      staticcall\n      iszero\n      dup1\n      iszero\n      tag_246\n      jumpi\n      returndatasize\n      0x00\n      dup1\n      returndatacopy\n      revert(0x00, returndatasize)\n    tag_246:\n      pop\n      pop\n      pop\n      pop\n      mload(0x40)\n      returndatasize\n      not(0x1f)\n      0x1f\n      dup3\n      add\n      and\n      dup3\n      add\n      dup1\n      0x40\n      mstore\n      pop\n      dup2\n      add\n      swap1\n      tag_247\n      swap2\n      swap1\n      tag_206\n      jump\t// in\n    tag_247:\n        /* \"contracts/maximus.sol\":6579:6638  uint256 hex_balance = hex_contract.balanceOf(address(this)) */\n      swap1\n      pop\n        /* \"contracts/maximus.sol\":6648:6666  uint256 total_maxi */\n      0x00\n        /* \"contracts/maximus.sol\":6684:6688  this */\n      address\n      sub(shl(0xa0, 0x01), 0x01)\n        /* \"contracts/maximus.sol\":6669:6702  IERC20(address(this)).totalSupply */\n      and\n      0x18160ddd\n        /* \"contracts/maximus.sol\":6669:6704  IERC20(address(this)).totalSupply() */\n      mload(0x40)\n      dup2\n      0xffffffff\n      and\n      0xe0\n      shl\n      dup2\n      mstore\n      0x04\n      add\n      0x20\n      mload(0x40)\n      dup1\n      dup4\n      sub\n      dup2\n      dup7\n      gas\n      staticcall\n      iszero\n      dup1\n      iszero\n      tag_249\n      jumpi\n      returndatasize\n      0x00\n      dup1\n      returndatacopy\n      revert(0x00, returndatasize)\n    tag_249:\n      pop\n      pop\n      pop\n      pop\n      mload(0x40)\n      returndatasize\n      not(0x1f)\n      0x1f\n      dup3\n      add\n      and\n      dup3\n      add\n      dup1\n      0x40\n      mstore\n      pop\n      dup2\n      add\n      swap1\n      tag_250\n      swap2\n      swap1\n      tag_206\n      jump\t// in\n    tag_250:\n        /* \"contracts/maximus.sol\":6648:6704  uint256 total_maxi = IERC20(address(this)).totalSupply() */\n      swap1\n      pop\n        /* \"contracts/maximus.sol\":6732:6753  get_redemption_rate() */\n      tag_251\n        /* \"contracts/maximus.sol\":6732:6751  get_redemption_rate */\n      tag_252\n        /* \"contracts/maximus.sol\":6732:6753  get_redemption_rate() */\n      jump\t// in\n    tag_251:\n        /* \"contracts/maximus.sol\":6714:6729  REDEMPTION_RATE */\n      0x0b\n        /* \"contracts/maximus.sol\":6714:6753  REDEMPTION_RATE = get_redemption_rate() */\n      sstore\n      pop\n      pop\n      pop\n      pop\n        /* \"contracts/maximus.sol\":6129:6769  function endStakeHEX(uint256 stakeIndex,uint40 stakeIdParam ) public {... */\n      jump\t// out\n        /* \"contracts/maximus.sol\":3708:3807  function getBalanceHEX() public view returns (uint256) {return hex_contract.balanceOf(msg.sender);} */\n    tag_98:\n        /* \"contracts/maximus.sol\":3771:3783  hex_contract */\n      sload(0x10)\n        /* \"contracts/maximus.sol\":3771:3805  hex_contract.balanceOf(msg.sender) */\n      mload(0x40)\n      shl(0xe0, 0x70a08231)\n      dup2\n      mstore\n        /* \"contracts/maximus.sol\":3794:3804  msg.sender */\n      caller\n        /* \"contracts/maximus.sol\":3771:3805  hex_contract.balanceOf(msg.sender) */\n      0x04\n      dup3\n      add\n        /* \"#utility.yul\":3094:3145   */\n      mstore\n        /* \"contracts/maximus.sol\":3754:3761  uint256 */\n      0x00\n      swap2\n      sub(shl(0xa0, 0x01), 0x01)\n        /* \"contracts/maximus.sol\":3771:3783  hex_contract */\n      and\n      swap1\n        /* \"contracts/maximus.sol\":3771:3793  hex_contract.balanceOf */\n      0x70a08231\n      swap1\n        /* \"#utility.yul\":3067:3085   */\n      0x24\n      add\n        /* \"contracts/maximus.sol\":3771:3805  hex_contract.balanceOf(msg.sender) */\n    tag_254:\n      0x20\n      mload(0x40)\n      dup1\n      dup4\n      sub\n      dup2\n      dup7\n      gas\n      staticcall\n      iszero\n      dup1\n      iszero\n      tag_256\n      jumpi\n      returndatasize\n      0x00\n      dup1\n      returndatacopy\n      revert(0x00, returndatasize)\n    tag_256:\n      pop\n      pop\n      pop\n      pop\n      mload(0x40)\n      returndatasize\n      not(0x1f)\n      0x1f\n      dup3\n      add\n      and\n      dup3\n      add\n      dup1\n      0x40\n      mstore\n      pop\n      dup2\n      add\n      swap1\n      tag_257\n      swap2\n      swap1\n      tag_206\n      jump\t// in\n    tag_257:\n        /* \"contracts/maximus.sol\":3764:3805  return hex_contract.balanceOf(msg.sender) */\n      swap1\n      pop\n        /* \"contracts/maximus.sol\":3708:3807  function getBalanceHEX() public view returns (uint256) {return hex_contract.balanceOf(msg.sender);} */\n      swap1\n      jump\t// out\n        /* \"@openzeppelin/contracts/access/Ownable.sol\":1668:1769  function renounceOwnership() public virtual onlyOwner {... */\n    tag_106:\n        /* \"@openzeppelin/contracts/access/Ownable.sol\":1108:1114  _owner */\n      and(sub(shl(0xa0, 0x01), 0x01), sload(0x05))\n        /* \"@openzeppelin/contracts/utils/Context.sol\":719:729  msg.sender */\n      caller\n        /* \"@openzeppelin/contracts/access/Ownable.sol\":1248:1271  owner() == _msgSender() */\n      eq\n        /* \"@openzeppelin/contracts/access/Ownable.sol\":1240:1308  require(owner() == _msgSender(), \"Ownable: caller is not the owner\") */\n      tag_262\n      jumpi\n      mload(0x40)\n      shl(0xe5, 0x461bcd)\n      dup2\n      mstore\n        /* \"#utility.yul\":9153:9155   */\n      0x20\n        /* \"@openzeppelin/contracts/access/Ownable.sol\":1240:1308  require(owner() == _msgSender(), \"Ownable: caller is not the owner\") */\n      0x04\n      dup3\n      add\n        /* \"#utility.yul\":9135:9156   */\n      dup2\n      swap1\n      mstore\n        /* \"#utility.yul\":9172:9190   */\n      0x24\n      dup3\n      add\n        /* \"#utility.yul\":9165:9195   */\n      mstore\n        /* \"#utility.yul\":9231:9265   */\n      0x4f776e61626c653a2063616c6c6572206973206e6f7420746865206f776e6572\n        /* \"#utility.yul\":9211:9229   */\n      0x44\n      dup3\n      add\n        /* \"#utility.yul\":9204:9266   */\n      mstore\n        /* \"#utility.yul\":9283:9301   */\n      0x64\n      add\n        /* \"@openzeppelin/contracts/access/Ownable.sol\":1240:1308  require(owner() == _msgSender(), \"Ownable: caller is not the owner\") */\n      tag_187\n        /* \"#utility.yul\":8951:9307   */\n      jump\n        /* \"@openzeppelin/contracts/access/Ownable.sol\":1240:1308  require(owner() == _msgSender(), \"Ownable: caller is not the owner\") */\n    tag_262:\n        /* \"@openzeppelin/contracts/access/Ownable.sol\":1732:1762  _transferOwnership(address(0)) */\n      tag_266\n        /* \"@openzeppelin/contracts/access/Ownable.sol\":1759:1760  0 */\n      0x00\n        /* \"@openzeppelin/contracts/access/Ownable.sol\":1732:1750  _transferOwnership */\n      tag_267\n        /* \"@openzeppelin/contracts/access/Ownable.sol\":1732:1762  _transferOwnership(address(0)) */\n      jump\t// in\n    tag_266:\n        /* \"@openzeppelin/contracts/access/Ownable.sol\":1668:1769  function renounceOwnership() public virtual onlyOwner {... */\n      jump\t// out\n        /* \"@openzeppelin/contracts/token/ERC20/extensions/ERC20Burnable.sol\":958:1319  function burnFrom(address account, uint256 amount) public virtual {... */\n    tag_112:\n        /* \"@openzeppelin/contracts/token/ERC20/extensions/ERC20Burnable.sol\":1034:1058  uint256 currentAllowance */\n      0x00\n        /* \"@openzeppelin/contracts/token/ERC20/extensions/ERC20Burnable.sol\":1061:1093  allowance(account, _msgSender()) */\n      tag_270\n        /* \"@openzeppelin/contracts/token/ERC20/extensions/ERC20Burnable.sol\":1071:1078  account */\n      dup4\n        /* \"@openzeppelin/contracts/utils/Context.sol\":719:729  msg.sender */\n      caller\n        /* \"@openzeppelin/contracts/token/ERC20/ERC20.sol\":3951:4100  function allowance(address owner, address spender) public view virtual override returns (uint256) {... */\n      tag_147\n      jump\t// in\n        /* \"@openzeppelin/contracts/token/ERC20/extensions/ERC20Burnable.sol\":1061:1093  allowance(account, _msgSender()) */\n    tag_270:\n        /* \"@openzeppelin/contracts/token/ERC20/extensions/ERC20Burnable.sol\":1034:1093  uint256 currentAllowance = allowance(account, _msgSender()) */\n      swap1\n      pop\n        /* \"@openzeppelin/contracts/token/ERC20/extensions/ERC20Burnable.sol\":1131:1137  amount */\n      dup2\n        /* \"@openzeppelin/contracts/token/ERC20/extensions/ERC20Burnable.sol\":1111:1127  currentAllowance */\n      dup2\n        /* \"@openzeppelin/contracts/token/ERC20/extensions/ERC20Burnable.sol\":1111:1137  currentAllowance >= amount */\n      lt\n      iszero\n        /* \"@openzeppelin/contracts/token/ERC20/extensions/ERC20Burnable.sol\":1103:1178  require(currentAllowance >= amount, \"ERC20: burn amount exceeds allowance\") */\n      tag_272\n      jumpi\n      mload(0x40)\n      shl(0xe5, 0x461bcd)\n      dup2\n      mstore\n        /* \"#utility.yul\":9514:9516   */\n      0x20\n        /* \"@openzeppelin/contracts/token/ERC20/extensions/ERC20Burnable.sol\":1103:1178  require(currentAllowance >= amount, \"ERC20: burn amount exceeds allowance\") */\n      0x04\n      dup3\n      add\n        /* \"#utility.yul\":9496:9517   */\n      mstore\n        /* \"#utility.yul\":9553:9555   */\n      0x24\n        /* \"#utility.yul\":9533:9551   */\n      dup1\n      dup3\n      add\n        /* \"#utility.yul\":9526:9556   */\n      mstore\n        /* \"#utility.yul\":9592:9626   */\n      0x45524332303a206275726e20616d6f756e74206578636565647320616c6c6f77\n        /* \"#utility.yul\":9572:9590   */\n      0x44\n      dup3\n      add\n        /* \"#utility.yul\":9565:9627   */\n      mstore\n      shl(0xe0, 0x616e6365)\n        /* \"#utility.yul\":9643:9661   */\n      0x64\n      dup3\n      add\n        /* \"#utility.yul\":9636:9670   */\n      mstore\n        /* \"#utility.yul\":9687:9706   */\n      0x84\n      add\n        /* \"@openzeppelin/contracts/token/ERC20/extensions/ERC20Burnable.sol\":1103:1178  require(currentAllowance >= amount, \"ERC20: burn amount exceeds allowance\") */\n      tag_187\n        /* \"#utility.yul\":9312:9712   */\n      jump\n        /* \"@openzeppelin/contracts/token/ERC20/extensions/ERC20Burnable.sol\":1103:1178  require(currentAllowance >= amount, \"ERC20: burn amount exceeds allowance\") */\n    tag_272:\n        /* \"@openzeppelin/contracts/token/ERC20/extensions/ERC20Burnable.sol\":1212:1270  _approve(account, _msgSender(), currentAllowance - amount) */\n      tag_275\n        /* \"@openzeppelin/contracts/token/ERC20/extensions/ERC20Burnable.sol\":1221:1228  account */\n      dup4\n        /* \"@openzeppelin/contracts/utils/Context.sol\":719:729  msg.sender */\n      caller\n        /* \"@openzeppelin/contracts/token/ERC20/extensions/ERC20Burnable.sol\":1263:1269  amount */\n      dup5\n        /* \"@openzeppelin/contracts/token/ERC20/extensions/ERC20Burnable.sol\":1244:1260  currentAllowance */\n      dup5\n        /* \"@openzeppelin/contracts/token/ERC20/extensions/ERC20Burnable.sol\":1244:1269  currentAllowance - amount */\n      sub\n        /* \"@openzeppelin/contracts/token/ERC20/extensions/ERC20Burnable.sol\":1212:1220  _approve */\n      tag_180\n        /* \"@openzeppelin/contracts/token/ERC20/extensions/ERC20Burnable.sol\":1212:1270  _approve(account, _msgSender(), currentAllowance - amount) */\n      jump\t// in\n    tag_275:\n        /* \"@openzeppelin/contracts/token/ERC20/extensions/ERC20Burnable.sol\":1290:1312  _burn(account, amount) */\n      tag_277\n        /* \"@openzeppelin/contracts/token/ERC20/extensions/ERC20Burnable.sol\":1296:1303  account */\n      dup4\n        /* \"@openzeppelin/contracts/token/ERC20/extensions/ERC20Burnable.sol\":1305:1311  amount */\n      dup4\n        /* \"@openzeppelin/contracts/token/ERC20/extensions/ERC20Burnable.sol\":1290:1295  _burn */\n      tag_201\n        /* \"@openzeppelin/contracts/token/ERC20/extensions/ERC20Burnable.sol\":1290:1312  _burn(account, amount) */\n      jump\t// in\n    tag_277:\n        /* \"@openzeppelin/contracts/token/ERC20/extensions/ERC20Burnable.sol\":1024:1319  {... */\n      pop\n        /* \"@openzeppelin/contracts/token/ERC20/extensions/ERC20Burnable.sol\":958:1319  function burnFrom(address account, uint256 amount) public virtual {... */\n      pop\n      pop\n      jump\t// out\n        /* \"contracts/maximus.sol\":3936:4051  function getNumStake() public view returns(uint256) {... */\n    tag_114:\n        /* \"contracts/maximus.sol\":4009:4014  token */\n      sload(0x11)\n        /* \"contracts/maximus.sol\":4009:4040  token.stakeCount(address(this)) */\n      mload(0x40)\n      shl(0xe4, 0x033060d9)\n      dup2\n      mstore\n        /* \"contracts/maximus.sol\":4034:4038  this */\n      address\n        /* \"contracts/maximus.sol\":4009:4040  token.stakeCount(address(this)) */\n      0x04\n      dup3\n      add\n        /* \"#utility.yul\":3094:3145   */\n      mstore\n        /* \"contracts/maximus.sol\":3979:3986  uint256 */\n      0x00\n      swap2\n      sub(shl(0xa0, 0x01), 0x01)\n        /* \"contracts/maximus.sol\":4009:4014  token */\n      and\n      swap1\n        /* \"contracts/maximus.sol\":4009:4025  token.stakeCount */\n      0x33060d90\n      swap1\n        /* \"#utility.yul\":3067:3085   */\n      0x24\n      add\n        /* \"contracts/maximus.sol\":4009:4040  token.stakeCount(address(this)) */\n      tag_254\n        /* \"#utility.yul\":2948:3151   */\n      jump\n        /* \"@openzeppelin/contracts/token/ERC20/ERC20.sol\":2352:2454  function symbol() public view virtual override returns (string memory) {... */\n    tag_124:\n        /* \"@openzeppelin/contracts/token/ERC20/ERC20.sol\":2408:2421  string memory */\n      0x60\n        /* \"@openzeppelin/contracts/token/ERC20/ERC20.sol\":2440:2447  _symbol */\n      0x04\n        /* \"@openzeppelin/contracts/token/ERC20/ERC20.sol\":2433:2447  return _symbol */\n      dup1\n      sload\n      tag_170\n      swap1\n      tag_171\n      jump\t// in\n        /* \"@openzeppelin/contracts/token/ERC20/ERC20.sol\":6443:6848  function decreaseAllowance(address spender, uint256 subtractedValue) public virtual returns (bool) {... */\n    tag_128:\n        /* \"@openzeppelin/contracts/utils/Context.sol\":719:729  msg.sender */\n      caller\n        /* \"@openzeppelin/contracts/token/ERC20/ERC20.sol\":6536:6540  bool */\n      0x00\n        /* \"@openzeppelin/contracts/token/ERC20/ERC20.sol\":6579:6604  _allowances[_msgSender()] */\n      swap1\n      dup2\n      mstore\n        /* \"@openzeppelin/contracts/token/ERC20/ERC20.sol\":6579:6590  _allowances */\n      0x01\n        /* \"@openzeppelin/contracts/token/ERC20/ERC20.sol\":6579:6604  _allowances[_msgSender()] */\n      0x20\n      swap1\n      dup2\n      mstore\n      0x40\n      dup1\n      dup4\n      keccak256\n      sub(shl(0xa0, 0x01), 0x01)\n        /* \"@openzeppelin/contracts/token/ERC20/ERC20.sol\":6579:6613  _allowances[_msgSender()][spender] */\n      dup7\n      and\n      dup5\n      mstore\n      swap1\n      swap2\n      mstore\n      dup2\n      keccak256\n      sload\n        /* \"@openzeppelin/contracts/token/ERC20/ERC20.sol\":6631:6666  currentAllowance >= subtractedValue */\n      dup3\n      dup2\n      lt\n      iszero\n        /* \"@openzeppelin/contracts/token/ERC20/ERC20.sol\":6623:6708  require(currentAllowance >= subtractedValue, \"ERC20: decreased allowance below zero\") */\n      tag_293\n      jumpi\n      mload(0x40)\n      shl(0xe5, 0x461bcd)\n      dup2\n      mstore\n        /* \"#utility.yul\":9919:9921   */\n      0x20\n        /* \"@openzeppelin/contracts/token/ERC20/ERC20.sol\":6623:6708  require(currentAllowance >= subtractedValue, \"ERC20: decreased allowance below zero\") */\n      0x04\n      dup3\n      add\n        /* \"#utility.yul\":9901:9922   */\n      mstore\n        /* \"#utility.yul\":9958:9960   */\n      0x25\n        /* \"#utility.yul\":9938:9956   */\n      0x24\n      dup3\n      add\n        /* \"#utility.yul\":9931:9961   */\n      mstore\n        /* \"#utility.yul\":9997:10031   */\n      0x45524332303a2064656372656173656420616c6c6f77616e63652062656c6f77\n        /* \"#utility.yul\":9977:9995   */\n      0x44\n      dup3\n      add\n        /* \"#utility.yul\":9970:10032   */\n      mstore\n      shl(0xd8, 0x207a65726f)\n        /* \"#utility.yul\":10048:10066   */\n      0x64\n      dup3\n      add\n        /* \"#utility.yul\":10041:10076   */\n      mstore\n        /* \"#utility.yul\":10093:10112   */\n      0x84\n      add\n        /* \"@openzeppelin/contracts/token/ERC20/ERC20.sol\":6623:6708  require(currentAllowance >= subtractedValue, \"ERC20: decreased allowance below zero\") */\n      tag_187\n        /* \"#utility.yul\":9717:10118   */\n      jump\n        /* \"@openzeppelin/contracts/token/ERC20/ERC20.sol\":6623:6708  require(currentAllowance >= subtractedValue, \"ERC20: decreased allowance below zero\") */\n    tag_293:\n        /* \"@openzeppelin/contracts/token/ERC20/ERC20.sol\":6742:6809  _approve(_msgSender(), spender, currentAllowance - subtractedValue) */\n      tag_296\n        /* \"@openzeppelin/contracts/utils/Context.sol\":719:729  msg.sender */\n      caller\n        /* \"@openzeppelin/contracts/token/ERC20/ERC20.sol\":6765:6772  spender */\n      dup6\n        /* \"@openzeppelin/contracts/token/ERC20/ERC20.sol\":6793:6808  subtractedValue */\n      dup6\n        /* \"@openzeppelin/contracts/token/ERC20/ERC20.sol\":6774:6790  currentAllowance */\n      dup5\n        /* \"@openzeppelin/contracts/token/ERC20/ERC20.sol\":6774:6808  currentAllowance - subtractedValue */\n      sub\n        /* \"@openzeppelin/contracts/token/ERC20/ERC20.sol\":6742:6750  _approve */\n      tag_180\n        /* \"@openzeppelin/contracts/token/ERC20/ERC20.sol\":6742:6809  _approve(_msgSender(), spender, currentAllowance - subtractedValue) */\n      jump\t// in\n    tag_296:\n      pop\n        /* \"@openzeppelin/contracts/token/ERC20/ERC20.sol\":6837:6841  true */\n      0x01\n      swap4\n        /* \"@openzeppelin/contracts/token/ERC20/ERC20.sol\":6443:6848  function decreaseAllowance(address spender, uint256 subtractedValue) public virtual returns (bool) {... */\n      swap3\n      pop\n      pop\n      pop\n      jump\t// out\n        /* \"@openzeppelin/contracts/token/ERC20/ERC20.sol\":3721:3893  function transfer(address recipient, uint256 amount) public virtual override returns (bool) {... */\n    tag_132:\n        /* \"@openzeppelin/contracts/token/ERC20/ERC20.sol\":3807:3811  bool */\n      0x00\n        /* \"@openzeppelin/contracts/token/ERC20/ERC20.sol\":3823:3865  _transfer(_msgSender(), recipient, amount) */\n      tag_177\n        /* \"@openzeppelin/contracts/utils/Context.sol\":719:729  msg.sender */\n      caller\n        /* \"@openzeppelin/contracts/token/ERC20/ERC20.sol\":3847:3856  recipient */\n      dup5\n        /* \"@openzeppelin/contracts/token/ERC20/ERC20.sol\":3858:3864  amount */\n      dup5\n        /* \"@openzeppelin/contracts/token/ERC20/ERC20.sol\":3823:3832  _transfer */\n      tag_184\n        /* \"@openzeppelin/contracts/token/ERC20/ERC20.sol\":3823:3865  _transfer(_msgSender(), recipient, amount) */\n      jump\t// in\n        /* \"contracts/maximus.sol\":5267:5868  function stakeHEX() public {... */\n    tag_135:\n        /* \"contracts/maximus.sol\":5312:5329  HAS_STAKE_STARTED */\n      and(0xff, sload(0x08))\n        /* \"contracts/maximus.sol\":5312:5336  HAS_STAKE_STARTED==false */\n      iszero\n        /* \"contracts/maximus.sol\":5304:5372  require(HAS_STAKE_STARTED==false, \"Stake has already been started.\") */\n      tag_302\n      jumpi\n      mload(0x40)\n      shl(0xe5, 0x461bcd)\n      dup2\n      mstore\n        /* \"#utility.yul\":8793:8795   */\n      0x20\n        /* \"contracts/maximus.sol\":5304:5372  require(HAS_STAKE_STARTED==false, \"Stake has already been started.\") */\n      0x04\n      dup3\n      add\n        /* \"#utility.yul\":8775:8796   */\n      mstore\n        /* \"#utility.yul\":8832:8834   */\n      0x1f\n        /* \"#utility.yul\":8812:8830   */\n      0x24\n      dup3\n      add\n        /* \"#utility.yul\":8805:8835   */\n      mstore\n        /* \"#utility.yul\":8871:8904   */\n      0x5374616b652068617320616c7265616479206265656e20737461727465642e00\n        /* \"#utility.yul\":8851:8869   */\n      0x44\n      dup3\n      add\n        /* \"#utility.yul\":8844:8905   */\n      mstore\n        /* \"#utility.yul\":8922:8940   */\n      0x64\n      add\n        /* \"contracts/maximus.sol\":5304:5372  require(HAS_STAKE_STARTED==false, \"Stake has already been started.\") */\n      tag_187\n        /* \"#utility.yul\":8591:8946   */\n      jump\n        /* \"contracts/maximus.sol\":5304:5372  require(HAS_STAKE_STARTED==false, \"Stake has already been started.\") */\n    tag_302:\n        /* \"contracts/maximus.sol\":5413:5424  HEX_ADDRESS */\n      sload(0x0f)\n        /* \"contracts/maximus.sol\":5404:5438  HEXToken(HEX_ADDRESS).currentDay() */\n      0x40\n      dup1\n      mload\n      shl(0xe0, 0x5c9302c9)\n      dup2\n      mstore\n      swap1\n      mload\n        /* \"contracts/maximus.sol\":5382:5401  uint256 current_day */\n      0x00\n      swap3\n      sub(shl(0xa0, 0x01), 0x01)\n        /* \"contracts/maximus.sol\":5413:5424  HEX_ADDRESS */\n      and\n      swap2\n        /* \"contracts/maximus.sol\":5404:5436  HEXToken(HEX_ADDRESS).currentDay */\n      0x5c9302c9\n      swap2\n        /* \"contracts/maximus.sol\":5404:5438  HEXToken(HEX_ADDRESS).currentDay() */\n      0x04\n      dup1\n      dup4\n      add\n      swap3\n      0x20\n      swap3\n      swap2\n      swap1\n      dup3\n      swap1\n      sub\n      add\n      dup2\n        /* \"contracts/maximus.sol\":5413:5424  HEX_ADDRESS */\n      dup7\n        /* \"contracts/maximus.sol\":5404:5438  HEXToken(HEX_ADDRESS).currentDay() */\n      gas\n      staticcall\n      iszero\n      dup1\n      iszero\n      tag_305\n      jumpi\n      returndatasize\n      0x00\n      dup1\n      returndatacopy\n      revert(0x00, returndatasize)\n    tag_305:\n      pop\n      pop\n      pop\n      pop\n      mload(0x40)\n      returndatasize\n      not(0x1f)\n      0x1f\n      dup3\n      add\n      and\n      dup3\n      add\n      dup1\n      0x40\n      mstore\n      pop\n      dup2\n      add\n      swap1\n      tag_306\n      swap2\n      swap1\n      tag_206\n      jump\t// in\n    tag_306:\n        /* \"contracts/maximus.sol\":5382:5438  uint256 current_day = HEXToken(HEX_ADDRESS).currentDay() */\n      swap1\n      pop\n        /* \"contracts/maximus.sol\":5468:5485  MINTING_PHASE_END */\n      sload(0x07)\n        /* \"contracts/maximus.sol\":5456:5467  current_day */\n      dup2\n        /* \"contracts/maximus.sol\":5456:5485  current_day>MINTING_PHASE_END */\n      gt\n        /* \"contracts/maximus.sol\":5448:5549  require(current_day>MINTING_PHASE_END, \"Minting Phase is still ongoing - see MINTING_PHASE_END day.\") */\n      tag_307\n      jumpi\n      mload(0x40)\n      shl(0xe5, 0x461bcd)\n      dup2\n      mstore\n        /* \"#utility.yul\":10325:10327   */\n      0x20\n        /* \"contracts/maximus.sol\":5448:5549  require(current_day>MINTING_PHASE_END, \"Minting Phase is still ongoing - see MINTING_PHASE_END day.\") */\n      0x04\n      dup3\n      add\n        /* \"#utility.yul\":10307:10328   */\n      mstore\n        /* \"#utility.yul\":10364:10366   */\n      0x3b\n        /* \"#utility.yul\":10344:10362   */\n      0x24\n      dup3\n      add\n        /* \"#utility.yul\":10337:10367   */\n      mstore\n        /* \"#utility.yul\":10403:10437   */\n      0x4d696e74696e67205068617365206973207374696c6c206f6e676f696e67202d\n        /* \"#utility.yul\":10383:10401   */\n      0x44\n      dup3\n      add\n        /* \"#utility.yul\":10376:10438   */\n      mstore\n        /* \"#utility.yul\":10474:10503   */\n      0x20736565204d494e54494e475f50484153455f454e44206461792e0000000000\n        /* \"#utility.yul\":10454:10472   */\n      0x64\n      dup3\n      add\n        /* \"#utility.yul\":10447:10504   */\n      mstore\n        /* \"#utility.yul\":10521:10540   */\n      0x84\n      add\n        /* \"contracts/maximus.sol\":5448:5549  require(current_day>MINTING_PHASE_END, \"Minting Phase is still ongoing - see MINTING_PHASE_END day.\") */\n      tag_187\n        /* \"#utility.yul\":10123:10546   */\n      jump\n        /* \"contracts/maximus.sol\":5448:5549  require(current_day>MINTING_PHASE_END, \"Minting Phase is still ongoing - see MINTING_PHASE_END day.\") */\n    tag_307:\n        /* \"contracts/maximus.sol\":5576:5588  hex_contract */\n      sload(0x10)\n        /* \"contracts/maximus.sol\":5576:5613  hex_contract.balanceOf(address(this)) */\n      mload(0x40)\n      shl(0xe0, 0x70a08231)\n      dup2\n      mstore\n        /* \"contracts/maximus.sol\":5607:5611  this */\n      address\n        /* \"contracts/maximus.sol\":5576:5613  hex_contract.balanceOf(address(this)) */\n      0x04\n      dup3\n      add\n        /* \"#utility.yul\":3094:3145   */\n      mstore\n        /* \"contracts/maximus.sol\":5559:5573  uint256 amount */\n      0x00\n      swap2\n      sub(shl(0xa0, 0x01), 0x01)\n        /* \"contracts/maximus.sol\":5576:5588  hex_contract */\n      and\n      swap1\n        /* \"contracts/maximus.sol\":5576:5598  hex_contract.balanceOf */\n      0x70a08231\n      swap1\n        /* \"#utility.yul\":3067:3085   */\n      0x24\n      add\n        /* \"contracts/maximus.sol\":5576:5613  hex_contract.balanceOf(address(this)) */\n      0x20\n      mload(0x40)\n      dup1\n      dup4\n      sub\n      dup2\n      dup7\n      gas\n      staticcall\n      iszero\n      dup1\n      iszero\n      tag_312\n      jumpi\n      returndatasize\n      0x00\n      dup1\n      returndatacopy\n      revert(0x00, returndatasize)\n    tag_312:\n      pop\n      pop\n      pop\n      pop\n      mload(0x40)\n      returndatasize\n      not(0x1f)\n      0x1f\n      dup3\n      add\n      and\n      dup3\n      add\n      dup1\n      0x40\n      mstore\n      pop\n      dup2\n      add\n      swap1\n      tag_313\n      swap2\n      swap1\n      tag_206\n      jump\t// in\n    tag_313:\n        /* \"contracts/maximus.sol\":5559:5613  uint256 amount = hex_contract.balanceOf(address(this)) */\n      swap1\n      pop\n        /* \"contracts/maximus.sol\":5727:5744  _stakeHEX(amount) */\n      tag_314\n        /* \"contracts/maximus.sol\":5737:5743  amount */\n      dup2\n        /* \"contracts/maximus.sol\":5727:5736  _stakeHEX */\n      tag_315\n        /* \"contracts/maximus.sol\":5727:5744  _stakeHEX(amount) */\n      jump\t// in\n    tag_314:\n        /* \"contracts/maximus.sol\":5754:5771  HAS_STAKE_STARTED */\n      0x08\n        /* \"contracts/maximus.sol\":5754:5776  HAS_STAKE_STARTED=true */\n      dup1\n      sload\n      not(0xff)\n      and\n        /* \"contracts/maximus.sol\":5772:5776  true */\n      0x01\n        /* \"contracts/maximus.sol\":5754:5776  HAS_STAKE_STARTED=true */\n      or\n      swap1\n      sstore\n        /* \"contracts/maximus.sol\":5786:5801  STAKE_START_DAY */\n      0x09\n        /* \"contracts/maximus.sol\":5786:5813  STAKE_START_DAY=current_day */\n      dup3\n      swap1\n      sstore\n        /* \"contracts/maximus.sol\":5849:5861  STAKE_LENGTH */\n      sload(0x0c)\n        /* \"contracts/maximus.sol\":5837:5861  current_day+STAKE_LENGTH */\n      tag_316\n      swap1\n        /* \"contracts/maximus.sol\":5802:5813  current_day */\n      dup4\n        /* \"contracts/maximus.sol\":5837:5861  current_day+STAKE_LENGTH */\n      tag_159\n      jump\t// in\n    tag_316:\n        /* \"contracts/maximus.sol\":5823:5836  STAKE_END_DAY */\n      0x0a\n        /* \"contracts/maximus.sol\":5823:5861  STAKE_END_DAY=current_day+STAKE_LENGTH */\n      sstore\n      pop\n      pop\n        /* \"contracts/maximus.sol\":5267:5868  function stakeHEX() public {... */\n      jump\t// out\n        /* \"contracts/maximus.sol\":1884:2111  function get_amount_redeem_hex(uint amt) public view returns (uint256){... */\n    tag_138:\n        /* \"contracts/maximus.sol\":1977:1992  REDEMPTION_RATE */\n      sload(0x0b)\n        /* \"contracts/maximus.sol\":1946:1953  uint256 */\n      0x00\n      swap1\n      dup2\n        /* \"contracts/maximus.sol\":2020:2026  amt*RR */\n      tag_318\n        /* \"contracts/maximus.sol\":1977:1992  REDEMPTION_RATE */\n      dup3\n        /* \"contracts/maximus.sol\":2020:2023  amt */\n      dup6\n        /* \"contracts/maximus.sol\":2020:2026  amt*RR */\n      tag_163\n      jump\t// in\n    tag_318:\n        /* \"contracts/maximus.sol\":2002:2026  uint256 raw_amt = amt*RR */\n      swap1\n      pop\n        /* \"contracts/maximus.sol\":2036:2051  uint256 num_hex */\n      0x00\n        /* \"contracts/maximus.sol\":2054:2080  percent(raw_amt, 10000, 4) */\n      tag_319\n        /* \"contracts/maximus.sol\":2062:2069  raw_amt */\n      dup3\n        /* \"contracts/maximus.sol\":2071:2076  10000 */\n      0x2710\n        /* \"contracts/maximus.sol\":2078:2079  4 */\n      0x04\n        /* \"contracts/maximus.sol\":2054:2061  percent */\n      tag_45\n        /* \"contracts/maximus.sol\":2054:2080  percent(raw_amt, 10000, 4) */\n      jump\t// in\n    tag_319:\n        /* \"contracts/maximus.sol\":2036:2080  uint256 num_hex = percent(raw_amt, 10000, 4) */\n      swap6\n        /* \"contracts/maximus.sol\":1884:2111  function get_amount_redeem_hex(uint amt) public view returns (uint256){... */\n      swap5\n      pop\n      pop\n      pop\n      pop\n      pop\n      jump\t// out\n        /* \"contracts/maximus.sol\":3812:3931  function getAllowanceHEX() public view returns (uint256) {return hex_contract.allowance(msg.sender, CONTRACT_ADDRESS);} */\n    tag_141:\n        /* \"contracts/maximus.sol\":3877:3889  hex_contract */\n      sload(0x10)\n        /* \"contracts/maximus.sol\":3912:3928  CONTRACT_ADDRESS */\n      sload(0x0e)\n        /* \"contracts/maximus.sol\":3877:3929  hex_contract.allowance(msg.sender, CONTRACT_ADDRESS) */\n      mload(0x40)\n      shl(0xe1, 0x6eb1769f)\n      dup2\n      mstore\n        /* \"contracts/maximus.sol\":3900:3910  msg.sender */\n      caller\n        /* \"contracts/maximus.sol\":3877:3929  hex_contract.allowance(msg.sender, CONTRACT_ADDRESS) */\n      0x04\n      dup3\n      add\n        /* \"#utility.yul\":6997:7031   */\n      mstore\n      sub(shl(0xa0, 0x01), 0x01)\n        /* \"contracts/maximus.sol\":3912:3928  CONTRACT_ADDRESS */\n      swap2\n      dup3\n      and\n        /* \"#utility.yul\":7047:7065   */\n      0x24\n      dup3\n      add\n        /* \"#utility.yul\":7040:7083   */\n      mstore\n        /* \"contracts/maximus.sol\":3860:3867  uint256 */\n      0x00\n      swap3\n        /* \"contracts/maximus.sol\":3877:3889  hex_contract */\n      swap2\n      swap1\n      swap2\n      and\n      swap1\n        /* \"contracts/maximus.sol\":3877:3899  hex_contract.allowance */\n      0xdd62ed3e\n      swap1\n        /* \"#utility.yul\":6932:6950   */\n      0x44\n      add\n        /* \"contracts/maximus.sol\":3877:3929  hex_contract.allowance(msg.sender, CONTRACT_ADDRESS) */\n      tag_254\n        /* \"#utility.yul\":6785:7089   */\n      jump\n        /* \"contracts/maximus.sol\":4601:5022  function redeemHEX(uint256 amount_MAXI) public {... */\n    tag_153:\n        /* \"contracts/maximus.sol\":4662:4679  HAS_STAKE_STARTED */\n      and(0xff, sload(0x08))\n        /* \"contracts/maximus.sol\":4662:4686  HAS_STAKE_STARTED==false */\n      iszero\n      dup1\n        /* \"contracts/maximus.sol\":4662:4711  HAS_STAKE_STARTED==false || HAS_STAKE_ENDED==true */\n      tag_328\n      jumpi\n      pop\n        /* \"contracts/maximus.sol\":4690:4705  HAS_STAKE_ENDED */\n      sload(0x08)\n      0xff\n      0x0100\n      swap1\n      swap2\n      div\n      and\n        /* \"contracts/maximus.sol\":4690:4711  HAS_STAKE_ENDED==true */\n      iszero\n      iszero\n        /* \"contracts/maximus.sol\":4690:4705  HAS_STAKE_ENDED */\n      0x01\n        /* \"contracts/maximus.sol\":4690:4711  HAS_STAKE_ENDED==true */\n      eq\n        /* \"contracts/maximus.sol\":4662:4711  HAS_STAKE_STARTED==false || HAS_STAKE_ENDED==true */\n    tag_328:\n        /* \"contracts/maximus.sol\":4658:5016  if (HAS_STAKE_STARTED==false || HAS_STAKE_ENDED==true) {... */\n      iszero\n      tag_199\n      jumpi\n        /* \"contracts/maximus.sol\":4756:4766  msg.sender */\n      caller\n        /* \"contracts/maximus.sol\":4727:4743  uint256 yourMAXI */\n      0x00\n        /* \"@openzeppelin/contracts/token/ERC20/ERC20.sol\":3493:3511  _balances[account] */\n      swap1\n      dup2\n      mstore\n      0x20\n      dup2\n      swap1\n      mstore\n      0x40\n      swap1\n      keccak256\n      sload\n        /* \"contracts/maximus.sol\":4789:4810  yourMAXI>=amount_MAXI */\n      dup2\n      dup2\n      lt\n      iszero\n        /* \"contracts/maximus.sol\":4781:4846  require(yourMAXI>=amount_MAXI, \"You do not have that much MAXI.\") */\n      tag_331\n      jumpi\n      mload(0x40)\n      shl(0xe5, 0x461bcd)\n      dup2\n      mstore\n        /* \"#utility.yul\":10753:10755   */\n      0x20\n        /* \"contracts/maximus.sol\":4781:4846  require(yourMAXI>=amount_MAXI, \"You do not have that much MAXI.\") */\n      0x04\n      dup3\n      add\n        /* \"#utility.yul\":10735:10756   */\n      mstore\n        /* \"#utility.yul\":10792:10794   */\n      0x1f\n        /* \"#utility.yul\":10772:10790   */\n      0x24\n      dup3\n      add\n        /* \"#utility.yul\":10765:10795   */\n      mstore\n        /* \"#utility.yul\":10831:10864   */\n      0x596f7520646f206e6f7420686176652074686174206d756368204d4158492e00\n        /* \"#utility.yul\":10811:10829   */\n      0x44\n      dup3\n      add\n        /* \"#utility.yul\":10804:10865   */\n      mstore\n        /* \"#utility.yul\":10882:10900   */\n      0x64\n      add\n        /* \"contracts/maximus.sol\":4781:4846  require(yourMAXI>=amount_MAXI, \"You do not have that much MAXI.\") */\n      tag_187\n        /* \"#utility.yul\":10551:10906   */\n      jump\n        /* \"contracts/maximus.sol\":4781:4846  require(yourMAXI>=amount_MAXI, \"You do not have that much MAXI.\") */\n    tag_331:\n        /* \"contracts/maximus.sol\":4860:4885  uint256 redeemable_amount */\n      0x00\n        /* \"contracts/maximus.sol\":4900:4915  REDEMPTION_RATE */\n      sload(0x0b)\n        /* \"contracts/maximus.sol\":4888:4899  amount_MAXI */\n      dup4\n        /* \"contracts/maximus.sol\":4888:4915  amount_MAXI*REDEMPTION_RATE */\n      tag_334\n      swap2\n      swap1\n      tag_163\n      jump\t// in\n    tag_334:\n        /* \"contracts/maximus.sol\":4860:4915  uint256 redeemable_amount = amount_MAXI*REDEMPTION_RATE */\n      swap1\n      pop\n        /* \"contracts/maximus.sol\":4929:4946  burn(amount_MAXI) */\n      tag_335\n        /* \"contracts/maximus.sol\":4934:4945  amount_MAXI */\n      dup4\n        /* \"contracts/maximus.sol\":4929:4933  burn */\n      tag_83\n        /* \"contracts/maximus.sol\":4929:4946  burn(amount_MAXI) */\n      jump\t// in\n    tag_335:\n        /* \"contracts/maximus.sol\":4960:4965  token */\n      sload(0x11)\n        /* \"contracts/maximus.sol\":4960:5005  token.transfer(msg.sender, redeemable_amount) */\n      mload(0x40)\n      shl(0xe0, 0xa9059cbb)\n      dup2\n      mstore\n        /* \"contracts/maximus.sol\":4975:4985  msg.sender */\n      caller\n        /* \"contracts/maximus.sol\":4960:5005  token.transfer(msg.sender, redeemable_amount) */\n      0x04\n      dup3\n      add\n        /* \"#utility.yul\":11085:11136   */\n      mstore\n        /* \"#utility.yul\":11152:11170   */\n      0x24\n      dup2\n      add\n        /* \"#utility.yul\":11145:11179   */\n      dup4\n      swap1\n      mstore\n      sub(shl(0xa0, 0x01), 0x01)\n        /* \"contracts/maximus.sol\":4960:4965  token */\n      swap1\n      swap2\n      and\n      swap1\n        /* \"contracts/maximus.sol\":4960:4974  token.transfer */\n      0xa9059cbb\n      swap1\n        /* \"#utility.yul\":11058:11076   */\n      0x44\n      add\n        /* \"contracts/maximus.sol\":4960:5005  token.transfer(msg.sender, redeemable_amount) */\n      0x20\n      mload(0x40)\n      dup1\n      dup4\n      sub\n      dup2\n      0x00\n      dup8\n      gas\n      call\n      iszero\n      dup1\n      iszero\n      tag_339\n      jumpi\n      returndatasize\n      0x00\n      dup1\n      returndatacopy\n      revert(0x00, returndatasize)\n    tag_339:\n      pop\n      pop\n      pop\n      pop\n      mload(0x40)\n      returndatasize\n      not(0x1f)\n      0x1f\n      dup3\n      add\n      and\n      dup3\n      add\n      dup1\n      0x40\n      mstore\n      pop\n      dup2\n      add\n      swap1\n      tag_340\n      swap2\n      swap1\n      tag_223\n      jump\t// in\n    tag_340:\n      pop\n        /* \"contracts/maximus.sol\":4713:5016  {... */\n      pop\n      pop\n        /* \"contracts/maximus.sol\":4601:5022  function redeemHEX(uint256 amount_MAXI) public {... */\n      pop\n      jump\t// out\n        /* \"@openzeppelin/contracts/access/Ownable.sol\":1918:2116  function transferOwnership(address newOwner) public virtual onlyOwner {... */\n    tag_156:\n        /* \"@openzeppelin/contracts/access/Ownable.sol\":1108:1114  _owner */\n      and(sub(shl(0xa0, 0x01), 0x01), sload(0x05))\n        /* \"@openzeppelin/contracts/utils/Context.sol\":719:729  msg.sender */\n      caller\n        /* \"@openzeppelin/contracts/access/Ownable.sol\":1248:1271  owner() == _msgSender() */\n      eq\n        /* \"@openzeppelin/contracts/access/Ownable.sol\":1240:1308  require(owner() == _msgSender(), \"Ownable: caller is not the owner\") */\n      tag_344\n      jumpi\n      mload(0x40)\n      shl(0xe5, 0x461bcd)\n      dup2\n      mstore\n        /* \"#utility.yul\":9153:9155   */\n      0x20\n        /* \"@openzeppelin/contracts/access/Ownable.sol\":1240:1308  require(owner() == _msgSender(), \"Ownable: caller is not the owner\") */\n      0x04\n      dup3\n      add\n        /* \"#utility.yul\":9135:9156   */\n      dup2\n      swap1\n      mstore\n        /* \"#utility.yul\":9172:9190   */\n      0x24\n      dup3\n      add\n        /* \"#utility.yul\":9165:9195   */\n      mstore\n        /* \"#utility.yul\":9231:9265   */\n      0x4f776e61626c653a2063616c6c6572206973206e6f7420746865206f776e6572\n        /* \"#utility.yul\":9211:9229   */\n      0x44\n      dup3\n      add\n        /* \"#utility.yul\":9204:9266   */\n      mstore\n        /* \"#utility.yul\":9283:9301   */\n      0x64\n      add\n        /* \"@openzeppelin/contracts/access/Ownable.sol\":1240:1308  require(owner() == _msgSender(), \"Ownable: caller is not the owner\") */\n      tag_187\n        /* \"#utility.yul\":8951:9307   */\n      jump\n        /* \"@openzeppelin/contracts/access/Ownable.sol\":1240:1308  require(owner() == _msgSender(), \"Ownable: caller is not the owner\") */\n    tag_344:\n      sub(shl(0xa0, 0x01), 0x01)\n        /* \"@openzeppelin/contracts/access/Ownable.sol\":2006:2028  newOwner != address(0) */\n      dup2\n      and\n        /* \"@openzeppelin/contracts/access/Ownable.sol\":1998:2071  require(newOwner != address(0), \"Ownable: new owner is the zero address\") */\n      tag_347\n      jumpi\n      mload(0x40)\n      shl(0xe5, 0x461bcd)\n      dup2\n      mstore\n        /* \"#utility.yul\":11392:11394   */\n      0x20\n        /* \"@openzeppelin/contracts/access/Ownable.sol\":1998:2071  require(newOwner != address(0), \"Ownable: new owner is the zero address\") */\n      0x04\n      dup3\n      add\n        /* \"#utility.yul\":11374:11395   */\n      mstore\n        /* \"#utility.yul\":11431:11433   */\n      0x26\n        /* \"#utility.yul\":11411:11429   */\n      0x24\n      dup3\n      add\n        /* \"#utility.yul\":11404:11434   */\n      mstore\n        /* \"#utility.yul\":11470:11504   */\n      0x4f776e61626c653a206e6577206f776e657220697320746865207a65726f2061\n        /* \"#utility.yul\":11450:11468   */\n      0x44\n      dup3\n      add\n        /* \"#utility.yul\":11443:11505   */\n      mstore\n      shl(0xd0, 0x646472657373)\n        /* \"#utility.yul\":11521:11539   */\n      0x64\n      dup3\n      add\n        /* \"#utility.yul\":11514:11550   */\n      mstore\n        /* \"#utility.yul\":11567:11586   */\n      0x84\n      add\n        /* \"@openzeppelin/contracts/access/Ownable.sol\":1998:2071  require(newOwner != address(0), \"Ownable: new owner is the zero address\") */\n      tag_187\n        /* \"#utility.yul\":11190:11592   */\n      jump\n        /* \"@openzeppelin/contracts/access/Ownable.sol\":1998:2071  require(newOwner != address(0), \"Ownable: new owner is the zero address\") */\n    tag_347:\n        /* \"@openzeppelin/contracts/access/Ownable.sol\":2081:2109  _transferOwnership(newOwner) */\n      tag_199\n        /* \"@openzeppelin/contracts/access/Ownable.sol\":2100:2108  newOwner */\n      dup2\n        /* \"@openzeppelin/contracts/access/Ownable.sol\":2081:2099  _transferOwnership */\n      tag_267\n        /* \"@openzeppelin/contracts/access/Ownable.sol\":2081:2109  _transferOwnership(newOwner) */\n      jump\t// in\n        /* \"@openzeppelin/contracts/token/ERC20/ERC20.sol\":10019:10389  function _approve(... */\n    tag_180:\n      sub(shl(0xa0, 0x01), 0x01)\n        /* \"@openzeppelin/contracts/token/ERC20/ERC20.sol\":10150:10169  owner != address(0) */\n      dup4\n      and\n        /* \"@openzeppelin/contracts/token/ERC20/ERC20.sol\":10142:10210  require(owner != address(0), \"ERC20: approve from the zero address\") */\n      tag_353\n      jumpi\n      mload(0x40)\n      shl(0xe5, 0x461bcd)\n      dup2\n      mstore\n        /* \"#utility.yul\":11799:11801   */\n      0x20\n        /* \"@openzeppelin/contracts/token/ERC20/ERC20.sol\":10142:10210  require(owner != address(0), \"ERC20: approve from the zero address\") */\n      0x04\n      dup3\n      add\n        /* \"#utility.yul\":11781:11802   */\n      mstore\n        /* \"#utility.yul\":11838:11840   */\n      0x24\n        /* \"#utility.yul\":11818:11836   */\n      dup1\n      dup3\n      add\n        /* \"#utility.yul\":11811:11841   */\n      mstore\n        /* \"#utility.yul\":11877:11911   */\n      0x45524332303a20617070726f76652066726f6d20746865207a65726f20616464\n        /* \"#utility.yul\":11857:11875   */\n      0x44\n      dup3\n      add\n        /* \"#utility.yul\":11850:11912   */\n      mstore\n      shl(0xe0, 0x72657373)\n        /* \"#utility.yul\":11928:11946   */\n      0x64\n      dup3\n      add\n        /* \"#utility.yul\":11921:11955   */\n      mstore\n        /* \"#utility.yul\":11972:11991   */\n      0x84\n      add\n        /* \"@openzeppelin/contracts/token/ERC20/ERC20.sol\":10142:10210  require(owner != address(0), \"ERC20: approve from the zero address\") */\n      tag_187\n        /* \"#utility.yul\":11597:11997   */\n      jump\n        /* \"@openzeppelin/contracts/token/ERC20/ERC20.sol\":10142:10210  require(owner != address(0), \"ERC20: approve from the zero address\") */\n    tag_353:\n      sub(shl(0xa0, 0x01), 0x01)\n        /* \"@openzeppelin/contracts/token/ERC20/ERC20.sol\":10228:10249  spender != address(0) */\n      dup3\n      and\n        /* \"@openzeppelin/contracts/token/ERC20/ERC20.sol\":10220:10288  require(spender != address(0), \"ERC20: approve to the zero address\") */\n      tag_356\n      jumpi\n      mload(0x40)\n      shl(0xe5, 0x461bcd)\n      dup2\n      mstore\n        /* \"#utility.yul\":12204:12206   */\n      0x20\n        /* \"@openzeppelin/contracts/token/ERC20/ERC20.sol\":10220:10288  require(spender != address(0), \"ERC20: approve to the zero address\") */\n      0x04\n      dup3\n      add\n        /* \"#utility.yul\":12186:12207   */\n      mstore\n        /* \"#utility.yul\":12243:12245   */\n      0x22\n        /* \"#utility.yul\":12223:12241   */\n      0x24\n      dup3\n      add\n        /* \"#utility.yul\":12216:12246   */\n      mstore\n        /* \"#utility.yul\":12282:12316   */\n      0x45524332303a20617070726f766520746f20746865207a65726f206164647265\n        /* \"#utility.yul\":12262:12280   */\n      0x44\n      dup3\n      add\n        /* \"#utility.yul\":12255:12317   */\n      mstore\n      shl(0xf0, 0x7373)\n        /* \"#utility.yul\":12333:12351   */\n      0x64\n      dup3\n      add\n        /* \"#utility.yul\":12326:12358   */\n      mstore\n        /* \"#utility.yul\":12375:12394   */\n      0x84\n      add\n        /* \"@openzeppelin/contracts/token/ERC20/ERC20.sol\":10220:10288  require(spender != address(0), \"ERC20: approve to the zero address\") */\n      tag_187\n        /* \"#utility.yul\":12002:12400   */\n      jump\n        /* \"@openzeppelin/contracts/token/ERC20/ERC20.sol\":10220:10288  require(spender != address(0), \"ERC20: approve to the zero address\") */\n    tag_356:\n      sub(shl(0xa0, 0x01), 0x01)\n        /* \"@openzeppelin/contracts/token/ERC20/ERC20.sol\":10299:10317  _allowances[owner] */\n      dup4\n      dup2\n      and\n      0x00\n      dup2\n      dup2\n      mstore\n        /* \"@openzeppelin/contracts/token/ERC20/ERC20.sol\":10299:10310  _allowances */\n      0x01\n        /* \"@openzeppelin/contracts/token/ERC20/ERC20.sol\":10299:10317  _allowances[owner] */\n      0x20\n      swap1\n      dup2\n      mstore\n      0x40\n      dup1\n      dup4\n      keccak256\n        /* \"@openzeppelin/contracts/token/ERC20/ERC20.sol\":10299:10326  _allowances[owner][spender] */\n      swap5\n      dup8\n      and\n      dup1\n      dup5\n      mstore\n      swap5\n      dup3\n      mstore\n      swap2\n      dup3\n      swap1\n      keccak256\n        /* \"@openzeppelin/contracts/token/ERC20/ERC20.sol\":10299:10335  _allowances[owner][spender] = amount */\n      dup6\n      swap1\n      sstore\n        /* \"@openzeppelin/contracts/token/ERC20/ERC20.sol\":10350:10382  Approval(owner, spender, amount) */\n      swap1\n      mload\n        /* \"#utility.yul\":481:506   */\n      dup5\n      dup2\n      mstore\n        /* \"@openzeppelin/contracts/token/ERC20/ERC20.sol\":10350:10382  Approval(owner, spender, amount) */\n      0x8c5be1e5ebec7d5bd14f71427d1e84f3dd0314c0f7b2291e5b200ac8c7c3b925\n      swap2\n        /* \"#utility.yul\":454:472   */\n      add\n        /* \"@openzeppelin/contracts/token/ERC20/ERC20.sol\":10350:10382  Approval(owner, spender, amount) */\n      mload(0x40)\n      dup1\n      swap2\n      sub\n      swap1\n      log3\n        /* \"@openzeppelin/contracts/token/ERC20/ERC20.sol\":10019:10389  function _approve(... */\n      pop\n      pop\n      pop\n      jump\t// out\n        /* \"@openzeppelin/contracts/token/ERC20/ERC20.sol\":7322:8035  function _transfer(... */\n    tag_184:\n      sub(shl(0xa0, 0x01), 0x01)\n        /* \"@openzeppelin/contracts/token/ERC20/ERC20.sol\":7457:7477  sender != address(0) */\n      dup4\n      and\n        /* \"@openzeppelin/contracts/token/ERC20/ERC20.sol\":7449:7519  require(sender != address(0), \"ERC20: transfer from the zero address\") */\n      tag_361\n      jumpi\n      mload(0x40)\n      shl(0xe5, 0x461bcd)\n      dup2\n      mstore\n        /* \"#utility.yul\":12607:12609   */\n      0x20\n        /* \"@openzeppelin/contracts/token/ERC20/ERC20.sol\":7449:7519  require(sender != address(0), \"ERC20: transfer from the zero address\") */\n      0x04\n      dup3\n      add\n        /* \"#utility.yul\":12589:12610   */\n      mstore\n        /* \"#utility.yul\":12646:12648   */\n      0x25\n        /* \"#utility.yul\":12626:12644   */\n      0x24\n      dup3\n      add\n        /* \"#utility.yul\":12619:12649   */\n      mstore\n        /* \"#utility.yul\":12685:12719   */\n      0x45524332303a207472616e736665722066726f6d20746865207a65726f206164\n        /* \"#utility.yul\":12665:12683   */\n      0x44\n      dup3\n      add\n        /* \"#utility.yul\":12658:12720   */\n      mstore\n      shl(0xd8, 0x6472657373)\n        /* \"#utility.yul\":12736:12754   */\n      0x64\n      dup3\n      add\n        /* \"#utility.yul\":12729:12764   */\n      mstore\n        /* \"#utility.yul\":12781:12800   */\n      0x84\n      add\n        /* \"@openzeppelin/contracts/token/ERC20/ERC20.sol\":7449:7519  require(sender != address(0), \"ERC20: transfer from the zero address\") */\n      tag_187\n        /* \"#utility.yul\":12405:12806   */\n      jump\n        /* \"@openzeppelin/contracts/token/ERC20/ERC20.sol\":7449:7519  require(sender != address(0), \"ERC20: transfer from the zero address\") */\n    tag_361:\n      sub(shl(0xa0, 0x01), 0x01)\n        /* \"@openzeppelin/contracts/token/ERC20/ERC20.sol\":7537:7560  recipient != address(0) */\n      dup3\n      and\n        /* \"@openzeppelin/contracts/token/ERC20/ERC20.sol\":7529:7600  require(recipient != address(0), \"ERC20: transfer to the zero address\") */\n      tag_364\n      jumpi\n      mload(0x40)\n      shl(0xe5, 0x461bcd)\n      dup2\n      mstore\n        /* \"#utility.yul\":13013:13015   */\n      0x20\n        /* \"@openzeppelin/contracts/token/ERC20/ERC20.sol\":7529:7600  require(recipient != address(0), \"ERC20: transfer to the zero address\") */\n      0x04\n      dup3\n      add\n        /* \"#utility.yul\":12995:13016   */\n      mstore\n        /* \"#utility.yul\":13052:13054   */\n      0x23\n        /* \"#utility.yul\":13032:13050   */\n      0x24\n      dup3\n      add\n        /* \"#utility.yul\":13025:13055   */\n      mstore\n        /* \"#utility.yul\":13091:13125   */\n      0x45524332303a207472616e7366657220746f20746865207a65726f2061646472\n        /* \"#utility.yul\":13071:13089   */\n      0x44\n      dup3\n      add\n        /* \"#utility.yul\":13064:13126   */\n      mstore\n      shl(0xe8, 0x657373)\n        /* \"#utility.yul\":13142:13160   */\n      0x64\n      dup3\n      add\n        /* \"#utility.yul\":13135:13168   */\n      mstore\n        /* \"#utility.yul\":13185:13204   */\n      0x84\n      add\n        /* \"@openzeppelin/contracts/token/ERC20/ERC20.sol\":7529:7600  require(recipient != address(0), \"ERC20: transfer to the zero address\") */\n      tag_187\n        /* \"#utility.yul\":12811:13210   */\n      jump\n        /* \"@openzeppelin/contracts/token/ERC20/ERC20.sol\":7529:7600  require(recipient != address(0), \"ERC20: transfer to the zero address\") */\n    tag_364:\n      sub(shl(0xa0, 0x01), 0x01)\n        /* \"@openzeppelin/contracts/token/ERC20/ERC20.sol\":7693:7710  _balances[sender] */\n      dup4\n      and\n        /* \"@openzeppelin/contracts/token/ERC20/ERC20.sol\":7669:7690  uint256 senderBalance */\n      0x00\n        /* \"@openzeppelin/contracts/token/ERC20/ERC20.sol\":7693:7710  _balances[sender] */\n      swap1\n      dup2\n      mstore\n      0x20\n      dup2\n      swap1\n      mstore\n      0x40\n      swap1\n      keccak256\n      sload\n        /* \"@openzeppelin/contracts/token/ERC20/ERC20.sol\":7728:7751  senderBalance >= amount */\n      dup2\n      dup2\n      lt\n      iszero\n        /* \"@openzeppelin/contracts/token/ERC20/ERC20.sol\":7720:7794  require(senderBalance >= amount, \"ERC20: transfer amount exceeds balance\") */\n      tag_369\n      jumpi\n      mload(0x40)\n      shl(0xe5, 0x461bcd)\n      dup2\n      mstore\n        /* \"#utility.yul\":13417:13419   */\n      0x20\n        /* \"@openzeppelin/contracts/token/ERC20/ERC20.sol\":7720:7794  require(senderBalance >= amount, \"ERC20: transfer amount exceeds balance\") */\n      0x04\n      dup3\n      add\n        /* \"#utility.yul\":13399:13420   */\n      mstore\n        /* \"#utility.yul\":13456:13458   */\n      0x26\n        /* \"#utility.yul\":13436:13454   */\n      0x24\n      dup3\n      add\n        /* \"#utility.yul\":13429:13459   */\n      mstore\n        /* \"#utility.yul\":13495:13529   */\n      0x45524332303a207472616e7366657220616d6f756e7420657863656564732062\n        /* \"#utility.yul\":13475:13493   */\n      0x44\n      dup3\n      add\n        /* \"#utility.yul\":13468:13530   */\n      mstore\n      shl(0xd0, 0x616c616e6365)\n        /* \"#utility.yul\":13546:13564   */\n      0x64\n      dup3\n      add\n        /* \"#utility.yul\":13539:13575   */\n      mstore\n        /* \"#utility.yul\":13592:13611   */\n      0x84\n      add\n        /* \"@openzeppelin/contracts/token/ERC20/ERC20.sol\":7720:7794  require(senderBalance >= amount, \"ERC20: transfer amount exceeds balance\") */\n      tag_187\n        /* \"#utility.yul\":13215:13617   */\n      jump\n        /* \"@openzeppelin/contracts/token/ERC20/ERC20.sol\":7720:7794  require(senderBalance >= amount, \"ERC20: transfer amount exceeds balance\") */\n    tag_369:\n      sub(shl(0xa0, 0x01), 0x01)\n        /* \"@openzeppelin/contracts/token/ERC20/ERC20.sol\":7828:7845  _balances[sender] */\n      dup1\n      dup6\n      and\n        /* \"@openzeppelin/contracts/token/ERC20/ERC20.sol\":7828:7837  _balances */\n      0x00\n        /* \"@openzeppelin/contracts/token/ERC20/ERC20.sol\":7828:7845  _balances[sender] */\n      swap1\n      dup2\n      mstore\n      0x20\n      dup2\n      swap1\n      mstore\n      0x40\n      dup1\n      dup3\n      keccak256\n        /* \"@openzeppelin/contracts/token/ERC20/ERC20.sol\":7848:7870  senderBalance - amount */\n      dup6\n      dup6\n      sub\n        /* \"@openzeppelin/contracts/token/ERC20/ERC20.sol\":7828:7870  _balances[sender] = senderBalance - amount */\n      swap1\n      sstore\n        /* \"@openzeppelin/contracts/token/ERC20/ERC20.sol\":7890:7910  _balances[recipient] */\n      swap2\n      dup6\n      and\n      dup2\n      mstore\n      swap1\n      dup2\n      keccak256\n        /* \"@openzeppelin/contracts/token/ERC20/ERC20.sol\":7890:7920  _balances[recipient] += amount */\n      dup1\n      sload\n        /* \"@openzeppelin/contracts/token/ERC20/ERC20.sol\":7864:7870  amount */\n      dup5\n      swap3\n        /* \"@openzeppelin/contracts/token/ERC20/ERC20.sol\":7828:7837  _balances */\n      swap1\n        /* \"@openzeppelin/contracts/token/ERC20/ERC20.sol\":7890:7920  _balances[recipient] += amount */\n      tag_372\n      swap1\n        /* \"@openzeppelin/contracts/token/ERC20/ERC20.sol\":7864:7870  amount */\n      dup5\n      swap1\n        /* \"@openzeppelin/contracts/token/ERC20/ERC20.sol\":7890:7920  _balances[recipient] += amount */\n      tag_159\n      jump\t// in\n    tag_372:\n      swap3\n      pop\n      pop\n      dup2\n      swap1\n      sstore\n      pop\n        /* \"@openzeppelin/contracts/token/ERC20/ERC20.sol\":7953:7962  recipient */\n      dup3\n      sub(shl(0xa0, 0x01), 0x01)\n        /* \"@openzeppelin/contracts/token/ERC20/ERC20.sol\":7936:7971  Transfer(sender, recipient, amount) */\n      and\n        /* \"@openzeppelin/contracts/token/ERC20/ERC20.sol\":7945:7951  sender */\n      dup5\n      sub(shl(0xa0, 0x01), 0x01)\n        /* \"@openzeppelin/contracts/token/ERC20/ERC20.sol\":7936:7971  Transfer(sender, recipient, amount) */\n      and\n      0xddf252ad1be2c89b69c2b068fc378daa952ba7f163c4a11628f55a4df523b3ef\n        /* \"@openzeppelin/contracts/token/ERC20/ERC20.sol\":7964:7970  amount */\n      dup5\n        /* \"@openzeppelin/contracts/token/ERC20/ERC20.sol\":7936:7971  Transfer(sender, recipient, amount) */\n      mload(0x40)\n      tag_373\n      swap2\n        /* \"#utility.yul\":481:506   */\n      dup2\n      mstore\n        /* \"#utility.yul\":469:471   */\n      0x20\n        /* \"#utility.yul\":454:472   */\n      add\n      swap1\n        /* \"#utility.yul\":335:512   */\n      jump\n        /* \"@openzeppelin/contracts/token/ERC20/ERC20.sol\":7936:7971  Transfer(sender, recipient, amount) */\n    tag_373:\n      mload(0x40)\n      dup1\n      swap2\n      sub\n      swap1\n      log3\n        /* \"@openzeppelin/contracts/token/ERC20/ERC20.sol\":7982:8028  _afterTokenTransfer(sender, recipient, amount) */\n      tag_340\n        /* \"@openzeppelin/contracts/token/ERC20/extensions/ERC20Burnable.sol\":958:1319  function burnFrom(address account, uint256 amount) public virtual {... */\n      jump\n        /* \"@openzeppelin/contracts/token/ERC20/ERC20.sol\":9020:9596  function _burn(address account, uint256 amount) internal virtual {... */\n    tag_201:\n      sub(shl(0xa0, 0x01), 0x01)\n        /* \"@openzeppelin/contracts/token/ERC20/ERC20.sol\":9103:9124  account != address(0) */\n      dup3\n      and\n        /* \"@openzeppelin/contracts/token/ERC20/ERC20.sol\":9095:9162  require(account != address(0), \"ERC20: burn from the zero address\") */\n      tag_377\n      jumpi\n      mload(0x40)\n      shl(0xe5, 0x461bcd)\n      dup2\n      mstore\n        /* \"#utility.yul\":13824:13826   */\n      0x20\n        /* \"@openzeppelin/contracts/token/ERC20/ERC20.sol\":9095:9162  require(account != address(0), \"ERC20: burn from the zero address\") */\n      0x04\n      dup3\n      add\n        /* \"#utility.yul\":13806:13827   */\n      mstore\n        /* \"#utility.yul\":13863:13865   */\n      0x21\n        /* \"#utility.yul\":13843:13861   */\n      0x24\n      dup3\n      add\n        /* \"#utility.yul\":13836:13866   */\n      mstore\n        /* \"#utility.yul\":13902:13936   */\n      0x45524332303a206275726e2066726f6d20746865207a65726f20616464726573\n        /* \"#utility.yul\":13882:13900   */\n      0x44\n      dup3\n      add\n        /* \"#utility.yul\":13875:13937   */\n      mstore\n      shl(0xf8, 0x73)\n        /* \"#utility.yul\":13953:13971   */\n      0x64\n      dup3\n      add\n        /* \"#utility.yul\":13946:13977   */\n      mstore\n        /* \"#utility.yul\":13994:14013   */\n      0x84\n      add\n        /* \"@openzeppelin/contracts/token/ERC20/ERC20.sol\":9095:9162  require(account != address(0), \"ERC20: burn from the zero address\") */\n      tag_187\n        /* \"#utility.yul\":13622:14019   */\n      jump\n        /* \"@openzeppelin/contracts/token/ERC20/ERC20.sol\":9095:9162  require(account != address(0), \"ERC20: burn from the zero address\") */\n    tag_377:\n      sub(shl(0xa0, 0x01), 0x01)\n        /* \"@openzeppelin/contracts/token/ERC20/ERC20.sol\":9258:9276  _balances[account] */\n      dup3\n      and\n        /* \"@openzeppelin/contracts/token/ERC20/ERC20.sol\":9233:9255  uint256 accountBalance */\n      0x00\n        /* \"@openzeppelin/contracts/token/ERC20/ERC20.sol\":9258:9276  _balances[account] */\n      swap1\n      dup2\n      mstore\n      0x20\n      dup2\n      swap1\n      mstore\n      0x40\n      swap1\n      keccak256\n      sload\n        /* \"@openzeppelin/contracts/token/ERC20/ERC20.sol\":9294:9318  accountBalance >= amount */\n      dup2\n      dup2\n      lt\n      iszero\n        /* \"@openzeppelin/contracts/token/ERC20/ERC20.sol\":9286:9357  require(accountBalance >= amount, \"ERC20: burn amount exceeds balance\") */\n      tag_381\n      jumpi\n      mload(0x40)\n      shl(0xe5, 0x461bcd)\n      dup2\n      mstore\n        /* \"#utility.yul\":14226:14228   */\n      0x20\n        /* \"@openzeppelin/contracts/token/ERC20/ERC20.sol\":9286:9357  require(accountBalance >= amount, \"ERC20: burn amount exceeds balance\") */\n      0x04\n      dup3\n      add\n        /* \"#utility.yul\":14208:14229   */\n      mstore\n        /* \"#utility.yul\":14265:14267   */\n      0x22\n        /* \"#utility.yul\":14245:14263   */\n      0x24\n      dup3\n      add\n        /* \"#utility.yul\":14238:14268   */\n      mstore\n        /* \"#utility.yul\":14304:14338   */\n      0x45524332303a206275726e20616d6f756e7420657863656564732062616c616e\n        /* \"#utility.yul\":14284:14302   */\n      0x44\n      dup3\n      add\n        /* \"#utility.yul\":14277:14339   */\n      mstore\n      shl(0xf0, 0x6365)\n        /* \"#utility.yul\":14355:14373   */\n      0x64\n      dup3\n      add\n        /* \"#utility.yul\":14348:14380   */\n      mstore\n        /* \"#utility.yul\":14397:14416   */\n      0x84\n      add\n        /* \"@openzeppelin/contracts/token/ERC20/ERC20.sol\":9286:9357  require(accountBalance >= amount, \"ERC20: burn amount exceeds balance\") */\n      tag_187\n        /* \"#utility.yul\":14024:14422   */\n      jump\n        /* \"@openzeppelin/contracts/token/ERC20/ERC20.sol\":9286:9357  require(accountBalance >= amount, \"ERC20: burn amount exceeds balance\") */\n    tag_381:\n      sub(shl(0xa0, 0x01), 0x01)\n        /* \"@openzeppelin/contracts/token/ERC20/ERC20.sol\":9391:9409  _balances[account] */\n      dup4\n      and\n        /* \"@openzeppelin/contracts/token/ERC20/ERC20.sol\":9391:9400  _balances */\n      0x00\n        /* \"@openzeppelin/contracts/token/ERC20/ERC20.sol\":9391:9409  _balances[account] */\n      swap1\n      dup2\n      mstore\n      0x20\n      dup2\n      swap1\n      mstore\n      0x40\n      dup2\n      keccak256\n        /* \"@openzeppelin/contracts/token/ERC20/ERC20.sol\":9412:9435  accountBalance - amount */\n      dup4\n      dup4\n      sub\n        /* \"@openzeppelin/contracts/token/ERC20/ERC20.sol\":9391:9435  _balances[account] = accountBalance - amount */\n      swap1\n      sstore\n        /* \"@openzeppelin/contracts/token/ERC20/ERC20.sol\":9455:9467  _totalSupply */\n      0x02\n        /* \"@openzeppelin/contracts/token/ERC20/ERC20.sol\":9455:9477  _totalSupply -= amount */\n      dup1\n      sload\n        /* \"@openzeppelin/contracts/token/ERC20/ERC20.sol\":9429:9435  amount */\n      dup5\n      swap3\n        /* \"@openzeppelin/contracts/token/ERC20/ERC20.sol\":9391:9400  _balances */\n      swap1\n        /* \"@openzeppelin/contracts/token/ERC20/ERC20.sol\":9455:9477  _totalSupply -= amount */\n      tag_384\n      swap1\n        /* \"@openzeppelin/contracts/token/ERC20/ERC20.sol\":9429:9435  amount */\n      dup5\n      swap1\n        /* \"@openzeppelin/contracts/token/ERC20/ERC20.sol\":9455:9477  _totalSupply -= amount */\n      tag_385\n      jump\t// in\n    tag_384:\n      swap1\n      swap2\n      sstore\n      pop\n      pop\n        /* \"@openzeppelin/contracts/token/ERC20/ERC20.sol\":9493:9530  Transfer(account, address(0), amount) */\n      mload(0x40)\n        /* \"#utility.yul\":481:506   */\n      dup3\n      dup2\n      mstore\n        /* \"@openzeppelin/contracts/token/ERC20/ERC20.sol\":9519:9520  0 */\n      0x00\n      swap1\n      sub(shl(0xa0, 0x01), 0x01)\n        /* \"@openzeppelin/contracts/token/ERC20/ERC20.sol\":9493:9530  Transfer(account, address(0), amount) */\n      dup6\n      and\n      swap1\n      0xddf252ad1be2c89b69c2b068fc378daa952ba7f163c4a11628f55a4df523b3ef\n      swap1\n        /* \"#utility.yul\":469:471   */\n      0x20\n        /* \"#utility.yul\":454:472   */\n      add\n        /* \"@openzeppelin/contracts/token/ERC20/ERC20.sol\":9493:9530  Transfer(account, address(0), amount) */\n      mload(0x40)\n      dup1\n      swap2\n      sub\n      swap1\n      log3\n        /* \"@openzeppelin/contracts/token/ERC20/extensions/ERC20Burnable.sol\":1024:1319  {... */\n      pop\n        /* \"@openzeppelin/contracts/token/ERC20/extensions/ERC20Burnable.sol\":958:1319  function burnFrom(address account, uint256 amount) public virtual {... */\n      pop\n      pop\n      jump\t// out\n        /* \"contracts/maximus.sol\":4078:4167  function mint(uint256 amount) private {... */\n    tag_225:\n        /* \"contracts/maximus.sol\":4135:4160  _mint(msg.sender, amount) */\n      tag_199\n        /* \"contracts/maximus.sol\":4141:4151  msg.sender */\n      caller\n        /* \"contracts/maximus.sol\":4153:4159  amount */\n      dup3\n        /* \"contracts/maximus.sol\":4135:4140  _mint */\n      tag_390\n        /* \"contracts/maximus.sol\":4135:4160  _mint(msg.sender, amount) */\n      jump\t// in\n        /* \"contracts/maximus.sol\":5990:6123  function _endStakeHEX(uint256 stakeIndex,uint40 stakeIdParam ) private  {... */\n    tag_243:\n        /* \"contracts/maximus.sol\":6072:6077  token */\n      sload(0x11)\n        /* \"contracts/maximus.sol\":6072:6112  token.stakeEnd(stakeIndex, stakeIdParam) */\n      mload(0x40)\n      shl(0xe1, 0x1a1804d1)\n      dup2\n      mstore\n      0x04\n      dup2\n      add\n        /* \"#utility.yul\":14732:14757   */\n      dup5\n      swap1\n      mstore\n        /* \"#utility.yul\":14805:14817   */\n      0xffffffffff\n        /* \"#utility.yul\":14793:14818   */\n      dup4\n      and\n        /* \"#utility.yul\":14773:14791   */\n      0x24\n      dup3\n      add\n        /* \"#utility.yul\":14766:14819   */\n      mstore\n      sub(shl(0xa0, 0x01), 0x01)\n        /* \"contracts/maximus.sol\":6072:6077  token */\n      swap1\n      swap2\n      and\n      swap1\n        /* \"contracts/maximus.sol\":6072:6086  token.stakeEnd */\n      0x343009a2\n      swap1\n        /* \"#utility.yul\":14705:14723   */\n      0x44\n      add\n        /* \"contracts/maximus.sol\":6072:6112  token.stakeEnd(stakeIndex, stakeIdParam) */\n      0x00\n      mload(0x40)\n      dup1\n      dup4\n      sub\n      dup2\n      0x00\n      dup8\n      dup1\n      extcodesize\n      iszero\n      dup1\n      iszero\n      tag_394\n      jumpi\n      0x00\n      dup1\n      revert\n    tag_394:\n      pop\n      gas\n      call\n      iszero\n      dup1\n      iszero\n      tag_396\n      jumpi\n      returndatasize\n      0x00\n      dup1\n      returndatacopy\n      revert(0x00, returndatasize)\n    tag_396:\n      pop\n      pop\n      pop\n      pop\n        /* \"contracts/maximus.sol\":5990:6123  function _endStakeHEX(uint256 stakeIndex,uint40 stakeIdParam ) private  {... */\n      pop\n      pop\n      jump\t// out\n        /* \"contracts/maximus.sol\":2116:2394  function get_redemption_rate() private view returns (uint256){... */\n    tag_252:\n        /* \"contracts/maximus.sol\":2209:2221  hex_contract */\n      sload(0x10)\n        /* \"contracts/maximus.sol\":2209:2246  hex_contract.balanceOf(address(this)) */\n      mload(0x40)\n      shl(0xe0, 0x70a08231)\n      dup2\n      mstore\n        /* \"contracts/maximus.sol\":2240:2244  this */\n      address\n        /* \"contracts/maximus.sol\":2209:2246  hex_contract.balanceOf(address(this)) */\n      0x04\n      dup3\n      add\n        /* \"#utility.yul\":3094:3145   */\n      mstore\n        /* \"contracts/maximus.sol\":2169:2176  uint256 */\n      0x00\n      swap2\n      dup3\n      swap2\n      sub(shl(0xa0, 0x01), 0x01)\n        /* \"contracts/maximus.sol\":2209:2221  hex_contract */\n      swap1\n      swap2\n      and\n      swap1\n        /* \"contracts/maximus.sol\":2209:2231  hex_contract.balanceOf */\n      0x70a08231\n      swap1\n        /* \"#utility.yul\":3067:3085   */\n      0x24\n      add\n        /* \"contracts/maximus.sol\":2209:2246  hex_contract.balanceOf(address(this)) */\n      0x20\n      mload(0x40)\n      dup1\n      dup4\n      sub\n      dup2\n      dup7\n      gas\n      staticcall\n      iszero\n      dup1\n      iszero\n      tag_400\n      jumpi\n      returndatasize\n      0x00\n      dup1\n      returndatacopy\n      revert(0x00, returndatasize)\n    tag_400:\n      pop\n      pop\n      pop\n      pop\n      mload(0x40)\n      returndatasize\n      not(0x1f)\n      0x1f\n      dup3\n      add\n      and\n      dup3\n      add\n      dup1\n      0x40\n      mstore\n      pop\n      dup2\n      add\n      swap1\n      tag_401\n      swap2\n      swap1\n      tag_206\n      jump\t// in\n    tag_401:\n        /* \"contracts/maximus.sol\":2187:2246  uint256 hex_balance = hex_contract.balanceOf(address(this)) */\n      swap1\n      pop\n        /* \"contracts/maximus.sol\":2256:2274  uint256 total_maxi */\n      0x00\n        /* \"contracts/maximus.sol\":2292:2296  this */\n      address\n      sub(shl(0xa0, 0x01), 0x01)\n        /* \"contracts/maximus.sol\":2277:2310  IERC20(address(this)).totalSupply */\n      and\n      0x18160ddd\n        /* \"contracts/maximus.sol\":2277:2312  IERC20(address(this)).totalSupply() */\n      mload(0x40)\n      dup2\n      0xffffffff\n      and\n      0xe0\n      shl\n      dup2\n      mstore\n      0x04\n      add\n      0x20\n      mload(0x40)\n      dup1\n      dup4\n      sub\n      dup2\n      dup7\n      gas\n      staticcall\n      iszero\n      dup1\n      iszero\n      tag_403\n      jumpi\n      returndatasize\n      0x00\n      dup1\n      returndatacopy\n      revert(0x00, returndatasize)\n    tag_403:\n      pop\n      pop\n      pop\n      pop\n      mload(0x40)\n      returndatasize\n      not(0x1f)\n      0x1f\n      dup3\n      add\n      and\n      dup3\n      add\n      dup1\n      0x40\n      mstore\n      pop\n      dup2\n      add\n      swap1\n      tag_404\n      swap2\n      swap1\n      tag_206\n      jump\t// in\n    tag_404:\n        /* \"contracts/maximus.sol\":2256:2312  uint256 total_maxi = IERC20(address(this)).totalSupply() */\n      swap1\n      pop\n        /* \"contracts/maximus.sol\":2322:2332  uint256 RR */\n      0x00\n        /* \"contracts/maximus.sol\":2335:2368  percent(hex_balance,total_maxi,8) */\n      tag_405\n        /* \"contracts/maximus.sol\":2343:2354  hex_balance */\n      dup4\n        /* \"contracts/maximus.sol\":2355:2365  total_maxi */\n      dup4\n        /* \"contracts/maximus.sol\":2366:2367  8 */\n      0x08\n        /* \"contracts/maximus.sol\":2335:2342  percent */\n      tag_45\n        /* \"contracts/maximus.sol\":2335:2368  percent(hex_balance,total_maxi,8) */\n      jump\t// in\n    tag_405:\n        /* \"contracts/maximus.sol\":2322:2368  uint256 RR = percent(hex_balance,total_maxi,8) */\n      swap5\n        /* \"contracts/maximus.sol\":2116:2394  function get_redemption_rate() private view returns (uint256){... */\n      swap4\n      pop\n      pop\n      pop\n      pop\n      jump\t// out\n        /* \"@openzeppelin/contracts/access/Ownable.sol\":2270:2457  function _transferOwnership(address newOwner) internal virtual {... */\n    tag_267:\n        /* \"@openzeppelin/contracts/access/Ownable.sol\":2362:2368  _owner */\n      0x05\n      dup1\n      sload\n      sub(shl(0xa0, 0x01), 0x01)\n        /* \"@openzeppelin/contracts/access/Ownable.sol\":2378:2395  _owner = newOwner */\n      dup4\n      dup2\n      and\n      not(sub(shl(0xa0, 0x01), 0x01))\n      dup4\n      and\n      dup2\n      or\n      swap1\n      swap4\n      sstore\n        /* \"@openzeppelin/contracts/access/Ownable.sol\":2410:2450  OwnershipTransferred(oldOwner, newOwner) */\n      mload(0x40)\n        /* \"@openzeppelin/contracts/access/Ownable.sol\":2362:2368  _owner */\n      swap2\n      and\n      swap2\n        /* \"@openzeppelin/contracts/access/Ownable.sol\":2378:2395  _owner = newOwner */\n      swap1\n        /* \"@openzeppelin/contracts/access/Ownable.sol\":2362:2368  _owner */\n      dup3\n      swap1\n        /* \"@openzeppelin/contracts/access/Ownable.sol\":2410:2450  OwnershipTransferred(oldOwner, newOwner) */\n      0x8be0079c531659141344cd1fd0a4f28419497f9722a3daafe3b4186f6b6457e0\n      swap1\n        /* \"@openzeppelin/contracts/access/Ownable.sol\":2343:2359  address oldOwner */\n      0x00\n      swap1\n        /* \"@openzeppelin/contracts/access/Ownable.sol\":2410:2450  OwnershipTransferred(oldOwner, newOwner) */\n      log3\n        /* \"@openzeppelin/contracts/access/Ownable.sol\":2333:2457  {... */\n      pop\n        /* \"@openzeppelin/contracts/access/Ownable.sol\":2270:2457  function _transferOwnership(address newOwner) internal virtual {... */\n      pop\n      jump\t// out\n        /* \"contracts/maximus.sol\":5873:5975  function _stakeHEX(uint256 amount) private  {... */\n    tag_315:\n        /* \"contracts/maximus.sol\":5927:5932  token */\n      sload(0x11)\n        /* \"contracts/maximus.sol\":5951:5963  STAKE_LENGTH */\n      sload(0x0c)\n        /* \"contracts/maximus.sol\":5927:5964  token.stakeStart(amount,STAKE_LENGTH) */\n      mload(0x40)\n      shl(0xe3, 0x0a548717)\n      dup2\n      mstore\n      0x04\n      dup2\n      add\n        /* \"#utility.yul\":15004:15029   */\n      dup5\n      swap1\n      mstore\n        /* \"#utility.yul\":15045:15063   */\n      0x24\n      dup2\n      add\n        /* \"#utility.yul\":15038:15072   */\n      swap2\n      swap1\n      swap2\n      mstore\n      sub(shl(0xa0, 0x01), 0x01)\n        /* \"contracts/maximus.sol\":5927:5932  token */\n      swap1\n      swap2\n      and\n      swap1\n        /* \"contracts/maximus.sol\":5927:5943  token.stakeStart */\n      0x52a438b8\n      swap1\n        /* \"#utility.yul\":14977:14995   */\n      0x44\n      add\n        /* \"contracts/maximus.sol\":5927:5964  token.stakeStart(amount,STAKE_LENGTH) */\n      0x00\n      mload(0x40)\n      dup1\n      dup4\n      sub\n      dup2\n      0x00\n      dup8\n      dup1\n      extcodesize\n      iszero\n      dup1\n      iszero\n      tag_410\n      jumpi\n      0x00\n      dup1\n      revert\n    tag_410:\n      pop\n      gas\n      call\n      iszero\n      dup1\n      iszero\n      tag_412\n      jumpi\n      returndatasize\n      0x00\n      dup1\n      returndatacopy\n      revert(0x00, returndatasize)\n    tag_412:\n      pop\n      pop\n      pop\n      pop\n        /* \"contracts/maximus.sol\":5873:5975  function _stakeHEX(uint256 amount) private  {... */\n      pop\n      jump\t// out\n        /* \"@openzeppelin/contracts/token/ERC20/ERC20.sol\":8311:8700  function _mint(address account, uint256 amount) internal virtual {... */\n    tag_390:\n      sub(shl(0xa0, 0x01), 0x01)\n        /* \"@openzeppelin/contracts/token/ERC20/ERC20.sol\":8394:8415  account != address(0) */\n      dup3\n      and\n        /* \"@openzeppelin/contracts/token/ERC20/ERC20.sol\":8386:8451  require(account != address(0), \"ERC20: mint to the zero address\") */\n      tag_416\n      jumpi\n      mload(0x40)\n      shl(0xe5, 0x461bcd)\n      dup2\n      mstore\n        /* \"#utility.yul\":15285:15287   */\n      0x20\n        /* \"@openzeppelin/contracts/token/ERC20/ERC20.sol\":8386:8451  require(account != address(0), \"ERC20: mint to the zero address\") */\n      0x04\n      dup3\n      add\n        /* \"#utility.yul\":15267:15288   */\n      mstore\n        /* \"#utility.yul\":15324:15326   */\n      0x1f\n        /* \"#utility.yul\":15304:15322   */\n      0x24\n      dup3\n      add\n        /* \"#utility.yul\":15297:15327   */\n      mstore\n        /* \"#utility.yul\":15363:15396   */\n      0x45524332303a206d696e7420746f20746865207a65726f206164647265737300\n        /* \"#utility.yul\":15343:15361   */\n      0x44\n      dup3\n      add\n        /* \"#utility.yul\":15336:15397   */\n      mstore\n        /* \"#utility.yul\":15414:15432   */\n      0x64\n      add\n        /* \"@openzeppelin/contracts/token/ERC20/ERC20.sol\":8386:8451  require(account != address(0), \"ERC20: mint to the zero address\") */\n      tag_187\n        /* \"#utility.yul\":15083:15438   */\n      jump\n        /* \"@openzeppelin/contracts/token/ERC20/ERC20.sol\":8386:8451  require(account != address(0), \"ERC20: mint to the zero address\") */\n    tag_416:\n        /* \"@openzeppelin/contracts/token/ERC20/ERC20.sol\":8538:8544  amount */\n      dup1\n        /* \"@openzeppelin/contracts/token/ERC20/ERC20.sol\":8522:8534  _totalSupply */\n      0x02\n      0x00\n        /* \"@openzeppelin/contracts/token/ERC20/ERC20.sol\":8522:8544  _totalSupply += amount */\n      dup3\n      dup3\n      sload\n      tag_420\n      swap2\n      swap1\n      tag_159\n      jump\t// in\n    tag_420:\n      swap1\n      swap2\n      sstore\n      pop\n      pop\n      sub(shl(0xa0, 0x01), 0x01)\n        /* \"@openzeppelin/contracts/token/ERC20/ERC20.sol\":8554:8572  _balances[account] */\n      dup3\n      and\n        /* \"@openzeppelin/contracts/token/ERC20/ERC20.sol\":8554:8563  _balances */\n      0x00\n        /* \"@openzeppelin/contracts/token/ERC20/ERC20.sol\":8554:8572  _balances[account] */\n      swap1\n      dup2\n      mstore\n      0x20\n      dup2\n      swap1\n      mstore\n      0x40\n      dup2\n      keccak256\n        /* \"@openzeppelin/contracts/token/ERC20/ERC20.sol\":8554:8582  _balances[account] += amount */\n      dup1\n      sload\n        /* \"@openzeppelin/contracts/token/ERC20/ERC20.sol\":8576:8582  amount */\n      dup4\n      swap3\n        /* \"@openzeppelin/contracts/token/ERC20/ERC20.sol\":8554:8563  _balances */\n      swap1\n        /* \"@openzeppelin/contracts/token/ERC20/ERC20.sol\":8554:8582  _balances[account] += amount */\n      tag_421\n      swap1\n        /* \"@openzeppelin/contracts/token/ERC20/ERC20.sol\":8576:8582  amount */\n      dup5\n      swap1\n        /* \"@openzeppelin/contracts/token/ERC20/ERC20.sol\":8554:8582  _balances[account] += amount */\n      tag_159\n      jump\t// in\n    tag_421:\n      swap1\n      swap2\n      sstore\n      pop\n      pop\n        /* \"@openzeppelin/contracts/token/ERC20/ERC20.sol\":8597:8634  Transfer(address(0), account, amount) */\n      mload(0x40)\n        /* \"#utility.yul\":481:506   */\n      dup2\n      dup2\n      mstore\n      sub(shl(0xa0, 0x01), 0x01)\n        /* \"@openzeppelin/contracts/token/ERC20/ERC20.sol\":8597:8634  Transfer(address(0), account, amount) */\n      dup4\n      and\n      swap1\n        /* \"@openzeppelin/contracts/token/ERC20/ERC20.sol\":8614:8615  0 */\n      0x00\n      swap1\n        /* \"@openzeppelin/contracts/token/ERC20/ERC20.sol\":8597:8634  Transfer(address(0), account, amount) */\n      0xddf252ad1be2c89b69c2b068fc378daa952ba7f163c4a11628f55a4df523b3ef\n      swap1\n        /* \"#utility.yul\":469:471   */\n      0x20\n        /* \"#utility.yul\":454:472   */\n      add\n        /* \"@openzeppelin/contracts/token/ERC20/ERC20.sol\":8597:8634  Transfer(address(0), account, amount) */\n      mload(0x40)\n      dup1\n      swap2\n      sub\n      swap1\n      log3\n        /* \"contracts/maximus.sol\":4214:4596  {... */\n      pop\n        /* \"contracts/maximus.sol\":4172:4596  function pledgeHEX(uint256 amount) public {... */\n      pop\n      jump\t// out\n        /* \"#utility.yul\":14:330   */\n    tag_44:\n        /* \"#utility.yul\":91:97   */\n      0x00\n        /* \"#utility.yul\":99:105   */\n      dup1\n        /* \"#utility.yul\":107:113   */\n      0x00\n        /* \"#utility.yul\":160:162   */\n      0x60\n        /* \"#utility.yul\":148:157   */\n      dup5\n        /* \"#utility.yul\":139:146   */\n      dup7\n        /* \"#utility.yul\":135:158   */\n      sub\n        /* \"#utility.yul\":131:163   */\n      slt\n        /* \"#utility.yul\":128:180   */\n      iszero\n      tag_430\n      jumpi\n        /* \"#utility.yul\":176:177   */\n      0x00\n        /* \"#utility.yul\":173:174   */\n      dup1\n        /* \"#utility.yul\":166:178   */\n      revert\n        /* \"#utility.yul\":128:180   */\n    tag_430:\n      pop\n      pop\n        /* \"#utility.yul\":199:222   */\n      dup2\n      calldataload\n      swap4\n        /* \"#utility.yul\":269:271   */\n      0x20\n        /* \"#utility.yul\":254:272   */\n      dup4\n      add\n        /* \"#utility.yul\":241:273   */\n      calldataload\n      swap4\n      pop\n        /* \"#utility.yul\":320:322   */\n      0x40\n        /* \"#utility.yul\":305:323   */\n      swap1\n      swap3\n      add\n        /* \"#utility.yul\":292:324   */\n      calldataload\n      swap2\n        /* \"#utility.yul\":14:330   */\n      swap1\n      pop\n      jump\t// out\n        /* \"#utility.yul\":517:1065   */\n    tag_54:\n        /* \"#utility.yul\":629:633   */\n      0x00\n        /* \"#utility.yul\":658:660   */\n      0x20\n        /* \"#utility.yul\":687:689   */\n      dup1\n        /* \"#utility.yul\":676:685   */\n      dup4\n        /* \"#utility.yul\":669:690   */\n      mstore\n        /* \"#utility.yul\":719:725   */\n      dup4\n        /* \"#utility.yul\":713:726   */\n      mload\n        /* \"#utility.yul\":762:768   */\n      dup1\n        /* \"#utility.yul\":757:759   */\n      dup3\n        /* \"#utility.yul\":746:755   */\n      dup6\n        /* \"#utility.yul\":742:760   */\n      add\n        /* \"#utility.yul\":735:769   */\n      mstore\n        /* \"#utility.yul\":787:788   */\n      0x00\n        /* \"#utility.yul\":797:937   */\n    tag_433:\n        /* \"#utility.yul\":811:817   */\n      dup2\n        /* \"#utility.yul\":808:809   */\n      dup2\n        /* \"#utility.yul\":805:818   */\n      lt\n        /* \"#utility.yul\":797:937   */\n      iszero\n      tag_435\n      jumpi\n        /* \"#utility.yul\":906:920   */\n      dup6\n      dup2\n      add\n        /* \"#utility.yul\":902:925   */\n      dup4\n      add\n        /* \"#utility.yul\":896:926   */\n      mload\n        /* \"#utility.yul\":872:889   */\n      dup6\n      dup3\n      add\n        /* \"#utility.yul\":891:893   */\n      0x40\n        /* \"#utility.yul\":868:894   */\n      add\n        /* \"#utility.yul\":861:927   */\n      mstore\n        /* \"#utility.yul\":826:836   */\n      dup3\n      add\n        /* \"#utility.yul\":797:937   */\n      jump(tag_433)\n    tag_435:\n        /* \"#utility.yul\":801:804   */\n      pop\n        /* \"#utility.yul\":986:987   */\n      0x00\n        /* \"#utility.yul\":981:983   */\n      0x40\n        /* \"#utility.yul\":972:978   */\n      dup3\n        /* \"#utility.yul\":961:970   */\n      dup7\n        /* \"#utility.yul\":957:979   */\n      add\n        /* \"#utility.yul\":953:984   */\n      add\n        /* \"#utility.yul\":946:988   */\n      mstore\n        /* \"#utility.yul\":1056:1058   */\n      0x40\n        /* \"#utility.yul\":1049:1051   */\n      0x1f\n        /* \"#utility.yul\":1045:1052   */\n      not\n        /* \"#utility.yul\":1040:1042   */\n      0x1f\n        /* \"#utility.yul\":1032:1038   */\n      dup4\n        /* \"#utility.yul\":1028:1043   */\n      add\n        /* \"#utility.yul\":1024:1053   */\n      and\n        /* \"#utility.yul\":1013:1022   */\n      dup6\n        /* \"#utility.yul\":1009:1054   */\n      add\n        /* \"#utility.yul\":1005:1059   */\n      add\n        /* \"#utility.yul\":997:1059   */\n      swap3\n      pop\n      pop\n      pop\n        /* \"#utility.yul\":517:1065   */\n      swap3\n      swap2\n      pop\n      pop\n      jump\t// out\n        /* \"#utility.yul\":1070:1243   */\n    tag_424:\n        /* \"#utility.yul\":1138:1158   */\n      dup1\n      calldataload\n      sub(shl(0xa0, 0x01), 0x01)\n        /* \"#utility.yul\":1187:1218   */\n      dup2\n      and\n        /* \"#utility.yul\":1177:1219   */\n      dup2\n      eq\n        /* \"#utility.yul\":1167:1237   */\n      tag_437\n      jumpi\n        /* \"#utility.yul\":1233:1234   */\n      0x00\n        /* \"#utility.yul\":1230:1231   */\n      dup1\n        /* \"#utility.yul\":1223:1235   */\n      revert\n        /* \"#utility.yul\":1167:1237   */\n    tag_437:\n        /* \"#utility.yul\":1070:1243   */\n      swap2\n      swap1\n      pop\n      jump\t// out\n        /* \"#utility.yul\":1248:1502   */\n    tag_57:\n        /* \"#utility.yul\":1316:1322   */\n      0x00\n        /* \"#utility.yul\":1324:1330   */\n      dup1\n        /* \"#utility.yul\":1377:1379   */\n      0x40\n        /* \"#utility.yul\":1365:1374   */\n      dup4\n        /* \"#utility.yul\":1356:1363   */\n      dup6\n        /* \"#utility.yul\":1352:1375   */\n      sub\n        /* \"#utility.yul\":1348:1380   */\n      slt\n        /* \"#utility.yul\":1345:1397   */\n      iszero\n      tag_439\n      jumpi\n        /* \"#utility.yul\":1393:1394   */\n      0x00\n        /* \"#utility.yul\":1390:1391   */\n      dup1\n        /* \"#utility.yul\":1383:1395   */\n      revert\n        /* \"#utility.yul\":1345:1397   */\n    tag_439:\n        /* \"#utility.yul\":1416:1445   */\n      tag_440\n        /* \"#utility.yul\":1435:1444   */\n      dup4\n        /* \"#utility.yul\":1416:1445   */\n      tag_424\n      jump\t// in\n    tag_440:\n        /* \"#utility.yul\":1406:1445   */\n      swap5\n        /* \"#utility.yul\":1492:1494   */\n      0x20\n        /* \"#utility.yul\":1477:1495   */\n      swap4\n      swap1\n      swap4\n      add\n        /* \"#utility.yul\":1464:1496   */\n      calldataload\n      swap4\n      pop\n      pop\n      pop\n        /* \"#utility.yul\":1248:1502   */\n      jump\t// out\n        /* \"#utility.yul\":1699:2027   */\n    tag_66:\n        /* \"#utility.yul\":1776:1782   */\n      0x00\n        /* \"#utility.yul\":1784:1790   */\n      dup1\n        /* \"#utility.yul\":1792:1798   */\n      0x00\n        /* \"#utility.yul\":1845:1847   */\n      0x60\n        /* \"#utility.yul\":1833:1842   */\n      dup5\n        /* \"#utility.yul\":1824:1831   */\n      dup7\n        /* \"#utility.yul\":1820:1843   */\n      sub\n        /* \"#utility.yul\":1816:1848   */\n      slt\n        /* \"#utility.yul\":1813:1865   */\n      iszero\n      tag_443\n      jumpi\n        /* \"#utility.yul\":1861:1862   */\n      0x00\n        /* \"#utility.yul\":1858:1859   */\n      dup1\n        /* \"#utility.yul\":1851:1863   */\n      revert\n        /* \"#utility.yul\":1813:1865   */\n    tag_443:\n        /* \"#utility.yul\":1884:1913   */\n      tag_444\n        /* \"#utility.yul\":1903:1912   */\n      dup5\n        /* \"#utility.yul\":1884:1913   */\n      tag_424\n      jump\t// in\n    tag_444:\n        /* \"#utility.yul\":1874:1913   */\n      swap3\n      pop\n        /* \"#utility.yul\":1932:1970   */\n      tag_445\n        /* \"#utility.yul\":1966:1968   */\n      0x20\n        /* \"#utility.yul\":1955:1964   */\n      dup6\n        /* \"#utility.yul\":1951:1969   */\n      add\n        /* \"#utility.yul\":1932:1970   */\n      tag_424\n      jump\t// in\n    tag_445:\n        /* \"#utility.yul\":1922:1970   */\n      swap2\n      pop\n        /* \"#utility.yul\":2017:2019   */\n      0x40\n        /* \"#utility.yul\":2006:2015   */\n      dup5\n        /* \"#utility.yul\":2002:2020   */\n      add\n        /* \"#utility.yul\":1989:2021   */\n      calldataload\n        /* \"#utility.yul\":1979:2021   */\n      swap1\n      pop\n        /* \"#utility.yul\":1699:2027   */\n      swap3\n      pop\n      swap3\n      pop\n      swap3\n      jump\t// out\n        /* \"#utility.yul\":2221:2401   */\n    tag_82:\n        /* \"#utility.yul\":2280:2286   */\n      0x00\n        /* \"#utility.yul\":2333:2335   */\n      0x20\n        /* \"#utility.yul\":2321:2330   */\n      dup3\n        /* \"#utility.yul\":2312:2319   */\n      dup5\n        /* \"#utility.yul\":2308:2331   */\n      sub\n        /* \"#utility.yul\":2304:2336   */\n      slt\n        /* \"#utility.yul\":2301:2353   */\n      iszero\n      tag_448\n      jumpi\n        /* \"#utility.yul\":2349:2350   */\n      0x00\n        /* \"#utility.yul\":2346:2347   */\n      dup1\n        /* \"#utility.yul\":2339:2351   */\n      revert\n        /* \"#utility.yul\":2301:2353   */\n    tag_448:\n      pop\n        /* \"#utility.yul\":2372:2395   */\n      calldataload\n      swap2\n        /* \"#utility.yul\":2221:2401   */\n      swap1\n      pop\n      jump\t// out\n        /* \"#utility.yul\":2406:2752   */\n    tag_95:\n        /* \"#utility.yul\":2473:2479   */\n      0x00\n        /* \"#utility.yul\":2481:2487   */\n      dup1\n        /* \"#utility.yul\":2534:2536   */\n      0x40\n        /* \"#utility.yul\":2522:2531   */\n      dup4\n        /* \"#utility.yul\":2513:2520   */\n      dup6\n        /* \"#utility.yul\":2509:2532   */\n      sub\n        /* \"#utility.yul\":2505:2537   */\n      slt\n        /* \"#utility.yul\":2502:2554   */\n      iszero\n      tag_450\n      jumpi\n        /* \"#utility.yul\":2550:2551   */\n      0x00\n        /* \"#utility.yul\":2547:2548   */\n      dup1\n        /* \"#utility.yul\":2540:2552   */\n      revert\n        /* \"#utility.yul\":2502:2554   */\n    tag_450:\n        /* \"#utility.yul\":2586:2595   */\n      dup3\n        /* \"#utility.yul\":2573:2596   */\n      calldataload\n        /* \"#utility.yul\":2563:2596   */\n      swap2\n      pop\n        /* \"#utility.yul\":2646:2648   */\n      0x20\n        /* \"#utility.yul\":2635:2644   */\n      dup4\n        /* \"#utility.yul\":2631:2649   */\n      add\n        /* \"#utility.yul\":2618:2650   */\n      calldataload\n        /* \"#utility.yul\":2690:2702   */\n      0xffffffffff\n        /* \"#utility.yul\":2683:2688   */\n      dup2\n        /* \"#utility.yul\":2679:2703   */\n      and\n        /* \"#utility.yul\":2672:2677   */\n      dup2\n        /* \"#utility.yul\":2669:2704   */\n      eq\n        /* \"#utility.yul\":2659:2722   */\n      tag_451\n      jumpi\n        /* \"#utility.yul\":2718:2719   */\n      0x00\n        /* \"#utility.yul\":2715:2716   */\n      dup1\n        /* \"#utility.yul\":2708:2720   */\n      revert\n        /* \"#utility.yul\":2659:2722   */\n    tag_451:\n        /* \"#utility.yul\":2741:2746   */\n      dup1\n        /* \"#utility.yul\":2731:2746   */\n      swap2\n      pop\n      pop\n        /* \"#utility.yul\":2406:2752   */\n      swap3\n      pop\n      swap3\n      swap1\n      pop\n      jump\t// out\n        /* \"#utility.yul\":2757:2943   */\n    tag_102:\n        /* \"#utility.yul\":2816:2822   */\n      0x00\n        /* \"#utility.yul\":2869:2871   */\n      0x20\n        /* \"#utility.yul\":2857:2866   */\n      dup3\n        /* \"#utility.yul\":2848:2855   */\n      dup5\n        /* \"#utility.yul\":2844:2867   */\n      sub\n        /* \"#utility.yul\":2840:2872   */\n      slt\n        /* \"#utility.yul\":2837:2889   */\n      iszero\n      tag_453\n      jumpi\n        /* \"#utility.yul\":2885:2886   */\n      0x00\n        /* \"#utility.yul\":2882:2883   */\n      dup1\n        /* \"#utility.yul\":2875:2887   */\n      revert\n        /* \"#utility.yul\":2837:2889   */\n    tag_453:\n        /* \"#utility.yul\":2908:2937   */\n      tag_454\n        /* \"#utility.yul\":2927:2936   */\n      dup3\n        /* \"#utility.yul\":2908:2937   */\n      tag_424\n      jump\t// in\n    tag_454:\n        /* \"#utility.yul\":2898:2937   */\n      swap4\n        /* \"#utility.yul\":2757:2943   */\n      swap3\n      pop\n      pop\n      pop\n      jump\t// out\n        /* \"#utility.yul\":3156:3416   */\n    tag_148:\n        /* \"#utility.yul\":3224:3230   */\n      0x00\n        /* \"#utility.yul\":3232:3238   */\n      dup1\n        /* \"#utility.yul\":3285:3287   */\n      0x40\n        /* \"#utility.yul\":3273:3282   */\n      dup4\n        /* \"#utility.yul\":3264:3271   */\n      dup6\n        /* \"#utility.yul\":3260:3283   */\n      sub\n        /* \"#utility.yul\":3256:3288   */\n      slt\n        /* \"#utility.yul\":3253:3305   */\n      iszero\n      tag_457\n      jumpi\n        /* \"#utility.yul\":3301:3302   */\n      0x00\n        /* \"#utility.yul\":3298:3299   */\n      dup1\n        /* \"#utility.yul\":3291:3303   */\n      revert\n        /* \"#utility.yul\":3253:3305   */\n    tag_457:\n        /* \"#utility.yul\":3324:3353   */\n      tag_458\n        /* \"#utility.yul\":3343:3352   */\n      dup4\n        /* \"#utility.yul\":3324:3353   */\n      tag_424\n      jump\t// in\n    tag_458:\n        /* \"#utility.yul\":3314:3353   */\n      swap2\n      pop\n        /* \"#utility.yul\":3372:3410   */\n      tag_459\n        /* \"#utility.yul\":3406:3408   */\n      0x20\n        /* \"#utility.yul\":3395:3404   */\n      dup5\n        /* \"#utility.yul\":3391:3409   */\n      add\n        /* \"#utility.yul\":3372:3410   */\n      tag_424\n      jump\t// in\n    tag_459:\n        /* \"#utility.yul\":3362:3410   */\n      swap1\n      pop\n        /* \"#utility.yul\":3156:3416   */\n      swap3\n      pop\n      swap3\n      swap1\n      pop\n      jump\t// out\n        /* \"#utility.yul\":3421:3548   */\n    tag_425:\n        /* \"#utility.yul\":3482:3492   */\n      0x4e487b71\n        /* \"#utility.yul\":3477:3480   */\n      0xe0\n        /* \"#utility.yul\":3473:3493   */\n      shl\n        /* \"#utility.yul\":3470:3471   */\n      0x00\n        /* \"#utility.yul\":3463:3494   */\n      mstore\n        /* \"#utility.yul\":3513:3517   */\n      0x11\n        /* \"#utility.yul\":3510:3511   */\n      0x04\n        /* \"#utility.yul\":3503:3518   */\n      mstore\n        /* \"#utility.yul\":3537:3541   */\n      0x24\n        /* \"#utility.yul\":3534:3535   */\n      0x00\n        /* \"#utility.yul\":3527:3542   */\n      revert\n        /* \"#utility.yul\":3553:3678   */\n    tag_159:\n        /* \"#utility.yul\":3618:3627   */\n      dup1\n      dup3\n      add\n        /* \"#utility.yul\":3639:3649   */\n      dup1\n      dup3\n      gt\n        /* \"#utility.yul\":3636:3672   */\n      iszero\n      tag_176\n      jumpi\n        /* \"#utility.yul\":3652:3670   */\n      tag_176\n      tag_425\n      jump\t// in\n        /* \"#utility.yul\":3683:4105   */\n    tag_426:\n        /* \"#utility.yul\":3772:3773   */\n      0x01\n        /* \"#utility.yul\":3815:3820   */\n      dup2\n        /* \"#utility.yul\":3772:3773   */\n      dup2\n        /* \"#utility.yul\":3829:4099   */\n    tag_465:\n        /* \"#utility.yul\":3850:3857   */\n      dup1\n        /* \"#utility.yul\":3840:3848   */\n      dup6\n        /* \"#utility.yul\":3837:3858   */\n      gt\n        /* \"#utility.yul\":3829:4099   */\n      iszero\n      tag_467\n      jumpi\n        /* \"#utility.yul\":3909:3913   */\n      dup2\n        /* \"#utility.yul\":3905:3906   */\n      0x00\n        /* \"#utility.yul\":3901:3907   */\n      not\n        /* \"#utility.yul\":3897:3914   */\n      div\n        /* \"#utility.yul\":3891:3895   */\n      dup3\n        /* \"#utility.yul\":3888:3915   */\n      gt\n        /* \"#utility.yul\":3885:3938   */\n      iszero\n      tag_469\n      jumpi\n        /* \"#utility.yul\":3918:3936   */\n      tag_469\n      tag_425\n      jump\t// in\n    tag_469:\n        /* \"#utility.yul\":3968:3975   */\n      dup1\n        /* \"#utility.yul\":3958:3966   */\n      dup6\n        /* \"#utility.yul\":3954:3976   */\n      and\n        /* \"#utility.yul\":3951:4006   */\n      iszero\n      tag_470\n      jumpi\n        /* \"#utility.yul\":3988:4004   */\n      swap2\n      dup2\n      mul\n      swap2\n        /* \"#utility.yul\":3951:4006   */\n    tag_470:\n        /* \"#utility.yul\":4067:4089   */\n      swap4\n      dup5\n      shr\n      swap4\n        /* \"#utility.yul\":4027:4042   */\n      swap1\n      dup1\n      mul\n      swap1\n        /* \"#utility.yul\":3829:4099   */\n      jump(tag_465)\n    tag_467:\n        /* \"#utility.yul\":3833:3836   */\n      pop\n        /* \"#utility.yul\":3683:4105   */\n      swap3\n      pop\n      swap3\n      swap1\n      pop\n      jump\t// out\n        /* \"#utility.yul\":4110:4916   */\n    tag_427:\n        /* \"#utility.yul\":4159:4164   */\n      0x00\n        /* \"#utility.yul\":4189:4197   */\n      dup3\n        /* \"#utility.yul\":4179:4259   */\n      tag_472\n      jumpi\n      pop\n        /* \"#utility.yul\":4230:4231   */\n      0x01\n        /* \"#utility.yul\":4244:4249   */\n      jump(tag_176)\n        /* \"#utility.yul\":4179:4259   */\n    tag_472:\n        /* \"#utility.yul\":4278:4282   */\n      dup2\n        /* \"#utility.yul\":4268:4344   */\n      tag_473\n      jumpi\n      pop\n        /* \"#utility.yul\":4315:4316   */\n      0x00\n        /* \"#utility.yul\":4329:4334   */\n      jump(tag_176)\n        /* \"#utility.yul\":4268:4344   */\n    tag_473:\n        /* \"#utility.yul\":4360:4364   */\n      dup2\n        /* \"#utility.yul\":4378:4379   */\n      0x01\n        /* \"#utility.yul\":4373:4432   */\n      dup2\n      eq\n      tag_475\n      jumpi\n        /* \"#utility.yul\":4446:4447   */\n      0x02\n        /* \"#utility.yul\":4441:4571   */\n      dup2\n      eq\n      tag_476\n      jumpi\n        /* \"#utility.yul\":4353:4571   */\n      jump(tag_474)\n        /* \"#utility.yul\":4373:4432   */\n    tag_475:\n        /* \"#utility.yul\":4403:4404   */\n      0x01\n        /* \"#utility.yul\":4394:4404   */\n      swap2\n      pop\n        /* \"#utility.yul\":4417:4422   */\n      pop\n      jump(tag_176)\n        /* \"#utility.yul\":4441:4571   */\n    tag_476:\n        /* \"#utility.yul\":4478:4481   */\n      0xff\n        /* \"#utility.yul\":4468:4476   */\n      dup5\n        /* \"#utility.yul\":4465:4482   */\n      gt\n        /* \"#utility.yul\":4462:4505   */\n      iszero\n      tag_478\n      jumpi\n        /* \"#utility.yul\":4485:4503   */\n      tag_478\n      tag_425\n      jump\t// in\n    tag_478:\n      pop\n      pop\n        /* \"#utility.yul\":4541:4542   */\n      0x01\n        /* \"#utility.yul\":4527:4543   */\n      dup3\n      shl\n        /* \"#utility.yul\":4556:4561   */\n      jump(tag_176)\n        /* \"#utility.yul\":4353:4571   */\n    tag_474:\n      pop\n        /* \"#utility.yul\":4655:4657   */\n      0x20\n        /* \"#utility.yul\":4645:4653   */\n      dup4\n        /* \"#utility.yul\":4642:4658   */\n      lt\n        /* \"#utility.yul\":4636:4639   */\n      0x0133\n        /* \"#utility.yul\":4630:4634   */\n      dup4\n        /* \"#utility.yul\":4627:4640   */\n      lt\n        /* \"#utility.yul\":4623:4659   */\n      and\n        /* \"#utility.yul\":4617:4619   */\n      0x4e\n        /* \"#utility.yul\":4607:4615   */\n      dup5\n        /* \"#utility.yul\":4604:4620   */\n      lt\n        /* \"#utility.yul\":4599:4601   */\n      0x0b\n        /* \"#utility.yul\":4593:4597   */\n      dup5\n        /* \"#utility.yul\":4590:4602   */\n      lt\n        /* \"#utility.yul\":4586:4621   */\n      and\n        /* \"#utility.yul\":4583:4660   */\n      or\n        /* \"#utility.yul\":4580:4739   */\n      iszero\n      tag_479\n      jumpi\n      pop\n        /* \"#utility.yul\":4692:4711   */\n      dup2\n      dup2\n      exp\n        /* \"#utility.yul\":4724:4729   */\n      jump(tag_176)\n        /* \"#utility.yul\":4580:4739   */\n    tag_479:\n        /* \"#utility.yul\":4771:4805   */\n      tag_480\n        /* \"#utility.yul\":4796:4804   */\n      dup4\n        /* \"#utility.yul\":4790:4794   */\n      dup4\n        /* \"#utility.yul\":4771:4805   */\n      tag_426\n      jump\t// in\n    tag_480:\n        /* \"#utility.yul\":4841:4847   */\n      dup1\n        /* \"#utility.yul\":4837:4838   */\n      0x00\n        /* \"#utility.yul\":4833:4839   */\n      not\n        /* \"#utility.yul\":4829:4848   */\n      div\n        /* \"#utility.yul\":4820:4827   */\n      dup3\n        /* \"#utility.yul\":4817:4849   */\n      gt\n        /* \"#utility.yul\":4814:4872   */\n      iszero\n      tag_482\n      jumpi\n        /* \"#utility.yul\":4852:4870   */\n      tag_482\n      tag_425\n      jump\t// in\n    tag_482:\n        /* \"#utility.yul\":4890:4910   */\n      mul\n      swap4\n        /* \"#utility.yul\":4110:4916   */\n      swap3\n      pop\n      pop\n      pop\n      jump\t// out\n        /* \"#utility.yul\":4921:5052   */\n    tag_161:\n        /* \"#utility.yul\":4981:4986   */\n      0x00\n        /* \"#utility.yul\":5010:5046   */\n      tag_454\n        /* \"#utility.yul\":5037:5045   */\n      dup4\n        /* \"#utility.yul\":5031:5035   */\n      dup4\n        /* \"#utility.yul\":5010:5046   */\n      tag_427\n      jump\t// in\n        /* \"#utility.yul\":5057:5225   */\n    tag_163:\n        /* \"#utility.yul\":5097:5104   */\n      0x00\n        /* \"#utility.yul\":5163:5164   */\n      dup2\n        /* \"#utility.yul\":5159:5160   */\n      0x00\n        /* \"#utility.yul\":5155:5161   */\n      not\n        /* \"#utility.yul\":5151:5165   */\n      div\n        /* \"#utility.yul\":5148:5149   */\n      dup4\n        /* \"#utility.yul\":5145:5166   */\n      gt\n        /* \"#utility.yul\":5140:5141   */\n      dup3\n        /* \"#utility.yul\":5133:5142   */\n      iszero\n        /* \"#utility.yul\":5126:5143   */\n      iszero\n        /* \"#utility.yul\":5122:5167   */\n      and\n        /* \"#utility.yul\":5119:5190   */\n      iszero\n      tag_487\n      jumpi\n        /* \"#utility.yul\":5170:5188   */\n      tag_487\n      tag_425\n      jump\t// in\n    tag_487:\n      pop\n        /* \"#utility.yul\":5210:5219   */\n      mul\n      swap1\n        /* \"#utility.yul\":5057:5225   */\n      jump\t// out\n        /* \"#utility.yul\":5230:5447   */\n    tag_165:\n        /* \"#utility.yul\":5270:5271   */\n      0x00\n        /* \"#utility.yul\":5296:5297   */\n      dup3\n        /* \"#utility.yul\":5286:5418   */\n      tag_489\n      jumpi\n        /* \"#utility.yul\":5340:5350   */\n      0x4e487b71\n        /* \"#utility.yul\":5335:5338   */\n      0xe0\n        /* \"#utility.yul\":5331:5351   */\n      shl\n        /* \"#utility.yul\":5328:5329   */\n      0x00\n        /* \"#utility.yul\":5321:5352   */\n      mstore\n        /* \"#utility.yul\":5375:5379   */\n      0x12\n        /* \"#utility.yul\":5372:5373   */\n      0x04\n        /* \"#utility.yul\":5365:5380   */\n      mstore\n        /* \"#utility.yul\":5403:5407   */\n      0x24\n        /* \"#utility.yul\":5400:5401   */\n      0x00\n        /* \"#utility.yul\":5393:5408   */\n      revert\n        /* \"#utility.yul\":5286:5418   */\n    tag_489:\n      pop\n        /* \"#utility.yul\":5432:5441   */\n      div\n      swap1\n        /* \"#utility.yul\":5230:5447   */\n      jump\t// out\n        /* \"#utility.yul\":5452:5832   */\n    tag_171:\n        /* \"#utility.yul\":5531:5532   */\n      0x01\n        /* \"#utility.yul\":5527:5539   */\n      dup2\n      dup2\n      shr\n      swap1\n        /* \"#utility.yul\":5574:5586   */\n      dup3\n      and\n      dup1\n        /* \"#utility.yul\":5595:5656   */\n      tag_491\n      jumpi\n        /* \"#utility.yul\":5649:5653   */\n      0x7f\n        /* \"#utility.yul\":5641:5647   */\n      dup3\n        /* \"#utility.yul\":5637:5654   */\n      and\n        /* \"#utility.yul\":5627:5654   */\n      swap2\n      pop\n        /* \"#utility.yul\":5595:5656   */\n    tag_491:\n        /* \"#utility.yul\":5702:5704   */\n      0x20\n        /* \"#utility.yul\":5694:5700   */\n      dup3\n        /* \"#utility.yul\":5691:5705   */\n      lt\n        /* \"#utility.yul\":5671:5689   */\n      dup2\n        /* \"#utility.yul\":5668:5706   */\n      sub\n        /* \"#utility.yul\":5665:5826   */\n      tag_492\n      jumpi\n        /* \"#utility.yul\":5748:5758   */\n      0x4e487b71\n        /* \"#utility.yul\":5743:5746   */\n      0xe0\n        /* \"#utility.yul\":5739:5759   */\n      shl\n        /* \"#utility.yul\":5736:5737   */\n      0x00\n        /* \"#utility.yul\":5729:5760   */\n      mstore\n        /* \"#utility.yul\":5783:5787   */\n      0x22\n        /* \"#utility.yul\":5780:5781   */\n      0x04\n        /* \"#utility.yul\":5773:5788   */\n      mstore\n        /* \"#utility.yul\":5811:5815   */\n      0x24\n        /* \"#utility.yul\":5808:5809   */\n      0x00\n        /* \"#utility.yul\":5801:5816   */\n      revert\n        /* \"#utility.yul\":5665:5826   */\n    tag_492:\n      pop\n        /* \"#utility.yul\":5452:5832   */\n      swap2\n      swap1\n      pop\n      jump\t// out\n        /* \"#utility.yul\":6246:6430   */\n    tag_206:\n        /* \"#utility.yul\":6316:6322   */\n      0x00\n        /* \"#utility.yul\":6369:6371   */\n      0x20\n        /* \"#utility.yul\":6357:6366   */\n      dup3\n        /* \"#utility.yul\":6348:6355   */\n      dup5\n        /* \"#utility.yul\":6344:6367   */\n      sub\n        /* \"#utility.yul\":6340:6372   */\n      slt\n        /* \"#utility.yul\":6337:6389   */\n      iszero\n      tag_495\n      jumpi\n        /* \"#utility.yul\":6385:6386   */\n      0x00\n        /* \"#utility.yul\":6382:6383   */\n      dup1\n        /* \"#utility.yul\":6375:6387   */\n      revert\n        /* \"#utility.yul\":6337:6389   */\n    tag_495:\n      pop\n        /* \"#utility.yul\":6408:6424   */\n      mload\n      swap2\n        /* \"#utility.yul\":6246:6430   */\n      swap1\n      pop\n      jump\t// out\n        /* \"#utility.yul\":7954:8231   */\n    tag_223:\n        /* \"#utility.yul\":8021:8027   */\n      0x00\n        /* \"#utility.yul\":8074:8076   */\n      0x20\n        /* \"#utility.yul\":8062:8071   */\n      dup3\n        /* \"#utility.yul\":8053:8060   */\n      dup5\n        /* \"#utility.yul\":8049:8072   */\n      sub\n        /* \"#utility.yul\":8045:8077   */\n      slt\n        /* \"#utility.yul\":8042:8094   */\n      iszero\n      tag_501\n      jumpi\n        /* \"#utility.yul\":8090:8091   */\n      0x00\n        /* \"#utility.yul\":8087:8088   */\n      dup1\n        /* \"#utility.yul\":8080:8092   */\n      revert\n        /* \"#utility.yul\":8042:8094   */\n    tag_501:\n        /* \"#utility.yul\":8122:8131   */\n      dup2\n        /* \"#utility.yul\":8116:8132   */\n      mload\n        /* \"#utility.yul\":8175:8180   */\n      dup1\n        /* \"#utility.yul\":8168:8181   */\n      iszero\n        /* \"#utility.yul\":8161:8182   */\n      iszero\n        /* \"#utility.yul\":8154:8159   */\n      dup2\n        /* \"#utility.yul\":8151:8183   */\n      eq\n        /* \"#utility.yul\":8141:8201   */\n      tag_454\n      jumpi\n        /* \"#utility.yul\":8197:8198   */\n      0x00\n        /* \"#utility.yul\":8194:8195   */\n      dup1\n        /* \"#utility.yul\":8187:8199   */\n      revert\n        /* \"#utility.yul\":14427:14555   */\n    tag_385:\n        /* \"#utility.yul\":14494:14503   */\n      dup2\n      dup2\n      sub\n        /* \"#utility.yul\":14515:14526   */\n      dup2\n      dup2\n      gt\n        /* \"#utility.yul\":14512:14549   */\n      iszero\n      tag_176\n      jumpi\n        /* \"#utility.yul\":14529:14547   */\n      tag_176\n      tag_425\n      jump\t// in\n\n    auxdata: 0xa2646970667358221220d67b42144c868f9a23d0f7e24499c0f24e0beec6fd74910a75bf8a23c9df4fcc64736f6c63430008100033\n}\n",
				"bytecode": {
					"linkReferences": {},
					"object": "6080604052600e80546001600160a01b03199081163017909155600f80548216732b591e99afe9f32eaa6214f7b7629768c40eeb3990811790915560108054831682179055601180549092161790553480156200005b57600080fd5b5060405162001fc938038062001fc98339810160408190526200007e916200017e565b6040518060400160405280600781526020016626bcaa37b5b2b760c91b815250604051806040016040528060038152602001624d544b60e81b8152508160039081620000cb919062000248565b506004620000da828262000248565b505050620000f7620000f16200012860201b60201c565b6200012c565b600682905562000108818362000314565b60075550506008805461ffff191690556001600b819055600c556200033c565b3390565b600580546001600160a01b038381166001600160a01b0319831681179093556040519116919082907f8be0079c531659141344cd1fd0a4f28419497f9722a3daafe3b4186f6b6457e090600090a35050565b600080604083850312156200019257600080fd5b505080516020909101519092909150565b634e487b7160e01b600052604160045260246000fd5b600181811c90821680620001ce57607f821691505b602082108103620001ef57634e487b7160e01b600052602260045260246000fd5b50919050565b601f8211156200024357600081815260208120601f850160051c810160208610156200021e5750805b601f850160051c820191505b818110156200023f578281556001016200022a565b5050505b505050565b81516001600160401b03811115620002645762000264620001a3565b6200027c81620002758454620001b9565b84620001f5565b602080601f831160018114620002b457600084156200029b5750858301515b600019600386901b1c1916600185901b1785556200023f565b600085815260208120601f198616915b82811015620002e557888601518255948401946001909101908401620002c4565b5085821015620003045787850151600019600388901b60f8161c191681555b5050505050600190811b01905550565b808201808211156200033657634e487b7160e01b600052601160045260246000fd5b92915050565b611c7d806200034c6000396000f3fe608060405234801561001057600080fd5b50600436106101ef5760003560e01c8063715018a61161010f578063a9059cbb116100a2578063db14122211610071578063db141222146103bd578063dd62ed3e146103c5578063e7644fb9146103fe578063f2fde38b1461041157600080fd5b8063a9059cbb14610387578063ba777bcc1461039a578063d2dea365146103a2578063d720d871146103b557600080fd5b806388b022c6116100de57806388b022c6146103465780638da5cb5b1461035157806395d89b411461036c578063a457c2d71461037457600080fd5b8063715018a61461031b578063751279b91461032357806379cc67901461032b57806379f82bde1461033e57600080fd5b80633950935111610187578063488b478311610156578063488b4783146102cf5780634953a509146102d7578063669d751e146102ea57806370a08231146102f257600080fd5b8063395093511461028c57806342966c681461029f5780634537523c146102b457806346cbbe9e146102c757600080fd5b806318160ddd116101c357806318160ddd1461025a57806323b872dd146102625780632b11551a14610275578063313ce5671461027d57600080fd5b80622c1a9e146101f4578063037c3f5d1461021a57806306fdde0314610222578063095ea7b314610237575b600080fd5b6102076102023660046118c1565b610424565b6040519081526020015b60405180910390f35b600754610207565b61022a610476565b60405161021191906118ed565b61024a610245366004611957565b610508565b6040519015158152602001610211565b600254610207565b61024a610270366004611981565b61051f565b600b54610207565b60405160088152602001610211565b61024a61029a366004611957565b6105ce565b6102b26102ad3660046119bd565b61060a565b005b6102b26102c23660046119bd565b610617565b610207610867565b600654610207565b6102b26102e53660046119d6565b6108e1565b610207610b12565b610207610300366004611a10565b6001600160a01b031660009081526020819052604090205490565b6102b2610b85565b600a54610207565b6102b2610339366004611957565b610beb565b610207610c71565b60085460ff1661024a565b6005546040516001600160a01b039091168152602001610211565b61022a610ca2565b61024a610382366004611957565b610cb1565b61024a610395366004611957565b610d4a565b6102b2610d57565b6102076103b03660046119bd565b610f2f565b610207610f5b565b600954610207565b6102076103d3366004611a32565b6001600160a01b03918216600090815260016020908152604080832093909416825291909152205490565b6102b261040c3660046119bd565b610f9a565b6102b261041f366004611a10565b6110b4565b600080610432836001611a7b565b61043d90600a611b72565b6104479086611b7e565b90506000600a6104578684611b9d565b610462906005611a7b565b61046c9190611b9d565b9695505050505050565b60606003805461048590611bbf565b80601f01602080910402602001604051908101604052809291908181526020018280546104b190611bbf565b80156104fe5780601f106104d3576101008083540402835291602001916104fe565b820191906000526020600020905b8154815290600101906020018083116104e157829003601f168201915b5050505050905090565b600061051533848461117c565b5060015b92915050565b600061052c8484846112a0565b6001600160a01b0384166000908152600160209081526040808320338452909152902054828110156105b65760405162461bcd60e51b815260206004820152602860248201527f45524332303a207472616e7366657220616d6f756e74206578636565647320616044820152676c6c6f77616e636560c01b60648201526084015b60405180910390fd5b6105c3853385840361117c565b506001949350505050565b3360008181526001602090815260408083206001600160a01b03871684529091528120549091610515918590610605908690611a7b565b61117c565b610614338261146e565b50565b600754600f60009054906101000a90046001600160a01b03166001600160a01b0316635c9302c96040518163ffffffff1660e01b8152600401602060405180830381865afa15801561066d573d6000803e3d6000fd5b505050506040513d601f19601f820116820180604052508101906106919190611bf9565b11156106d75760405162461bcd60e51b81526020600482015260156024820152744d696e74696e6720506861736520697320446f6e6560581b60448201526064016105ad565b601054600e54604051636eb1769f60e11b81523360048201526001600160a01b0391821660248201528392919091169063dd62ed3e90604401602060405180830381865afa15801561072d573d6000803e3d6000fd5b505050506040513d601f19601f820116820180604052508101906107519190611bf9565b10156107d55760405162461bcd60e51b815260206004820152604760248201527f506c6561736520617070726f766520636f6e747261637420616464726573732060448201527f617320616c6c6f776564207370656e64657220696e207468652068657820636f606482015266373a3930b1ba1760c91b608482015260a4016105ad565b601054600e546040516323b872dd60e01b815233600482018190526001600160a01b039283166024830152604482018590529291909116906323b872dd906064016020604051808303816000875af1158015610835573d6000803e3d6000fd5b505050506040513d601f19601f820116820180604052508101906108599190611c12565b50610863826115bc565b5050565b600080601160009054906101000a90046001600160a01b03166001600160a01b0316635c9302c96040518163ffffffff1660e01b8152600401602060405180830381865afa1580156108bd573d6000803e3d6000fd5b505050506040513d601f19601f820116820180604052508101906105199190611bf9565b600a54600f60009054906101000a90046001600160a01b03166001600160a01b0316635c9302c96040518163ffffffff1660e01b8152600401602060405180830381865afa158015610937573d6000803e3d6000fd5b505050506040513d601f19601f8201168201806040525081019061095b9190611bf9565b116109a85760405162461bcd60e51b815260206004820152601a60248201527f5374616b65206973206e6f7420636f6d706c657465207965742e00000000000060448201526064016105ad565b60085460ff16151560011480156109c75750600854610100900460ff16155b610a135760405162461bcd60e51b815260206004820152601f60248201527f5374616b652068617320616c7265616479206265656e20737461727465642e0060448201526064016105ad565b610a1d82826115c6565b6008805461ff0019166101001790556010546040516370a0823160e01b81523060048201526000916001600160a01b0316906370a0823190602401602060405180830381865afa158015610a75573d6000803e3d6000fd5b505050506040513d601f19601f82011682018060405250810190610a999190611bf9565b90506000306001600160a01b03166318160ddd6040518163ffffffff1660e01b8152600401602060405180830381865afa158015610adb573d6000803e3d6000fd5b505050506040513d601f19601f82011682018060405250810190610aff9190611bf9565b9050610b09611635565b600b5550505050565b6010546040516370a0823160e01b81523360048201526000916001600160a01b0316906370a08231906024015b602060405180830381865afa158015610b5c573d6000803e3d6000fd5b505050506040513d601f19601f82011682018060405250810190610b809190611bf9565b905090565b6005546001600160a01b03163314610bdf5760405162461bcd60e51b815260206004820181905260248201527f4f776e61626c653a2063616c6c6572206973206e6f7420746865206f776e657260448201526064016105ad565b610be96000611724565b565b6000610bf783336103d3565b905081811015610c555760405162461bcd60e51b8152602060048201526024808201527f45524332303a206275726e20616d6f756e74206578636565647320616c6c6f77604482015263616e636560e01b60648201526084016105ad565b610c62833384840361117c565b610c6c838361146e565b505050565b60115460405163033060d960e41b81523060048201526000916001600160a01b0316906333060d9090602401610b3f565b60606004805461048590611bbf565b3360009081526001602090815260408083206001600160a01b038616845290915281205482811015610d335760405162461bcd60e51b815260206004820152602560248201527f45524332303a2064656372656173656420616c6c6f77616e63652062656c6f77604482015264207a65726f60d81b60648201526084016105ad565b610d40338585840361117c565b5060019392505050565b60006105153384846112a0565b60085460ff1615610daa5760405162461bcd60e51b815260206004820152601f60248201527f5374616b652068617320616c7265616479206265656e20737461727465642e0060448201526064016105ad565b600f5460408051635c9302c960e01b815290516000926001600160a01b031691635c9302c99160048083019260209291908290030181865afa158015610df4573d6000803e3d6000fd5b505050506040513d601f19601f82011682018060405250810190610e189190611bf9565b90506007548111610e915760405162461bcd60e51b815260206004820152603b60248201527f4d696e74696e67205068617365206973207374696c6c206f6e676f696e67202d60448201527f20736565204d494e54494e475f50484153455f454e44206461792e000000000060648201526084016105ad565b6010546040516370a0823160e01b81523060048201526000916001600160a01b0316906370a0823190602401602060405180830381865afa158015610eda573d6000803e3d6000fd5b505050506040513d601f19601f82011682018060405250810190610efe9190611bf9565b9050610f0981611776565b6008805460ff191660011790556009829055600c54610f289083611a7b565b600a555050565b600b5460009081610f408285611b7e565b90506000610f52826127106004610424565b95945050505050565b601054600e54604051636eb1769f60e11b81523360048201526001600160a01b039182166024820152600092919091169063dd62ed3e90604401610b3f565b60085460ff161580610fb9575060085460ff6101009091041615156001145b1561061457336000908152602081905260409020548181101561101e5760405162461bcd60e51b815260206004820152601f60248201527f596f7520646f206e6f7420686176652074686174206d756368204d4158492e0060448201526064016105ad565b6000600b548361102e9190611b7e565b90506110398361060a565b60115460405163a9059cbb60e01b8152336004820152602481018390526001600160a01b039091169063a9059cbb906044016020604051808303816000875af115801561108a573d6000803e3d6000fd5b505050506040513d601f19601f820116820180604052508101906110ae9190611c12565b50505050565b6005546001600160a01b0316331461110e5760405162461bcd60e51b815260206004820181905260248201527f4f776e61626c653a2063616c6c6572206973206e6f7420746865206f776e657260448201526064016105ad565b6001600160a01b0381166111735760405162461bcd60e51b815260206004820152602660248201527f4f776e61626c653a206e6577206f776e657220697320746865207a65726f206160448201526564647265737360d01b60648201526084016105ad565b61061481611724565b6001600160a01b0383166111de5760405162461bcd60e51b8152602060048201526024808201527f45524332303a20617070726f76652066726f6d20746865207a65726f206164646044820152637265737360e01b60648201526084016105ad565b6001600160a01b03821661123f5760405162461bcd60e51b815260206004820152602260248201527f45524332303a20617070726f766520746f20746865207a65726f206164647265604482015261737360f01b60648201526084016105ad565b6001600160a01b0383811660008181526001602090815260408083209487168084529482529182902085905590518481527f8c5be1e5ebec7d5bd14f71427d1e84f3dd0314c0f7b2291e5b200ac8c7c3b925910160405180910390a3505050565b6001600160a01b0383166113045760405162461bcd60e51b815260206004820152602560248201527f45524332303a207472616e736665722066726f6d20746865207a65726f206164604482015264647265737360d81b60648201526084016105ad565b6001600160a01b0382166113665760405162461bcd60e51b815260206004820152602360248201527f45524332303a207472616e7366657220746f20746865207a65726f206164647260448201526265737360e81b60648201526084016105ad565b6001600160a01b038316600090815260208190526040902054818110156113de5760405162461bcd60e51b815260206004820152602660248201527f45524332303a207472616e7366657220616d6f756e7420657863656564732062604482015265616c616e636560d01b60648201526084016105ad565b6001600160a01b03808516600090815260208190526040808220858503905591851681529081208054849290611415908490611a7b565b92505081905550826001600160a01b0316846001600160a01b03167fddf252ad1be2c89b69c2b068fc378daa952ba7f163c4a11628f55a4df523b3ef8460405161146191815260200190565b60405180910390a36110ae565b6001600160a01b0382166114ce5760405162461bcd60e51b815260206004820152602160248201527f45524332303a206275726e2066726f6d20746865207a65726f206164647265736044820152607360f81b60648201526084016105ad565b6001600160a01b038216600090815260208190526040902054818110156115425760405162461bcd60e51b815260206004820152602260248201527f45524332303a206275726e20616d6f756e7420657863656564732062616c616e604482015261636560f01b60648201526084016105ad565b6001600160a01b0383166000908152602081905260408120838303905560028054849290611571908490611c34565b90915550506040518281526000906001600160a01b038516907fddf252ad1be2c89b69c2b068fc378daa952ba7f163c4a11628f55a4df523b3ef9060200160405180910390a3505050565b61061433826117e2565b601154604051631a1804d160e11b81526004810184905264ffffffffff831660248201526001600160a01b039091169063343009a290604401600060405180830381600087803b15801561161957600080fd5b505af115801561162d573d6000803e3d6000fd5b505050505050565b6010546040516370a0823160e01b815230600482015260009182916001600160a01b03909116906370a0823190602401602060405180830381865afa158015611682573d6000803e3d6000fd5b505050506040513d601f19601f820116820180604052508101906116a69190611bf9565b90506000306001600160a01b03166318160ddd6040518163ffffffff1660e01b8152600401602060405180830381865afa1580156116e8573d6000803e3d6000fd5b505050506040513d601f19601f8201168201806040525081019061170c9190611bf9565b9050600061171c83836008610424565b949350505050565b600580546001600160a01b038381166001600160a01b0319831681179093556040519116919082907f8be0079c531659141344cd1fd0a4f28419497f9722a3daafe3b4186f6b6457e090600090a35050565b601154600c54604051630a54871760e31b81526004810184905260248101919091526001600160a01b03909116906352a438b890604401600060405180830381600087803b1580156117c757600080fd5b505af11580156117db573d6000803e3d6000fd5b5050505050565b6001600160a01b0382166118385760405162461bcd60e51b815260206004820152601f60248201527f45524332303a206d696e7420746f20746865207a65726f20616464726573730060448201526064016105ad565b806002600082825461184a9190611a7b565b90915550506001600160a01b03821660009081526020819052604081208054839290611877908490611a7b565b90915550506040518181526001600160a01b038316906000907fddf252ad1be2c89b69c2b068fc378daa952ba7f163c4a11628f55a4df523b3ef9060200160405180910390a35050565b6000806000606084860312156118d657600080fd5b505081359360208301359350604090920135919050565b600060208083528351808285015260005b8181101561191a578581018301518582016040015282016118fe565b506000604082860101526040601f19601f8301168501019250505092915050565b80356001600160a01b038116811461195257600080fd5b919050565b6000806040838503121561196a57600080fd5b6119738361193b565b946020939093013593505050565b60008060006060848603121561199657600080fd5b61199f8461193b565b92506119ad6020850161193b565b9150604084013590509250925092565b6000602082840312156119cf57600080fd5b5035919050565b600080604083850312156119e957600080fd5b82359150602083013564ffffffffff81168114611a0557600080fd5b809150509250929050565b600060208284031215611a2257600080fd5b611a2b8261193b565b9392505050565b60008060408385031215611a4557600080fd5b611a4e8361193b565b9150611a5c6020840161193b565b90509250929050565b634e487b7160e01b600052601160045260246000fd5b8082018082111561051957610519611a65565b600181815b80851115611ac9578160001904821115611aaf57611aaf611a65565b80851615611abc57918102915b93841c9390800290611a93565b509250929050565b600082611ae057506001610519565b81611aed57506000610519565b8160018114611b035760028114611b0d57611b29565b6001915050610519565b60ff841115611b1e57611b1e611a65565b50506001821b610519565b5060208310610133831016604e8410600b8410161715611b4c575081810a610519565b611b568383611a8e565b8060001904821115611b6a57611b6a611a65565b029392505050565b6000611a2b8383611ad1565b6000816000190483118215151615611b9857611b98611a65565b500290565b600082611bba57634e487b7160e01b600052601260045260246000fd5b500490565b600181811c90821680611bd357607f821691505b602082108103611bf357634e487b7160e01b600052602260045260246000fd5b50919050565b600060208284031215611c0b57600080fd5b5051919050565b600060208284031215611c2457600080fd5b81518015158114611a2b57600080fd5b8181038181111561051957610519611a6556fea2646970667358221220d67b42144c868f9a23d0f7e24499c0f24e0beec6fd74910a75bf8a23c9df4fcc64736f6c63430008100033",
					"opcodes": "PUSH1 0x80 PUSH1 0x40 MSTORE PUSH1 0xE DUP1 SLOAD PUSH1 0x1 PUSH1 0x1 PUSH1 0xA0 SHL SUB NOT SWAP1 DUP2 AND ADDRESS OR SWAP1 SWAP2 SSTORE PUSH1 0xF DUP1 SLOAD DUP3 AND PUSH20 0x2B591E99AFE9F32EAA6214F7B7629768C40EEB39 SWAP1 DUP2 OR SWAP1 SWAP2 SSTORE PUSH1 0x10 DUP1 SLOAD DUP4 AND DUP3 OR SWAP1 SSTORE PUSH1 0x11 DUP1 SLOAD SWAP1 SWAP3 AND OR SWAP1 SSTORE CALLVALUE DUP1 ISZERO PUSH3 0x5B JUMPI PUSH1 0x0 DUP1 REVERT JUMPDEST POP PUSH1 0x40 MLOAD PUSH3 0x1FC9 CODESIZE SUB DUP1 PUSH3 0x1FC9 DUP4 CODECOPY DUP2 ADD PUSH1 0x40 DUP2 SWAP1 MSTORE PUSH3 0x7E SWAP2 PUSH3 0x17E JUMP JUMPDEST PUSH1 0x40 MLOAD DUP1 PUSH1 0x40 ADD PUSH1 0x40 MSTORE DUP1 PUSH1 0x7 DUP2 MSTORE PUSH1 0x20 ADD PUSH7 0x26BCAA37B5B2B7 PUSH1 0xC9 SHL DUP2 MSTORE POP PUSH1 0x40 MLOAD DUP1 PUSH1 0x40 ADD PUSH1 0x40 MSTORE DUP1 PUSH1 0x3 DUP2 MSTORE PUSH1 0x20 ADD PUSH3 0x4D544B PUSH1 0xE8 SHL DUP2 MSTORE POP DUP2 PUSH1 0x3 SWAP1 DUP2 PUSH3 0xCB SWAP2 SWAP1 PUSH3 0x248 JUMP JUMPDEST POP PUSH1 0x4 PUSH3 0xDA DUP3 DUP3 PUSH3 0x248 JUMP JUMPDEST POP POP POP PUSH3 0xF7 PUSH3 0xF1 PUSH3 0x128 PUSH1 0x20 SHL PUSH1 0x20 SHR JUMP JUMPDEST PUSH3 0x12C JUMP JUMPDEST PUSH1 0x6 DUP3 SWAP1 SSTORE PUSH3 0x108 DUP2 DUP4 PUSH3 0x314 JUMP JUMPDEST PUSH1 0x7 SSTORE POP POP PUSH1 0x8 DUP1 SLOAD PUSH2 0xFFFF NOT AND SWAP1 SSTORE PUSH1 0x1 PUSH1 0xB DUP2 SWAP1 SSTORE PUSH1 0xC SSTORE PUSH3 0x33C JUMP JUMPDEST CALLER SWAP1 JUMP JUMPDEST PUSH1 0x5 DUP1 SLOAD PUSH1 0x1 PUSH1 0x1 PUSH1 0xA0 SHL SUB DUP4 DUP2 AND PUSH1 0x1 PUSH1 0x1 PUSH1 0xA0 SHL SUB NOT DUP4 AND DUP2 OR SWAP1 SWAP4 SSTORE PUSH1 0x40 MLOAD SWAP2 AND SWAP2 SWAP1 DUP3 SWAP1 PUSH32 0x8BE0079C531659141344CD1FD0A4F28419497F9722A3DAAFE3B4186F6B6457E0 SWAP1 PUSH1 0x0 SWAP1 LOG3 POP POP JUMP JUMPDEST PUSH1 0x0 DUP1 PUSH1 0x40 DUP4 DUP6 SUB SLT ISZERO PUSH3 0x192 JUMPI PUSH1 0x0 DUP1 REVERT JUMPDEST POP POP DUP1 MLOAD PUSH1 0x20 SWAP1 SWAP2 ADD MLOAD SWAP1 SWAP3 SWAP1 SWAP2 POP JUMP JUMPDEST PUSH4 0x4E487B71 PUSH1 0xE0 SHL PUSH1 0x0 MSTORE PUSH1 0x41 PUSH1 0x4 MSTORE PUSH1 0x24 PUSH1 0x0 REVERT JUMPDEST PUSH1 0x1 DUP2 DUP2 SHR SWAP1 DUP3 AND DUP1 PUSH3 0x1CE JUMPI PUSH1 0x7F DUP3 AND SWAP2 POP JUMPDEST PUSH1 0x20 DUP3 LT DUP2 SUB PUSH3 0x1EF JUMPI PUSH4 0x4E487B71 PUSH1 0xE0 SHL PUSH1 0x0 MSTORE PUSH1 0x22 PUSH1 0x4 MSTORE PUSH1 0x24 PUSH1 0x0 REVERT JUMPDEST POP SWAP2 SWAP1 POP JUMP JUMPDEST PUSH1 0x1F DUP3 GT ISZERO PUSH3 0x243 JUMPI PUSH1 0x0 DUP2 DUP2 MSTORE PUSH1 0x20 DUP2 KECCAK256 PUSH1 0x1F DUP6 ADD PUSH1 0x5 SHR DUP2 ADD PUSH1 0x20 DUP7 LT ISZERO PUSH3 0x21E JUMPI POP DUP1 JUMPDEST PUSH1 0x1F DUP6 ADD PUSH1 0x5 SHR DUP3 ADD SWAP2 POP JUMPDEST DUP2 DUP2 LT ISZERO PUSH3 0x23F JUMPI DUP3 DUP2 SSTORE PUSH1 0x1 ADD PUSH3 0x22A JUMP JUMPDEST POP POP POP JUMPDEST POP POP POP JUMP JUMPDEST DUP2 MLOAD PUSH1 0x1 PUSH1 0x1 PUSH1 0x40 SHL SUB DUP2 GT ISZERO PUSH3 0x264 JUMPI PUSH3 0x264 PUSH3 0x1A3 JUMP JUMPDEST PUSH3 0x27C DUP2 PUSH3 0x275 DUP5 SLOAD PUSH3 0x1B9 JUMP JUMPDEST DUP5 PUSH3 0x1F5 JUMP JUMPDEST PUSH1 0x20 DUP1 PUSH1 0x1F DUP4 GT PUSH1 0x1 DUP2 EQ PUSH3 0x2B4 JUMPI PUSH1 0x0 DUP5 ISZERO PUSH3 0x29B JUMPI POP DUP6 DUP4 ADD MLOAD JUMPDEST PUSH1 0x0 NOT PUSH1 0x3 DUP7 SWAP1 SHL SHR NOT AND PUSH1 0x1 DUP6 SWAP1 SHL OR DUP6 SSTORE PUSH3 0x23F JUMP JUMPDEST PUSH1 0x0 DUP6 DUP2 MSTORE PUSH1 0x20 DUP2 KECCAK256 PUSH1 0x1F NOT DUP7 AND SWAP2 JUMPDEST DUP3 DUP2 LT ISZERO PUSH3 0x2E5 JUMPI DUP9 DUP7 ADD MLOAD DUP3 SSTORE SWAP5 DUP5 ADD SWAP5 PUSH1 0x1 SWAP1 SWAP2 ADD SWAP1 DUP5 ADD PUSH3 0x2C4 JUMP JUMPDEST POP DUP6 DUP3 LT ISZERO PUSH3 0x304 JUMPI DUP8 DUP6 ADD MLOAD PUSH1 0x0 NOT PUSH1 0x3 DUP9 SWAP1 SHL PUSH1 0xF8 AND SHR NOT AND DUP2 SSTORE JUMPDEST POP POP POP POP POP PUSH1 0x1 SWAP1 DUP2 SHL ADD SWAP1 SSTORE POP JUMP JUMPDEST DUP1 DUP3 ADD DUP1 DUP3 GT ISZERO PUSH3 0x336 JUMPI PUSH4 0x4E487B71 PUSH1 0xE0 SHL PUSH1 0x0 MSTORE PUSH1 0x11 PUSH1 0x4 MSTORE PUSH1 0x24 PUSH1 0x0 REVERT JUMPDEST SWAP3 SWAP2 POP POP JUMP JUMPDEST PUSH2 0x1C7D DUP1 PUSH3 0x34C PUSH1 0x0 CODECOPY PUSH1 0x0 RETURN INVALID PUSH1 0x80 PUSH1 0x40 MSTORE CALLVALUE DUP1 ISZERO PUSH2 0x10 JUMPI PUSH1 0x0 DUP1 REVERT JUMPDEST POP PUSH1 0x4 CALLDATASIZE LT PUSH2 0x1EF JUMPI PUSH1 0x0 CALLDATALOAD PUSH1 0xE0 SHR DUP1 PUSH4 0x715018A6 GT PUSH2 0x10F JUMPI DUP1 PUSH4 0xA9059CBB GT PUSH2 0xA2 JUMPI DUP1 PUSH4 0xDB141222 GT PUSH2 0x71 JUMPI DUP1 PUSH4 0xDB141222 EQ PUSH2 0x3BD JUMPI DUP1 PUSH4 0xDD62ED3E EQ PUSH2 0x3C5 JUMPI DUP1 PUSH4 0xE7644FB9 EQ PUSH2 0x3FE JUMPI DUP1 PUSH4 0xF2FDE38B EQ PUSH2 0x411 JUMPI PUSH1 0x0 DUP1 REVERT JUMPDEST DUP1 PUSH4 0xA9059CBB EQ PUSH2 0x387 JUMPI DUP1 PUSH4 0xBA777BCC EQ PUSH2 0x39A JUMPI DUP1 PUSH4 0xD2DEA365 EQ PUSH2 0x3A2 JUMPI DUP1 PUSH4 0xD720D871 EQ PUSH2 0x3B5 JUMPI PUSH1 0x0 DUP1 REVERT JUMPDEST DUP1 PUSH4 0x88B022C6 GT PUSH2 0xDE JUMPI DUP1 PUSH4 0x88B022C6 EQ PUSH2 0x346 JUMPI DUP1 PUSH4 0x8DA5CB5B EQ PUSH2 0x351 JUMPI DUP1 PUSH4 0x95D89B41 EQ PUSH2 0x36C JUMPI DUP1 PUSH4 0xA457C2D7 EQ PUSH2 0x374 JUMPI PUSH1 0x0 DUP1 REVERT JUMPDEST DUP1 PUSH4 0x715018A6 EQ PUSH2 0x31B JUMPI DUP1 PUSH4 0x751279B9 EQ PUSH2 0x323 JUMPI DUP1 PUSH4 0x79CC6790 EQ PUSH2 0x32B JUMPI DUP1 PUSH4 0x79F82BDE EQ PUSH2 0x33E JUMPI PUSH1 0x0 DUP1 REVERT JUMPDEST DUP1 PUSH4 0x39509351 GT PUSH2 0x187 JUMPI DUP1 PUSH4 0x488B4783 GT PUSH2 0x156 JUMPI DUP1 PUSH4 0x488B4783 EQ PUSH2 0x2CF JUMPI DUP1 PUSH4 0x4953A509 EQ PUSH2 0x2D7 JUMPI DUP1 PUSH4 0x669D751E EQ PUSH2 0x2EA JUMPI DUP1 PUSH4 0x70A08231 EQ PUSH2 0x2F2 JUMPI PUSH1 0x0 DUP1 REVERT JUMPDEST DUP1 PUSH4 0x39509351 EQ PUSH2 0x28C JUMPI DUP1 PUSH4 0x42966C68 EQ PUSH2 0x29F JUMPI DUP1 PUSH4 0x4537523C EQ PUSH2 0x2B4 JUMPI DUP1 PUSH4 0x46CBBE9E EQ PUSH2 0x2C7 JUMPI PUSH1 0x0 DUP1 REVERT JUMPDEST DUP1 PUSH4 0x18160DDD GT PUSH2 0x1C3 JUMPI DUP1 PUSH4 0x18160DDD EQ PUSH2 0x25A JUMPI DUP1 PUSH4 0x23B872DD EQ PUSH2 0x262 JUMPI DUP1 PUSH4 0x2B11551A EQ PUSH2 0x275 JUMPI DUP1 PUSH4 0x313CE567 EQ PUSH2 0x27D JUMPI PUSH1 0x0 DUP1 REVERT JUMPDEST DUP1 PUSH3 0x2C1A9E EQ PUSH2 0x1F4 JUMPI DUP1 PUSH4 0x37C3F5D EQ PUSH2 0x21A JUMPI DUP1 PUSH4 0x6FDDE03 EQ PUSH2 0x222 JUMPI DUP1 PUSH4 0x95EA7B3 EQ PUSH2 0x237 JUMPI JUMPDEST PUSH1 0x0 DUP1 REVERT JUMPDEST PUSH2 0x207 PUSH2 0x202 CALLDATASIZE PUSH1 0x4 PUSH2 0x18C1 JUMP JUMPDEST PUSH2 0x424 JUMP JUMPDEST PUSH1 0x40 MLOAD SWAP1 DUP2 MSTORE PUSH1 0x20 ADD JUMPDEST PUSH1 0x40 MLOAD DUP1 SWAP2 SUB SWAP1 RETURN JUMPDEST PUSH1 0x7 SLOAD PUSH2 0x207 JUMP JUMPDEST PUSH2 0x22A PUSH2 0x476 JUMP JUMPDEST PUSH1 0x40 MLOAD PUSH2 0x211 SWAP2 SWAP1 PUSH2 0x18ED JUMP JUMPDEST PUSH2 0x24A PUSH2 0x245 CALLDATASIZE PUSH1 0x4 PUSH2 0x1957 JUMP JUMPDEST PUSH2 0x508 JUMP JUMPDEST PUSH1 0x40 MLOAD SWAP1 ISZERO ISZERO DUP2 MSTORE PUSH1 0x20 ADD PUSH2 0x211 JUMP JUMPDEST PUSH1 0x2 SLOAD PUSH2 0x207 JUMP JUMPDEST PUSH2 0x24A PUSH2 0x270 CALLDATASIZE PUSH1 0x4 PUSH2 0x1981 JUMP JUMPDEST PUSH2 0x51F JUMP JUMPDEST PUSH1 0xB SLOAD PUSH2 0x207 JUMP JUMPDEST PUSH1 0x40 MLOAD PUSH1 0x8 DUP2 MSTORE PUSH1 0x20 ADD PUSH2 0x211 JUMP JUMPDEST PUSH2 0x24A PUSH2 0x29A CALLDATASIZE PUSH1 0x4 PUSH2 0x1957 JUMP JUMPDEST PUSH2 0x5CE JUMP JUMPDEST PUSH2 0x2B2 PUSH2 0x2AD CALLDATASIZE PUSH1 0x4 PUSH2 0x19BD JUMP JUMPDEST PUSH2 0x60A JUMP JUMPDEST STOP JUMPDEST PUSH2 0x2B2 PUSH2 0x2C2 CALLDATASIZE PUSH1 0x4 PUSH2 0x19BD JUMP JUMPDEST PUSH2 0x617 JUMP JUMPDEST PUSH2 0x207 PUSH2 0x867 JUMP JUMPDEST PUSH1 0x6 SLOAD PUSH2 0x207 JUMP JUMPDEST PUSH2 0x2B2 PUSH2 0x2E5 CALLDATASIZE PUSH1 0x4 PUSH2 0x19D6 JUMP JUMPDEST PUSH2 0x8E1 JUMP JUMPDEST PUSH2 0x207 PUSH2 0xB12 JUMP JUMPDEST PUSH2 0x207 PUSH2 0x300 CALLDATASIZE PUSH1 0x4 PUSH2 0x1A10 JUMP JUMPDEST PUSH1 0x1 PUSH1 0x1 PUSH1 0xA0 SHL SUB AND PUSH1 0x0 SWAP1 DUP2 MSTORE PUSH1 0x20 DUP2 SWAP1 MSTORE PUSH1 0x40 SWAP1 KECCAK256 SLOAD SWAP1 JUMP JUMPDEST PUSH2 0x2B2 PUSH2 0xB85 JUMP JUMPDEST PUSH1 0xA SLOAD PUSH2 0x207 JUMP JUMPDEST PUSH2 0x2B2 PUSH2 0x339 CALLDATASIZE PUSH1 0x4 PUSH2 0x1957 JUMP JUMPDEST PUSH2 0xBEB JUMP JUMPDEST PUSH2 0x207 PUSH2 0xC71 JUMP JUMPDEST PUSH1 0x8 SLOAD PUSH1 0xFF AND PUSH2 0x24A JUMP JUMPDEST PUSH1 0x5 SLOAD PUSH1 0x40 MLOAD PUSH1 0x1 PUSH1 0x1 PUSH1 0xA0 SHL SUB SWAP1 SWAP2 AND DUP2 MSTORE PUSH1 0x20 ADD PUSH2 0x211 JUMP JUMPDEST PUSH2 0x22A PUSH2 0xCA2 JUMP JUMPDEST PUSH2 0x24A PUSH2 0x382 CALLDATASIZE PUSH1 0x4 PUSH2 0x1957 JUMP JUMPDEST PUSH2 0xCB1 JUMP JUMPDEST PUSH2 0x24A PUSH2 0x395 CALLDATASIZE PUSH1 0x4 PUSH2 0x1957 JUMP JUMPDEST PUSH2 0xD4A JUMP JUMPDEST PUSH2 0x2B2 PUSH2 0xD57 JUMP JUMPDEST PUSH2 0x207 PUSH2 0x3B0 CALLDATASIZE PUSH1 0x4 PUSH2 0x19BD JUMP JUMPDEST PUSH2 0xF2F JUMP JUMPDEST PUSH2 0x207 PUSH2 0xF5B JUMP JUMPDEST PUSH1 0x9 SLOAD PUSH2 0x207 JUMP JUMPDEST PUSH2 0x207 PUSH2 0x3D3 CALLDATASIZE PUSH1 0x4 PUSH2 0x1A32 JUMP JUMPDEST PUSH1 0x1 PUSH1 0x1 PUSH1 0xA0 SHL SUB SWAP2 DUP3 AND PUSH1 0x0 SWAP1 DUP2 MSTORE PUSH1 0x1 PUSH1 0x20 SWAP1 DUP2 MSTORE PUSH1 0x40 DUP1 DUP4 KECCAK256 SWAP4 SWAP1 SWAP5 AND DUP3 MSTORE SWAP2 SWAP1 SWAP2 MSTORE KECCAK256 SLOAD SWAP1 JUMP JUMPDEST PUSH2 0x2B2 PUSH2 0x40C CALLDATASIZE PUSH1 0x4 PUSH2 0x19BD JUMP JUMPDEST PUSH2 0xF9A JUMP JUMPDEST PUSH2 0x2B2 PUSH2 0x41F CALLDATASIZE PUSH1 0x4 PUSH2 0x1A10 JUMP JUMPDEST PUSH2 0x10B4 JUMP JUMPDEST PUSH1 0x0 DUP1 PUSH2 0x432 DUP4 PUSH1 0x1 PUSH2 0x1A7B JUMP JUMPDEST PUSH2 0x43D SWAP1 PUSH1 0xA PUSH2 0x1B72 JUMP JUMPDEST PUSH2 0x447 SWAP1 DUP7 PUSH2 0x1B7E JUMP JUMPDEST SWAP1 POP PUSH1 0x0 PUSH1 0xA PUSH2 0x457 DUP7 DUP5 PUSH2 0x1B9D JUMP JUMPDEST PUSH2 0x462 SWAP1 PUSH1 0x5 PUSH2 0x1A7B JUMP JUMPDEST PUSH2 0x46C SWAP2 SWAP1 PUSH2 0x1B9D JUMP JUMPDEST SWAP7 SWAP6 POP POP POP POP POP POP JUMP JUMPDEST PUSH1 0x60 PUSH1 0x3 DUP1 SLOAD PUSH2 0x485 SWAP1 PUSH2 0x1BBF JUMP JUMPDEST DUP1 PUSH1 0x1F ADD PUSH1 0x20 DUP1 SWAP2 DIV MUL PUSH1 0x20 ADD PUSH1 0x40 MLOAD SWAP1 DUP2 ADD PUSH1 0x40 MSTORE DUP1 SWAP3 SWAP2 SWAP1 DUP2 DUP2 MSTORE PUSH1 0x20 ADD DUP3 DUP1 SLOAD PUSH2 0x4B1 SWAP1 PUSH2 0x1BBF JUMP JUMPDEST DUP1 ISZERO PUSH2 0x4FE JUMPI DUP1 PUSH1 0x1F LT PUSH2 0x4D3 JUMPI PUSH2 0x100 DUP1 DUP4 SLOAD DIV MUL DUP4 MSTORE SWAP2 PUSH1 0x20 ADD SWAP2 PUSH2 0x4FE JUMP JUMPDEST DUP3 ADD SWAP2 SWAP1 PUSH1 0x0 MSTORE PUSH1 0x20 PUSH1 0x0 KECCAK256 SWAP1 JUMPDEST DUP2 SLOAD DUP2 MSTORE SWAP1 PUSH1 0x1 ADD SWAP1 PUSH1 0x20 ADD DUP1 DUP4 GT PUSH2 0x4E1 JUMPI DUP3 SWAP1 SUB PUSH1 0x1F AND DUP3 ADD SWAP2 JUMPDEST POP POP POP POP POP SWAP1 POP SWAP1 JUMP JUMPDEST PUSH1 0x0 PUSH2 0x515 CALLER DUP5 DUP5 PUSH2 0x117C JUMP JUMPDEST POP PUSH1 0x1 JUMPDEST SWAP3 SWAP2 POP POP JUMP JUMPDEST PUSH1 0x0 PUSH2 0x52C DUP5 DUP5 DUP5 PUSH2 0x12A0 JUMP JUMPDEST PUSH1 0x1 PUSH1 0x1 PUSH1 0xA0 SHL SUB DUP5 AND PUSH1 0x0 SWAP1 DUP2 MSTORE PUSH1 0x1 PUSH1 0x20 SWAP1 DUP2 MSTORE PUSH1 0x40 DUP1 DUP4 KECCAK256 CALLER DUP5 MSTORE SWAP1 SWAP2 MSTORE SWAP1 KECCAK256 SLOAD DUP3 DUP2 LT ISZERO PUSH2 0x5B6 JUMPI PUSH1 0x40 MLOAD PUSH3 0x461BCD PUSH1 0xE5 SHL DUP2 MSTORE PUSH1 0x20 PUSH1 0x4 DUP3 ADD MSTORE PUSH1 0x28 PUSH1 0x24 DUP3 ADD MSTORE PUSH32 0x45524332303A207472616E7366657220616D6F756E7420657863656564732061 PUSH1 0x44 DUP3 ADD MSTORE PUSH8 0x6C6C6F77616E6365 PUSH1 0xC0 SHL PUSH1 0x64 DUP3 ADD MSTORE PUSH1 0x84 ADD JUMPDEST PUSH1 0x40 MLOAD DUP1 SWAP2 SUB SWAP1 REVERT JUMPDEST PUSH2 0x5C3 DUP6 CALLER DUP6 DUP5 SUB PUSH2 0x117C JUMP JUMPDEST POP PUSH1 0x1 SWAP5 SWAP4 POP POP POP POP JUMP JUMPDEST CALLER PUSH1 0x0 DUP2 DUP2 MSTORE PUSH1 0x1 PUSH1 0x20 SWAP1 DUP2 MSTORE PUSH1 0x40 DUP1 DUP4 KECCAK256 PUSH1 0x1 PUSH1 0x1 PUSH1 0xA0 SHL SUB DUP8 AND DUP5 MSTORE SWAP1 SWAP2 MSTORE DUP2 KECCAK256 SLOAD SWAP1 SWAP2 PUSH2 0x515 SWAP2 DUP6 SWAP1 PUSH2 0x605 SWAP1 DUP7 SWAP1 PUSH2 0x1A7B JUMP JUMPDEST PUSH2 0x117C JUMP JUMPDEST PUSH2 0x614 CALLER DUP3 PUSH2 0x146E JUMP JUMPDEST POP JUMP JUMPDEST PUSH1 0x7 SLOAD PUSH1 0xF PUSH1 0x0 SWAP1 SLOAD SWAP1 PUSH2 0x100 EXP SWAP1 DIV PUSH1 0x1 PUSH1 0x1 PUSH1 0xA0 SHL SUB AND PUSH1 0x1 PUSH1 0x1 PUSH1 0xA0 SHL SUB AND PUSH4 0x5C9302C9 PUSH1 0x40 MLOAD DUP2 PUSH4 0xFFFFFFFF AND PUSH1 0xE0 SHL DUP2 MSTORE PUSH1 0x4 ADD PUSH1 0x20 PUSH1 0x40 MLOAD DUP1 DUP4 SUB DUP2 DUP7 GAS STATICCALL ISZERO DUP1 ISZERO PUSH2 0x66D JUMPI RETURNDATASIZE PUSH1 0x0 DUP1 RETURNDATACOPY RETURNDATASIZE PUSH1 0x0 REVERT JUMPDEST POP POP POP POP PUSH1 0x40 MLOAD RETURNDATASIZE PUSH1 0x1F NOT PUSH1 0x1F DUP3 ADD AND DUP3 ADD DUP1 PUSH1 0x40 MSTORE POP DUP2 ADD SWAP1 PUSH2 0x691 SWAP2 SWAP1 PUSH2 0x1BF9 JUMP JUMPDEST GT ISZERO PUSH2 0x6D7 JUMPI PUSH1 0x40 MLOAD PUSH3 0x461BCD PUSH1 0xE5 SHL DUP2 MSTORE PUSH1 0x20 PUSH1 0x4 DUP3 ADD MSTORE PUSH1 0x15 PUSH1 0x24 DUP3 ADD MSTORE PUSH21 0x4D696E74696E6720506861736520697320446F6E65 PUSH1 0x58 SHL PUSH1 0x44 DUP3 ADD MSTORE PUSH1 0x64 ADD PUSH2 0x5AD JUMP JUMPDEST PUSH1 0x10 SLOAD PUSH1 0xE SLOAD PUSH1 0x40 MLOAD PUSH4 0x6EB1769F PUSH1 0xE1 SHL DUP2 MSTORE CALLER PUSH1 0x4 DUP3 ADD MSTORE PUSH1 0x1 PUSH1 0x1 PUSH1 0xA0 SHL SUB SWAP2 DUP3 AND PUSH1 0x24 DUP3 ADD MSTORE DUP4 SWAP3 SWAP2 SWAP1 SWAP2 AND SWAP1 PUSH4 0xDD62ED3E SWAP1 PUSH1 0x44 ADD PUSH1 0x20 PUSH1 0x40 MLOAD DUP1 DUP4 SUB DUP2 DUP7 GAS STATICCALL ISZERO DUP1 ISZERO PUSH2 0x72D JUMPI RETURNDATASIZE PUSH1 0x0 DUP1 RETURNDATACOPY RETURNDATASIZE PUSH1 0x0 REVERT JUMPDEST POP POP POP POP PUSH1 0x40 MLOAD RETURNDATASIZE PUSH1 0x1F NOT PUSH1 0x1F DUP3 ADD AND DUP3 ADD DUP1 PUSH1 0x40 MSTORE POP DUP2 ADD SWAP1 PUSH2 0x751 SWAP2 SWAP1 PUSH2 0x1BF9 JUMP JUMPDEST LT ISZERO PUSH2 0x7D5 JUMPI PUSH1 0x40 MLOAD PUSH3 0x461BCD PUSH1 0xE5 SHL DUP2 MSTORE PUSH1 0x20 PUSH1 0x4 DUP3 ADD MSTORE PUSH1 0x47 PUSH1 0x24 DUP3 ADD MSTORE PUSH32 0x506C6561736520617070726F766520636F6E7472616374206164647265737320 PUSH1 0x44 DUP3 ADD MSTORE PUSH32 0x617320616C6C6F776564207370656E64657220696E207468652068657820636F PUSH1 0x64 DUP3 ADD MSTORE PUSH7 0x373A3930B1BA17 PUSH1 0xC9 SHL PUSH1 0x84 DUP3 ADD MSTORE PUSH1 0xA4 ADD PUSH2 0x5AD JUMP JUMPDEST PUSH1 0x10 SLOAD PUSH1 0xE SLOAD PUSH1 0x40 MLOAD PUSH4 0x23B872DD PUSH1 0xE0 SHL DUP2 MSTORE CALLER PUSH1 0x4 DUP3 ADD DUP2 SWAP1 MSTORE PUSH1 0x1 PUSH1 0x1 PUSH1 0xA0 SHL SUB SWAP3 DUP4 AND PUSH1 0x24 DUP4 ADD MSTORE PUSH1 0x44 DUP3 ADD DUP6 SWAP1 MSTORE SWAP3 SWAP2 SWAP1 SWAP2 AND SWAP1 PUSH4 0x23B872DD SWAP1 PUSH1 0x64 ADD PUSH1 0x20 PUSH1 0x40 MLOAD DUP1 DUP4 SUB DUP2 PUSH1 0x0 DUP8 GAS CALL ISZERO DUP1 ISZERO PUSH2 0x835 JUMPI RETURNDATASIZE PUSH1 0x0 DUP1 RETURNDATACOPY RETURNDATASIZE PUSH1 0x0 REVERT JUMPDEST POP POP POP POP PUSH1 0x40 MLOAD RETURNDATASIZE PUSH1 0x1F NOT PUSH1 0x1F DUP3 ADD AND DUP3 ADD DUP1 PUSH1 0x40 MSTORE POP DUP2 ADD SWAP1 PUSH2 0x859 SWAP2 SWAP1 PUSH2 0x1C12 JUMP JUMPDEST POP PUSH2 0x863 DUP3 PUSH2 0x15BC JUMP JUMPDEST POP POP JUMP JUMPDEST PUSH1 0x0 DUP1 PUSH1 0x11 PUSH1 0x0 SWAP1 SLOAD SWAP1 PUSH2 0x100 EXP SWAP1 DIV PUSH1 0x1 PUSH1 0x1 PUSH1 0xA0 SHL SUB AND PUSH1 0x1 PUSH1 0x1 PUSH1 0xA0 SHL SUB AND PUSH4 0x5C9302C9 PUSH1 0x40 MLOAD DUP2 PUSH4 0xFFFFFFFF AND PUSH1 0xE0 SHL DUP2 MSTORE PUSH1 0x4 ADD PUSH1 0x20 PUSH1 0x40 MLOAD DUP1 DUP4 SUB DUP2 DUP7 GAS STATICCALL ISZERO DUP1 ISZERO PUSH2 0x8BD JUMPI RETURNDATASIZE PUSH1 0x0 DUP1 RETURNDATACOPY RETURNDATASIZE PUSH1 0x0 REVERT JUMPDEST POP POP POP POP PUSH1 0x40 MLOAD RETURNDATASIZE PUSH1 0x1F NOT PUSH1 0x1F DUP3 ADD AND DUP3 ADD DUP1 PUSH1 0x40 MSTORE POP DUP2 ADD SWAP1 PUSH2 0x519 SWAP2 SWAP1 PUSH2 0x1BF9 JUMP JUMPDEST PUSH1 0xA SLOAD PUSH1 0xF PUSH1 0x0 SWAP1 SLOAD SWAP1 PUSH2 0x100 EXP SWAP1 DIV PUSH1 0x1 PUSH1 0x1 PUSH1 0xA0 SHL SUB AND PUSH1 0x1 PUSH1 0x1 PUSH1 0xA0 SHL SUB AND PUSH4 0x5C9302C9 PUSH1 0x40 MLOAD DUP2 PUSH4 0xFFFFFFFF AND PUSH1 0xE0 SHL DUP2 MSTORE PUSH1 0x4 ADD PUSH1 0x20 PUSH1 0x40 MLOAD DUP1 DUP4 SUB DUP2 DUP7 GAS STATICCALL ISZERO DUP1 ISZERO PUSH2 0x937 JUMPI RETURNDATASIZE PUSH1 0x0 DUP1 RETURNDATACOPY RETURNDATASIZE PUSH1 0x0 REVERT JUMPDEST POP POP POP POP PUSH1 0x40 MLOAD RETURNDATASIZE PUSH1 0x1F NOT PUSH1 0x1F DUP3 ADD AND DUP3 ADD DUP1 PUSH1 0x40 MSTORE POP DUP2 ADD SWAP1 PUSH2 0x95B SWAP2 SWAP1 PUSH2 0x1BF9 JUMP JUMPDEST GT PUSH2 0x9A8 JUMPI PUSH1 0x40 MLOAD PUSH3 0x461BCD PUSH1 0xE5 SHL DUP2 MSTORE PUSH1 0x20 PUSH1 0x4 DUP3 ADD MSTORE PUSH1 0x1A PUSH1 0x24 DUP3 ADD MSTORE PUSH32 0x5374616B65206973206E6F7420636F6D706C657465207965742E000000000000 PUSH1 0x44 DUP3 ADD MSTORE PUSH1 0x64 ADD PUSH2 0x5AD JUMP JUMPDEST PUSH1 0x8 SLOAD PUSH1 0xFF AND ISZERO ISZERO PUSH1 0x1 EQ DUP1 ISZERO PUSH2 0x9C7 JUMPI POP PUSH1 0x8 SLOAD PUSH2 0x100 SWAP1 DIV PUSH1 0xFF AND ISZERO JUMPDEST PUSH2 0xA13 JUMPI PUSH1 0x40 MLOAD PUSH3 0x461BCD PUSH1 0xE5 SHL DUP2 MSTORE PUSH1 0x20 PUSH1 0x4 DUP3 ADD MSTORE PUSH1 0x1F PUSH1 0x24 DUP3 ADD MSTORE PUSH32 0x5374616B652068617320616C7265616479206265656E20737461727465642E00 PUSH1 0x44 DUP3 ADD MSTORE PUSH1 0x64 ADD PUSH2 0x5AD JUMP JUMPDEST PUSH2 0xA1D DUP3 DUP3 PUSH2 0x15C6 JUMP JUMPDEST PUSH1 0x8 DUP1 SLOAD PUSH2 0xFF00 NOT AND PUSH2 0x100 OR SWAP1 SSTORE PUSH1 0x10 SLOAD PUSH1 0x40 MLOAD PUSH4 0x70A08231 PUSH1 0xE0 SHL DUP2 MSTORE ADDRESS PUSH1 0x4 DUP3 ADD MSTORE PUSH1 0x0 SWAP2 PUSH1 0x1 PUSH1 0x1 PUSH1 0xA0 SHL SUB AND SWAP1 PUSH4 0x70A08231 SWAP1 PUSH1 0x24 ADD PUSH1 0x20 PUSH1 0x40 MLOAD DUP1 DUP4 SUB DUP2 DUP7 GAS STATICCALL ISZERO DUP1 ISZERO PUSH2 0xA75 JUMPI RETURNDATASIZE PUSH1 0x0 DUP1 RETURNDATACOPY RETURNDATASIZE PUSH1 0x0 REVERT JUMPDEST POP POP POP POP PUSH1 0x40 MLOAD RETURNDATASIZE PUSH1 0x1F NOT PUSH1 0x1F DUP3 ADD AND DUP3 ADD DUP1 PUSH1 0x40 MSTORE POP DUP2 ADD SWAP1 PUSH2 0xA99 SWAP2 SWAP1 PUSH2 0x1BF9 JUMP JUMPDEST SWAP1 POP PUSH1 0x0 ADDRESS PUSH1 0x1 PUSH1 0x1 PUSH1 0xA0 SHL SUB AND PUSH4 0x18160DDD PUSH1 0x40 MLOAD DUP2 PUSH4 0xFFFFFFFF AND PUSH1 0xE0 SHL DUP2 MSTORE PUSH1 0x4 ADD PUSH1 0x20 PUSH1 0x40 MLOAD DUP1 DUP4 SUB DUP2 DUP7 GAS STATICCALL ISZERO DUP1 ISZERO PUSH2 0xADB JUMPI RETURNDATASIZE PUSH1 0x0 DUP1 RETURNDATACOPY RETURNDATASIZE PUSH1 0x0 REVERT JUMPDEST POP POP POP POP PUSH1 0x40 MLOAD RETURNDATASIZE PUSH1 0x1F NOT PUSH1 0x1F DUP3 ADD AND DUP3 ADD DUP1 PUSH1 0x40 MSTORE POP DUP2 ADD SWAP1 PUSH2 0xAFF SWAP2 SWAP1 PUSH2 0x1BF9 JUMP JUMPDEST SWAP1 POP PUSH2 0xB09 PUSH2 0x1635 JUMP JUMPDEST PUSH1 0xB SSTORE POP POP POP POP JUMP JUMPDEST PUSH1 0x10 SLOAD PUSH1 0x40 MLOAD PUSH4 0x70A08231 PUSH1 0xE0 SHL DUP2 MSTORE CALLER PUSH1 0x4 DUP3 ADD MSTORE PUSH1 0x0 SWAP2 PUSH1 0x1 PUSH1 0x1 PUSH1 0xA0 SHL SUB AND SWAP1 PUSH4 0x70A08231 SWAP1 PUSH1 0x24 ADD JUMPDEST PUSH1 0x20 PUSH1 0x40 MLOAD DUP1 DUP4 SUB DUP2 DUP7 GAS STATICCALL ISZERO DUP1 ISZERO PUSH2 0xB5C JUMPI RETURNDATASIZE PUSH1 0x0 DUP1 RETURNDATACOPY RETURNDATASIZE PUSH1 0x0 REVERT JUMPDEST POP POP POP POP PUSH1 0x40 MLOAD RETURNDATASIZE PUSH1 0x1F NOT PUSH1 0x1F DUP3 ADD AND DUP3 ADD DUP1 PUSH1 0x40 MSTORE POP DUP2 ADD SWAP1 PUSH2 0xB80 SWAP2 SWAP1 PUSH2 0x1BF9 JUMP JUMPDEST SWAP1 POP SWAP1 JUMP JUMPDEST PUSH1 0x5 SLOAD PUSH1 0x1 PUSH1 0x1 PUSH1 0xA0 SHL SUB AND CALLER EQ PUSH2 0xBDF JUMPI PUSH1 0x40 MLOAD PUSH3 0x461BCD PUSH1 0xE5 SHL DUP2 MSTORE PUSH1 0x20 PUSH1 0x4 DUP3 ADD DUP2 SWAP1 MSTORE PUSH1 0x24 DUP3 ADD MSTORE PUSH32 0x4F776E61626C653A2063616C6C6572206973206E6F7420746865206F776E6572 PUSH1 0x44 DUP3 ADD MSTORE PUSH1 0x64 ADD PUSH2 0x5AD JUMP JUMPDEST PUSH2 0xBE9 PUSH1 0x0 PUSH2 0x1724 JUMP JUMPDEST JUMP JUMPDEST PUSH1 0x0 PUSH2 0xBF7 DUP4 CALLER PUSH2 0x3D3 JUMP JUMPDEST SWAP1 POP DUP2 DUP2 LT ISZERO PUSH2 0xC55 JUMPI PUSH1 0x40 MLOAD PUSH3 0x461BCD PUSH1 0xE5 SHL DUP2 MSTORE PUSH1 0x20 PUSH1 0x4 DUP3 ADD MSTORE PUSH1 0x24 DUP1 DUP3 ADD MSTORE PUSH32 0x45524332303A206275726E20616D6F756E74206578636565647320616C6C6F77 PUSH1 0x44 DUP3 ADD MSTORE PUSH4 0x616E6365 PUSH1 0xE0 SHL PUSH1 0x64 DUP3 ADD MSTORE PUSH1 0x84 ADD PUSH2 0x5AD JUMP JUMPDEST PUSH2 0xC62 DUP4 CALLER DUP5 DUP5 SUB PUSH2 0x117C JUMP JUMPDEST PUSH2 0xC6C DUP4 DUP4 PUSH2 0x146E JUMP JUMPDEST POP POP POP JUMP JUMPDEST PUSH1 0x11 SLOAD PUSH1 0x40 MLOAD PUSH4 0x33060D9 PUSH1 0xE4 SHL DUP2 MSTORE ADDRESS PUSH1 0x4 DUP3 ADD MSTORE PUSH1 0x0 SWAP2 PUSH1 0x1 PUSH1 0x1 PUSH1 0xA0 SHL SUB AND SWAP1 PUSH4 0x33060D90 SWAP1 PUSH1 0x24 ADD PUSH2 0xB3F JUMP JUMPDEST PUSH1 0x60 PUSH1 0x4 DUP1 SLOAD PUSH2 0x485 SWAP1 PUSH2 0x1BBF JUMP JUMPDEST CALLER PUSH1 0x0 SWAP1 DUP2 MSTORE PUSH1 0x1 PUSH1 0x20 SWAP1 DUP2 MSTORE PUSH1 0x40 DUP1 DUP4 KECCAK256 PUSH1 0x1 PUSH1 0x1 PUSH1 0xA0 SHL SUB DUP7 AND DUP5 MSTORE SWAP1 SWAP2 MSTORE DUP2 KECCAK256 SLOAD DUP3 DUP2 LT ISZERO PUSH2 0xD33 JUMPI PUSH1 0x40 MLOAD PUSH3 0x461BCD PUSH1 0xE5 SHL DUP2 MSTORE PUSH1 0x20 PUSH1 0x4 DUP3 ADD MSTORE PUSH1 0x25 PUSH1 0x24 DUP3 ADD MSTORE PUSH32 0x45524332303A2064656372656173656420616C6C6F77616E63652062656C6F77 PUSH1 0x44 DUP3 ADD MSTORE PUSH5 0x207A65726F PUSH1 0xD8 SHL PUSH1 0x64 DUP3 ADD MSTORE PUSH1 0x84 ADD PUSH2 0x5AD JUMP JUMPDEST PUSH2 0xD40 CALLER DUP6 DUP6 DUP5 SUB PUSH2 0x117C JUMP JUMPDEST POP PUSH1 0x1 SWAP4 SWAP3 POP POP POP JUMP JUMPDEST PUSH1 0x0 PUSH2 0x515 CALLER DUP5 DUP5 PUSH2 0x12A0 JUMP JUMPDEST PUSH1 0x8 SLOAD PUSH1 0xFF AND ISZERO PUSH2 0xDAA JUMPI PUSH1 0x40 MLOAD PUSH3 0x461BCD PUSH1 0xE5 SHL DUP2 MSTORE PUSH1 0x20 PUSH1 0x4 DUP3 ADD MSTORE PUSH1 0x1F PUSH1 0x24 DUP3 ADD MSTORE PUSH32 0x5374616B652068617320616C7265616479206265656E20737461727465642E00 PUSH1 0x44 DUP3 ADD MSTORE PUSH1 0x64 ADD PUSH2 0x5AD JUMP JUMPDEST PUSH1 0xF SLOAD PUSH1 0x40 DUP1 MLOAD PUSH4 0x5C9302C9 PUSH1 0xE0 SHL DUP2 MSTORE SWAP1 MLOAD PUSH1 0x0 SWAP3 PUSH1 0x1 PUSH1 0x1 PUSH1 0xA0 SHL SUB AND SWAP2 PUSH4 0x5C9302C9 SWAP2 PUSH1 0x4 DUP1 DUP4 ADD SWAP3 PUSH1 0x20 SWAP3 SWAP2 SWAP1 DUP3 SWAP1 SUB ADD DUP2 DUP7 GAS STATICCALL ISZERO DUP1 ISZERO PUSH2 0xDF4 JUMPI RETURNDATASIZE PUSH1 0x0 DUP1 RETURNDATACOPY RETURNDATASIZE PUSH1 0x0 REVERT JUMPDEST POP POP POP POP PUSH1 0x40 MLOAD RETURNDATASIZE PUSH1 0x1F NOT PUSH1 0x1F DUP3 ADD AND DUP3 ADD DUP1 PUSH1 0x40 MSTORE POP DUP2 ADD SWAP1 PUSH2 0xE18 SWAP2 SWAP1 PUSH2 0x1BF9 JUMP JUMPDEST SWAP1 POP PUSH1 0x7 SLOAD DUP2 GT PUSH2 0xE91 JUMPI PUSH1 0x40 MLOAD PUSH3 0x461BCD PUSH1 0xE5 SHL DUP2 MSTORE PUSH1 0x20 PUSH1 0x4 DUP3 ADD MSTORE PUSH1 0x3B PUSH1 0x24 DUP3 ADD MSTORE PUSH32 0x4D696E74696E67205068617365206973207374696C6C206F6E676F696E67202D PUSH1 0x44 DUP3 ADD MSTORE PUSH32 0x20736565204D494E54494E475F50484153455F454E44206461792E0000000000 PUSH1 0x64 DUP3 ADD MSTORE PUSH1 0x84 ADD PUSH2 0x5AD JUMP JUMPDEST PUSH1 0x10 SLOAD PUSH1 0x40 MLOAD PUSH4 0x70A08231 PUSH1 0xE0 SHL DUP2 MSTORE ADDRESS PUSH1 0x4 DUP3 ADD MSTORE PUSH1 0x0 SWAP2 PUSH1 0x1 PUSH1 0x1 PUSH1 0xA0 SHL SUB AND SWAP1 PUSH4 0x70A08231 SWAP1 PUSH1 0x24 ADD PUSH1 0x20 PUSH1 0x40 MLOAD DUP1 DUP4 SUB DUP2 DUP7 GAS STATICCALL ISZERO DUP1 ISZERO PUSH2 0xEDA JUMPI RETURNDATASIZE PUSH1 0x0 DUP1 RETURNDATACOPY RETURNDATASIZE PUSH1 0x0 REVERT JUMPDEST POP POP POP POP PUSH1 0x40 MLOAD RETURNDATASIZE PUSH1 0x1F NOT PUSH1 0x1F DUP3 ADD AND DUP3 ADD DUP1 PUSH1 0x40 MSTORE POP DUP2 ADD SWAP1 PUSH2 0xEFE SWAP2 SWAP1 PUSH2 0x1BF9 JUMP JUMPDEST SWAP1 POP PUSH2 0xF09 DUP2 PUSH2 0x1776 JUMP JUMPDEST PUSH1 0x8 DUP1 SLOAD PUSH1 0xFF NOT AND PUSH1 0x1 OR SWAP1 SSTORE PUSH1 0x9 DUP3 SWAP1 SSTORE PUSH1 0xC SLOAD PUSH2 0xF28 SWAP1 DUP4 PUSH2 0x1A7B JUMP JUMPDEST PUSH1 0xA SSTORE POP POP JUMP JUMPDEST PUSH1 0xB SLOAD PUSH1 0x0 SWAP1 DUP2 PUSH2 0xF40 DUP3 DUP6 PUSH2 0x1B7E JUMP JUMPDEST SWAP1 POP PUSH1 0x0 PUSH2 0xF52 DUP3 PUSH2 0x2710 PUSH1 0x4 PUSH2 0x424 JUMP JUMPDEST SWAP6 SWAP5 POP POP POP POP POP JUMP JUMPDEST PUSH1 0x10 SLOAD PUSH1 0xE SLOAD PUSH1 0x40 MLOAD PUSH4 0x6EB1769F PUSH1 0xE1 SHL DUP2 MSTORE CALLER PUSH1 0x4 DUP3 ADD MSTORE PUSH1 0x1 PUSH1 0x1 PUSH1 0xA0 SHL SUB SWAP2 DUP3 AND PUSH1 0x24 DUP3 ADD MSTORE PUSH1 0x0 SWAP3 SWAP2 SWAP1 SWAP2 AND SWAP1 PUSH4 0xDD62ED3E SWAP1 PUSH1 0x44 ADD PUSH2 0xB3F JUMP JUMPDEST PUSH1 0x8 SLOAD PUSH1 0xFF AND ISZERO DUP1 PUSH2 0xFB9 JUMPI POP PUSH1 0x8 SLOAD PUSH1 0xFF PUSH2 0x100 SWAP1 SWAP2 DIV AND ISZERO ISZERO PUSH1 0x1 EQ JUMPDEST ISZERO PUSH2 0x614 JUMPI CALLER PUSH1 0x0 SWAP1 DUP2 MSTORE PUSH1 0x20 DUP2 SWAP1 MSTORE PUSH1 0x40 SWAP1 KECCAK256 SLOAD DUP2 DUP2 LT ISZERO PUSH2 0x101E JUMPI PUSH1 0x40 MLOAD PUSH3 0x461BCD PUSH1 0xE5 SHL DUP2 MSTORE PUSH1 0x20 PUSH1 0x4 DUP3 ADD MSTORE PUSH1 0x1F PUSH1 0x24 DUP3 ADD MSTORE PUSH32 0x596F7520646F206E6F7420686176652074686174206D756368204D4158492E00 PUSH1 0x44 DUP3 ADD MSTORE PUSH1 0x64 ADD PUSH2 0x5AD JUMP JUMPDEST PUSH1 0x0 PUSH1 0xB SLOAD DUP4 PUSH2 0x102E SWAP2 SWAP1 PUSH2 0x1B7E JUMP JUMPDEST SWAP1 POP PUSH2 0x1039 DUP4 PUSH2 0x60A JUMP JUMPDEST PUSH1 0x11 SLOAD PUSH1 0x40 MLOAD PUSH4 0xA9059CBB PUSH1 0xE0 SHL DUP2 MSTORE CALLER PUSH1 0x4 DUP3 ADD MSTORE PUSH1 0x24 DUP2 ADD DUP4 SWAP1 MSTORE PUSH1 0x1 PUSH1 0x1 PUSH1 0xA0 SHL SUB SWAP1 SWAP2 AND SWAP1 PUSH4 0xA9059CBB SWAP1 PUSH1 0x44 ADD PUSH1 0x20 PUSH1 0x40 MLOAD DUP1 DUP4 SUB DUP2 PUSH1 0x0 DUP8 GAS CALL ISZERO DUP1 ISZERO PUSH2 0x108A JUMPI RETURNDATASIZE PUSH1 0x0 DUP1 RETURNDATACOPY RETURNDATASIZE PUSH1 0x0 REVERT JUMPDEST POP POP POP POP PUSH1 0x40 MLOAD RETURNDATASIZE PUSH1 0x1F NOT PUSH1 0x1F DUP3 ADD AND DUP3 ADD DUP1 PUSH1 0x40 MSTORE POP DUP2 ADD SWAP1 PUSH2 0x10AE SWAP2 SWAP1 PUSH2 0x1C12 JUMP JUMPDEST POP POP POP POP JUMP JUMPDEST PUSH1 0x5 SLOAD PUSH1 0x1 PUSH1 0x1 PUSH1 0xA0 SHL SUB AND CALLER EQ PUSH2 0x110E JUMPI PUSH1 0x40 MLOAD PUSH3 0x461BCD PUSH1 0xE5 SHL DUP2 MSTORE PUSH1 0x20 PUSH1 0x4 DUP3 ADD DUP2 SWAP1 MSTORE PUSH1 0x24 DUP3 ADD MSTORE PUSH32 0x4F776E61626C653A2063616C6C6572206973206E6F7420746865206F776E6572 PUSH1 0x44 DUP3 ADD MSTORE PUSH1 0x64 ADD PUSH2 0x5AD JUMP JUMPDEST PUSH1 0x1 PUSH1 0x1 PUSH1 0xA0 SHL SUB DUP2 AND PUSH2 0x1173 JUMPI PUSH1 0x40 MLOAD PUSH3 0x461BCD PUSH1 0xE5 SHL DUP2 MSTORE PUSH1 0x20 PUSH1 0x4 DUP3 ADD MSTORE PUSH1 0x26 PUSH1 0x24 DUP3 ADD MSTORE PUSH32 0x4F776E61626C653A206E6577206F776E657220697320746865207A65726F2061 PUSH1 0x44 DUP3 ADD MSTORE PUSH6 0x646472657373 PUSH1 0xD0 SHL PUSH1 0x64 DUP3 ADD MSTORE PUSH1 0x84 ADD PUSH2 0x5AD JUMP JUMPDEST PUSH2 0x614 DUP2 PUSH2 0x1724 JUMP JUMPDEST PUSH1 0x1 PUSH1 0x1 PUSH1 0xA0 SHL SUB DUP4 AND PUSH2 0x11DE JUMPI PUSH1 0x40 MLOAD PUSH3 0x461BCD PUSH1 0xE5 SHL DUP2 MSTORE PUSH1 0x20 PUSH1 0x4 DUP3 ADD MSTORE PUSH1 0x24 DUP1 DUP3 ADD MSTORE PUSH32 0x45524332303A20617070726F76652066726F6D20746865207A65726F20616464 PUSH1 0x44 DUP3 ADD MSTORE PUSH4 0x72657373 PUSH1 0xE0 SHL PUSH1 0x64 DUP3 ADD MSTORE PUSH1 0x84 ADD PUSH2 0x5AD JUMP JUMPDEST PUSH1 0x1 PUSH1 0x1 PUSH1 0xA0 SHL SUB DUP3 AND PUSH2 0x123F JUMPI PUSH1 0x40 MLOAD PUSH3 0x461BCD PUSH1 0xE5 SHL DUP2 MSTORE PUSH1 0x20 PUSH1 0x4 DUP3 ADD MSTORE PUSH1 0x22 PUSH1 0x24 DUP3 ADD MSTORE PUSH32 0x45524332303A20617070726F766520746F20746865207A65726F206164647265 PUSH1 0x44 DUP3 ADD MSTORE PUSH2 0x7373 PUSH1 0xF0 SHL PUSH1 0x64 DUP3 ADD MSTORE PUSH1 0x84 ADD PUSH2 0x5AD JUMP JUMPDEST PUSH1 0x1 PUSH1 0x1 PUSH1 0xA0 SHL SUB DUP4 DUP2 AND PUSH1 0x0 DUP2 DUP2 MSTORE PUSH1 0x1 PUSH1 0x20 SWAP1 DUP2 MSTORE PUSH1 0x40 DUP1 DUP4 KECCAK256 SWAP5 DUP8 AND DUP1 DUP5 MSTORE SWAP5 DUP3 MSTORE SWAP2 DUP3 SWAP1 KECCAK256 DUP6 SWAP1 SSTORE SWAP1 MLOAD DUP5 DUP2 MSTORE PUSH32 0x8C5BE1E5EBEC7D5BD14F71427D1E84F3DD0314C0F7B2291E5B200AC8C7C3B925 SWAP2 ADD PUSH1 0x40 MLOAD DUP1 SWAP2 SUB SWAP1 LOG3 POP POP POP JUMP JUMPDEST PUSH1 0x1 PUSH1 0x1 PUSH1 0xA0 SHL SUB DUP4 AND PUSH2 0x1304 JUMPI PUSH1 0x40 MLOAD PUSH3 0x461BCD PUSH1 0xE5 SHL DUP2 MSTORE PUSH1 0x20 PUSH1 0x4 DUP3 ADD MSTORE PUSH1 0x25 PUSH1 0x24 DUP3 ADD MSTORE PUSH32 0x45524332303A207472616E736665722066726F6D20746865207A65726F206164 PUSH1 0x44 DUP3 ADD MSTORE PUSH5 0x6472657373 PUSH1 0xD8 SHL PUSH1 0x64 DUP3 ADD MSTORE PUSH1 0x84 ADD PUSH2 0x5AD JUMP JUMPDEST PUSH1 0x1 PUSH1 0x1 PUSH1 0xA0 SHL SUB DUP3 AND PUSH2 0x1366 JUMPI PUSH1 0x40 MLOAD PUSH3 0x461BCD PUSH1 0xE5 SHL DUP2 MSTORE PUSH1 0x20 PUSH1 0x4 DUP3 ADD MSTORE PUSH1 0x23 PUSH1 0x24 DUP3 ADD MSTORE PUSH32 0x45524332303A207472616E7366657220746F20746865207A65726F2061646472 PUSH1 0x44 DUP3 ADD MSTORE PUSH3 0x657373 PUSH1 0xE8 SHL PUSH1 0x64 DUP3 ADD MSTORE PUSH1 0x84 ADD PUSH2 0x5AD JUMP JUMPDEST PUSH1 0x1 PUSH1 0x1 PUSH1 0xA0 SHL SUB DUP4 AND PUSH1 0x0 SWAP1 DUP2 MSTORE PUSH1 0x20 DUP2 SWAP1 MSTORE PUSH1 0x40 SWAP1 KECCAK256 SLOAD DUP2 DUP2 LT ISZERO PUSH2 0x13DE JUMPI PUSH1 0x40 MLOAD PUSH3 0x461BCD PUSH1 0xE5 SHL DUP2 MSTORE PUSH1 0x20 PUSH1 0x4 DUP3 ADD MSTORE PUSH1 0x26 PUSH1 0x24 DUP3 ADD MSTORE PUSH32 0x45524332303A207472616E7366657220616D6F756E7420657863656564732062 PUSH1 0x44 DUP3 ADD MSTORE PUSH6 0x616C616E6365 PUSH1 0xD0 SHL PUSH1 0x64 DUP3 ADD MSTORE PUSH1 0x84 ADD PUSH2 0x5AD JUMP JUMPDEST PUSH1 0x1 PUSH1 0x1 PUSH1 0xA0 SHL SUB DUP1 DUP6 AND PUSH1 0x0 SWAP1 DUP2 MSTORE PUSH1 0x20 DUP2 SWAP1 MSTORE PUSH1 0x40 DUP1 DUP3 KECCAK256 DUP6 DUP6 SUB SWAP1 SSTORE SWAP2 DUP6 AND DUP2 MSTORE SWAP1 DUP2 KECCAK256 DUP1 SLOAD DUP5 SWAP3 SWAP1 PUSH2 0x1415 SWAP1 DUP5 SWAP1 PUSH2 0x1A7B JUMP JUMPDEST SWAP3 POP POP DUP2 SWAP1 SSTORE POP DUP3 PUSH1 0x1 PUSH1 0x1 PUSH1 0xA0 SHL SUB AND DUP5 PUSH1 0x1 PUSH1 0x1 PUSH1 0xA0 SHL SUB AND PUSH32 0xDDF252AD1BE2C89B69C2B068FC378DAA952BA7F163C4A11628F55A4DF523B3EF DUP5 PUSH1 0x40 MLOAD PUSH2 0x1461 SWAP2 DUP2 MSTORE PUSH1 0x20 ADD SWAP1 JUMP JUMPDEST PUSH1 0x40 MLOAD DUP1 SWAP2 SUB SWAP1 LOG3 PUSH2 0x10AE JUMP JUMPDEST PUSH1 0x1 PUSH1 0x1 PUSH1 0xA0 SHL SUB DUP3 AND PUSH2 0x14CE JUMPI PUSH1 0x40 MLOAD PUSH3 0x461BCD PUSH1 0xE5 SHL DUP2 MSTORE PUSH1 0x20 PUSH1 0x4 DUP3 ADD MSTORE PUSH1 0x21 PUSH1 0x24 DUP3 ADD MSTORE PUSH32 0x45524332303A206275726E2066726F6D20746865207A65726F20616464726573 PUSH1 0x44 DUP3 ADD MSTORE PUSH1 0x73 PUSH1 0xF8 SHL PUSH1 0x64 DUP3 ADD MSTORE PUSH1 0x84 ADD PUSH2 0x5AD JUMP JUMPDEST PUSH1 0x1 PUSH1 0x1 PUSH1 0xA0 SHL SUB DUP3 AND PUSH1 0x0 SWAP1 DUP2 MSTORE PUSH1 0x20 DUP2 SWAP1 MSTORE PUSH1 0x40 SWAP1 KECCAK256 SLOAD DUP2 DUP2 LT ISZERO PUSH2 0x1542 JUMPI PUSH1 0x40 MLOAD PUSH3 0x461BCD PUSH1 0xE5 SHL DUP2 MSTORE PUSH1 0x20 PUSH1 0x4 DUP3 ADD MSTORE PUSH1 0x22 PUSH1 0x24 DUP3 ADD MSTORE PUSH32 0x45524332303A206275726E20616D6F756E7420657863656564732062616C616E PUSH1 0x44 DUP3 ADD MSTORE PUSH2 0x6365 PUSH1 0xF0 SHL PUSH1 0x64 DUP3 ADD MSTORE PUSH1 0x84 ADD PUSH2 0x5AD JUMP JUMPDEST PUSH1 0x1 PUSH1 0x1 PUSH1 0xA0 SHL SUB DUP4 AND PUSH1 0x0 SWAP1 DUP2 MSTORE PUSH1 0x20 DUP2 SWAP1 MSTORE PUSH1 0x40 DUP2 KECCAK256 DUP4 DUP4 SUB SWAP1 SSTORE PUSH1 0x2 DUP1 SLOAD DUP5 SWAP3 SWAP1 PUSH2 0x1571 SWAP1 DUP5 SWAP1 PUSH2 0x1C34 JUMP JUMPDEST SWAP1 SWAP2 SSTORE POP POP PUSH1 0x40 MLOAD DUP3 DUP2 MSTORE PUSH1 0x0 SWAP1 PUSH1 0x1 PUSH1 0x1 PUSH1 0xA0 SHL SUB DUP6 AND SWAP1 PUSH32 0xDDF252AD1BE2C89B69C2B068FC378DAA952BA7F163C4A11628F55A4DF523B3EF SWAP1 PUSH1 0x20 ADD PUSH1 0x40 MLOAD DUP1 SWAP2 SUB SWAP1 LOG3 POP POP POP JUMP JUMPDEST PUSH2 0x614 CALLER DUP3 PUSH2 0x17E2 JUMP JUMPDEST PUSH1 0x11 SLOAD PUSH1 0x40 MLOAD PUSH4 0x1A1804D1 PUSH1 0xE1 SHL DUP2 MSTORE PUSH1 0x4 DUP2 ADD DUP5 SWAP1 MSTORE PUSH5 0xFFFFFFFFFF DUP4 AND PUSH1 0x24 DUP3 ADD MSTORE PUSH1 0x1 PUSH1 0x1 PUSH1 0xA0 SHL SUB SWAP1 SWAP2 AND SWAP1 PUSH4 0x343009A2 SWAP1 PUSH1 0x44 ADD PUSH1 0x0 PUSH1 0x40 MLOAD DUP1 DUP4 SUB DUP2 PUSH1 0x0 DUP8 DUP1 EXTCODESIZE ISZERO DUP1 ISZERO PUSH2 0x1619 JUMPI PUSH1 0x0 DUP1 REVERT JUMPDEST POP GAS CALL ISZERO DUP1 ISZERO PUSH2 0x162D JUMPI RETURNDATASIZE PUSH1 0x0 DUP1 RETURNDATACOPY RETURNDATASIZE PUSH1 0x0 REVERT JUMPDEST POP POP POP POP POP POP JUMP JUMPDEST PUSH1 0x10 SLOAD PUSH1 0x40 MLOAD PUSH4 0x70A08231 PUSH1 0xE0 SHL DUP2 MSTORE ADDRESS PUSH1 0x4 DUP3 ADD MSTORE PUSH1 0x0 SWAP2 DUP3 SWAP2 PUSH1 0x1 PUSH1 0x1 PUSH1 0xA0 SHL SUB SWAP1 SWAP2 AND SWAP1 PUSH4 0x70A08231 SWAP1 PUSH1 0x24 ADD PUSH1 0x20 PUSH1 0x40 MLOAD DUP1 DUP4 SUB DUP2 DUP7 GAS STATICCALL ISZERO DUP1 ISZERO PUSH2 0x1682 JUMPI RETURNDATASIZE PUSH1 0x0 DUP1 RETURNDATACOPY RETURNDATASIZE PUSH1 0x0 REVERT JUMPDEST POP POP POP POP PUSH1 0x40 MLOAD RETURNDATASIZE PUSH1 0x1F NOT PUSH1 0x1F DUP3 ADD AND DUP3 ADD DUP1 PUSH1 0x40 MSTORE POP DUP2 ADD SWAP1 PUSH2 0x16A6 SWAP2 SWAP1 PUSH2 0x1BF9 JUMP JUMPDEST SWAP1 POP PUSH1 0x0 ADDRESS PUSH1 0x1 PUSH1 0x1 PUSH1 0xA0 SHL SUB AND PUSH4 0x18160DDD PUSH1 0x40 MLOAD DUP2 PUSH4 0xFFFFFFFF AND PUSH1 0xE0 SHL DUP2 MSTORE PUSH1 0x4 ADD PUSH1 0x20 PUSH1 0x40 MLOAD DUP1 DUP4 SUB DUP2 DUP7 GAS STATICCALL ISZERO DUP1 ISZERO PUSH2 0x16E8 JUMPI RETURNDATASIZE PUSH1 0x0 DUP1 RETURNDATACOPY RETURNDATASIZE PUSH1 0x0 REVERT JUMPDEST POP POP POP POP PUSH1 0x40 MLOAD RETURNDATASIZE PUSH1 0x1F NOT PUSH1 0x1F DUP3 ADD AND DUP3 ADD DUP1 PUSH1 0x40 MSTORE POP DUP2 ADD SWAP1 PUSH2 0x170C SWAP2 SWAP1 PUSH2 0x1BF9 JUMP JUMPDEST SWAP1 POP PUSH1 0x0 PUSH2 0x171C DUP4 DUP4 PUSH1 0x8 PUSH2 0x424 JUMP JUMPDEST SWAP5 SWAP4 POP POP POP POP JUMP JUMPDEST PUSH1 0x5 DUP1 SLOAD PUSH1 0x1 PUSH1 0x1 PUSH1 0xA0 SHL SUB DUP4 DUP2 AND PUSH1 0x1 PUSH1 0x1 PUSH1 0xA0 SHL SUB NOT DUP4 AND DUP2 OR SWAP1 SWAP4 SSTORE PUSH1 0x40 MLOAD SWAP2 AND SWAP2 SWAP1 DUP3 SWAP1 PUSH32 0x8BE0079C531659141344CD1FD0A4F28419497F9722A3DAAFE3B4186F6B6457E0 SWAP1 PUSH1 0x0 SWAP1 LOG3 POP POP JUMP JUMPDEST PUSH1 0x11 SLOAD PUSH1 0xC SLOAD PUSH1 0x40 MLOAD PUSH4 0xA548717 PUSH1 0xE3 SHL DUP2 MSTORE PUSH1 0x4 DUP2 ADD DUP5 SWAP1 MSTORE PUSH1 0x24 DUP2 ADD SWAP2 SWAP1 SWAP2 MSTORE PUSH1 0x1 PUSH1 0x1 PUSH1 0xA0 SHL SUB SWAP1 SWAP2 AND SWAP1 PUSH4 0x52A438B8 SWAP1 PUSH1 0x44 ADD PUSH1 0x0 PUSH1 0x40 MLOAD DUP1 DUP4 SUB DUP2 PUSH1 0x0 DUP8 DUP1 EXTCODESIZE ISZERO DUP1 ISZERO PUSH2 0x17C7 JUMPI PUSH1 0x0 DUP1 REVERT JUMPDEST POP GAS CALL ISZERO DUP1 ISZERO PUSH2 0x17DB JUMPI RETURNDATASIZE PUSH1 0x0 DUP1 RETURNDATACOPY RETURNDATASIZE PUSH1 0x0 REVERT JUMPDEST POP POP POP POP POP JUMP JUMPDEST PUSH1 0x1 PUSH1 0x1 PUSH1 0xA0 SHL SUB DUP3 AND PUSH2 0x1838 JUMPI PUSH1 0x40 MLOAD PUSH3 0x461BCD PUSH1 0xE5 SHL DUP2 MSTORE PUSH1 0x20 PUSH1 0x4 DUP3 ADD MSTORE PUSH1 0x1F PUSH1 0x24 DUP3 ADD MSTORE PUSH32 0x45524332303A206D696E7420746F20746865207A65726F206164647265737300 PUSH1 0x44 DUP3 ADD MSTORE PUSH1 0x64 ADD PUSH2 0x5AD JUMP JUMPDEST DUP1 PUSH1 0x2 PUSH1 0x0 DUP3 DUP3 SLOAD PUSH2 0x184A SWAP2 SWAP1 PUSH2 0x1A7B JUMP JUMPDEST SWAP1 SWAP2 SSTORE POP POP PUSH1 0x1 PUSH1 0x1 PUSH1 0xA0 SHL SUB DUP3 AND PUSH1 0x0 SWAP1 DUP2 MSTORE PUSH1 0x20 DUP2 SWAP1 MSTORE PUSH1 0x40 DUP2 KECCAK256 DUP1 SLOAD DUP4 SWAP3 SWAP1 PUSH2 0x1877 SWAP1 DUP5 SWAP1 PUSH2 0x1A7B JUMP JUMPDEST SWAP1 SWAP2 SSTORE POP POP PUSH1 0x40 MLOAD DUP2 DUP2 MSTORE PUSH1 0x1 PUSH1 0x1 PUSH1 0xA0 SHL SUB DUP4 AND SWAP1 PUSH1 0x0 SWAP1 PUSH32 0xDDF252AD1BE2C89B69C2B068FC378DAA952BA7F163C4A11628F55A4DF523B3EF SWAP1 PUSH1 0x20 ADD PUSH1 0x40 MLOAD DUP1 SWAP2 SUB SWAP1 LOG3 POP POP JUMP JUMPDEST PUSH1 0x0 DUP1 PUSH1 0x0 PUSH1 0x60 DUP5 DUP7 SUB SLT ISZERO PUSH2 0x18D6 JUMPI PUSH1 0x0 DUP1 REVERT JUMPDEST POP POP DUP2 CALLDATALOAD SWAP4 PUSH1 0x20 DUP4 ADD CALLDATALOAD SWAP4 POP PUSH1 0x40 SWAP1 SWAP3 ADD CALLDATALOAD SWAP2 SWAP1 POP JUMP JUMPDEST PUSH1 0x0 PUSH1 0x20 DUP1 DUP4 MSTORE DUP4 MLOAD DUP1 DUP3 DUP6 ADD MSTORE PUSH1 0x0 JUMPDEST DUP2 DUP2 LT ISZERO PUSH2 0x191A JUMPI DUP6 DUP2 ADD DUP4 ADD MLOAD DUP6 DUP3 ADD PUSH1 0x40 ADD MSTORE DUP3 ADD PUSH2 0x18FE JUMP JUMPDEST POP PUSH1 0x0 PUSH1 0x40 DUP3 DUP7 ADD ADD MSTORE PUSH1 0x40 PUSH1 0x1F NOT PUSH1 0x1F DUP4 ADD AND DUP6 ADD ADD SWAP3 POP POP POP SWAP3 SWAP2 POP POP JUMP JUMPDEST DUP1 CALLDATALOAD PUSH1 0x1 PUSH1 0x1 PUSH1 0xA0 SHL SUB DUP2 AND DUP2 EQ PUSH2 0x1952 JUMPI PUSH1 0x0 DUP1 REVERT JUMPDEST SWAP2 SWAP1 POP JUMP JUMPDEST PUSH1 0x0 DUP1 PUSH1 0x40 DUP4 DUP6 SUB SLT ISZERO PUSH2 0x196A JUMPI PUSH1 0x0 DUP1 REVERT JUMPDEST PUSH2 0x1973 DUP4 PUSH2 0x193B JUMP JUMPDEST SWAP5 PUSH1 0x20 SWAP4 SWAP1 SWAP4 ADD CALLDATALOAD SWAP4 POP POP POP JUMP JUMPDEST PUSH1 0x0 DUP1 PUSH1 0x0 PUSH1 0x60 DUP5 DUP7 SUB SLT ISZERO PUSH2 0x1996 JUMPI PUSH1 0x0 DUP1 REVERT JUMPDEST PUSH2 0x199F DUP5 PUSH2 0x193B JUMP JUMPDEST SWAP3 POP PUSH2 0x19AD PUSH1 0x20 DUP6 ADD PUSH2 0x193B JUMP JUMPDEST SWAP2 POP PUSH1 0x40 DUP5 ADD CALLDATALOAD SWAP1 POP SWAP3 POP SWAP3 POP SWAP3 JUMP JUMPDEST PUSH1 0x0 PUSH1 0x20 DUP3 DUP5 SUB SLT ISZERO PUSH2 0x19CF JUMPI PUSH1 0x0 DUP1 REVERT JUMPDEST POP CALLDATALOAD SWAP2 SWAP1 POP JUMP JUMPDEST PUSH1 0x0 DUP1 PUSH1 0x40 DUP4 DUP6 SUB SLT ISZERO PUSH2 0x19E9 JUMPI PUSH1 0x0 DUP1 REVERT JUMPDEST DUP3 CALLDATALOAD SWAP2 POP PUSH1 0x20 DUP4 ADD CALLDATALOAD PUSH5 0xFFFFFFFFFF DUP2 AND DUP2 EQ PUSH2 0x1A05 JUMPI PUSH1 0x0 DUP1 REVERT JUMPDEST DUP1 SWAP2 POP POP SWAP3 POP SWAP3 SWAP1 POP JUMP JUMPDEST PUSH1 0x0 PUSH1 0x20 DUP3 DUP5 SUB SLT ISZERO PUSH2 0x1A22 JUMPI PUSH1 0x0 DUP1 REVERT JUMPDEST PUSH2 0x1A2B DUP3 PUSH2 0x193B JUMP JUMPDEST SWAP4 SWAP3 POP POP POP JUMP JUMPDEST PUSH1 0x0 DUP1 PUSH1 0x40 DUP4 DUP6 SUB SLT ISZERO PUSH2 0x1A45 JUMPI PUSH1 0x0 DUP1 REVERT JUMPDEST PUSH2 0x1A4E DUP4 PUSH2 0x193B JUMP JUMPDEST SWAP2 POP PUSH2 0x1A5C PUSH1 0x20 DUP5 ADD PUSH2 0x193B JUMP JUMPDEST SWAP1 POP SWAP3 POP SWAP3 SWAP1 POP JUMP JUMPDEST PUSH4 0x4E487B71 PUSH1 0xE0 SHL PUSH1 0x0 MSTORE PUSH1 0x11 PUSH1 0x4 MSTORE PUSH1 0x24 PUSH1 0x0 REVERT JUMPDEST DUP1 DUP3 ADD DUP1 DUP3 GT ISZERO PUSH2 0x519 JUMPI PUSH2 0x519 PUSH2 0x1A65 JUMP JUMPDEST PUSH1 0x1 DUP2 DUP2 JUMPDEST DUP1 DUP6 GT ISZERO PUSH2 0x1AC9 JUMPI DUP2 PUSH1 0x0 NOT DIV DUP3 GT ISZERO PUSH2 0x1AAF JUMPI PUSH2 0x1AAF PUSH2 0x1A65 JUMP JUMPDEST DUP1 DUP6 AND ISZERO PUSH2 0x1ABC JUMPI SWAP2 DUP2 MUL SWAP2 JUMPDEST SWAP4 DUP5 SHR SWAP4 SWAP1 DUP1 MUL SWAP1 PUSH2 0x1A93 JUMP JUMPDEST POP SWAP3 POP SWAP3 SWAP1 POP JUMP JUMPDEST PUSH1 0x0 DUP3 PUSH2 0x1AE0 JUMPI POP PUSH1 0x1 PUSH2 0x519 JUMP JUMPDEST DUP2 PUSH2 0x1AED JUMPI POP PUSH1 0x0 PUSH2 0x519 JUMP JUMPDEST DUP2 PUSH1 0x1 DUP2 EQ PUSH2 0x1B03 JUMPI PUSH1 0x2 DUP2 EQ PUSH2 0x1B0D JUMPI PUSH2 0x1B29 JUMP JUMPDEST PUSH1 0x1 SWAP2 POP POP PUSH2 0x519 JUMP JUMPDEST PUSH1 0xFF DUP5 GT ISZERO PUSH2 0x1B1E JUMPI PUSH2 0x1B1E PUSH2 0x1A65 JUMP JUMPDEST POP POP PUSH1 0x1 DUP3 SHL PUSH2 0x519 JUMP JUMPDEST POP PUSH1 0x20 DUP4 LT PUSH2 0x133 DUP4 LT AND PUSH1 0x4E DUP5 LT PUSH1 0xB DUP5 LT AND OR ISZERO PUSH2 0x1B4C JUMPI POP DUP2 DUP2 EXP PUSH2 0x519 JUMP JUMPDEST PUSH2 0x1B56 DUP4 DUP4 PUSH2 0x1A8E JUMP JUMPDEST DUP1 PUSH1 0x0 NOT DIV DUP3 GT ISZERO PUSH2 0x1B6A JUMPI PUSH2 0x1B6A PUSH2 0x1A65 JUMP JUMPDEST MUL SWAP4 SWAP3 POP POP POP JUMP JUMPDEST PUSH1 0x0 PUSH2 0x1A2B DUP4 DUP4 PUSH2 0x1AD1 JUMP JUMPDEST PUSH1 0x0 DUP2 PUSH1 0x0 NOT DIV DUP4 GT DUP3 ISZERO ISZERO AND ISZERO PUSH2 0x1B98 JUMPI PUSH2 0x1B98 PUSH2 0x1A65 JUMP JUMPDEST POP MUL SWAP1 JUMP JUMPDEST PUSH1 0x0 DUP3 PUSH2 0x1BBA JUMPI PUSH4 0x4E487B71 PUSH1 0xE0 SHL PUSH1 0x0 MSTORE PUSH1 0x12 PUSH1 0x4 MSTORE PUSH1 0x24 PUSH1 0x0 REVERT JUMPDEST POP DIV SWAP1 JUMP JUMPDEST PUSH1 0x1 DUP2 DUP2 SHR SWAP1 DUP3 AND DUP1 PUSH2 0x1BD3 JUMPI PUSH1 0x7F DUP3 AND SWAP2 POP JUMPDEST PUSH1 0x20 DUP3 LT DUP2 SUB PUSH2 0x1BF3 JUMPI PUSH4 0x4E487B71 PUSH1 0xE0 SHL PUSH1 0x0 MSTORE PUSH1 0x22 PUSH1 0x4 MSTORE PUSH1 0x24 PUSH1 0x0 REVERT JUMPDEST POP SWAP2 SWAP1 POP JUMP JUMPDEST PUSH1 0x0 PUSH1 0x20 DUP3 DUP5 SUB SLT ISZERO PUSH2 0x1C0B JUMPI PUSH1 0x0 DUP1 REVERT JUMPDEST POP MLOAD SWAP2 SWAP1 POP JUMP JUMPDEST PUSH1 0x0 PUSH1 0x20 DUP3 DUP5 SUB SLT ISZERO PUSH2 0x1C24 JUMPI PUSH1 0x0 DUP1 REVERT JUMPDEST DUP2 MLOAD DUP1 ISZERO ISZERO DUP2 EQ PUSH2 0x1A2B JUMPI PUSH1 0x0 DUP1 REVERT JUMPDEST DUP2 DUP2 SUB DUP2 DUP2 GT ISZERO PUSH2 0x519 JUMPI PUSH2 0x519 PUSH2 0x1A65 JUMP INVALID LOG2 PUSH5 0x6970667358 0x22 SLT KECCAK256 0xD6 PUSH28 0x42144C868F9A23D0F7E24499C0F24E0BEEC6FD74910A75BF8A23C9DF 0x4F 0xCC PUSH5 0x736F6C6343 STOP ADDMOD LT STOP CALLER "
				},
				"gasEstimates": {
					"creation": {
						"codeDepositCost": "1458600",
						"executionCost": "infinite",
						"totalCost": "infinite"
					},
					"external": {
						"allowance(address,address)": "infinite",
						"approve(address,uint256)": "24710",
						"balanceOf(address)": "2640",
						"burn(uint256)": "50925",
						"burnFrom(address,uint256)": "77592",
						"decimals()": "289",
						"decreaseAllowance(address,uint256)": "26999",
						"endStakeHEX(uint256,uint40)": "infinite",
						"getAllowanceHEX()": "infinite",
						"getBalanceHEX()": "infinite",
						"getMintingPhaseEndDay()": "2350",
						"getMintingPhaseStartDay()": "2326",
						"getNumStake()": "infinite",
						"getRedemptionRate()": "2371",
						"getStakeEndDay()": "2349",
						"getStakeStartDay()": "2325",
						"get_amount_redeem_hex(uint256)": "infinite",
						"get_hex_day()": "infinite",
						"hasStakeStarted()": "2349",
						"increaseAllowance(address,uint256)": "infinite",
						"name()": "infinite",
						"owner()": "2368",
						"percent(uint256,uint256,uint256)": "infinite",
						"pledgeHEX(uint256)": "infinite",
						"redeemHEX(uint256)": "infinite",
						"renounceOwnership()": "28163",
						"stakeHEX()": "infinite",
						"symbol()": "infinite",
						"totalSupply()": "2327",
						"transfer(address,uint256)": "infinite",
						"transferFrom(address,address,uint256)": "infinite",
						"transferOwnership(address)": "28422"
					},
					"internal": {
						"_endStakeHEX(uint256,uint40)": "infinite",
						"_stakeHEX(uint256)": "infinite",
						"get_redemption_rate()": "infinite",
						"mint(uint256)": "infinite"
					}
				},
				"methodIdentifiers": {
					"allowance(address,address)": "dd62ed3e",
					"approve(address,uint256)": "095ea7b3",
					"balanceOf(address)": "70a08231",
					"burn(uint256)": "42966c68",
					"burnFrom(address,uint256)": "79cc6790",
					"decimals()": "313ce567",
					"decreaseAllowance(address,uint256)": "a457c2d7",
					"endStakeHEX(uint256,uint40)": "4953a509",
					"getAllowanceHEX()": "d720d871",
					"getBalanceHEX()": "669d751e",
					"getMintingPhaseEndDay()": "037c3f5d",
					"getMintingPhaseStartDay()": "488b4783",
					"getNumStake()": "79f82bde",
					"getRedemptionRate()": "2b11551a",
					"getStakeEndDay()": "751279b9",
					"getStakeStartDay()": "db141222",
					"get_amount_redeem_hex(uint256)": "d2dea365",
					"get_hex_day()": "46cbbe9e",
					"hasStakeStarted()": "88b022c6",
					"increaseAllowance(address,uint256)": "39509351",
					"name()": "06fdde03",
					"owner()": "8da5cb5b",
					"percent(uint256,uint256,uint256)": "002c1a9e",
					"pledgeHEX(uint256)": "4537523c",
					"redeemHEX(uint256)": "e7644fb9",
					"renounceOwnership()": "715018a6",
					"stakeHEX()": "ba777bcc",
					"symbol()": "95d89b41",
					"totalSupply()": "18160ddd",
					"transfer(address,uint256)": "a9059cbb",
					"transferFrom(address,address,uint256)": "23b872dd",
					"transferOwnership(address)": "f2fde38b"
				}
			},
			"storageLayout": {
				"storage": [
					{
						"astId": 120,
						"contract": "contracts/maximus.sol:MyToken",
						"label": "_balances",
						"offset": 0,
						"slot": "0",
						"type": "t_mapping(t_address,t_uint256)"
					},
					{
						"astId": 126,
						"contract": "contracts/maximus.sol:MyToken",
						"label": "_allowances",
						"offset": 0,
						"slot": "1",
						"type": "t_mapping(t_address,t_mapping(t_address,t_uint256))"
					},
					{
						"astId": 128,
						"contract": "contracts/maximus.sol:MyToken",
						"label": "_totalSupply",
						"offset": 0,
						"slot": "2",
						"type": "t_uint256"
					},
					{
						"astId": 130,
						"contract": "contracts/maximus.sol:MyToken",
						"label": "_name",
						"offset": 0,
						"slot": "3",
						"type": "t_string_storage"
					},
					{
						"astId": 132,
						"contract": "contracts/maximus.sol:MyToken",
						"label": "_symbol",
						"offset": 0,
						"slot": "4",
						"type": "t_string_storage"
					},
					{
						"astId": 7,
						"contract": "contracts/maximus.sol:MyToken",
						"label": "_owner",
						"offset": 0,
						"slot": "5",
						"type": "t_address"
					},
					{
						"astId": 1738,
						"contract": "contracts/maximus.sol:MyToken",
						"label": "MINTING_PHASE_START",
						"offset": 0,
						"slot": "6",
						"type": "t_uint256"
					},
					{
						"astId": 1740,
						"contract": "contracts/maximus.sol:MyToken",
						"label": "MINTING_PHASE_END",
						"offset": 0,
						"slot": "7",
						"type": "t_uint256"
					},
					{
						"astId": 1742,
						"contract": "contracts/maximus.sol:MyToken",
						"label": "HAS_STAKE_STARTED",
						"offset": 0,
						"slot": "8",
						"type": "t_bool"
					},
					{
						"astId": 1744,
						"contract": "contracts/maximus.sol:MyToken",
						"label": "HAS_STAKE_ENDED",
						"offset": 1,
						"slot": "8",
						"type": "t_bool"
					},
					{
						"astId": 1746,
						"contract": "contracts/maximus.sol:MyToken",
						"label": "STAKE_START_DAY",
						"offset": 0,
						"slot": "9",
						"type": "t_uint256"
					},
					{
						"astId": 1748,
						"contract": "contracts/maximus.sol:MyToken",
						"label": "STAKE_END_DAY",
						"offset": 0,
						"slot": "10",
						"type": "t_uint256"
					},
					{
						"astId": 1750,
						"contract": "contracts/maximus.sol:MyToken",
						"label": "REDEMPTION_RATE",
						"offset": 0,
						"slot": "11",
						"type": "t_uint256"
					},
					{
						"astId": 1752,
						"contract": "contracts/maximus.sol:MyToken",
						"label": "STAKE_LENGTH",
						"offset": 0,
						"slot": "12",
						"type": "t_uint256"
					},
					{
						"astId": 1754,
						"contract": "contracts/maximus.sol:MyToken",
						"label": "STAKE_ID",
						"offset": 0,
						"slot": "13",
						"type": "t_uint256"
					},
					{
						"astId": 1910,
						"contract": "contracts/maximus.sol:MyToken",
						"label": "CONTRACT_ADDRESS",
						"offset": 0,
						"slot": "14",
						"type": "t_address"
					},
					{
						"astId": 1913,
						"contract": "contracts/maximus.sol:MyToken",
						"label": "HEX_ADDRESS",
						"offset": 0,
						"slot": "15",
						"type": "t_address"
					},
					{
						"astId": 1919,
						"contract": "contracts/maximus.sol:MyToken",
						"label": "hex_contract",
						"offset": 0,
						"slot": "16",
						"type": "t_contract(IERC20)728"
					},
					{
						"astId": 1925,
						"contract": "contracts/maximus.sol:MyToken",
						"label": "token",
						"offset": 0,
						"slot": "17",
						"type": "t_contract(HEXToken)1730"
					}
				],
				"types": {
					"t_address": {
						"encoding": "inplace",
						"label": "address",
						"numberOfBytes": "20"
					},
					"t_bool": {
						"encoding": "inplace",
						"label": "bool",
						"numberOfBytes": "1"
					},
					"t_contract(HEXToken)1730": {
						"encoding": "inplace",
						"label": "contract HEXToken",
						"numberOfBytes": "20"
					},
					"t_contract(IERC20)728": {
						"encoding": "inplace",
						"label": "contract IERC20",
						"numberOfBytes": "20"
					},
					"t_mapping(t_address,t_mapping(t_address,t_uint256))": {
						"encoding": "mapping",
						"key": "t_address",
						"label": "mapping(address => mapping(address => uint256))",
						"numberOfBytes": "32",
						"value": "t_mapping(t_address,t_uint256)"
					},
					"t_mapping(t_address,t_uint256)": {
						"encoding": "mapping",
						"key": "t_address",
						"label": "mapping(address => uint256)",
						"numberOfBytes": "32",
						"value": "t_uint256"
					},
					"t_string_storage": {
						"encoding": "bytes",
						"label": "string",
						"numberOfBytes": "32"
					},
					"t_uint256": {
						"encoding": "inplace",
						"label": "uint256",
						"numberOfBytes": "32"
					}
				}
			},
			"userdoc": {
				"kind": "user",
				"methods": {},
				"version": 1
			}
		}
	}
}