{
	"data": {
		"bytecode": {
			"linkReferences": {},
			"object": "6080604052348015600e575f80fd5b506104b88061001c5f395ff3fe608060405234801561000f575f80fd5b506004361061004a575f3560e01c8063086146d21461004e57806344e6f28b1461006c57806369c966a31461009c5780637e0e00cf146100cd575b5f80fd5b6100566100fd565b6040516100639190610132565b60405180910390f35b61008660048036038101906100819190610298565b610101565b604051610093919061031e565b60405180910390f35b6100b660048036038101906100b1919061038b565b610107565b6040516100c492919061040b565b60405180910390f35b6100e760048036038101906100e29190610432565b610112565b6040516100f49190610132565b60405180910390f35b5f90565b5f919050565b5f8094509492505050565b5f9392505050565b5f819050919050565b61012c8161011a565b82525050565b5f6020820190506101455f830184610123565b92915050565b5f604051905090565b5f80fd5b5f80fd5b5f80fd5b5f80fd5b5f601f19601f8301169050919050565b7f4e487b71000000000000000000000000000000000000000000000000000000005f52604160045260245ffd5b6101aa82610164565b810181811067ffffffffffffffff821117156101c9576101c8610174565b5b80604052505050565b5f6101db61014b565b90506101e782826101a1565b919050565b5f67ffffffffffffffff82111561020657610205610174565b5b61020f82610164565b9050602081019050919050565b828183375f83830152505050565b5f61023c610237846101ec565b6101d2565b90508281526020810184848401111561025857610257610160565b5b61026384828561021c565b509392505050565b5f82601f83011261027f5761027e61015c565b5b813561028f84826020860161022a565b91505092915050565b5f602082840312156102ad576102ac610154565b5b5f82013567ffffffffffffffff8111156102ca576102c9610158565b5b6102d68482850161026b565b91505092915050565b5f73ffffffffffffffffffffffffffffffffffffffff82169050919050565b5f610308826102df565b9050919050565b610318816102fe565b82525050565b5f6020820190506103315f83018461030f565b92915050565b610340816102fe565b811461034a575f80fd5b50565b5f8135905061035b81610337565b92915050565b61036a8161011a565b8114610374575f80fd5b50565b5f8135905061038581610361565b92915050565b5f805f80608085870312156103a3576103a2610154565b5b5f6103b08782880161034d565b94505060206103c187828801610377565b935050604085013567ffffffffffffffff8111156103e2576103e1610158565b5b6103ee8782880161026b565b92505060606103ff87828801610377565b91505092959194509250565b5f60408201905061041e5f830185610123565b61042b602083018461030f565b9392505050565b5f805f6060848603121561044957610448610154565b5b5f6104568682870161034d565b935050602061046786828701610377565b925050604061047886828701610377565b915050925092509256fea26469706673582212207a9857e4fd12f5e9b367aea8ff1176e9b58fe7e9f73204edf85900fb62d0b66464736f6c634300081a0033",
			"opcodes": "PUSH1 0x80 PUSH1 0x40 MSTORE CALLVALUE DUP1 ISZERO PUSH1 0xE JUMPI PUSH0 DUP1 REVERT JUMPDEST POP PUSH2 0x4B8 DUP1 PUSH2 0x1C PUSH0 CODECOPY PUSH0 RETURN INVALID PUSH1 0x80 PUSH1 0x40 MSTORE CALLVALUE DUP1 ISZERO PUSH2 0xF JUMPI PUSH0 DUP1 REVERT JUMPDEST POP PUSH1 0x4 CALLDATASIZE LT PUSH2 0x4A JUMPI PUSH0 CALLDATALOAD PUSH1 0xE0 SHR DUP1 PUSH4 0x86146D2 EQ PUSH2 0x4E JUMPI DUP1 PUSH4 0x44E6F28B EQ PUSH2 0x6C JUMPI DUP1 PUSH4 0x69C966A3 EQ PUSH2 0x9C JUMPI DUP1 PUSH4 0x7E0E00CF EQ PUSH2 0xCD JUMPI JUMPDEST PUSH0 DUP1 REVERT JUMPDEST PUSH2 0x56 PUSH2 0xFD JUMP JUMPDEST PUSH1 0x40 MLOAD PUSH2 0x63 SWAP2 SWAP1 PUSH2 0x132 JUMP JUMPDEST PUSH1 0x40 MLOAD DUP1 SWAP2 SUB SWAP1 RETURN JUMPDEST PUSH2 0x86 PUSH1 0x4 DUP1 CALLDATASIZE SUB DUP2 ADD SWAP1 PUSH2 0x81 SWAP2 SWAP1 PUSH2 0x298 JUMP JUMPDEST PUSH2 0x101 JUMP JUMPDEST PUSH1 0x40 MLOAD PUSH2 0x93 SWAP2 SWAP1 PUSH2 0x31E JUMP JUMPDEST PUSH1 0x40 MLOAD DUP1 SWAP2 SUB SWAP1 RETURN JUMPDEST PUSH2 0xB6 PUSH1 0x4 DUP1 CALLDATASIZE SUB DUP2 ADD SWAP1 PUSH2 0xB1 SWAP2 SWAP1 PUSH2 0x38B JUMP JUMPDEST PUSH2 0x107 JUMP JUMPDEST PUSH1 0x40 MLOAD PUSH2 0xC4 SWAP3 SWAP2 SWAP1 PUSH2 0x40B JUMP JUMPDEST PUSH1 0x40 MLOAD DUP1 SWAP2 SUB SWAP1 RETURN JUMPDEST PUSH2 0xE7 PUSH1 0x4 DUP1 CALLDATASIZE SUB DUP2 ADD SWAP1 PUSH2 0xE2 SWAP2 SWAP1 PUSH2 0x432 JUMP JUMPDEST PUSH2 0x112 JUMP JUMPDEST PUSH1 0x40 MLOAD PUSH2 0xF4 SWAP2 SWAP1 PUSH2 0x132 JUMP JUMPDEST PUSH1 0x40 MLOAD DUP1 SWAP2 SUB SWAP1 RETURN JUMPDEST PUSH0 SWAP1 JUMP JUMPDEST PUSH0 SWAP2 SWAP1 POP JUMP JUMPDEST PUSH0 DUP1 SWAP5 POP SWAP5 SWAP3 POP POP POP JUMP JUMPDEST PUSH0 SWAP4 SWAP3 POP POP POP JUMP JUMPDEST PUSH0 DUP2 SWAP1 POP SWAP2 SWAP1 POP JUMP JUMPDEST PUSH2 0x12C DUP2 PUSH2 0x11A JUMP JUMPDEST DUP3 MSTORE POP POP JUMP JUMPDEST PUSH0 PUSH1 0x20 DUP3 ADD SWAP1 POP PUSH2 0x145 PUSH0 DUP4 ADD DUP5 PUSH2 0x123 JUMP JUMPDEST SWAP3 SWAP2 POP POP JUMP JUMPDEST PUSH0 PUSH1 0x40 MLOAD SWAP1 POP SWAP1 JUMP JUMPDEST PUSH0 DUP1 REVERT JUMPDEST PUSH0 DUP1 REVERT JUMPDEST PUSH0 DUP1 REVERT JUMPDEST PUSH0 DUP1 REVERT JUMPDEST PUSH0 PUSH1 0x1F NOT PUSH1 0x1F DUP4 ADD AND SWAP1 POP SWAP2 SWAP1 POP JUMP JUMPDEST PUSH32 0x4E487B7100000000000000000000000000000000000000000000000000000000 PUSH0 MSTORE PUSH1 0x41 PUSH1 0x4 MSTORE PUSH1 0x24 PUSH0 REVERT JUMPDEST PUSH2 0x1AA DUP3 PUSH2 0x164 JUMP JUMPDEST DUP2 ADD DUP2 DUP2 LT PUSH8 0xFFFFFFFFFFFFFFFF DUP3 GT OR ISZERO PUSH2 0x1C9 JUMPI PUSH2 0x1C8 PUSH2 0x174 JUMP JUMPDEST JUMPDEST DUP1 PUSH1 0x40 MSTORE POP POP POP JUMP JUMPDEST PUSH0 PUSH2 0x1DB PUSH2 0x14B JUMP JUMPDEST SWAP1 POP PUSH2 0x1E7 DUP3 DUP3 PUSH2 0x1A1 JUMP JUMPDEST SWAP2 SWAP1 POP JUMP JUMPDEST PUSH0 PUSH8 0xFFFFFFFFFFFFFFFF DUP3 GT ISZERO PUSH2 0x206 JUMPI PUSH2 0x205 PUSH2 0x174 JUMP JUMPDEST JUMPDEST PUSH2 0x20F DUP3 PUSH2 0x164 JUMP JUMPDEST SWAP1 POP PUSH1 0x20 DUP2 ADD SWAP1 POP SWAP2 SWAP1 POP JUMP JUMPDEST DUP3 DUP2 DUP4 CALLDATACOPY PUSH0 DUP4 DUP4 ADD MSTORE POP POP POP JUMP JUMPDEST PUSH0 PUSH2 0x23C PUSH2 0x237 DUP5 PUSH2 0x1EC JUMP JUMPDEST PUSH2 0x1D2 JUMP JUMPDEST SWAP1 POP DUP3 DUP2 MSTORE PUSH1 0x20 DUP2 ADD DUP5 DUP5 DUP5 ADD GT ISZERO PUSH2 0x258 JUMPI PUSH2 0x257 PUSH2 0x160 JUMP JUMPDEST JUMPDEST PUSH2 0x263 DUP5 DUP3 DUP6 PUSH2 0x21C JUMP JUMPDEST POP SWAP4 SWAP3 POP POP POP JUMP JUMPDEST PUSH0 DUP3 PUSH1 0x1F DUP4 ADD SLT PUSH2 0x27F JUMPI PUSH2 0x27E PUSH2 0x15C JUMP JUMPDEST JUMPDEST DUP2 CALLDATALOAD PUSH2 0x28F DUP5 DUP3 PUSH1 0x20 DUP7 ADD PUSH2 0x22A JUMP JUMPDEST SWAP2 POP POP SWAP3 SWAP2 POP POP JUMP JUMPDEST PUSH0 PUSH1 0x20 DUP3 DUP5 SUB SLT ISZERO PUSH2 0x2AD JUMPI PUSH2 0x2AC PUSH2 0x154 JUMP JUMPDEST JUMPDEST PUSH0 DUP3 ADD CALLDATALOAD PUSH8 0xFFFFFFFFFFFFFFFF DUP2 GT ISZERO PUSH2 0x2CA JUMPI PUSH2 0x2C9 PUSH2 0x158 JUMP JUMPDEST JUMPDEST PUSH2 0x2D6 DUP5 DUP3 DUP6 ADD PUSH2 0x26B JUMP JUMPDEST SWAP2 POP POP SWAP3 SWAP2 POP POP JUMP JUMPDEST PUSH0 PUSH20 0xFFFFFFFFFFFFFFFFFFFFFFFFFFFFFFFFFFFFFFFF DUP3 AND SWAP1 POP SWAP2 SWAP1 POP JUMP JUMPDEST PUSH0 PUSH2 0x308 DUP3 PUSH2 0x2DF JUMP JUMPDEST SWAP1 POP SWAP2 SWAP1 POP JUMP JUMPDEST PUSH2 0x318 DUP2 PUSH2 0x2FE JUMP JUMPDEST DUP3 MSTORE POP POP JUMP JUMPDEST PUSH0 PUSH1 0x20 DUP3 ADD SWAP1 POP PUSH2 0x331 PUSH0 DUP4 ADD DUP5 PUSH2 0x30F JUMP JUMPDEST SWAP3 SWAP2 POP POP JUMP JUMPDEST PUSH2 0x340 DUP2 PUSH2 0x2FE JUMP JUMPDEST DUP2 EQ PUSH2 0x34A JUMPI PUSH0 DUP1 REVERT JUMPDEST POP JUMP JUMPDEST PUSH0 DUP2 CALLDATALOAD SWAP1 POP PUSH2 0x35B DUP2 PUSH2 0x337 JUMP JUMPDEST SWAP3 SWAP2 POP POP JUMP JUMPDEST PUSH2 0x36A DUP2 PUSH2 0x11A JUMP JUMPDEST DUP2 EQ PUSH2 0x374 JUMPI PUSH0 DUP1 REVERT JUMPDEST POP JUMP JUMPDEST PUSH0 DUP2 CALLDATALOAD SWAP1 POP PUSH2 0x385 DUP2 PUSH2 0x361 JUMP JUMPDEST SWAP3 SWAP2 POP POP JUMP JUMPDEST PUSH0 DUP1 PUSH0 DUP1 PUSH1 0x80 DUP6 DUP8 SUB SLT ISZERO PUSH2 0x3A3 JUMPI PUSH2 0x3A2 PUSH2 0x154 JUMP JUMPDEST JUMPDEST PUSH0 PUSH2 0x3B0 DUP8 DUP3 DUP9 ADD PUSH2 0x34D JUMP JUMPDEST SWAP5 POP POP PUSH1 0x20 PUSH2 0x3C1 DUP8 DUP3 DUP9 ADD PUSH2 0x377 JUMP JUMPDEST SWAP4 POP POP PUSH1 0x40 DUP6 ADD CALLDATALOAD PUSH8 0xFFFFFFFFFFFFFFFF DUP2 GT ISZERO PUSH2 0x3E2 JUMPI PUSH2 0x3E1 PUSH2 0x158 JUMP JUMPDEST JUMPDEST PUSH2 0x3EE DUP8 DUP3 DUP9 ADD PUSH2 0x26B JUMP JUMPDEST SWAP3 POP POP PUSH1 0x60 PUSH2 0x3FF DUP8 DUP3 DUP9 ADD PUSH2 0x377 JUMP JUMPDEST SWAP2 POP POP SWAP3 SWAP6 SWAP2 SWAP5 POP SWAP3 POP JUMP JUMPDEST PUSH0 PUSH1 0x40 DUP3 ADD SWAP1 POP PUSH2 0x41E PUSH0 DUP4 ADD DUP6 PUSH2 0x123 JUMP JUMPDEST PUSH2 0x42B PUSH1 0x20 DUP4 ADD DUP5 PUSH2 0x30F JUMP JUMPDEST SWAP4 SWAP3 POP POP POP JUMP JUMPDEST PUSH0 DUP1 PUSH0 PUSH1 0x60 DUP5 DUP7 SUB SLT ISZERO PUSH2 0x449 JUMPI PUSH2 0x448 PUSH2 0x154 JUMP JUMPDEST JUMPDEST PUSH0 PUSH2 0x456 DUP7 DUP3 DUP8 ADD PUSH2 0x34D JUMP JUMPDEST SWAP4 POP POP PUSH1 0x20 PUSH2 0x467 DUP7 DUP3 DUP8 ADD PUSH2 0x377 JUMP JUMPDEST SWAP3 POP POP PUSH1 0x40 PUSH2 0x478 DUP7 DUP3 DUP8 ADD PUSH2 0x377 JUMP JUMPDEST SWAP2 POP POP SWAP3 POP SWAP3 POP SWAP3 JUMP INVALID LOG2 PUSH5 0x6970667358 0x22 SLT KECCAK256 PUSH27 0x9857E4FD12F5E9B367AEA8FF1176E9B58FE7E9F73204EDF85900FB PUSH3 0xD0B664 PUSH5 0x736F6C6343 STOP ADDMOD BYTE STOP CALLER "
		},
		"gasEstimates": {
			"creation": {
				"codeDepositCost": "241600",
				"executionCost": "279",
				"totalCost": "241879"
			},
			"external": {
				"getAddressPeriodEndTotal(address,uint256,uint256)": "infinite",
				"getClaimableAmount(address,uint256,string,uint256)": "infinite",
				"getCurrentPeriod()": "302",
				"getSupportedTokens(string)": "infinite"
			}
		},
		"methodIdentifiers": {
			"getAddressPeriodEndTotal(address,uint256,uint256)": "7e0e00cf",
			"getClaimableAmount(address,uint256,string,uint256)": "69c966a3",
			"getCurrentPeriod()": "086146d2",
			"getSupportedTokens(string)": "44e6f28b"
		}
	},
	"abi": [
		{
			"inputs": [
				{
					"internalType": "address",
					"name": "staker_address",
					"type": "address"
				},
				{
					"internalType": "uint256",
					"name": "period",
					"type": "uint256"
				},
				{
					"internalType": "uint256",
					"name": "stakeID",
					"type": "uint256"
				}
			],
			"name": "getAddressPeriodEndTotal",
			"outputs": [
				{
					"internalType": "uint256",
					"name": "",
					"type": "uint256"
				}
			],
			"stateMutability": "view",
			"type": "function"
		},
		{
			"inputs": [
				{
					"internalType": "address",
					"name": "user",
					"type": "address"
				},
				{
					"internalType": "uint256",
					"name": "period",
					"type": "uint256"
				},
				{
					"internalType": "string",
					"name": "ticker",
					"type": "string"
				},
				{
					"internalType": "uint256",
					"name": "stakeID",
					"type": "uint256"
				}
			],
			"name": "getClaimableAmount",
			"outputs": [
				{
					"internalType": "uint256",
					"name": "",
					"type": "uint256"
				},
				{
					"internalType": "address",
					"name": "",
					"type": "address"
				}
			],
			"stateMutability": "view",
			"type": "function"
		},
		{
			"inputs": [],
			"name": "getCurrentPeriod",
			"outputs": [
				{
					"internalType": "uint256",
					"name": "",
					"type": "uint256"
				}
			],
			"stateMutability": "view",
			"type": "function"
		},
		{
			"inputs": [
				{
					"internalType": "string",
					"name": "ticker",
					"type": "string"
				}
			],
			"name": "getSupportedTokens",
			"outputs": [
				{
					"internalType": "address",
					"name": "",
					"type": "address"
				}
			],
			"stateMutability": "view",
			"type": "function"
		}
	]
}